{
	"contracts/contract-management.sol": {
		"ContractManagment": {
			"abi": [
				{
					"inputs": [
						{
							"internalType": "address",
							"name": "userAddress",
							"type": "address"
						}
					],
					"stateMutability": "nonpayable",
					"type": "constructor"
				},
				{
					"inputs": [
						{
							"internalType": "address",
							"name": "owner",
							"type": "address"
						}
					],
					"name": "OwnableInvalidOwner",
					"type": "error"
				},
				{
					"inputs": [
						{
							"internalType": "address",
							"name": "account",
							"type": "address"
						}
					],
					"name": "OwnableUnauthorizedAccount",
					"type": "error"
				},
				{
					"anonymous": false,
					"inputs": [
						{
							"indexed": false,
							"internalType": "string",
							"name": "logger",
							"type": "string"
						}
					],
					"name": "Logger",
					"type": "event"
				},
				{
					"anonymous": false,
					"inputs": [
						{
							"indexed": true,
							"internalType": "address",
							"name": "previousOwner",
							"type": "address"
						},
						{
							"indexed": true,
							"internalType": "address",
							"name": "newOwner",
							"type": "address"
						}
					],
					"name": "OwnershipTransferred",
					"type": "event"
				},
				{
					"anonymous": false,
					"inputs": [
						{
							"indexed": true,
							"internalType": "address",
							"name": "sender",
							"type": "address"
						},
						{
							"indexed": false,
							"internalType": "uint256",
							"name": "amount",
							"type": "uint256"
						}
					],
					"name": "Received",
					"type": "event"
				},
				{
					"anonymous": false,
					"inputs": [
						{
							"indexed": false,
							"internalType": "address",
							"name": "userAddress",
							"type": "address"
						},
						{
							"indexed": false,
							"internalType": "uint256",
							"name": "contractId",
							"type": "uint256"
						}
					],
					"name": "contractExecuted",
					"type": "event"
				},
				{
					"anonymous": false,
					"inputs": [
						{
							"indexed": false,
							"internalType": "address",
							"name": "userAddress",
							"type": "address"
						},
						{
							"indexed": false,
							"internalType": "uint256",
							"name": "contractId",
							"type": "uint256"
						}
					],
					"name": "contractorAdded",
					"type": "event"
				},
				{
					"anonymous": false,
					"inputs": [
						{
							"indexed": false,
							"internalType": "address",
							"name": "userAddress",
							"type": "address"
						}
					],
					"name": "contractorClosed",
					"type": "event"
				},
				{
					"anonymous": false,
					"inputs": [
						{
							"indexed": false,
							"internalType": "address",
							"name": "userAddress",
							"type": "address"
						},
						{
							"indexed": false,
							"internalType": "uint256",
							"name": "contractId",
							"type": "uint256"
						}
					],
					"name": "contractorRegistered",
					"type": "event"
				},
				{
					"anonymous": false,
					"inputs": [
						{
							"indexed": false,
							"internalType": "address",
							"name": "userAddress",
							"type": "address"
						}
					],
					"name": "contractorSealed",
					"type": "event"
				},
				{
					"anonymous": false,
					"inputs": [
						{
							"indexed": false,
							"internalType": "string",
							"name": "name",
							"type": "string"
						},
						{
							"indexed": false,
							"internalType": "uint256",
							"name": "contractId",
							"type": "uint256"
						}
					],
					"name": "newContractCreated",
					"type": "event"
				},
				{
					"inputs": [
						{
							"internalType": "uint256",
							"name": "_contractId",
							"type": "uint256"
						},
						{
							"internalType": "enum ContractManagment.VoteType",
							"name": "_voteType",
							"type": "uint8"
						}
					],
					"name": "castVote",
					"outputs": [],
					"stateMutability": "nonpayable",
					"type": "function"
				},
				{
					"inputs": [
						{
							"internalType": "string",
							"name": "_name",
							"type": "string"
						},
						{
							"internalType": "string",
							"name": "_terms",
							"type": "string"
						},
						{
							"internalType": "address",
							"name": "_payableUserAddress",
							"type": "address"
						},
						{
							"internalType": "address[]",
							"name": "participants",
							"type": "address[]"
						},
						{
							"internalType": "string",
							"name": "_organizationId",
							"type": "string"
						},
						{
							"internalType": "enum Contracts.ContractType",
							"name": "_contractType",
							"type": "uint8"
						},
						{
							"internalType": "uint256",
							"name": "amount",
							"type": "uint256"
						}
					],
					"name": "createContract",
					"outputs": [
						{
							"internalType": "uint256",
							"name": "",
							"type": "uint256"
						}
					],
					"stateMutability": "nonpayable",
					"type": "function"
				},
				{
					"inputs": [
						{
							"internalType": "uint256",
							"name": "_contractId",
							"type": "uint256"
						}
					],
					"name": "getContract",
					"outputs": [
						{
							"components": [
								{
									"internalType": "string",
									"name": "name",
									"type": "string"
								},
								{
									"internalType": "string",
									"name": "terms",
									"type": "string"
								},
								{
									"internalType": "enum Contracts.ContractState",
									"name": "contractState",
									"type": "uint8"
								},
								{
									"internalType": "enum Contracts.ContractType",
									"name": "contractType",
									"type": "uint8"
								},
								{
									"internalType": "uint32",
									"name": "numberOfParticipants",
									"type": "uint32"
								},
								{
									"internalType": "uint32",
									"name": "forVotes",
									"type": "uint32"
								},
								{
									"internalType": "uint32",
									"name": "againstVotes",
									"type": "uint32"
								},
								{
									"internalType": "uint256",
									"name": "amount",
									"type": "uint256"
								},
								{
									"internalType": "address",
									"name": "payableUserAddress",
									"type": "address"
								},
								{
									"internalType": "address",
									"name": "payeeAddress",
									"type": "address"
								},
								{
									"internalType": "bool",
									"name": "hasPaidToContractAdmin",
									"type": "bool"
								}
							],
							"internalType": "struct Contracts.Contract",
							"name": "",
							"type": "tuple"
						}
					],
					"stateMutability": "view",
					"type": "function"
				},
				{
					"inputs": [],
					"name": "getMyAssignedContracts",
					"outputs": [
						{
							"components": [
								{
									"internalType": "string",
									"name": "name",
									"type": "string"
								},
								{
									"internalType": "string",
									"name": "terms",
									"type": "string"
								},
								{
									"internalType": "enum Contracts.ContractState",
									"name": "contractState",
									"type": "uint8"
								},
								{
									"internalType": "enum Contracts.ContractType",
									"name": "contractType",
									"type": "uint8"
								},
								{
									"internalType": "uint32",
									"name": "numberOfParticipants",
									"type": "uint32"
								},
								{
									"internalType": "uint32",
									"name": "forVotes",
									"type": "uint32"
								},
								{
									"internalType": "uint32",
									"name": "againstVotes",
									"type": "uint32"
								},
								{
									"internalType": "uint256",
									"name": "amount",
									"type": "uint256"
								},
								{
									"internalType": "address",
									"name": "payableUserAddress",
									"type": "address"
								},
								{
									"internalType": "address",
									"name": "payeeAddress",
									"type": "address"
								},
								{
									"internalType": "bool",
									"name": "hasPaidToContractAdmin",
									"type": "bool"
								}
							],
							"internalType": "struct Contracts.Contract[]",
							"name": "",
							"type": "tuple[]"
						}
					],
					"stateMutability": "view",
					"type": "function"
				},
				{
					"inputs": [
						{
							"internalType": "string",
							"name": "_orgId",
							"type": "string"
						}
					],
					"name": "getMyOrgContracts",
					"outputs": [
						{
							"components": [
								{
									"internalType": "string",
									"name": "name",
									"type": "string"
								},
								{
									"internalType": "string",
									"name": "terms",
									"type": "string"
								},
								{
									"internalType": "enum Contracts.ContractState",
									"name": "contractState",
									"type": "uint8"
								},
								{
									"internalType": "enum Contracts.ContractType",
									"name": "contractType",
									"type": "uint8"
								},
								{
									"internalType": "uint32",
									"name": "numberOfParticipants",
									"type": "uint32"
								},
								{
									"internalType": "uint32",
									"name": "forVotes",
									"type": "uint32"
								},
								{
									"internalType": "uint32",
									"name": "againstVotes",
									"type": "uint32"
								},
								{
									"internalType": "uint256",
									"name": "amount",
									"type": "uint256"
								},
								{
									"internalType": "address",
									"name": "payableUserAddress",
									"type": "address"
								},
								{
									"internalType": "address",
									"name": "payeeAddress",
									"type": "address"
								},
								{
									"internalType": "bool",
									"name": "hasPaidToContractAdmin",
									"type": "bool"
								}
							],
							"internalType": "struct Contracts.Contract[]",
							"name": "",
							"type": "tuple[]"
						}
					],
					"stateMutability": "view",
					"type": "function"
				},
				{
					"inputs": [],
					"name": "getTotalAmount",
					"outputs": [
						{
							"internalType": "uint256",
							"name": "",
							"type": "uint256"
						}
					],
					"stateMutability": "view",
					"type": "function"
				},
				{
					"inputs": [
						{
							"internalType": "address",
							"name": "_to",
							"type": "address"
						},
						{
							"internalType": "uint256",
							"name": "_amount",
							"type": "uint256"
						}
					],
					"name": "makePayment",
					"outputs": [],
					"stateMutability": "payable",
					"type": "function"
				},
				{
					"inputs": [],
					"name": "owner",
					"outputs": [
						{
							"internalType": "address",
							"name": "",
							"type": "address"
						}
					],
					"stateMutability": "view",
					"type": "function"
				},
				{
					"inputs": [
						{
							"internalType": "address",
							"name": "_payeeAddress",
							"type": "address"
						},
						{
							"internalType": "uint256",
							"name": "_contractId",
							"type": "uint256"
						}
					],
					"name": "payToContractAdmin",
					"outputs": [],
					"stateMutability": "payable",
					"type": "function"
				},
				{
					"inputs": [],
					"name": "renounceOwnership",
					"outputs": [],
					"stateMutability": "nonpayable",
					"type": "function"
				},
				{
					"inputs": [
						{
							"internalType": "uint256",
							"name": "_contractId",
							"type": "uint256"
						}
					],
					"name": "sealContract",
					"outputs": [
						{
							"internalType": "bool",
							"name": "",
							"type": "bool"
						}
					],
					"stateMutability": "nonpayable",
					"type": "function"
				},
				{
					"inputs": [
						{
							"internalType": "address",
							"name": "newOwner",
							"type": "address"
						}
					],
					"name": "transferOwnership",
					"outputs": [],
					"stateMutability": "nonpayable",
					"type": "function"
				},
				{
					"inputs": [
						{
							"internalType": "uint256",
							"name": "_contractId",
							"type": "uint256"
						}
					],
					"name": "updateContractStatus",
					"outputs": [
						{
							"internalType": "bool",
							"name": "",
							"type": "bool"
						}
					],
					"stateMutability": "payable",
					"type": "function"
				},
				{
					"stateMutability": "payable",
					"type": "receive"
				}
			],
			"devdoc": {
				"errors": {
					"OwnableInvalidOwner(address)": [
						{
							"details": "The owner is not a valid owner account. (eg. `address(0)`)"
						}
					],
					"OwnableUnauthorizedAccount(address)": [
						{
							"details": "The caller account is not authorized to perform an operation."
						}
					]
				},
				"kind": "dev",
				"methods": {
					"owner()": {
						"details": "Returns the address of the current owner."
					},
					"renounceOwnership()": {
						"details": "Leaves the contract without owner. It will not be possible to call `onlyOwner` functions. Can only be called by the current owner. NOTE: Renouncing ownership will leave the contract without an owner, thereby disabling any functionality that is only available to the owner."
					},
					"transferOwnership(address)": {
						"details": "Transfers ownership of the contract to a new account (`newOwner`). Can only be called by the current owner."
					}
				},
				"version": 1
			},
			"evm": {
				"assembly": "    /* \"contracts/contract-management.sol\":98:4886  contract ContractManagment is Contracts {... */\n  mstore(0x40, 0x80)\n    /* \"contracts/contracts.sol\":216:217  0 */\n  0x00\n    /* \"contracts/contracts.sol\":197:217  uint totalAmount = 0 */\n  0x02\n  sstore\n    /* \"contracts/contract-management.sol\":147:211  constructor(address userAddress) Contracts(userAddress) {... */\n  callvalue\n  dup1\n  iszero\n  tag_1\n  jumpi\n  0x00\n  dup1\n  revert\ntag_1:\n  pop\n  mload(0x40)\n  sub(codesize, bytecodeSize)\n  dup1\n  bytecodeSize\n  dup4\n  codecopy\n  dup2\n  dup2\n  add\n  0x40\n  mstore\n  dup2\n  add\n  swap1\n  tag_2\n  swap2\n  swap1\n  tag_3\n  jump\t// in\ntag_2:\n    /* \"contracts/contract-management.sol\":190:201  userAddress */\n  dup1\n    /* \"contracts/contracts.sol\":1080:1093  _ownerAddress */\n  dup1\n    /* \"@openzeppelin/contracts/access/Ownable.sol\":1297:1298  0 */\n  0x00\n    /* \"@openzeppelin/contracts/access/Ownable.sol\":1273:1299  initialOwner == address(0) */\n  0xffffffffffffffffffffffffffffffffffffffff\n  and\n    /* \"@openzeppelin/contracts/access/Ownable.sol\":1273:1285  initialOwner */\n  dup2\n    /* \"@openzeppelin/contracts/access/Ownable.sol\":1273:1299  initialOwner == address(0) */\n  0xffffffffffffffffffffffffffffffffffffffff\n  and\n  sub\n    /* \"@openzeppelin/contracts/access/Ownable.sol\":1269:1364  if (initialOwner == address(0)) {... */\n  tag_8\n  jumpi\n    /* \"@openzeppelin/contracts/access/Ownable.sol\":1350:1351  0 */\n  0x00\n    /* \"@openzeppelin/contracts/access/Ownable.sol\":1322:1353  OwnableInvalidOwner(address(0)) */\n  mload(0x40)\n  0x1e4fbdf700000000000000000000000000000000000000000000000000000000\n  dup2\n  mstore\n  0x04\n  add\n  tag_9\n  swap2\n  swap1\n  tag_10\n  jump\t// in\ntag_9:\n  mload(0x40)\n  dup1\n  swap2\n  sub\n  swap1\n  revert\n    /* \"@openzeppelin/contracts/access/Ownable.sol\":1269:1364  if (initialOwner == address(0)) {... */\ntag_8:\n    /* \"@openzeppelin/contracts/access/Ownable.sol\":1373:1405  _transferOwnership(initialOwner) */\n  tag_11\n    /* \"@openzeppelin/contracts/access/Ownable.sol\":1392:1404  initialOwner */\n  dup2\n    /* \"@openzeppelin/contracts/access/Ownable.sol\":1373:1391  _transferOwnership */\n  shl(0x20, tag_12)\n    /* \"@openzeppelin/contracts/access/Ownable.sol\":1373:1405  _transferOwnership(initialOwner) */\n  0x20\n  shr\n  jump\t// in\ntag_11:\n    /* \"@openzeppelin/contracts/access/Ownable.sol\":1225:1412  constructor(address initialOwner) {... */\n  pop\n    /* \"contracts/contracts.sol\":1129:1139  msg.sender */\n  caller\n    /* \"contracts/contracts.sol\":1106:1118  ownerAddress */\n  0x01\n  0x00\n    /* \"contracts/contracts.sol\":1106:1140  ownerAddress = payable(msg.sender) */\n  0x0100\n  exp\n  dup2\n  sload\n  dup2\n  0xffffffffffffffffffffffffffffffffffffffff\n  mul\n  not\n  and\n  swap1\n  dup4\n  0xffffffffffffffffffffffffffffffffffffffff\n  and\n  mul\n  or\n  swap1\n  sstore\n  pop\n    /* \"contracts/contracts.sol\":1037:1148  constructor(address _ownerAddress) Ownable(_ownerAddress) {... */\n  pop\n    /* \"contracts/contract-management.sol\":147:211  constructor(address userAddress) Contracts(userAddress) {... */\n  pop\n    /* \"contracts/contract-management.sol\":98:4886  contract ContractManagment is Contracts {... */\n  jump(tag_15)\n    /* \"@openzeppelin/contracts/access/Ownable.sol\":2912:3099  function _transferOwnership(address newOwner) internal virtual {... */\ntag_12:\n    /* \"@openzeppelin/contracts/access/Ownable.sol\":2985:3001  address oldOwner */\n  0x00\n    /* \"@openzeppelin/contracts/access/Ownable.sol\":3004:3010  _owner */\n  dup1\n  0x00\n  swap1\n  sload\n  swap1\n  0x0100\n  exp\n  swap1\n  div\n  0xffffffffffffffffffffffffffffffffffffffff\n  and\n    /* \"@openzeppelin/contracts/access/Ownable.sol\":2985:3010  address oldOwner = _owner */\n  swap1\n  pop\n    /* \"@openzeppelin/contracts/access/Ownable.sol\":3029:3037  newOwner */\n  dup2\n    /* \"@openzeppelin/contracts/access/Ownable.sol\":3020:3026  _owner */\n  0x00\n  dup1\n    /* \"@openzeppelin/contracts/access/Ownable.sol\":3020:3037  _owner = newOwner */\n  0x0100\n  exp\n  dup2\n  sload\n  dup2\n  0xffffffffffffffffffffffffffffffffffffffff\n  mul\n  not\n  and\n  swap1\n  dup4\n  0xffffffffffffffffffffffffffffffffffffffff\n  and\n  mul\n  or\n  swap1\n  sstore\n  pop\n    /* \"@openzeppelin/contracts/access/Ownable.sol\":3083:3091  newOwner */\n  dup2\n    /* \"@openzeppelin/contracts/access/Ownable.sol\":3052:3092  OwnershipTransferred(oldOwner, newOwner) */\n  0xffffffffffffffffffffffffffffffffffffffff\n  and\n    /* \"@openzeppelin/contracts/access/Ownable.sol\":3073:3081  oldOwner */\n  dup2\n    /* \"@openzeppelin/contracts/access/Ownable.sol\":3052:3092  OwnershipTransferred(oldOwner, newOwner) */\n  0xffffffffffffffffffffffffffffffffffffffff\n  and\n  0x8be0079c531659141344cd1fd0a4f28419497f9722a3daafe3b4186f6b6457e0\n  mload(0x40)\n  mload(0x40)\n  dup1\n  swap2\n  sub\n  swap1\n  log3\n    /* \"@openzeppelin/contracts/access/Ownable.sol\":2975:3099  {... */\n  pop\n    /* \"@openzeppelin/contracts/access/Ownable.sol\":2912:3099  function _transferOwnership(address newOwner) internal virtual {... */\n  pop\n  jump\t// out\n    /* \"#utility.yul\":88:205   */\ntag_18:\n    /* \"#utility.yul\":197:198   */\n  0x00\n    /* \"#utility.yul\":194:195   */\n  dup1\n    /* \"#utility.yul\":187:199   */\n  revert\n    /* \"#utility.yul\":334:460   */\ntag_20:\n    /* \"#utility.yul\":371:378   */\n  0x00\n    /* \"#utility.yul\":411:453   */\n  0xffffffffffffffffffffffffffffffffffffffff\n    /* \"#utility.yul\":404:409   */\n  dup3\n    /* \"#utility.yul\":400:454   */\n  and\n    /* \"#utility.yul\":389:454   */\n  swap1\n  pop\n    /* \"#utility.yul\":334:460   */\n  swap2\n  swap1\n  pop\n  jump\t// out\n    /* \"#utility.yul\":466:562   */\ntag_21:\n    /* \"#utility.yul\":503:510   */\n  0x00\n    /* \"#utility.yul\":532:556   */\n  tag_31\n    /* \"#utility.yul\":550:555   */\n  dup3\n    /* \"#utility.yul\":532:556   */\n  tag_20\n  jump\t// in\ntag_31:\n    /* \"#utility.yul\":521:556   */\n  swap1\n  pop\n    /* \"#utility.yul\":466:562   */\n  swap2\n  swap1\n  pop\n  jump\t// out\n    /* \"#utility.yul\":568:690   */\ntag_22:\n    /* \"#utility.yul\":641:665   */\n  tag_33\n    /* \"#utility.yul\":659:664   */\n  dup2\n    /* \"#utility.yul\":641:665   */\n  tag_21\n  jump\t// in\ntag_33:\n    /* \"#utility.yul\":634:639   */\n  dup2\n    /* \"#utility.yul\":631:666   */\n  eq\n    /* \"#utility.yul\":621:684   */\n  tag_34\n  jumpi\n    /* \"#utility.yul\":680:681   */\n  0x00\n    /* \"#utility.yul\":677:678   */\n  dup1\n    /* \"#utility.yul\":670:682   */\n  revert\n    /* \"#utility.yul\":621:684   */\ntag_34:\n    /* \"#utility.yul\":568:690   */\n  pop\n  jump\t// out\n    /* \"#utility.yul\":696:839   */\ntag_23:\n    /* \"#utility.yul\":753:758   */\n  0x00\n    /* \"#utility.yul\":784:790   */\n  dup2\n    /* \"#utility.yul\":778:791   */\n  mload\n    /* \"#utility.yul\":769:791   */\n  swap1\n  pop\n    /* \"#utility.yul\":800:833   */\n  tag_36\n    /* \"#utility.yul\":827:832   */\n  dup2\n    /* \"#utility.yul\":800:833   */\n  tag_22\n  jump\t// in\ntag_36:\n    /* \"#utility.yul\":696:839   */\n  swap3\n  swap2\n  pop\n  pop\n  jump\t// out\n    /* \"#utility.yul\":845:1196   */\ntag_3:\n    /* \"#utility.yul\":915:921   */\n  0x00\n    /* \"#utility.yul\":964:966   */\n  0x20\n    /* \"#utility.yul\":952:961   */\n  dup3\n    /* \"#utility.yul\":943:950   */\n  dup5\n    /* \"#utility.yul\":939:962   */\n  sub\n    /* \"#utility.yul\":935:967   */\n  slt\n    /* \"#utility.yul\":932:1051   */\n  iszero\n  tag_38\n  jumpi\n    /* \"#utility.yul\":970:1049   */\n  tag_39\n  tag_18\n  jump\t// in\ntag_39:\n    /* \"#utility.yul\":932:1051   */\ntag_38:\n    /* \"#utility.yul\":1090:1091   */\n  0x00\n    /* \"#utility.yul\":1115:1179   */\n  tag_40\n    /* \"#utility.yul\":1171:1178   */\n  dup5\n    /* \"#utility.yul\":1162:1168   */\n  dup3\n    /* \"#utility.yul\":1151:1160   */\n  dup6\n    /* \"#utility.yul\":1147:1169   */\n  add\n    /* \"#utility.yul\":1115:1179   */\n  tag_23\n  jump\t// in\ntag_40:\n    /* \"#utility.yul\":1105:1179   */\n  swap2\n  pop\n    /* \"#utility.yul\":1061:1189   */\n  pop\n    /* \"#utility.yul\":845:1196   */\n  swap3\n  swap2\n  pop\n  pop\n  jump\t// out\n    /* \"#utility.yul\":1202:1320   */\ntag_24:\n    /* \"#utility.yul\":1289:1313   */\n  tag_42\n    /* \"#utility.yul\":1307:1312   */\n  dup2\n    /* \"#utility.yul\":1289:1313   */\n  tag_21\n  jump\t// in\ntag_42:\n    /* \"#utility.yul\":1284:1287   */\n  dup3\n    /* \"#utility.yul\":1277:1314   */\n  mstore\n    /* \"#utility.yul\":1202:1320   */\n  pop\n  pop\n  jump\t// out\n    /* \"#utility.yul\":1326:1548   */\ntag_10:\n    /* \"#utility.yul\":1419:1423   */\n  0x00\n    /* \"#utility.yul\":1457:1459   */\n  0x20\n    /* \"#utility.yul\":1446:1455   */\n  dup3\n    /* \"#utility.yul\":1442:1460   */\n  add\n    /* \"#utility.yul\":1434:1460   */\n  swap1\n  pop\n    /* \"#utility.yul\":1470:1541   */\n  tag_44\n    /* \"#utility.yul\":1538:1539   */\n  0x00\n    /* \"#utility.yul\":1527:1536   */\n  dup4\n    /* \"#utility.yul\":1523:1540   */\n  add\n    /* \"#utility.yul\":1514:1520   */\n  dup5\n    /* \"#utility.yul\":1470:1541   */\n  tag_24\n  jump\t// in\ntag_44:\n    /* \"#utility.yul\":1326:1548   */\n  swap3\n  swap2\n  pop\n  pop\n  jump\t// out\n    /* \"contracts/contract-management.sol\":98:4886  contract ContractManagment is Contracts {... */\ntag_15:\n  dataSize(sub_0)\n  dup1\n  dataOffset(sub_0)\n  0x00\n  codecopy\n  0x00\n  return\nstop\n\nsub_0: assembly {\n        /* \"contracts/contract-management.sol\":98:4886  contract ContractManagment is Contracts {... */\n      mstore(0x40, 0x80)\n      jumpi(tag_1, lt(calldatasize, 0x04))\n      shr(0xe0, calldataload(0x00))\n      dup1\n      0x715018a6\n      gt\n      tag_16\n      jumpi\n      dup1\n      0x998aa465\n      gt\n      tag_17\n      jumpi\n      dup1\n      0x998aa465\n      eq\n      tag_12\n      jumpi\n      dup1\n      0xcbfa1a70\n      eq\n      tag_13\n      jumpi\n      dup1\n      0xf2fde38b\n      eq\n      tag_14\n      jumpi\n      dup1\n      0xf98cf07c\n      eq\n      tag_15\n      jumpi\n      jump(tag_2)\n    tag_17:\n      dup1\n      0x715018a6\n      eq\n      tag_9\n      jumpi\n      dup1\n      0x8b50d8c6\n      eq\n      tag_10\n      jumpi\n      dup1\n      0x8da5cb5b\n      eq\n      tag_11\n      jumpi\n      jump(tag_2)\n    tag_16:\n      dup1\n      0x2f144bcd\n      eq\n      tag_3\n      jumpi\n      dup1\n      0x56781388\n      eq\n      tag_4\n      jumpi\n      dup1\n      0x65ac4341\n      eq\n      tag_5\n      jumpi\n      dup1\n      0x67c7b5d6\n      eq\n      tag_6\n      jumpi\n      dup1\n      0x6d3fff27\n      eq\n      tag_7\n      jumpi\n      dup1\n      0x6ebc8c86\n      eq\n      tag_8\n      jumpi\n      jump(tag_2)\n    tag_1:\n      jumpi(tag_2, calldatasize)\n        /* \"contracts/contracts.sol\":1318:1327  msg.value */\n      callvalue\n        /* \"contracts/contracts.sol\":1303:1314  totalAmount */\n      0x02\n      0x00\n        /* \"contracts/contracts.sol\":1303:1327  totalAmount += msg.value */\n      dup3\n      dup3\n      sload\n      tag_20\n      swap2\n      swap1\n      tag_21\n      jump\t// in\n    tag_20:\n      swap3\n      pop\n      pop\n      dup2\n      swap1\n      sstore\n      pop\n        /* \"contracts/contracts.sol\":1352:1362  msg.sender */\n      caller\n        /* \"contracts/contracts.sol\":1343:1374  Received(msg.sender, msg.value) */\n      0xffffffffffffffffffffffffffffffffffffffff\n      and\n      0x88a5966d370b9919b20f3e2c13ff65706f196a4e32cc2c12bf57088f88525874\n        /* \"contracts/contracts.sol\":1364:1373  msg.value */\n      callvalue\n        /* \"contracts/contracts.sol\":1343:1374  Received(msg.sender, msg.value) */\n      mload(0x40)\n      tag_22\n      swap2\n      swap1\n      tag_23\n      jump\t// in\n    tag_22:\n      mload(0x40)\n      dup1\n      swap2\n      sub\n      swap1\n      log2\n        /* \"contracts/contract-management.sol\":98:4886  contract ContractManagment is Contracts {... */\n      stop\n    tag_2:\n      0x00\n      dup1\n      revert\n        /* \"contracts/contract-management.sol\":658:1935  function createContract(... */\n    tag_3:\n      callvalue\n      dup1\n      iszero\n      tag_24\n      jumpi\n      0x00\n      dup1\n      revert\n    tag_24:\n      pop\n      tag_25\n      0x04\n      dup1\n      calldatasize\n      sub\n      dup2\n      add\n      swap1\n      tag_26\n      swap2\n      swap1\n      tag_27\n      jump\t// in\n    tag_26:\n      tag_28\n      jump\t// in\n    tag_25:\n      mload(0x40)\n      tag_29\n      swap2\n      swap1\n      tag_23\n      jump\t// in\n    tag_29:\n      mload(0x40)\n      dup1\n      swap2\n      sub\n      swap1\n      return\n        /* \"contracts/contract-management.sol\":3435:3933  function castVote(uint _contractId, VoteType _voteType) external  {... */\n    tag_4:\n      callvalue\n      dup1\n      iszero\n      tag_30\n      jumpi\n      0x00\n      dup1\n      revert\n    tag_30:\n      pop\n      tag_31\n      0x04\n      dup1\n      calldatasize\n      sub\n      dup2\n      add\n      swap1\n      tag_32\n      swap2\n      swap1\n      tag_33\n      jump\t// in\n    tag_32:\n      tag_34\n      jump\t// in\n    tag_31:\n      stop\n        /* \"contracts/contracts.sol\":1156:1257  function getTotalAmount() external view onlyOwner returns (uint){... */\n    tag_5:\n      callvalue\n      dup1\n      iszero\n      tag_35\n      jumpi\n      0x00\n      dup1\n      revert\n    tag_35:\n      pop\n      tag_36\n      tag_37\n      jump\t// in\n    tag_36:\n      mload(0x40)\n      tag_38\n      swap2\n      swap1\n      tag_23\n      jump\t// in\n    tag_38:\n      mload(0x40)\n      dup1\n      swap2\n      sub\n      swap1\n      return\n        /* \"contracts/contract-management.sol\":2426:2855  function getMyOrgContracts(string memory _orgId)... */\n    tag_6:\n      callvalue\n      dup1\n      iszero\n      tag_39\n      jumpi\n      0x00\n      dup1\n      revert\n    tag_39:\n      pop\n      tag_40\n      0x04\n      dup1\n      calldatasize\n      sub\n      dup2\n      add\n      swap1\n      tag_41\n      swap2\n      swap1\n      tag_42\n      jump\t// in\n    tag_41:\n      tag_43\n      jump\t// in\n    tag_40:\n      mload(0x40)\n      tag_44\n      swap2\n      swap1\n      tag_45\n      jump\t// in\n    tag_44:\n      mload(0x40)\n      dup1\n      swap2\n      sub\n      swap1\n      return\n        /* \"contracts/contract-management.sol\":2863:3287  function getMyAssignedContracts()... */\n    tag_7:\n      callvalue\n      dup1\n      iszero\n      tag_46\n      jumpi\n      0x00\n      dup1\n      revert\n    tag_46:\n      pop\n      tag_47\n      tag_48\n      jump\t// in\n    tag_47:\n      mload(0x40)\n      tag_49\n      swap2\n      swap1\n      tag_45\n      jump\t// in\n    tag_49:\n      mload(0x40)\n      dup1\n      swap2\n      sub\n      swap1\n      return\n        /* \"contracts/contract-management.sol\":3295:3427  function getContract(uint256 _contractId) external view returns (Contract memory) {... */\n    tag_8:\n      callvalue\n      dup1\n      iszero\n      tag_50\n      jumpi\n      0x00\n      dup1\n      revert\n    tag_50:\n      pop\n      tag_51\n      0x04\n      dup1\n      calldatasize\n      sub\n      dup2\n      add\n      swap1\n      tag_52\n      swap2\n      swap1\n      tag_53\n      jump\t// in\n    tag_52:\n      tag_54\n      jump\t// in\n    tag_51:\n      mload(0x40)\n      tag_55\n      swap2\n      swap1\n      tag_56\n      jump\t// in\n    tag_55:\n      mload(0x40)\n      dup1\n      swap2\n      sub\n      swap1\n      return\n        /* \"@openzeppelin/contracts/access/Ownable.sol\":2293:2394  function renounceOwnership() public virtual onlyOwner {... */\n    tag_9:\n      callvalue\n      dup1\n      iszero\n      tag_57\n      jumpi\n      0x00\n      dup1\n      revert\n    tag_57:\n      pop\n      tag_58\n      tag_59\n      jump\t// in\n    tag_58:\n      stop\n        /* \"contracts/contract-management.sol\":1943:2418  function sealContract(uint256 _contractId) external returns (bool) {... */\n    tag_10:\n      callvalue\n      dup1\n      iszero\n      tag_60\n      jumpi\n      0x00\n      dup1\n      revert\n    tag_60:\n      pop\n      tag_61\n      0x04\n      dup1\n      calldatasize\n      sub\n      dup2\n      add\n      swap1\n      tag_62\n      swap2\n      swap1\n      tag_53\n      jump\t// in\n    tag_62:\n      tag_63\n      jump\t// in\n    tag_61:\n      mload(0x40)\n      tag_64\n      swap2\n      swap1\n      tag_65\n      jump\t// in\n    tag_64:\n      mload(0x40)\n      dup1\n      swap2\n      sub\n      swap1\n      return\n        /* \"@openzeppelin/contracts/access/Ownable.sol\":1638:1723  function owner() public view virtual returns (address) {... */\n    tag_11:\n      callvalue\n      dup1\n      iszero\n      tag_66\n      jumpi\n      0x00\n      dup1\n      revert\n    tag_66:\n      pop\n      tag_67\n      tag_68\n      jump\t// in\n    tag_67:\n      mload(0x40)\n      tag_69\n      swap2\n      swap1\n      tag_70\n      jump\t// in\n    tag_69:\n      mload(0x40)\n      dup1\n      swap2\n      sub\n      swap1\n      return\n        /* \"contracts/contracts.sol\":1858:2034  function updateContractStatus(uint256 _contractId) public payable returns (bool){ ... */\n    tag_12:\n      tag_71\n      0x04\n      dup1\n      calldatasize\n      sub\n      dup2\n      add\n      swap1\n      tag_72\n      swap2\n      swap1\n      tag_53\n      jump\t// in\n    tag_72:\n      tag_73\n      jump\t// in\n    tag_71:\n      mload(0x40)\n      tag_74\n      swap2\n      swap1\n      tag_65\n      jump\t// in\n    tag_74:\n      mload(0x40)\n      dup1\n      swap2\n      sub\n      swap1\n      return\n        /* \"contracts/contracts.sol\":1390:1850  function payToContractAdmin(address _payeeAddress, uint256 _contractId) external payable {... */\n    tag_13:\n      tag_75\n      0x04\n      dup1\n      calldatasize\n      sub\n      dup2\n      add\n      swap1\n      tag_76\n      swap2\n      swap1\n      tag_77\n      jump\t// in\n    tag_76:\n      tag_78\n      jump\t// in\n    tag_75:\n      stop\n        /* \"@openzeppelin/contracts/access/Ownable.sol\":2543:2758  function transferOwnership(address newOwner) public virtual onlyOwner {... */\n    tag_14:\n      callvalue\n      dup1\n      iszero\n      tag_79\n      jumpi\n      0x00\n      dup1\n      revert\n    tag_79:\n      pop\n      tag_80\n      0x04\n      dup1\n      calldatasize\n      sub\n      dup2\n      add\n      swap1\n      tag_81\n      swap2\n      swap1\n      tag_82\n      jump\t// in\n    tag_81:\n      tag_83\n      jump\t// in\n    tag_80:\n      stop\n        /* \"contracts/contract-management.sol\":4570:4883  function makePayment(address _to, uint256 _amount) public payable {... */\n    tag_15:\n      tag_84\n      0x04\n      dup1\n      calldatasize\n      sub\n      dup2\n      add\n      swap1\n      tag_85\n      swap2\n      swap1\n      tag_77\n      jump\t// in\n    tag_85:\n      tag_86\n      jump\t// in\n    tag_84:\n      stop\n        /* \"contracts/contract-management.sol\":658:1935  function createContract(... */\n    tag_28:\n        /* \"contracts/contract-management.sol\":948:955  uint256 */\n      0x00\n        /* \"contracts/contract-management.sol\":1017:1018  0 */\n      dup1\n        /* \"contracts/contract-management.sol\":1012:1013  2 */\n      0x02\n        /* \"contracts/contract-management.sol\":990:1002  participants */\n      dup7\n        /* \"contracts/contract-management.sol\":990:1009  participants.length */\n      mload\n        /* \"contracts/contract-management.sol\":990:1013  participants.length % 2 */\n      tag_88\n      swap2\n      swap1\n      tag_89\n      jump\t// in\n    tag_88:\n        /* \"contracts/contract-management.sol\":990:1018  participants.length % 2 != 0 */\n      sub\n        /* \"contracts/contract-management.sol\":968:1091  require(... */\n      tag_90\n      jumpi\n      mload(0x40)\n      0x08c379a000000000000000000000000000000000000000000000000000000000\n      dup2\n      mstore\n      0x04\n      add\n      tag_91\n      swap1\n      tag_92\n      jump\t// in\n    tag_91:\n      mload(0x40)\n      dup1\n      swap2\n      sub\n      swap1\n      revert\n    tag_90:\n        /* \"contracts/contract-management.sol\":1102:1113  uint256 _id */\n      0x00\n        /* \"contracts/contract-management.sol\":1165:1180  block.timestamp */\n      timestamp\n        /* \"contracts/contract-management.sol\":1182:1192  msg.sender */\n      caller\n        /* \"contracts/contract-management.sol\":1148:1193  abi.encodePacked(block.timestamp, msg.sender) */\n      add(0x20, mload(0x40))\n      tag_93\n      swap3\n      swap2\n      swap1\n      tag_94\n      jump\t// in\n    tag_93:\n      mload(0x40)\n      0x20\n      dup2\n      dup4\n      sub\n      sub\n      dup2\n      mstore\n      swap1\n      0x40\n      mstore\n        /* \"contracts/contract-management.sol\":1138:1194  keccak256(abi.encodePacked(block.timestamp, msg.sender)) */\n      dup1\n      mload\n      swap1\n      0x20\n      add\n      keccak256\n        /* \"contracts/contract-management.sol\":1116:1205  uint256(... */\n      0x00\n      shr\n        /* \"contracts/contract-management.sol\":1102:1205  uint256 _id = uint256(... */\n      swap1\n      pop\n        /* \"contracts/contract-management.sol\":1218:1246  Contract storage newContract */\n      0x00\n        /* \"contracts/contract-management.sol\":1249:1260  ContractMgt */\n      0x03\n        /* \"contracts/contract-management.sol\":1249:1265  ContractMgt[_id] */\n      0x00\n        /* \"contracts/contract-management.sol\":1261:1264  _id */\n      dup4\n        /* \"contracts/contract-management.sol\":1249:1265  ContractMgt[_id] */\n      dup2\n      mstore\n      0x20\n      add\n      swap1\n      dup2\n      mstore\n      0x20\n      add\n      0x00\n      keccak256\n        /* \"contracts/contract-management.sol\":1218:1265  Contract storage newContract = ContractMgt[_id] */\n      swap1\n      pop\n        /* \"contracts/contract-management.sol\":1295:1300  _name */\n      dup10\n        /* \"contracts/contract-management.sol\":1276:1287  newContract */\n      dup2\n        /* \"contracts/contract-management.sol\":1276:1292  newContract.name */\n      0x00\n      add\n        /* \"contracts/contract-management.sol\":1276:1300  newContract.name = _name */\n      swap1\n      dup2\n      tag_95\n      swap2\n      swap1\n      tag_96\n      jump\t// in\n    tag_95:\n      pop\n        /* \"contracts/contract-management.sol\":1331:1337  _terms */\n      dup9\n        /* \"contracts/contract-management.sol\":1311:1322  newContract */\n      dup2\n        /* \"contracts/contract-management.sol\":1311:1328  newContract.terms */\n      0x01\n      add\n        /* \"contracts/contract-management.sol\":1311:1337  newContract.terms = _terms */\n      swap1\n      dup2\n      tag_97\n      swap2\n      swap1\n      tag_96\n      jump\t// in\n    tag_97:\n      pop\n        /* \"contracts/contract-management.sol\":1376:1397  ContractState.Created */\n      0x00\n        /* \"contracts/contract-management.sol\":1348:1359  newContract */\n      dup2\n        /* \"contracts/contract-management.sol\":1348:1373  newContract.contractState */\n      0x02\n      add\n      0x00\n        /* \"contracts/contract-management.sol\":1348:1397  newContract.contractState = ContractState.Created */\n      0x0100\n      exp\n      dup2\n      sload\n      dup2\n      0xff\n      mul\n      not\n      and\n      swap1\n      dup4\n      0x03\n      dup2\n      gt\n      iszero\n      tag_98\n      jumpi\n      tag_99\n      tag_100\n      jump\t// in\n    tag_99:\n    tag_98:\n      mul\n      or\n      swap1\n      sstore\n      pop\n        /* \"contracts/contract-management.sol\":1441:1460  _payableUserAddress */\n      dup8\n        /* \"contracts/contract-management.sol\":1408:1419  newContract */\n      dup2\n        /* \"contracts/contract-management.sol\":1408:1438  newContract.payableUserAddress */\n      0x04\n      add\n      0x00\n        /* \"contracts/contract-management.sol\":1408:1460  newContract.payableUserAddress = _payableUserAddress */\n      0x0100\n      exp\n      dup2\n      sload\n      dup2\n      0xffffffffffffffffffffffffffffffffffffffff\n      mul\n      not\n      and\n      swap1\n      dup4\n      0xffffffffffffffffffffffffffffffffffffffff\n      and\n      mul\n      or\n      swap1\n      sstore\n      pop\n        /* \"contracts/contract-management.sol\":1498:1508  msg.sender */\n      caller\n        /* \"contracts/contract-management.sol\":1471:1482  newContract */\n      dup2\n        /* \"contracts/contract-management.sol\":1471:1495  newContract.payeeAddress */\n      0x05\n      add\n      0x00\n        /* \"contracts/contract-management.sol\":1471:1508  newContract.payeeAddress = msg.sender */\n      0x0100\n      exp\n      dup2\n      sload\n      dup2\n      0xffffffffffffffffffffffffffffffffffffffff\n      mul\n      not\n      and\n      swap1\n      dup4\n      0xffffffffffffffffffffffffffffffffffffffff\n      and\n      mul\n      or\n      swap1\n      sstore\n      pop\n        /* \"contracts/contract-management.sol\":1546:1559  _contractType */\n      dup5\n        /* \"contracts/contract-management.sol\":1519:1530  newContract */\n      dup2\n        /* \"contracts/contract-management.sol\":1519:1543  newContract.contractType */\n      0x02\n      add\n      0x01\n        /* \"contracts/contract-management.sol\":1519:1559  newContract.contractType = _contractType */\n      0x0100\n      exp\n      dup2\n      sload\n      dup2\n      0xff\n      mul\n      not\n      and\n      swap1\n      dup4\n      0x01\n      dup2\n      gt\n      iszero\n      tag_101\n      jumpi\n      tag_102\n      tag_100\n      jump\t// in\n    tag_102:\n    tag_101:\n      mul\n      or\n      swap1\n      sstore\n      pop\n        /* \"contracts/contract-management.sol\":1612:1624  participants */\n      dup7\n        /* \"contracts/contract-management.sol\":1612:1631  participants.length */\n      mload\n        /* \"contracts/contract-management.sol\":1570:1581  newContract */\n      dup2\n        /* \"contracts/contract-management.sol\":1570:1602  newContract.numberOfParticipants */\n      0x02\n      add\n      0x02\n        /* \"contracts/contract-management.sol\":1570:1632  newContract.numberOfParticipants = uint32(participants.length) */\n      0x0100\n      exp\n      dup2\n      sload\n      dup2\n      0xffffffff\n      mul\n      not\n      and\n      swap1\n      dup4\n      0xffffffff\n      and\n      mul\n      or\n      swap1\n      sstore\n      pop\n        /* \"contracts/contract-management.sol\":1664:1670  amount */\n      dup4\n        /* \"contracts/contract-management.sol\":1643:1654  newContract */\n      dup2\n        /* \"contracts/contract-management.sol\":1643:1661  newContract.amount */\n      0x03\n      add\n        /* \"contracts/contract-management.sol\":1643:1670  newContract.amount = amount */\n      dup2\n      swap1\n      sstore\n      pop\n        /* \"contracts/contract-management.sol\":1688:1697  uint256 i */\n      0x00\n        /* \"contracts/contract-management.sol\":1683:1805  for (uint256 i = 0; i < participants.length; i++) {... */\n    tag_103:\n        /* \"contracts/contract-management.sol\":1707:1719  participants */\n      dup8\n        /* \"contracts/contract-management.sol\":1707:1726  participants.length */\n      mload\n        /* \"contracts/contract-management.sol\":1703:1704  i */\n      dup2\n        /* \"contracts/contract-management.sol\":1703:1726  i < participants.length */\n      lt\n        /* \"contracts/contract-management.sol\":1683:1805  for (uint256 i = 0; i < participants.length; i++) {... */\n      iszero\n      tag_104\n      jumpi\n        /* \"contracts/contract-management.sol\":1748:1766  ContractingParties */\n      0x05\n        /* \"contracts/contract-management.sol\":1748:1783  ContractingParties[participants[i]] */\n      0x00\n        /* \"contracts/contract-management.sol\":1767:1779  participants */\n      dup10\n        /* \"contracts/contract-management.sol\":1780:1781  i */\n      dup4\n        /* \"contracts/contract-management.sol\":1767:1782  participants[i] */\n      dup2\n      mload\n      dup2\n      lt\n      tag_106\n      jumpi\n      tag_107\n      tag_108\n      jump\t// in\n    tag_107:\n    tag_106:\n      0x20\n      mul\n      0x20\n      add\n      add\n      mload\n        /* \"contracts/contract-management.sol\":1748:1783  ContractingParties[participants[i]] */\n      0xffffffffffffffffffffffffffffffffffffffff\n      and\n      0xffffffffffffffffffffffffffffffffffffffff\n      and\n      dup2\n      mstore\n      0x20\n      add\n      swap1\n      dup2\n      mstore\n      0x20\n      add\n      0x00\n      keccak256\n        /* \"contracts/contract-management.sol\":1789:1792  _id */\n      dup4\n        /* \"contracts/contract-management.sol\":1748:1793  ContractingParties[participants[i]].push(_id) */\n      swap1\n      dup1\n      0x01\n      dup2\n      sload\n      add\n      dup1\n      dup3\n      sstore\n      dup1\n      swap2\n      pop\n      pop\n      0x01\n      swap1\n      sub\n      swap1\n      0x00\n      mstore\n      keccak256(0x00, 0x20)\n      add\n      0x00\n      swap1\n      swap2\n      swap1\n      swap2\n      swap1\n      swap2\n      pop\n      sstore\n        /* \"contracts/contract-management.sol\":1728:1731  i++ */\n      dup1\n      dup1\n      0x01\n      add\n      swap2\n      pop\n      pop\n        /* \"contracts/contract-management.sol\":1683:1805  for (uint256 i = 0; i < participants.length; i++) {... */\n      jump(tag_103)\n    tag_104:\n      pop\n        /* \"contracts/contract-management.sol\":1817:1829  OrgContracts */\n      0x04\n        /* \"contracts/contract-management.sol\":1830:1845  _organizationId */\n      dup7\n        /* \"contracts/contract-management.sol\":1817:1846  OrgContracts[_organizationId] */\n      mload(0x40)\n      tag_110\n      swap2\n      swap1\n      tag_111\n      jump\t// in\n    tag_110:\n      swap1\n      dup2\n      mstore\n      0x20\n      add\n      mload(0x40)\n      dup1\n      swap2\n      sub\n      swap1\n      keccak256\n        /* \"contracts/contract-management.sol\":1852:1855  _id */\n      dup3\n        /* \"contracts/contract-management.sol\":1817:1856  OrgContracts[_organizationId].push(_id) */\n      swap1\n      dup1\n      0x01\n      dup2\n      sload\n      add\n      dup1\n      dup3\n      sstore\n      dup1\n      swap2\n      pop\n      pop\n      0x01\n      swap1\n      sub\n      swap1\n      0x00\n      mstore\n      keccak256(0x00, 0x20)\n      add\n      0x00\n      swap1\n      swap2\n      swap1\n      swap2\n      swap1\n      swap2\n      pop\n      sstore\n        /* \"contracts/contract-management.sol\":1874:1904  newContractCreated(_name, _id) */\n      0xcadd79c29aad986976dab64ddbba56db81c411ada9ed7b182dba65753d693dd8\n        /* \"contracts/contract-management.sol\":1893:1898  _name */\n      dup11\n        /* \"contracts/contract-management.sol\":1900:1903  _id */\n      dup4\n        /* \"contracts/contract-management.sol\":1874:1904  newContractCreated(_name, _id) */\n      mload(0x40)\n      tag_113\n      swap3\n      swap2\n      swap1\n      tag_114\n      jump\t// in\n    tag_113:\n      mload(0x40)\n      dup1\n      swap2\n      sub\n      swap1\n      log1\n        /* \"contracts/contract-management.sol\":1924:1927  _id */\n      dup2\n        /* \"contracts/contract-management.sol\":1917:1927  return _id */\n      swap3\n      pop\n      pop\n      pop\n        /* \"contracts/contract-management.sol\":658:1935  function createContract(... */\n      swap8\n      swap7\n      pop\n      pop\n      pop\n      pop\n      pop\n      pop\n      pop\n      jump\t// out\n        /* \"contracts/contract-management.sol\":3435:3933  function castVote(uint _contractId, VoteType _voteType) external  {... */\n    tag_34:\n        /* \"contracts/contract-management.sol\":3512:3540  Contract memory contractItem */\n      0x00\n        /* \"contracts/contract-management.sol\":3543:3554  ContractMgt */\n      0x03\n        /* \"contracts/contract-management.sol\":3543:3567  ContractMgt[_contractId] */\n      0x00\n        /* \"contracts/contract-management.sol\":3555:3566  _contractId */\n      dup5\n        /* \"contracts/contract-management.sol\":3543:3567  ContractMgt[_contractId] */\n      dup2\n      mstore\n      0x20\n      add\n      swap1\n      dup2\n      mstore\n      0x20\n      add\n      0x00\n      keccak256\n        /* \"contracts/contract-management.sol\":3512:3567  Contract memory contractItem = ContractMgt[_contractId] */\n      mload(0x40)\n      dup1\n      0x0160\n      add\n      0x40\n      mstore\n      swap1\n      dup2\n      0x00\n      dup3\n      add\n      dup1\n      sload\n      tag_116\n      swap1\n      tag_117\n      jump\t// in\n    tag_116:\n      dup1\n      0x1f\n      add\n      0x20\n      dup1\n      swap2\n      div\n      mul\n      0x20\n      add\n      mload(0x40)\n      swap1\n      dup2\n      add\n      0x40\n      mstore\n      dup1\n      swap3\n      swap2\n      swap1\n      dup2\n      dup2\n      mstore\n      0x20\n      add\n      dup3\n      dup1\n      sload\n      tag_118\n      swap1\n      tag_117\n      jump\t// in\n    tag_118:\n      dup1\n      iszero\n      tag_119\n      jumpi\n      dup1\n      0x1f\n      lt\n      tag_120\n      jumpi\n      0x0100\n      dup1\n      dup4\n      sload\n      div\n      mul\n      dup4\n      mstore\n      swap2\n      0x20\n      add\n      swap2\n      jump(tag_119)\n    tag_120:\n      dup3\n      add\n      swap2\n      swap1\n      0x00\n      mstore\n      keccak256(0x00, 0x20)\n      swap1\n    tag_121:\n      dup2\n      sload\n      dup2\n      mstore\n      swap1\n      0x01\n      add\n      swap1\n      0x20\n      add\n      dup1\n      dup4\n      gt\n      tag_121\n      jumpi\n      dup3\n      swap1\n      sub\n      0x1f\n      and\n      dup3\n      add\n      swap2\n    tag_119:\n      pop\n      pop\n      pop\n      pop\n      pop\n      dup2\n      mstore\n      0x20\n      add\n      0x01\n      dup3\n      add\n      dup1\n      sload\n      tag_122\n      swap1\n      tag_117\n      jump\t// in\n    tag_122:\n      dup1\n      0x1f\n      add\n      0x20\n      dup1\n      swap2\n      div\n      mul\n      0x20\n      add\n      mload(0x40)\n      swap1\n      dup2\n      add\n      0x40\n      mstore\n      dup1\n      swap3\n      swap2\n      swap1\n      dup2\n      dup2\n      mstore\n      0x20\n      add\n      dup3\n      dup1\n      sload\n      tag_123\n      swap1\n      tag_117\n      jump\t// in\n    tag_123:\n      dup1\n      iszero\n      tag_124\n      jumpi\n      dup1\n      0x1f\n      lt\n      tag_125\n      jumpi\n      0x0100\n      dup1\n      dup4\n      sload\n      div\n      mul\n      dup4\n      mstore\n      swap2\n      0x20\n      add\n      swap2\n      jump(tag_124)\n    tag_125:\n      dup3\n      add\n      swap2\n      swap1\n      0x00\n      mstore\n      keccak256(0x00, 0x20)\n      swap1\n    tag_126:\n      dup2\n      sload\n      dup2\n      mstore\n      swap1\n      0x01\n      add\n      swap1\n      0x20\n      add\n      dup1\n      dup4\n      gt\n      tag_126\n      jumpi\n      dup3\n      swap1\n      sub\n      0x1f\n      and\n      dup3\n      add\n      swap2\n    tag_124:\n      pop\n      pop\n      pop\n      pop\n      pop\n      dup2\n      mstore\n      0x20\n      add\n      0x02\n      dup3\n      add\n      0x00\n      swap1\n      sload\n      swap1\n      0x0100\n      exp\n      swap1\n      div\n      0xff\n      and\n      0x03\n      dup2\n      gt\n      iszero\n      tag_127\n      jumpi\n      tag_128\n      tag_100\n      jump\t// in\n    tag_128:\n    tag_127:\n      0x03\n      dup2\n      gt\n      iszero\n      tag_129\n      jumpi\n      tag_130\n      tag_100\n      jump\t// in\n    tag_130:\n    tag_129:\n      dup2\n      mstore\n      0x20\n      add\n      0x02\n      dup3\n      add\n      0x01\n      swap1\n      sload\n      swap1\n      0x0100\n      exp\n      swap1\n      div\n      0xff\n      and\n      0x01\n      dup2\n      gt\n      iszero\n      tag_131\n      jumpi\n      tag_132\n      tag_100\n      jump\t// in\n    tag_132:\n    tag_131:\n      0x01\n      dup2\n      gt\n      iszero\n      tag_133\n      jumpi\n      tag_134\n      tag_100\n      jump\t// in\n    tag_134:\n    tag_133:\n      dup2\n      mstore\n      0x20\n      add\n      0x02\n      dup3\n      add\n      0x02\n      swap1\n      sload\n      swap1\n      0x0100\n      exp\n      swap1\n      div\n      0xffffffff\n      and\n      0xffffffff\n      and\n      0xffffffff\n      and\n      dup2\n      mstore\n      0x20\n      add\n      0x02\n      dup3\n      add\n      0x06\n      swap1\n      sload\n      swap1\n      0x0100\n      exp\n      swap1\n      div\n      0xffffffff\n      and\n      0xffffffff\n      and\n      0xffffffff\n      and\n      dup2\n      mstore\n      0x20\n      add\n      0x02\n      dup3\n      add\n      0x0a\n      swap1\n      sload\n      swap1\n      0x0100\n      exp\n      swap1\n      div\n      0xffffffff\n      and\n      0xffffffff\n      and\n      0xffffffff\n      and\n      dup2\n      mstore\n      0x20\n      add\n      0x03\n      dup3\n      add\n      sload\n      dup2\n      mstore\n      0x20\n      add\n      0x04\n      dup3\n      add\n      0x00\n      swap1\n      sload\n      swap1\n      0x0100\n      exp\n      swap1\n      div\n      0xffffffffffffffffffffffffffffffffffffffff\n      and\n      0xffffffffffffffffffffffffffffffffffffffff\n      and\n      0xffffffffffffffffffffffffffffffffffffffff\n      and\n      dup2\n      mstore\n      0x20\n      add\n      0x05\n      dup3\n      add\n      0x00\n      swap1\n      sload\n      swap1\n      0x0100\n      exp\n      swap1\n      div\n      0xffffffffffffffffffffffffffffffffffffffff\n      and\n      0xffffffffffffffffffffffffffffffffffffffff\n      and\n      0xffffffffffffffffffffffffffffffffffffffff\n      and\n      dup2\n      mstore\n      0x20\n      add\n      0x05\n      dup3\n      add\n      0x14\n      swap1\n      sload\n      swap1\n      0x0100\n      exp\n      swap1\n      div\n      0xff\n      and\n      iszero\n      iszero\n      iszero\n      iszero\n      dup2\n      mstore\n      pop\n      pop\n      swap1\n      pop\n        /* \"contracts/contract-management.sol\":3616:3636  ContractState.Sealed */\n      0x01\n        /* \"contracts/contract-management.sol\":3586:3636  contractItem.contractState == ContractState.Sealed */\n      0x03\n      dup2\n      gt\n      iszero\n      tag_135\n      jumpi\n      tag_136\n      tag_100\n      jump\t// in\n    tag_136:\n    tag_135:\n        /* \"contracts/contract-management.sol\":3586:3598  contractItem */\n      dup2\n        /* \"contracts/contract-management.sol\":3586:3612  contractItem.contractState */\n      0x40\n      add\n      mload\n        /* \"contracts/contract-management.sol\":3586:3636  contractItem.contractState == ContractState.Sealed */\n      0x03\n      dup2\n      gt\n      iszero\n      tag_137\n      jumpi\n      tag_138\n      tag_100\n      jump\t// in\n    tag_138:\n    tag_137:\n      eq\n        /* \"contracts/contract-management.sol\":3578:3680  require(contractItem.contractState == ContractState.Sealed, \"Voting on this contract is not allowed.\") */\n      tag_139\n      jumpi\n      mload(0x40)\n      0x08c379a000000000000000000000000000000000000000000000000000000000\n      dup2\n      mstore\n      0x04\n      add\n      tag_140\n      swap1\n      tag_141\n      jump\t// in\n    tag_140:\n      mload(0x40)\n      dup1\n      swap2\n      sub\n      swap1\n      revert\n    tag_139:\n        /* \"contracts/contract-management.sol\":3707:3723  VoteType.voteFor */\n      0x00\n        /* \"contracts/contract-management.sol\":3694:3723  _voteType == VoteType.voteFor */\n      0x01\n      dup2\n      gt\n      iszero\n      tag_142\n      jumpi\n      tag_143\n      tag_100\n      jump\t// in\n    tag_143:\n    tag_142:\n        /* \"contracts/contract-management.sol\":3694:3703  _voteType */\n      dup3\n        /* \"contracts/contract-management.sol\":3694:3723  _voteType == VoteType.voteFor */\n      0x01\n      dup2\n      gt\n      iszero\n      tag_144\n      jumpi\n      tag_145\n      tag_100\n      jump\t// in\n    tag_145:\n    tag_144:\n      sub\n        /* \"contracts/contract-management.sol\":3691:3873  if(_voteType == VoteType.voteFor) {... */\n      tag_146\n      jumpi\n        /* \"contracts/contract-management.sol\":3740:3752  contractItem */\n      dup1\n        /* \"contracts/contract-management.sol\":3740:3761  contractItem.forVotes */\n      0xa0\n      add\n        /* \"contracts/contract-management.sol\":3740:3763  contractItem.forVotes++ */\n      dup1\n      mload\n      dup1\n      swap2\n      swap1\n      tag_147\n      swap1\n      tag_148\n      jump\t// in\n    tag_147:\n      0xffffffff\n      and\n      0xffffffff\n      and\n      dup2\n      mstore\n      pop\n      pop\n        /* \"contracts/contract-management.sol\":3691:3873  if(_voteType == VoteType.voteFor) {... */\n      jump(tag_149)\n    tag_146:\n        /* \"contracts/contract-management.sol\":3797:3817  VoteType.voteAgainst */\n      0x01\n        /* \"contracts/contract-management.sol\":3784:3817  _voteType == VoteType.voteAgainst */\n      dup1\n      dup2\n      gt\n      iszero\n      tag_150\n      jumpi\n      tag_151\n      tag_100\n      jump\t// in\n    tag_151:\n    tag_150:\n        /* \"contracts/contract-management.sol\":3784:3793  _voteType */\n      dup3\n        /* \"contracts/contract-management.sol\":3784:3817  _voteType == VoteType.voteAgainst */\n      0x01\n      dup2\n      gt\n      iszero\n      tag_152\n      jumpi\n      tag_153\n      tag_100\n      jump\t// in\n    tag_153:\n    tag_152:\n      sub\n        /* \"contracts/contract-management.sol\":3781:3873  if(_voteType == VoteType.voteAgainst) {... */\n      tag_154\n      jumpi\n        /* \"contracts/contract-management.sol\":3834:3846  contractItem */\n      dup1\n        /* \"contracts/contract-management.sol\":3834:3859  contractItem.againstVotes */\n      0xc0\n      add\n        /* \"contracts/contract-management.sol\":3834:3861  contractItem.againstVotes++ */\n      dup1\n      mload\n      dup1\n      swap2\n      swap1\n      tag_155\n      swap1\n      tag_148\n      jump\t// in\n    tag_155:\n      0xffffffff\n      and\n      0xffffffff\n      and\n      dup2\n      mstore\n      pop\n      pop\n        /* \"contracts/contract-management.sol\":3781:3873  if(_voteType == VoteType.voteAgainst) {... */\n    tag_154:\n        /* \"contracts/contract-management.sol\":3691:3873  if(_voteType == VoteType.voteFor) {... */\n    tag_149:\n        /* \"contracts/contract-management.sol\":3883:3925  executeContract(contractItem, _contractId) */\n      tag_156\n        /* \"contracts/contract-management.sol\":3899:3911  contractItem */\n      dup2\n        /* \"contracts/contract-management.sol\":3913:3924  _contractId */\n      dup5\n        /* \"contracts/contract-management.sol\":3883:3898  executeContract */\n      tag_157\n        /* \"contracts/contract-management.sol\":3883:3925  executeContract(contractItem, _contractId) */\n      jump\t// in\n    tag_156:\n        /* \"contracts/contract-management.sol\":3501:3933  {... */\n      pop\n        /* \"contracts/contract-management.sol\":3435:3933  function castVote(uint _contractId, VoteType _voteType) external  {... */\n      pop\n      pop\n      jump\t// out\n        /* \"contracts/contracts.sol\":1156:1257  function getTotalAmount() external view onlyOwner returns (uint){... */\n    tag_37:\n        /* \"contracts/contracts.sol\":1215:1219  uint */\n      0x00\n        /* \"@openzeppelin/contracts/access/Ownable.sol\":1531:1544  _checkOwner() */\n      tag_159\n        /* \"@openzeppelin/contracts/access/Ownable.sol\":1531:1542  _checkOwner */\n      tag_160\n        /* \"@openzeppelin/contracts/access/Ownable.sol\":1531:1544  _checkOwner() */\n      jump\t// in\n    tag_159:\n        /* \"contracts/contracts.sol\":1238:1249  totalAmount */\n      sload(0x02)\n        /* \"contracts/contracts.sol\":1231:1249  return totalAmount */\n      swap1\n      pop\n        /* \"contracts/contracts.sol\":1156:1257  function getTotalAmount() external view onlyOwner returns (uint){... */\n      swap1\n      jump\t// out\n        /* \"contracts/contract-management.sol\":2426:2855  function getMyOrgContracts(string memory _orgId)... */\n    tag_43:\n        /* \"contracts/contract-management.sol\":2525:2542  Contract[] memory */\n      0x60\n        /* \"contracts/contract-management.sol\":2560:2588  uint256[] memory contractIds */\n      0x00\n        /* \"contracts/contract-management.sol\":2591:2603  OrgContracts */\n      0x04\n        /* \"contracts/contract-management.sol\":2604:2610  _orgId */\n      dup4\n        /* \"contracts/contract-management.sol\":2591:2611  OrgContracts[_orgId] */\n      mload(0x40)\n      tag_163\n      swap2\n      swap1\n      tag_111\n      jump\t// in\n    tag_163:\n      swap1\n      dup2\n      mstore\n      0x20\n      add\n      mload(0x40)\n      dup1\n      swap2\n      sub\n      swap1\n      keccak256\n        /* \"contracts/contract-management.sol\":2560:2611  uint256[] memory contractIds = OrgContracts[_orgId] */\n      dup1\n      sload\n      dup1\n      0x20\n      mul\n      0x20\n      add\n      mload(0x40)\n      swap1\n      dup2\n      add\n      0x40\n      mstore\n      dup1\n      swap3\n      swap2\n      swap1\n      dup2\n      dup2\n      mstore\n      0x20\n      add\n      dup3\n      dup1\n      sload\n      dup1\n      iszero\n      tag_164\n      jumpi\n      0x20\n      mul\n      dup3\n      add\n      swap2\n      swap1\n      0x00\n      mstore\n      keccak256(0x00, 0x20)\n      swap1\n    tag_165:\n      dup2\n      sload\n      dup2\n      mstore\n      0x20\n      add\n      swap1\n      0x01\n      add\n      swap1\n      dup1\n      dup4\n      gt\n      tag_165\n      jumpi\n    tag_164:\n      pop\n      pop\n      pop\n      pop\n      pop\n      swap1\n      pop\n        /* \"contracts/contract-management.sol\":2624:2651  Contract[] memory contracts */\n      0x00\n        /* \"contracts/contract-management.sol\":2669:2680  contractIds */\n      dup2\n        /* \"contracts/contract-management.sol\":2669:2687  contractIds.length */\n      mload\n        /* \"contracts/contract-management.sol\":2654:2688  new Contract[](contractIds.length) */\n      0xffffffffffffffff\n      dup2\n      gt\n      iszero\n      tag_166\n      jumpi\n      tag_167\n      tag_168\n      jump\t// in\n    tag_167:\n    tag_166:\n      mload(0x40)\n      swap1\n      dup1\n      dup3\n      mstore\n      dup1\n      0x20\n      mul\n      0x20\n      add\n      dup3\n      add\n      0x40\n      mstore\n      dup1\n      iszero\n      tag_169\n      jumpi\n      dup2\n      0x20\n      add\n    tag_170:\n      tag_171\n      tag_172\n      jump\t// in\n    tag_171:\n      dup2\n      mstore\n      0x20\n      add\n      swap1\n      0x01\n      swap1\n      sub\n      swap1\n      dup2\n      tag_170\n      jumpi\n      swap1\n      pop\n    tag_169:\n      pop\n        /* \"contracts/contract-management.sol\":2624:2688  Contract[] memory contracts = new Contract[](contractIds.length) */\n      swap1\n      pop\n        /* \"contracts/contract-management.sol\":2706:2715  uint256 i */\n      0x00\n        /* \"contracts/contract-management.sol\":2701:2819  for (uint256 i = 0; i < contractIds.length; i++) {... */\n    tag_173:\n        /* \"contracts/contract-management.sol\":2725:2736  contractIds */\n      dup3\n        /* \"contracts/contract-management.sol\":2725:2743  contractIds.length */\n      mload\n        /* \"contracts/contract-management.sol\":2721:2722  i */\n      dup2\n        /* \"contracts/contract-management.sol\":2721:2743  i < contractIds.length */\n      lt\n        /* \"contracts/contract-management.sol\":2701:2819  for (uint256 i = 0; i < contractIds.length; i++) {... */\n      iszero\n      tag_174\n      jumpi\n        /* \"contracts/contract-management.sol\":2780:2791  ContractMgt */\n      0x03\n        /* \"contracts/contract-management.sol\":2780:2807  ContractMgt[contractIds[i]] */\n      0x00\n        /* \"contracts/contract-management.sol\":2792:2803  contractIds */\n      dup5\n        /* \"contracts/contract-management.sol\":2804:2805  i */\n      dup4\n        /* \"contracts/contract-management.sol\":2792:2806  contractIds[i] */\n      dup2\n      mload\n      dup2\n      lt\n      tag_176\n      jumpi\n      tag_177\n      tag_108\n      jump\t// in\n    tag_177:\n    tag_176:\n      0x20\n      mul\n      0x20\n      add\n      add\n      mload\n        /* \"contracts/contract-management.sol\":2780:2807  ContractMgt[contractIds[i]] */\n      dup2\n      mstore\n      0x20\n      add\n      swap1\n      dup2\n      mstore\n      0x20\n      add\n      0x00\n      keccak256\n        /* \"contracts/contract-management.sol\":2765:2807  contracts[i] = ContractMgt[contractIds[i]] */\n      mload(0x40)\n      dup1\n      0x0160\n      add\n      0x40\n      mstore\n      swap1\n      dup2\n      0x00\n      dup3\n      add\n      dup1\n      sload\n      tag_178\n      swap1\n      tag_117\n      jump\t// in\n    tag_178:\n      dup1\n      0x1f\n      add\n      0x20\n      dup1\n      swap2\n      div\n      mul\n      0x20\n      add\n      mload(0x40)\n      swap1\n      dup2\n      add\n      0x40\n      mstore\n      dup1\n      swap3\n      swap2\n      swap1\n      dup2\n      dup2\n      mstore\n      0x20\n      add\n      dup3\n      dup1\n      sload\n      tag_179\n      swap1\n      tag_117\n      jump\t// in\n    tag_179:\n      dup1\n      iszero\n      tag_180\n      jumpi\n      dup1\n      0x1f\n      lt\n      tag_181\n      jumpi\n      0x0100\n      dup1\n      dup4\n      sload\n      div\n      mul\n      dup4\n      mstore\n      swap2\n      0x20\n      add\n      swap2\n      jump(tag_180)\n    tag_181:\n      dup3\n      add\n      swap2\n      swap1\n      0x00\n      mstore\n      keccak256(0x00, 0x20)\n      swap1\n    tag_182:\n      dup2\n      sload\n      dup2\n      mstore\n      swap1\n      0x01\n      add\n      swap1\n      0x20\n      add\n      dup1\n      dup4\n      gt\n      tag_182\n      jumpi\n      dup3\n      swap1\n      sub\n      0x1f\n      and\n      dup3\n      add\n      swap2\n    tag_180:\n      pop\n      pop\n      pop\n      pop\n      pop\n      dup2\n      mstore\n      0x20\n      add\n      0x01\n      dup3\n      add\n      dup1\n      sload\n      tag_183\n      swap1\n      tag_117\n      jump\t// in\n    tag_183:\n      dup1\n      0x1f\n      add\n      0x20\n      dup1\n      swap2\n      div\n      mul\n      0x20\n      add\n      mload(0x40)\n      swap1\n      dup2\n      add\n      0x40\n      mstore\n      dup1\n      swap3\n      swap2\n      swap1\n      dup2\n      dup2\n      mstore\n      0x20\n      add\n      dup3\n      dup1\n      sload\n      tag_184\n      swap1\n      tag_117\n      jump\t// in\n    tag_184:\n      dup1\n      iszero\n      tag_185\n      jumpi\n      dup1\n      0x1f\n      lt\n      tag_186\n      jumpi\n      0x0100\n      dup1\n      dup4\n      sload\n      div\n      mul\n      dup4\n      mstore\n      swap2\n      0x20\n      add\n      swap2\n      jump(tag_185)\n    tag_186:\n      dup3\n      add\n      swap2\n      swap1\n      0x00\n      mstore\n      keccak256(0x00, 0x20)\n      swap1\n    tag_187:\n      dup2\n      sload\n      dup2\n      mstore\n      swap1\n      0x01\n      add\n      swap1\n      0x20\n      add\n      dup1\n      dup4\n      gt\n      tag_187\n      jumpi\n      dup3\n      swap1\n      sub\n      0x1f\n      and\n      dup3\n      add\n      swap2\n    tag_185:\n      pop\n      pop\n      pop\n      pop\n      pop\n      dup2\n      mstore\n      0x20\n      add\n      0x02\n      dup3\n      add\n      0x00\n      swap1\n      sload\n      swap1\n      0x0100\n      exp\n      swap1\n      div\n      0xff\n      and\n      0x03\n      dup2\n      gt\n      iszero\n      tag_188\n      jumpi\n      tag_189\n      tag_100\n      jump\t// in\n    tag_189:\n    tag_188:\n      0x03\n      dup2\n      gt\n      iszero\n      tag_190\n      jumpi\n      tag_191\n      tag_100\n      jump\t// in\n    tag_191:\n    tag_190:\n      dup2\n      mstore\n      0x20\n      add\n      0x02\n      dup3\n      add\n      0x01\n      swap1\n      sload\n      swap1\n      0x0100\n      exp\n      swap1\n      div\n      0xff\n      and\n      0x01\n      dup2\n      gt\n      iszero\n      tag_192\n      jumpi\n      tag_193\n      tag_100\n      jump\t// in\n    tag_193:\n    tag_192:\n      0x01\n      dup2\n      gt\n      iszero\n      tag_194\n      jumpi\n      tag_195\n      tag_100\n      jump\t// in\n    tag_195:\n    tag_194:\n      dup2\n      mstore\n      0x20\n      add\n      0x02\n      dup3\n      add\n      0x02\n      swap1\n      sload\n      swap1\n      0x0100\n      exp\n      swap1\n      div\n      0xffffffff\n      and\n      0xffffffff\n      and\n      0xffffffff\n      and\n      dup2\n      mstore\n      0x20\n      add\n      0x02\n      dup3\n      add\n      0x06\n      swap1\n      sload\n      swap1\n      0x0100\n      exp\n      swap1\n      div\n      0xffffffff\n      and\n      0xffffffff\n      and\n      0xffffffff\n      and\n      dup2\n      mstore\n      0x20\n      add\n      0x02\n      dup3\n      add\n      0x0a\n      swap1\n      sload\n      swap1\n      0x0100\n      exp\n      swap1\n      div\n      0xffffffff\n      and\n      0xffffffff\n      and\n      0xffffffff\n      and\n      dup2\n      mstore\n      0x20\n      add\n      0x03\n      dup3\n      add\n      sload\n      dup2\n      mstore\n      0x20\n      add\n      0x04\n      dup3\n      add\n      0x00\n      swap1\n      sload\n      swap1\n      0x0100\n      exp\n      swap1\n      div\n      0xffffffffffffffffffffffffffffffffffffffff\n      and\n      0xffffffffffffffffffffffffffffffffffffffff\n      and\n      0xffffffffffffffffffffffffffffffffffffffff\n      and\n      dup2\n      mstore\n      0x20\n      add\n      0x05\n      dup3\n      add\n      0x00\n      swap1\n      sload\n      swap1\n      0x0100\n      exp\n      swap1\n      div\n      0xffffffffffffffffffffffffffffffffffffffff\n      and\n      0xffffffffffffffffffffffffffffffffffffffff\n      and\n      0xffffffffffffffffffffffffffffffffffffffff\n      and\n      dup2\n      mstore\n      0x20\n      add\n      0x05\n      dup3\n      add\n      0x14\n      swap1\n      sload\n      swap1\n      0x0100\n      exp\n      swap1\n      div\n      0xff\n      and\n      iszero\n      iszero\n      iszero\n      iszero\n      dup2\n      mstore\n      pop\n      pop\n        /* \"contracts/contract-management.sol\":2765:2774  contracts */\n      dup3\n        /* \"contracts/contract-management.sol\":2775:2776  i */\n      dup3\n        /* \"contracts/contract-management.sol\":2765:2777  contracts[i] */\n      dup2\n      mload\n      dup2\n      lt\n      tag_196\n      jumpi\n      tag_197\n      tag_108\n      jump\t// in\n    tag_197:\n    tag_196:\n      0x20\n      mul\n      0x20\n      add\n      add\n        /* \"contracts/contract-management.sol\":2765:2807  contracts[i] = ContractMgt[contractIds[i]] */\n      dup2\n      swap1\n      mstore\n      pop\n        /* \"contracts/contract-management.sol\":2745:2748  i++ */\n      dup1\n      dup1\n      0x01\n      add\n      swap2\n      pop\n      pop\n        /* \"contracts/contract-management.sol\":2701:2819  for (uint256 i = 0; i < contractIds.length; i++) {... */\n      jump(tag_173)\n    tag_174:\n      pop\n        /* \"contracts/contract-management.sol\":2838:2847  contracts */\n      dup1\n        /* \"contracts/contract-management.sol\":2831:2847  return contracts */\n      swap3\n      pop\n      pop\n      pop\n        /* \"contracts/contract-management.sol\":2426:2855  function getMyOrgContracts(string memory _orgId)... */\n      swap2\n      swap1\n      pop\n      jump\t// out\n        /* \"contracts/contract-management.sol\":2863:3287  function getMyAssignedContracts()... */\n    tag_48:\n        /* \"contracts/contract-management.sol\":2947:2964  Contract[] memory */\n      0x60\n        /* \"contracts/contract-management.sol\":2982:3010  uint256[] memory contractIds */\n      0x00\n        /* \"contracts/contract-management.sol\":3013:3031  ContractingParties */\n      0x05\n        /* \"contracts/contract-management.sol\":3013:3043  ContractingParties[msg.sender] */\n      0x00\n        /* \"contracts/contract-management.sol\":3032:3042  msg.sender */\n      caller\n        /* \"contracts/contract-management.sol\":3013:3043  ContractingParties[msg.sender] */\n      0xffffffffffffffffffffffffffffffffffffffff\n      and\n      0xffffffffffffffffffffffffffffffffffffffff\n      and\n      dup2\n      mstore\n      0x20\n      add\n      swap1\n      dup2\n      mstore\n      0x20\n      add\n      0x00\n      keccak256\n        /* \"contracts/contract-management.sol\":2982:3043  uint256[] memory contractIds = ContractingParties[msg.sender] */\n      dup1\n      sload\n      dup1\n      0x20\n      mul\n      0x20\n      add\n      mload(0x40)\n      swap1\n      dup2\n      add\n      0x40\n      mstore\n      dup1\n      swap3\n      swap2\n      swap1\n      dup2\n      dup2\n      mstore\n      0x20\n      add\n      dup3\n      dup1\n      sload\n      dup1\n      iszero\n      tag_199\n      jumpi\n      0x20\n      mul\n      dup3\n      add\n      swap2\n      swap1\n      0x00\n      mstore\n      keccak256(0x00, 0x20)\n      swap1\n    tag_200:\n      dup2\n      sload\n      dup2\n      mstore\n      0x20\n      add\n      swap1\n      0x01\n      add\n      swap1\n      dup1\n      dup4\n      gt\n      tag_200\n      jumpi\n    tag_199:\n      pop\n      pop\n      pop\n      pop\n      pop\n      swap1\n      pop\n        /* \"contracts/contract-management.sol\":3056:3083  Contract[] memory contracts */\n      0x00\n        /* \"contracts/contract-management.sol\":3101:3112  contractIds */\n      dup2\n        /* \"contracts/contract-management.sol\":3101:3119  contractIds.length */\n      mload\n        /* \"contracts/contract-management.sol\":3086:3120  new Contract[](contractIds.length) */\n      0xffffffffffffffff\n      dup2\n      gt\n      iszero\n      tag_201\n      jumpi\n      tag_202\n      tag_168\n      jump\t// in\n    tag_202:\n    tag_201:\n      mload(0x40)\n      swap1\n      dup1\n      dup3\n      mstore\n      dup1\n      0x20\n      mul\n      0x20\n      add\n      dup3\n      add\n      0x40\n      mstore\n      dup1\n      iszero\n      tag_203\n      jumpi\n      dup2\n      0x20\n      add\n    tag_204:\n      tag_205\n      tag_172\n      jump\t// in\n    tag_205:\n      dup2\n      mstore\n      0x20\n      add\n      swap1\n      0x01\n      swap1\n      sub\n      swap1\n      dup2\n      tag_204\n      jumpi\n      swap1\n      pop\n    tag_203:\n      pop\n        /* \"contracts/contract-management.sol\":3056:3120  Contract[] memory contracts = new Contract[](contractIds.length) */\n      swap1\n      pop\n        /* \"contracts/contract-management.sol\":3138:3147  uint256 i */\n      0x00\n        /* \"contracts/contract-management.sol\":3133:3251  for (uint256 i = 0; i < contractIds.length; i++) {... */\n    tag_206:\n        /* \"contracts/contract-management.sol\":3157:3168  contractIds */\n      dup3\n        /* \"contracts/contract-management.sol\":3157:3175  contractIds.length */\n      mload\n        /* \"contracts/contract-management.sol\":3153:3154  i */\n      dup2\n        /* \"contracts/contract-management.sol\":3153:3175  i < contractIds.length */\n      lt\n        /* \"contracts/contract-management.sol\":3133:3251  for (uint256 i = 0; i < contractIds.length; i++) {... */\n      iszero\n      tag_207\n      jumpi\n        /* \"contracts/contract-management.sol\":3212:3223  ContractMgt */\n      0x03\n        /* \"contracts/contract-management.sol\":3212:3239  ContractMgt[contractIds[i]] */\n      0x00\n        /* \"contracts/contract-management.sol\":3224:3235  contractIds */\n      dup5\n        /* \"contracts/contract-management.sol\":3236:3237  i */\n      dup4\n        /* \"contracts/contract-management.sol\":3224:3238  contractIds[i] */\n      dup2\n      mload\n      dup2\n      lt\n      tag_209\n      jumpi\n      tag_210\n      tag_108\n      jump\t// in\n    tag_210:\n    tag_209:\n      0x20\n      mul\n      0x20\n      add\n      add\n      mload\n        /* \"contracts/contract-management.sol\":3212:3239  ContractMgt[contractIds[i]] */\n      dup2\n      mstore\n      0x20\n      add\n      swap1\n      dup2\n      mstore\n      0x20\n      add\n      0x00\n      keccak256\n        /* \"contracts/contract-management.sol\":3197:3239  contracts[i] = ContractMgt[contractIds[i]] */\n      mload(0x40)\n      dup1\n      0x0160\n      add\n      0x40\n      mstore\n      swap1\n      dup2\n      0x00\n      dup3\n      add\n      dup1\n      sload\n      tag_211\n      swap1\n      tag_117\n      jump\t// in\n    tag_211:\n      dup1\n      0x1f\n      add\n      0x20\n      dup1\n      swap2\n      div\n      mul\n      0x20\n      add\n      mload(0x40)\n      swap1\n      dup2\n      add\n      0x40\n      mstore\n      dup1\n      swap3\n      swap2\n      swap1\n      dup2\n      dup2\n      mstore\n      0x20\n      add\n      dup3\n      dup1\n      sload\n      tag_212\n      swap1\n      tag_117\n      jump\t// in\n    tag_212:\n      dup1\n      iszero\n      tag_213\n      jumpi\n      dup1\n      0x1f\n      lt\n      tag_214\n      jumpi\n      0x0100\n      dup1\n      dup4\n      sload\n      div\n      mul\n      dup4\n      mstore\n      swap2\n      0x20\n      add\n      swap2\n      jump(tag_213)\n    tag_214:\n      dup3\n      add\n      swap2\n      swap1\n      0x00\n      mstore\n      keccak256(0x00, 0x20)\n      swap1\n    tag_215:\n      dup2\n      sload\n      dup2\n      mstore\n      swap1\n      0x01\n      add\n      swap1\n      0x20\n      add\n      dup1\n      dup4\n      gt\n      tag_215\n      jumpi\n      dup3\n      swap1\n      sub\n      0x1f\n      and\n      dup3\n      add\n      swap2\n    tag_213:\n      pop\n      pop\n      pop\n      pop\n      pop\n      dup2\n      mstore\n      0x20\n      add\n      0x01\n      dup3\n      add\n      dup1\n      sload\n      tag_216\n      swap1\n      tag_117\n      jump\t// in\n    tag_216:\n      dup1\n      0x1f\n      add\n      0x20\n      dup1\n      swap2\n      div\n      mul\n      0x20\n      add\n      mload(0x40)\n      swap1\n      dup2\n      add\n      0x40\n      mstore\n      dup1\n      swap3\n      swap2\n      swap1\n      dup2\n      dup2\n      mstore\n      0x20\n      add\n      dup3\n      dup1\n      sload\n      tag_217\n      swap1\n      tag_117\n      jump\t// in\n    tag_217:\n      dup1\n      iszero\n      tag_218\n      jumpi\n      dup1\n      0x1f\n      lt\n      tag_219\n      jumpi\n      0x0100\n      dup1\n      dup4\n      sload\n      div\n      mul\n      dup4\n      mstore\n      swap2\n      0x20\n      add\n      swap2\n      jump(tag_218)\n    tag_219:\n      dup3\n      add\n      swap2\n      swap1\n      0x00\n      mstore\n      keccak256(0x00, 0x20)\n      swap1\n    tag_220:\n      dup2\n      sload\n      dup2\n      mstore\n      swap1\n      0x01\n      add\n      swap1\n      0x20\n      add\n      dup1\n      dup4\n      gt\n      tag_220\n      jumpi\n      dup3\n      swap1\n      sub\n      0x1f\n      and\n      dup3\n      add\n      swap2\n    tag_218:\n      pop\n      pop\n      pop\n      pop\n      pop\n      dup2\n      mstore\n      0x20\n      add\n      0x02\n      dup3\n      add\n      0x00\n      swap1\n      sload\n      swap1\n      0x0100\n      exp\n      swap1\n      div\n      0xff\n      and\n      0x03\n      dup2\n      gt\n      iszero\n      tag_221\n      jumpi\n      tag_222\n      tag_100\n      jump\t// in\n    tag_222:\n    tag_221:\n      0x03\n      dup2\n      gt\n      iszero\n      tag_223\n      jumpi\n      tag_224\n      tag_100\n      jump\t// in\n    tag_224:\n    tag_223:\n      dup2\n      mstore\n      0x20\n      add\n      0x02\n      dup3\n      add\n      0x01\n      swap1\n      sload\n      swap1\n      0x0100\n      exp\n      swap1\n      div\n      0xff\n      and\n      0x01\n      dup2\n      gt\n      iszero\n      tag_225\n      jumpi\n      tag_226\n      tag_100\n      jump\t// in\n    tag_226:\n    tag_225:\n      0x01\n      dup2\n      gt\n      iszero\n      tag_227\n      jumpi\n      tag_228\n      tag_100\n      jump\t// in\n    tag_228:\n    tag_227:\n      dup2\n      mstore\n      0x20\n      add\n      0x02\n      dup3\n      add\n      0x02\n      swap1\n      sload\n      swap1\n      0x0100\n      exp\n      swap1\n      div\n      0xffffffff\n      and\n      0xffffffff\n      and\n      0xffffffff\n      and\n      dup2\n      mstore\n      0x20\n      add\n      0x02\n      dup3\n      add\n      0x06\n      swap1\n      sload\n      swap1\n      0x0100\n      exp\n      swap1\n      div\n      0xffffffff\n      and\n      0xffffffff\n      and\n      0xffffffff\n      and\n      dup2\n      mstore\n      0x20\n      add\n      0x02\n      dup3\n      add\n      0x0a\n      swap1\n      sload\n      swap1\n      0x0100\n      exp\n      swap1\n      div\n      0xffffffff\n      and\n      0xffffffff\n      and\n      0xffffffff\n      and\n      dup2\n      mstore\n      0x20\n      add\n      0x03\n      dup3\n      add\n      sload\n      dup2\n      mstore\n      0x20\n      add\n      0x04\n      dup3\n      add\n      0x00\n      swap1\n      sload\n      swap1\n      0x0100\n      exp\n      swap1\n      div\n      0xffffffffffffffffffffffffffffffffffffffff\n      and\n      0xffffffffffffffffffffffffffffffffffffffff\n      and\n      0xffffffffffffffffffffffffffffffffffffffff\n      and\n      dup2\n      mstore\n      0x20\n      add\n      0x05\n      dup3\n      add\n      0x00\n      swap1\n      sload\n      swap1\n      0x0100\n      exp\n      swap1\n      div\n      0xffffffffffffffffffffffffffffffffffffffff\n      and\n      0xffffffffffffffffffffffffffffffffffffffff\n      and\n      0xffffffffffffffffffffffffffffffffffffffff\n      and\n      dup2\n      mstore\n      0x20\n      add\n      0x05\n      dup3\n      add\n      0x14\n      swap1\n      sload\n      swap1\n      0x0100\n      exp\n      swap1\n      div\n      0xff\n      and\n      iszero\n      iszero\n      iszero\n      iszero\n      dup2\n      mstore\n      pop\n      pop\n        /* \"contracts/contract-management.sol\":3197:3206  contracts */\n      dup3\n        /* \"contracts/contract-management.sol\":3207:3208  i */\n      dup3\n        /* \"contracts/contract-management.sol\":3197:3209  contracts[i] */\n      dup2\n      mload\n      dup2\n      lt\n      tag_229\n      jumpi\n      tag_230\n      tag_108\n      jump\t// in\n    tag_230:\n    tag_229:\n      0x20\n      mul\n      0x20\n      add\n      add\n        /* \"contracts/contract-management.sol\":3197:3239  contracts[i] = ContractMgt[contractIds[i]] */\n      dup2\n      swap1\n      mstore\n      pop\n        /* \"contracts/contract-management.sol\":3177:3180  i++ */\n      dup1\n      dup1\n      0x01\n      add\n      swap2\n      pop\n      pop\n        /* \"contracts/contract-management.sol\":3133:3251  for (uint256 i = 0; i < contractIds.length; i++) {... */\n      jump(tag_206)\n    tag_207:\n      pop\n        /* \"contracts/contract-management.sol\":3270:3279  contracts */\n      dup1\n        /* \"contracts/contract-management.sol\":3263:3279  return contracts */\n      swap3\n      pop\n      pop\n      pop\n        /* \"contracts/contract-management.sol\":2863:3287  function getMyAssignedContracts()... */\n      swap1\n      jump\t// out\n        /* \"contracts/contract-management.sol\":3295:3427  function getContract(uint256 _contractId) external view returns (Contract memory) {... */\n    tag_54:\n        /* \"contracts/contract-management.sol\":3360:3375  Contract memory */\n      tag_231\n      tag_172\n      jump\t// in\n    tag_231:\n        /* \"contracts/contract-management.sol\":3395:3406  ContractMgt */\n      0x03\n        /* \"contracts/contract-management.sol\":3395:3419  ContractMgt[_contractId] */\n      0x00\n        /* \"contracts/contract-management.sol\":3407:3418  _contractId */\n      dup4\n        /* \"contracts/contract-management.sol\":3395:3419  ContractMgt[_contractId] */\n      dup2\n      mstore\n      0x20\n      add\n      swap1\n      dup2\n      mstore\n      0x20\n      add\n      0x00\n      keccak256\n        /* \"contracts/contract-management.sol\":3388:3419  return ContractMgt[_contractId] */\n      mload(0x40)\n      dup1\n      0x0160\n      add\n      0x40\n      mstore\n      swap1\n      dup2\n      0x00\n      dup3\n      add\n      dup1\n      sload\n      tag_233\n      swap1\n      tag_117\n      jump\t// in\n    tag_233:\n      dup1\n      0x1f\n      add\n      0x20\n      dup1\n      swap2\n      div\n      mul\n      0x20\n      add\n      mload(0x40)\n      swap1\n      dup2\n      add\n      0x40\n      mstore\n      dup1\n      swap3\n      swap2\n      swap1\n      dup2\n      dup2\n      mstore\n      0x20\n      add\n      dup3\n      dup1\n      sload\n      tag_234\n      swap1\n      tag_117\n      jump\t// in\n    tag_234:\n      dup1\n      iszero\n      tag_235\n      jumpi\n      dup1\n      0x1f\n      lt\n      tag_236\n      jumpi\n      0x0100\n      dup1\n      dup4\n      sload\n      div\n      mul\n      dup4\n      mstore\n      swap2\n      0x20\n      add\n      swap2\n      jump(tag_235)\n    tag_236:\n      dup3\n      add\n      swap2\n      swap1\n      0x00\n      mstore\n      keccak256(0x00, 0x20)\n      swap1\n    tag_237:\n      dup2\n      sload\n      dup2\n      mstore\n      swap1\n      0x01\n      add\n      swap1\n      0x20\n      add\n      dup1\n      dup4\n      gt\n      tag_237\n      jumpi\n      dup3\n      swap1\n      sub\n      0x1f\n      and\n      dup3\n      add\n      swap2\n    tag_235:\n      pop\n      pop\n      pop\n      pop\n      pop\n      dup2\n      mstore\n      0x20\n      add\n      0x01\n      dup3\n      add\n      dup1\n      sload\n      tag_238\n      swap1\n      tag_117\n      jump\t// in\n    tag_238:\n      dup1\n      0x1f\n      add\n      0x20\n      dup1\n      swap2\n      div\n      mul\n      0x20\n      add\n      mload(0x40)\n      swap1\n      dup2\n      add\n      0x40\n      mstore\n      dup1\n      swap3\n      swap2\n      swap1\n      dup2\n      dup2\n      mstore\n      0x20\n      add\n      dup3\n      dup1\n      sload\n      tag_239\n      swap1\n      tag_117\n      jump\t// in\n    tag_239:\n      dup1\n      iszero\n      tag_240\n      jumpi\n      dup1\n      0x1f\n      lt\n      tag_241\n      jumpi\n      0x0100\n      dup1\n      dup4\n      sload\n      div\n      mul\n      dup4\n      mstore\n      swap2\n      0x20\n      add\n      swap2\n      jump(tag_240)\n    tag_241:\n      dup3\n      add\n      swap2\n      swap1\n      0x00\n      mstore\n      keccak256(0x00, 0x20)\n      swap1\n    tag_242:\n      dup2\n      sload\n      dup2\n      mstore\n      swap1\n      0x01\n      add\n      swap1\n      0x20\n      add\n      dup1\n      dup4\n      gt\n      tag_242\n      jumpi\n      dup3\n      swap1\n      sub\n      0x1f\n      and\n      dup3\n      add\n      swap2\n    tag_240:\n      pop\n      pop\n      pop\n      pop\n      pop\n      dup2\n      mstore\n      0x20\n      add\n      0x02\n      dup3\n      add\n      0x00\n      swap1\n      sload\n      swap1\n      0x0100\n      exp\n      swap1\n      div\n      0xff\n      and\n      0x03\n      dup2\n      gt\n      iszero\n      tag_243\n      jumpi\n      tag_244\n      tag_100\n      jump\t// in\n    tag_244:\n    tag_243:\n      0x03\n      dup2\n      gt\n      iszero\n      tag_245\n      jumpi\n      tag_246\n      tag_100\n      jump\t// in\n    tag_246:\n    tag_245:\n      dup2\n      mstore\n      0x20\n      add\n      0x02\n      dup3\n      add\n      0x01\n      swap1\n      sload\n      swap1\n      0x0100\n      exp\n      swap1\n      div\n      0xff\n      and\n      0x01\n      dup2\n      gt\n      iszero\n      tag_247\n      jumpi\n      tag_248\n      tag_100\n      jump\t// in\n    tag_248:\n    tag_247:\n      0x01\n      dup2\n      gt\n      iszero\n      tag_249\n      jumpi\n      tag_250\n      tag_100\n      jump\t// in\n    tag_250:\n    tag_249:\n      dup2\n      mstore\n      0x20\n      add\n      0x02\n      dup3\n      add\n      0x02\n      swap1\n      sload\n      swap1\n      0x0100\n      exp\n      swap1\n      div\n      0xffffffff\n      and\n      0xffffffff\n      and\n      0xffffffff\n      and\n      dup2\n      mstore\n      0x20\n      add\n      0x02\n      dup3\n      add\n      0x06\n      swap1\n      sload\n      swap1\n      0x0100\n      exp\n      swap1\n      div\n      0xffffffff\n      and\n      0xffffffff\n      and\n      0xffffffff\n      and\n      dup2\n      mstore\n      0x20\n      add\n      0x02\n      dup3\n      add\n      0x0a\n      swap1\n      sload\n      swap1\n      0x0100\n      exp\n      swap1\n      div\n      0xffffffff\n      and\n      0xffffffff\n      and\n      0xffffffff\n      and\n      dup2\n      mstore\n      0x20\n      add\n      0x03\n      dup3\n      add\n      sload\n      dup2\n      mstore\n      0x20\n      add\n      0x04\n      dup3\n      add\n      0x00\n      swap1\n      sload\n      swap1\n      0x0100\n      exp\n      swap1\n      div\n      0xffffffffffffffffffffffffffffffffffffffff\n      and\n      0xffffffffffffffffffffffffffffffffffffffff\n      and\n      0xffffffffffffffffffffffffffffffffffffffff\n      and\n      dup2\n      mstore\n      0x20\n      add\n      0x05\n      dup3\n      add\n      0x00\n      swap1\n      sload\n      swap1\n      0x0100\n      exp\n      swap1\n      div\n      0xffffffffffffffffffffffffffffffffffffffff\n      and\n      0xffffffffffffffffffffffffffffffffffffffff\n      and\n      0xffffffffffffffffffffffffffffffffffffffff\n      and\n      dup2\n      mstore\n      0x20\n      add\n      0x05\n      dup3\n      add\n      0x14\n      swap1\n      sload\n      swap1\n      0x0100\n      exp\n      swap1\n      div\n      0xff\n      and\n      iszero\n      iszero\n      iszero\n      iszero\n      dup2\n      mstore\n      pop\n      pop\n      swap1\n      pop\n        /* \"contracts/contract-management.sol\":3295:3427  function getContract(uint256 _contractId) external view returns (Contract memory) {... */\n      swap2\n      swap1\n      pop\n      jump\t// out\n        /* \"@openzeppelin/contracts/access/Ownable.sol\":2293:2394  function renounceOwnership() public virtual onlyOwner {... */\n    tag_59:\n        /* \"@openzeppelin/contracts/access/Ownable.sol\":1531:1544  _checkOwner() */\n      tag_252\n        /* \"@openzeppelin/contracts/access/Ownable.sol\":1531:1542  _checkOwner */\n      tag_160\n        /* \"@openzeppelin/contracts/access/Ownable.sol\":1531:1544  _checkOwner() */\n      jump\t// in\n    tag_252:\n        /* \"@openzeppelin/contracts/access/Ownable.sol\":2357:2387  _transferOwnership(address(0)) */\n      tag_254\n        /* \"@openzeppelin/contracts/access/Ownable.sol\":2384:2385  0 */\n      0x00\n        /* \"@openzeppelin/contracts/access/Ownable.sol\":2357:2375  _transferOwnership */\n      tag_255\n        /* \"@openzeppelin/contracts/access/Ownable.sol\":2357:2387  _transferOwnership(address(0)) */\n      jump\t// in\n    tag_254:\n        /* \"@openzeppelin/contracts/access/Ownable.sol\":2293:2394  function renounceOwnership() public virtual onlyOwner {... */\n      jump\t// out\n        /* \"contracts/contract-management.sol\":1943:2418  function sealContract(uint256 _contractId) external returns (bool) {... */\n    tag_63:\n        /* \"contracts/contract-management.sol\":2004:2008  bool */\n      0x00\n        /* \"contracts/contract-management.sol\":2085:2107  ContractState.Canceled */\n      0x02\n        /* \"contracts/contract-management.sol\":2043:2107  ContractMgt[_contractId].contractState == ContractState.Canceled */\n      0x03\n      dup2\n      gt\n      iszero\n      tag_257\n      jumpi\n      tag_258\n      tag_100\n      jump\t// in\n    tag_258:\n    tag_257:\n        /* \"contracts/contract-management.sol\":2043:2054  ContractMgt */\n      0x03\n        /* \"contracts/contract-management.sol\":2043:2067  ContractMgt[_contractId] */\n      0x00\n        /* \"contracts/contract-management.sol\":2055:2066  _contractId */\n      dup5\n        /* \"contracts/contract-management.sol\":2043:2067  ContractMgt[_contractId] */\n      dup2\n      mstore\n      0x20\n      add\n      swap1\n      dup2\n      mstore\n      0x20\n      add\n      0x00\n      keccak256\n        /* \"contracts/contract-management.sol\":2043:2081  ContractMgt[_contractId].contractState */\n      0x02\n      add\n      0x00\n      swap1\n      sload\n      swap1\n      0x0100\n      exp\n      swap1\n      div\n      0xff\n      and\n        /* \"contracts/contract-management.sol\":2043:2107  ContractMgt[_contractId].contractState == ContractState.Canceled */\n      0x03\n      dup2\n      gt\n      iszero\n      tag_259\n      jumpi\n      tag_260\n      tag_100\n      jump\t// in\n    tag_260:\n    tag_259:\n      eq\n        /* \"contracts/contract-management.sol\":2021:2161  require(... */\n      tag_261\n      jumpi\n      mload(0x40)\n      0x08c379a000000000000000000000000000000000000000000000000000000000\n      dup2\n      mstore\n      0x04\n      add\n      tag_262\n      swap1\n      tag_263\n      jump\t// in\n    tag_262:\n      mload(0x40)\n      dup1\n      swap2\n      sub\n      swap1\n      revert\n    tag_261:\n        /* \"contracts/contract-management.sol\":2194:2205  ContractMgt */\n      0x03\n        /* \"contracts/contract-management.sol\":2194:2218  ContractMgt[_contractId] */\n      0x00\n        /* \"contracts/contract-management.sol\":2206:2217  _contractId */\n      dup4\n        /* \"contracts/contract-management.sol\":2194:2218  ContractMgt[_contractId] */\n      dup2\n      mstore\n      0x20\n      add\n      swap1\n      dup2\n      mstore\n      0x20\n      add\n      0x00\n      keccak256\n        /* \"contracts/contract-management.sol\":2194:2241  ContractMgt[_contractId].hasPaidToContractAdmin */\n      0x05\n      add\n      0x14\n      swap1\n      sload\n      swap1\n      0x0100\n      exp\n      swap1\n      div\n      0xff\n      and\n        /* \"contracts/contract-management.sol\":2172:2312  require(... */\n      tag_264\n      jumpi\n      mload(0x40)\n      0x08c379a000000000000000000000000000000000000000000000000000000000\n      dup2\n      mstore\n      0x04\n      add\n      tag_265\n      swap1\n      tag_266\n      jump\t// in\n    tag_265:\n      mload(0x40)\n      dup1\n      swap2\n      sub\n      swap1\n      revert\n    tag_264:\n        /* \"contracts/contract-management.sol\":2366:2386  ContractState.Sealed */\n      0x01\n        /* \"contracts/contract-management.sol\":2325:2336  ContractMgt */\n      0x03\n        /* \"contracts/contract-management.sol\":2325:2349  ContractMgt[_contractId] */\n      0x00\n        /* \"contracts/contract-management.sol\":2337:2348  _contractId */\n      dup5\n        /* \"contracts/contract-management.sol\":2325:2349  ContractMgt[_contractId] */\n      dup2\n      mstore\n      0x20\n      add\n      swap1\n      dup2\n      mstore\n      0x20\n      add\n      0x00\n      keccak256\n        /* \"contracts/contract-management.sol\":2325:2363  ContractMgt[_contractId].contractState */\n      0x02\n      add\n      0x00\n        /* \"contracts/contract-management.sol\":2325:2386  ContractMgt[_contractId].contractState = ContractState.Sealed */\n      0x0100\n      exp\n      dup2\n      sload\n      dup2\n      0xff\n      mul\n      not\n      and\n      swap1\n      dup4\n      0x03\n      dup2\n      gt\n      iszero\n      tag_267\n      jumpi\n      tag_268\n      tag_100\n      jump\t// in\n    tag_268:\n    tag_267:\n      mul\n      or\n      swap1\n      sstore\n      pop\n        /* \"contracts/contract-management.sol\":2406:2410  true */\n      0x01\n        /* \"contracts/contract-management.sol\":2399:2410  return true */\n      swap1\n      pop\n        /* \"contracts/contract-management.sol\":1943:2418  function sealContract(uint256 _contractId) external returns (bool) {... */\n      swap2\n      swap1\n      pop\n      jump\t// out\n        /* \"@openzeppelin/contracts/access/Ownable.sol\":1638:1723  function owner() public view virtual returns (address) {... */\n    tag_68:\n        /* \"@openzeppelin/contracts/access/Ownable.sol\":1684:1691  address */\n      0x00\n        /* \"@openzeppelin/contracts/access/Ownable.sol\":1710:1716  _owner */\n      dup1\n      0x00\n      swap1\n      sload\n      swap1\n      0x0100\n      exp\n      swap1\n      div\n      0xffffffffffffffffffffffffffffffffffffffff\n      and\n        /* \"@openzeppelin/contracts/access/Ownable.sol\":1703:1716  return _owner */\n      swap1\n      pop\n        /* \"@openzeppelin/contracts/access/Ownable.sol\":1638:1723  function owner() public view virtual returns (address) {... */\n      swap1\n      jump\t// out\n        /* \"contracts/contracts.sol\":1858:2034  function updateContractStatus(uint256 _contractId) public payable returns (bool){ ... */\n    tag_73:\n        /* \"contracts/contracts.sol\":1933:1937  bool */\n      0x00\n        /* \"contracts/contracts.sol\":2000:2004  true */\n      0x01\n        /* \"contracts/contracts.sol\":1950:1961  ContractMgt */\n      0x03\n        /* \"contracts/contracts.sol\":1950:1974  ContractMgt[_contractId] */\n      0x00\n        /* \"contracts/contracts.sol\":1962:1973  _contractId */\n      dup5\n        /* \"contracts/contracts.sol\":1950:1974  ContractMgt[_contractId] */\n      dup2\n      mstore\n      0x20\n      add\n      swap1\n      dup2\n      mstore\n      0x20\n      add\n      0x00\n      keccak256\n        /* \"contracts/contracts.sol\":1950:1997  ContractMgt[_contractId].hasPaidToContractAdmin */\n      0x05\n      add\n      0x14\n        /* \"contracts/contracts.sol\":1950:2004  ContractMgt[_contractId].hasPaidToContractAdmin = true */\n      0x0100\n      exp\n      dup2\n      sload\n      dup2\n      0xff\n      mul\n      not\n      and\n      swap1\n      dup4\n      iszero\n      iszero\n      mul\n      or\n      swap1\n      sstore\n      pop\n        /* \"contracts/contracts.sol\":2022:2026  true */\n      0x01\n        /* \"contracts/contracts.sol\":2015:2026  return true */\n      swap1\n      pop\n        /* \"contracts/contracts.sol\":1858:2034  function updateContractStatus(uint256 _contractId) public payable returns (bool){ ... */\n      swap2\n      swap1\n      pop\n      jump\t// out\n        /* \"contracts/contracts.sol\":1390:1850  function payToContractAdmin(address _payeeAddress, uint256 _contractId) external payable {... */\n    tag_78:\n        /* \"contracts/contracts.sol\":1495:1510  Logger(\"first\") */\n      0x65e06b3884a88e13243953e5160aec7a836e4cc7abc0762f84c66d6b918efe7f\n      mload(0x40)\n      tag_272\n      swap1\n      tag_273\n      jump\t// in\n    tag_272:\n      mload(0x40)\n      dup1\n      swap2\n      sub\n      swap1\n      log1\n        /* \"contracts/contracts.sol\":1521:1552  Contract memory currentContract */\n      0x00\n        /* \"contracts/contracts.sol\":1556:1567  ContractMgt */\n      0x03\n        /* \"contracts/contracts.sol\":1556:1580  ContractMgt[_contractId] */\n      0x00\n        /* \"contracts/contracts.sol\":1568:1579  _contractId */\n      dup4\n        /* \"contracts/contracts.sol\":1556:1580  ContractMgt[_contractId] */\n      dup2\n      mstore\n      0x20\n      add\n      swap1\n      dup2\n      mstore\n      0x20\n      add\n      0x00\n      keccak256\n        /* \"contracts/contracts.sol\":1521:1580  Contract memory currentContract  = ContractMgt[_contractId] */\n      mload(0x40)\n      dup1\n      0x0160\n      add\n      0x40\n      mstore\n      swap1\n      dup2\n      0x00\n      dup3\n      add\n      dup1\n      sload\n      tag_274\n      swap1\n      tag_117\n      jump\t// in\n    tag_274:\n      dup1\n      0x1f\n      add\n      0x20\n      dup1\n      swap2\n      div\n      mul\n      0x20\n      add\n      mload(0x40)\n      swap1\n      dup2\n      add\n      0x40\n      mstore\n      dup1\n      swap3\n      swap2\n      swap1\n      dup2\n      dup2\n      mstore\n      0x20\n      add\n      dup3\n      dup1\n      sload\n      tag_275\n      swap1\n      tag_117\n      jump\t// in\n    tag_275:\n      dup1\n      iszero\n      tag_276\n      jumpi\n      dup1\n      0x1f\n      lt\n      tag_277\n      jumpi\n      0x0100\n      dup1\n      dup4\n      sload\n      div\n      mul\n      dup4\n      mstore\n      swap2\n      0x20\n      add\n      swap2\n      jump(tag_276)\n    tag_277:\n      dup3\n      add\n      swap2\n      swap1\n      0x00\n      mstore\n      keccak256(0x00, 0x20)\n      swap1\n    tag_278:\n      dup2\n      sload\n      dup2\n      mstore\n      swap1\n      0x01\n      add\n      swap1\n      0x20\n      add\n      dup1\n      dup4\n      gt\n      tag_278\n      jumpi\n      dup3\n      swap1\n      sub\n      0x1f\n      and\n      dup3\n      add\n      swap2\n    tag_276:\n      pop\n      pop\n      pop\n      pop\n      pop\n      dup2\n      mstore\n      0x20\n      add\n      0x01\n      dup3\n      add\n      dup1\n      sload\n      tag_279\n      swap1\n      tag_117\n      jump\t// in\n    tag_279:\n      dup1\n      0x1f\n      add\n      0x20\n      dup1\n      swap2\n      div\n      mul\n      0x20\n      add\n      mload(0x40)\n      swap1\n      dup2\n      add\n      0x40\n      mstore\n      dup1\n      swap3\n      swap2\n      swap1\n      dup2\n      dup2\n      mstore\n      0x20\n      add\n      dup3\n      dup1\n      sload\n      tag_280\n      swap1\n      tag_117\n      jump\t// in\n    tag_280:\n      dup1\n      iszero\n      tag_281\n      jumpi\n      dup1\n      0x1f\n      lt\n      tag_282\n      jumpi\n      0x0100\n      dup1\n      dup4\n      sload\n      div\n      mul\n      dup4\n      mstore\n      swap2\n      0x20\n      add\n      swap2\n      jump(tag_281)\n    tag_282:\n      dup3\n      add\n      swap2\n      swap1\n      0x00\n      mstore\n      keccak256(0x00, 0x20)\n      swap1\n    tag_283:\n      dup2\n      sload\n      dup2\n      mstore\n      swap1\n      0x01\n      add\n      swap1\n      0x20\n      add\n      dup1\n      dup4\n      gt\n      tag_283\n      jumpi\n      dup3\n      swap1\n      sub\n      0x1f\n      and\n      dup3\n      add\n      swap2\n    tag_281:\n      pop\n      pop\n      pop\n      pop\n      pop\n      dup2\n      mstore\n      0x20\n      add\n      0x02\n      dup3\n      add\n      0x00\n      swap1\n      sload\n      swap1\n      0x0100\n      exp\n      swap1\n      div\n      0xff\n      and\n      0x03\n      dup2\n      gt\n      iszero\n      tag_284\n      jumpi\n      tag_285\n      tag_100\n      jump\t// in\n    tag_285:\n    tag_284:\n      0x03\n      dup2\n      gt\n      iszero\n      tag_286\n      jumpi\n      tag_287\n      tag_100\n      jump\t// in\n    tag_287:\n    tag_286:\n      dup2\n      mstore\n      0x20\n      add\n      0x02\n      dup3\n      add\n      0x01\n      swap1\n      sload\n      swap1\n      0x0100\n      exp\n      swap1\n      div\n      0xff\n      and\n      0x01\n      dup2\n      gt\n      iszero\n      tag_288\n      jumpi\n      tag_289\n      tag_100\n      jump\t// in\n    tag_289:\n    tag_288:\n      0x01\n      dup2\n      gt\n      iszero\n      tag_290\n      jumpi\n      tag_291\n      tag_100\n      jump\t// in\n    tag_291:\n    tag_290:\n      dup2\n      mstore\n      0x20\n      add\n      0x02\n      dup3\n      add\n      0x02\n      swap1\n      sload\n      swap1\n      0x0100\n      exp\n      swap1\n      div\n      0xffffffff\n      and\n      0xffffffff\n      and\n      0xffffffff\n      and\n      dup2\n      mstore\n      0x20\n      add\n      0x02\n      dup3\n      add\n      0x06\n      swap1\n      sload\n      swap1\n      0x0100\n      exp\n      swap1\n      div\n      0xffffffff\n      and\n      0xffffffff\n      and\n      0xffffffff\n      and\n      dup2\n      mstore\n      0x20\n      add\n      0x02\n      dup3\n      add\n      0x0a\n      swap1\n      sload\n      swap1\n      0x0100\n      exp\n      swap1\n      div\n      0xffffffff\n      and\n      0xffffffff\n      and\n      0xffffffff\n      and\n      dup2\n      mstore\n      0x20\n      add\n      0x03\n      dup3\n      add\n      sload\n      dup2\n      mstore\n      0x20\n      add\n      0x04\n      dup3\n      add\n      0x00\n      swap1\n      sload\n      swap1\n      0x0100\n      exp\n      swap1\n      div\n      0xffffffffffffffffffffffffffffffffffffffff\n      and\n      0xffffffffffffffffffffffffffffffffffffffff\n      and\n      0xffffffffffffffffffffffffffffffffffffffff\n      and\n      dup2\n      mstore\n      0x20\n      add\n      0x05\n      dup3\n      add\n      0x00\n      swap1\n      sload\n      swap1\n      0x0100\n      exp\n      swap1\n      div\n      0xffffffffffffffffffffffffffffffffffffffff\n      and\n      0xffffffffffffffffffffffffffffffffffffffff\n      and\n      0xffffffffffffffffffffffffffffffffffffffff\n      and\n      dup2\n      mstore\n      0x20\n      add\n      0x05\n      dup3\n      add\n      0x14\n      swap1\n      sload\n      swap1\n      0x0100\n      exp\n      swap1\n      div\n      0xff\n      and\n      iszero\n      iszero\n      iszero\n      iszero\n      dup2\n      mstore\n      pop\n      pop\n      swap1\n      pop\n        /* \"contracts/contracts.sol\":1596:1612  Logger(\"second\") */\n      0x65e06b3884a88e13243953e5160aec7a836e4cc7abc0762f84c66d6b918efe7f\n      mload(0x40)\n      tag_292\n      swap1\n      tag_293\n      jump\t// in\n    tag_292:\n      mload(0x40)\n      dup1\n      swap2\n      sub\n      swap1\n      log1\n        /* \"contracts/contracts.sol\":1624:1636  bool success */\n      0x00\n        /* \"contracts/contracts.sol\":1642:1655  _payeeAddress */\n      dup4\n        /* \"contracts/contracts.sol\":1642:1660  _payeeAddress.call */\n      0xffffffffffffffffffffffffffffffffffffffff\n      and\n        /* \"contracts/contracts.sol\":1668:1683  currentContract */\n      dup3\n        /* \"contracts/contracts.sol\":1668:1690  currentContract.amount */\n      0xe0\n      add\n      mload\n        /* \"contracts/contracts.sol\":1763:1774  _contractId */\n      dup5\n        /* \"contracts/contracts.sol\":1706:1775  abi.encodeWithSignature(\"updateContractStatus(uint256)\", _contractId) */\n      add(0x24, mload(0x40))\n      tag_294\n      swap2\n      swap1\n      tag_23\n      jump\t// in\n    tag_294:\n      mload(0x40)\n      0x20\n      dup2\n      dup4\n      sub\n      sub\n      dup2\n      mstore\n      swap1\n      0x40\n      mstore\n      and(not(0xffffffffffffffffffffffffffffffffffffffffffffffffffffffff), 0x998aa46500000000000000000000000000000000000000000000000000000000)\n      0x20\n      dup3\n      add\n      dup1\n      mload\n      0xffffffffffffffffffffffffffffffffffffffffffffffffffffffff\n      dup4\n      dup2\n      dup4\n      and\n      or\n      dup4\n      mstore\n      pop\n      pop\n      pop\n      pop\n        /* \"contracts/contracts.sol\":1642:1786  _payeeAddress.call{value: currentContract.amount}(... */\n      mload(0x40)\n      tag_295\n      swap2\n      swap1\n      tag_296\n      jump\t// in\n    tag_295:\n      0x00\n      mload(0x40)\n      dup1\n      dup4\n      sub\n      dup2\n      dup6\n      dup8\n      gas\n      call\n      swap3\n      pop\n      pop\n      pop\n      returndatasize\n      dup1\n      0x00\n      dup2\n      eq\n      tag_299\n      jumpi\n      mload(0x40)\n      swap2\n      pop\n      and(add(returndatasize, 0x3f), not(0x1f))\n      dup3\n      add\n      0x40\n      mstore\n      returndatasize\n      dup3\n      mstore\n      returndatasize\n      0x00\n      0x20\n      dup5\n      add\n      returndatacopy\n      jump(tag_298)\n    tag_299:\n      0x60\n      swap2\n      pop\n    tag_298:\n      pop\n        /* \"contracts/contracts.sol\":1623:1786  (bool success,) =  _payeeAddress.call{value: currentContract.amount}(... */\n      pop\n      swap1\n      pop\n        /* \"contracts/contracts.sol\":1805:1812  success */\n      dup1\n        /* \"contracts/contracts.sol\":1797:1841  require(success, \"Payment is not completed\") */\n      tag_300\n      jumpi\n      mload(0x40)\n      0x08c379a000000000000000000000000000000000000000000000000000000000\n      dup2\n      mstore\n      0x04\n      add\n      tag_301\n      swap1\n      tag_302\n      jump\t// in\n    tag_301:\n      mload(0x40)\n      dup1\n      swap2\n      sub\n      swap1\n      revert\n    tag_300:\n        /* \"contracts/contracts.sol\":1479:1850  {... */\n      pop\n      pop\n        /* \"contracts/contracts.sol\":1390:1850  function payToContractAdmin(address _payeeAddress, uint256 _contractId) external payable {... */\n      pop\n      pop\n      jump\t// out\n        /* \"@openzeppelin/contracts/access/Ownable.sol\":2543:2758  function transferOwnership(address newOwner) public virtual onlyOwner {... */\n    tag_83:\n        /* \"@openzeppelin/contracts/access/Ownable.sol\":1531:1544  _checkOwner() */\n      tag_304\n        /* \"@openzeppelin/contracts/access/Ownable.sol\":1531:1542  _checkOwner */\n      tag_160\n        /* \"@openzeppelin/contracts/access/Ownable.sol\":1531:1544  _checkOwner() */\n      jump\t// in\n    tag_304:\n        /* \"@openzeppelin/contracts/access/Ownable.sol\":2647:2648  0 */\n      0x00\n        /* \"@openzeppelin/contracts/access/Ownable.sol\":2627:2649  newOwner == address(0) */\n      0xffffffffffffffffffffffffffffffffffffffff\n      and\n        /* \"@openzeppelin/contracts/access/Ownable.sol\":2627:2635  newOwner */\n      dup2\n        /* \"@openzeppelin/contracts/access/Ownable.sol\":2627:2649  newOwner == address(0) */\n      0xffffffffffffffffffffffffffffffffffffffff\n      and\n      sub\n        /* \"@openzeppelin/contracts/access/Ownable.sol\":2623:2714  if (newOwner == address(0)) {... */\n      tag_306\n      jumpi\n        /* \"@openzeppelin/contracts/access/Ownable.sol\":2700:2701  0 */\n      0x00\n        /* \"@openzeppelin/contracts/access/Ownable.sol\":2672:2703  OwnableInvalidOwner(address(0)) */\n      mload(0x40)\n      0x1e4fbdf700000000000000000000000000000000000000000000000000000000\n      dup2\n      mstore\n      0x04\n      add\n      tag_307\n      swap2\n      swap1\n      tag_70\n      jump\t// in\n    tag_307:\n      mload(0x40)\n      dup1\n      swap2\n      sub\n      swap1\n      revert\n        /* \"@openzeppelin/contracts/access/Ownable.sol\":2623:2714  if (newOwner == address(0)) {... */\n    tag_306:\n        /* \"@openzeppelin/contracts/access/Ownable.sol\":2723:2751  _transferOwnership(newOwner) */\n      tag_308\n        /* \"@openzeppelin/contracts/access/Ownable.sol\":2742:2750  newOwner */\n      dup2\n        /* \"@openzeppelin/contracts/access/Ownable.sol\":2723:2741  _transferOwnership */\n      tag_255\n        /* \"@openzeppelin/contracts/access/Ownable.sol\":2723:2751  _transferOwnership(newOwner) */\n      jump\t// in\n    tag_308:\n        /* \"@openzeppelin/contracts/access/Ownable.sol\":2543:2758  function transferOwnership(address newOwner) public virtual onlyOwner {... */\n      pop\n      jump\t// out\n        /* \"contracts/contract-management.sol\":4570:4883  function makePayment(address _to, uint256 _amount) public payable {... */\n    tag_86:\n        /* \"contracts/contract-management.sol\":4670:4671  0 */\n      0x00\n        /* \"contracts/contract-management.sol\":4655:4672  _to != address(0) */\n      0xffffffffffffffffffffffffffffffffffffffff\n      and\n        /* \"contracts/contract-management.sol\":4655:4658  _to */\n      dup3\n        /* \"contracts/contract-management.sol\":4655:4672  _to != address(0) */\n      0xffffffffffffffffffffffffffffffffffffffff\n      and\n      sub\n        /* \"contracts/contract-management.sol\":4647:4702  require(_to != address(0), \"Invalid recipient address\") */\n      tag_310\n      jumpi\n      mload(0x40)\n      0x08c379a000000000000000000000000000000000000000000000000000000000\n      dup2\n      mstore\n      0x04\n      add\n      tag_311\n      swap1\n      tag_312\n      jump\t// in\n    tag_311:\n      mload(0x40)\n      dup1\n      swap2\n      sub\n      swap1\n      revert\n    tag_310:\n        /* \"contracts/contract-management.sol\":4731:4732  0 */\n      0x00\n        /* \"contracts/contract-management.sol\":4721:4728  _amount */\n      dup2\n        /* \"contracts/contract-management.sol\":4721:4732  _amount > 0 */\n      gt\n        /* \"contracts/contract-management.sol\":4713:4769  require(_amount > 0, \"Amount must be greater than zero\") */\n      tag_313\n      jumpi\n      mload(0x40)\n      0x08c379a000000000000000000000000000000000000000000000000000000000\n      dup2\n      mstore\n      0x04\n      add\n      tag_314\n      swap1\n      tag_315\n      jump\t// in\n    tag_314:\n      mload(0x40)\n      dup1\n      swap2\n      sub\n      swap1\n      revert\n    tag_313:\n        /* \"contracts/contract-management.sol\":4783:4795  bool success */\n      0x00\n        /* \"contracts/contract-management.sol\":4801:4804  _to */\n      dup3\n        /* \"contracts/contract-management.sol\":4801:4809  _to.call */\n      0xffffffffffffffffffffffffffffffffffffffff\n      and\n        /* \"contracts/contract-management.sol\":4817:4824  _amount */\n      dup3\n        /* \"contracts/contract-management.sol\":4801:4829  _to.call{value: _amount}(\"\") */\n      mload(0x40)\n      tag_316\n      swap1\n      tag_317\n      jump\t// in\n    tag_316:\n      0x00\n      mload(0x40)\n      dup1\n      dup4\n      sub\n      dup2\n      dup6\n      dup8\n      gas\n      call\n      swap3\n      pop\n      pop\n      pop\n      returndatasize\n      dup1\n      0x00\n      dup2\n      eq\n      tag_320\n      jumpi\n      mload(0x40)\n      swap2\n      pop\n      and(add(returndatasize, 0x3f), not(0x1f))\n      dup3\n      add\n      0x40\n      mstore\n      returndatasize\n      dup3\n      mstore\n      returndatasize\n      0x00\n      0x20\n      dup5\n      add\n      returndatacopy\n      jump(tag_319)\n    tag_320:\n      0x60\n      swap2\n      pop\n    tag_319:\n      pop\n        /* \"contracts/contract-management.sol\":4782:4829  (bool success, ) = _to.call{value: _amount}(\"\") */\n      pop\n      swap1\n      pop\n        /* \"contracts/contract-management.sol\":4848:4855  success */\n      dup1\n        /* \"contracts/contract-management.sol\":4840:4875  require(success, \"Transfer failed\") */\n      tag_321\n      jumpi\n      mload(0x40)\n      0x08c379a000000000000000000000000000000000000000000000000000000000\n      dup2\n      mstore\n      0x04\n      add\n      tag_322\n      swap1\n      tag_323\n      jump\t// in\n    tag_322:\n      mload(0x40)\n      dup1\n      swap2\n      sub\n      swap1\n      revert\n    tag_321:\n        /* \"contracts/contract-management.sol\":4636:4883  {... */\n      pop\n        /* \"contracts/contract-management.sol\":4570:4883  function makePayment(address _to, uint256 _amount) public payable {... */\n      pop\n      pop\n      jump\t// out\n        /* \"contracts/contract-management.sol\":3942:4562  function executeContract(Contract memory _contractItem, uint _contractId) internal  {... */\n    tag_157:\n        /* \"contracts/contract-management.sol\":4101:4102  2 */\n      0x02\n        /* \"contracts/contract-management.sol\":4066:4079  _contractItem */\n      dup3\n        /* \"contracts/contract-management.sol\":4066:4100  _contractItem.numberOfParticipants */\n      0x80\n      add\n      mload\n        /* \"contracts/contract-management.sol\":4066:4102  _contractItem.numberOfParticipants/2 */\n      tag_325\n      swap2\n      swap1\n      tag_326\n      jump\t// in\n    tag_325:\n        /* \"contracts/contract-management.sol\":4041:4102  _contractItem.forVotes > _contractItem.numberOfParticipants/2 */\n      0xffffffff\n      and\n        /* \"contracts/contract-management.sol\":4041:4054  _contractItem */\n      dup3\n        /* \"contracts/contract-management.sol\":4041:4063  _contractItem.forVotes */\n      0xa0\n      add\n      mload\n        /* \"contracts/contract-management.sol\":4041:4102  _contractItem.forVotes > _contractItem.numberOfParticipants/2 */\n      0xffffffff\n      and\n      gt\n        /* \"contracts/contract-management.sol\":4037:4498  if (_contractItem.forVotes > _contractItem.numberOfParticipants/2) {... */\n      iszero\n      tag_327\n      jumpi\n        /* \"contracts/contract-management.sol\":4119:4186  makePayment(_contractItem.payableUserAddress, _contractItem.amount) */\n      tag_328\n        /* \"contracts/contract-management.sol\":4131:4144  _contractItem */\n      dup3\n        /* \"contracts/contract-management.sol\":4131:4163  _contractItem.payableUserAddress */\n      0x0100\n      add\n      mload\n        /* \"contracts/contract-management.sol\":4165:4178  _contractItem */\n      dup4\n        /* \"contracts/contract-management.sol\":4165:4185  _contractItem.amount */\n      0xe0\n      add\n      mload\n        /* \"contracts/contract-management.sol\":4119:4130  makePayment */\n      tag_86\n        /* \"contracts/contract-management.sol\":4119:4186  makePayment(_contractItem.payableUserAddress, _contractItem.amount) */\n      jump\t// in\n    tag_328:\n        /* \"contracts/contract-management.sol\":4231:4253  ContractState.Executed */\n      0x03\n        /* \"contracts/contract-management.sol\":4201:4214  _contractItem */\n      dup3\n        /* \"contracts/contract-management.sol\":4201:4228  _contractItem.contractState */\n      0x40\n      add\n        /* \"contracts/contract-management.sol\":4201:4253  _contractItem.contractState = ContractState.Executed */\n      swap1\n      0x03\n      dup2\n      gt\n      iszero\n      tag_329\n      jumpi\n      tag_330\n      tag_100\n      jump\t// in\n    tag_330:\n    tag_329:\n      swap1\n      dup2\n      0x03\n      dup2\n      gt\n      iszero\n      tag_331\n      jumpi\n      tag_332\n      tag_100\n      jump\t// in\n    tag_332:\n    tag_331:\n      dup2\n      mstore\n      pop\n      pop\n        /* \"contracts/contract-management.sol\":4037:4498  if (_contractItem.forVotes > _contractItem.numberOfParticipants/2) {... */\n      jump(tag_333)\n    tag_327:\n        /* \"contracts/contract-management.sol\":4340:4341  2 */\n      0x02\n        /* \"contracts/contract-management.sol\":4305:4318  _contractItem */\n      dup3\n        /* \"contracts/contract-management.sol\":4305:4339  _contractItem.numberOfParticipants */\n      0x80\n      add\n      mload\n        /* \"contracts/contract-management.sol\":4305:4341  _contractItem.numberOfParticipants/2 */\n      tag_334\n      swap2\n      swap1\n      tag_326\n      jump\t// in\n    tag_334:\n        /* \"contracts/contract-management.sol\":4276:4341  _contractItem.againstVotes > _contractItem.numberOfParticipants/2 */\n      0xffffffff\n      and\n        /* \"contracts/contract-management.sol\":4276:4289  _contractItem */\n      dup3\n        /* \"contracts/contract-management.sol\":4276:4302  _contractItem.againstVotes */\n      0xc0\n      add\n      mload\n        /* \"contracts/contract-management.sol\":4276:4341  _contractItem.againstVotes > _contractItem.numberOfParticipants/2 */\n      0xffffffff\n      and\n      gt\n        /* \"contracts/contract-management.sol\":4273:4498  if(_contractItem.againstVotes > _contractItem.numberOfParticipants/2) {... */\n      iszero\n      tag_335\n      jumpi\n        /* \"contracts/contract-management.sol\":4358:4419  makePayment(_contractItem.payeeAddress, _contractItem.amount) */\n      tag_336\n        /* \"contracts/contract-management.sol\":4370:4383  _contractItem */\n      dup3\n        /* \"contracts/contract-management.sol\":4370:4396  _contractItem.payeeAddress */\n      0x0120\n      add\n      mload\n        /* \"contracts/contract-management.sol\":4398:4411  _contractItem */\n      dup4\n        /* \"contracts/contract-management.sol\":4398:4418  _contractItem.amount */\n      0xe0\n      add\n      mload\n        /* \"contracts/contract-management.sol\":4358:4369  makePayment */\n      tag_86\n        /* \"contracts/contract-management.sol\":4358:4419  makePayment(_contractItem.payeeAddress, _contractItem.amount) */\n      jump\t// in\n    tag_336:\n        /* \"contracts/contract-management.sol\":4464:4486  ContractState.Executed */\n      0x03\n        /* \"contracts/contract-management.sol\":4434:4447  _contractItem */\n      dup3\n        /* \"contracts/contract-management.sol\":4434:4461  _contractItem.contractState */\n      0x40\n      add\n        /* \"contracts/contract-management.sol\":4434:4486  _contractItem.contractState = ContractState.Executed */\n      swap1\n      0x03\n      dup2\n      gt\n      iszero\n      tag_337\n      jumpi\n      tag_338\n      tag_100\n      jump\t// in\n    tag_338:\n    tag_337:\n      swap1\n      dup2\n      0x03\n      dup2\n      gt\n      iszero\n      tag_339\n      jumpi\n      tag_340\n      tag_100\n      jump\t// in\n    tag_340:\n    tag_339:\n      dup2\n      mstore\n      pop\n      pop\n        /* \"contracts/contract-management.sol\":4273:4498  if(_contractItem.againstVotes > _contractItem.numberOfParticipants/2) {... */\n    tag_335:\n        /* \"contracts/contract-management.sol\":4037:4498  if (_contractItem.forVotes > _contractItem.numberOfParticipants/2) {... */\n    tag_333:\n        /* \"contracts/contract-management.sol\":4513:4554  contractExecuted(msg.sender, _contractId) */\n      0xeac3d83c2e72fbc1d7624dad3e1753f855ffd9cb39a7e0736c0e684b055ed57f\n        /* \"contracts/contract-management.sol\":4530:4540  msg.sender */\n      caller\n        /* \"contracts/contract-management.sol\":4542:4553  _contractId */\n      dup3\n        /* \"contracts/contract-management.sol\":4513:4554  contractExecuted(msg.sender, _contractId) */\n      mload(0x40)\n      tag_341\n      swap3\n      swap2\n      swap1\n      tag_342\n      jump\t// in\n    tag_341:\n      mload(0x40)\n      dup1\n      swap2\n      sub\n      swap1\n      log1\n        /* \"contracts/contract-management.sol\":3942:4562  function executeContract(Contract memory _contractItem, uint _contractId) internal  {... */\n      pop\n      pop\n      jump\t// out\n        /* \"@openzeppelin/contracts/access/Ownable.sol\":1796:1958  function _checkOwner() internal view virtual {... */\n    tag_160:\n        /* \"@openzeppelin/contracts/access/Ownable.sol\":1866:1878  _msgSender() */\n      tag_344\n        /* \"@openzeppelin/contracts/access/Ownable.sol\":1866:1876  _msgSender */\n      tag_345\n        /* \"@openzeppelin/contracts/access/Ownable.sol\":1866:1878  _msgSender() */\n      jump\t// in\n    tag_344:\n        /* \"@openzeppelin/contracts/access/Ownable.sol\":1855:1878  owner() != _msgSender() */\n      0xffffffffffffffffffffffffffffffffffffffff\n      and\n        /* \"@openzeppelin/contracts/access/Ownable.sol\":1855:1862  owner() */\n      tag_346\n        /* \"@openzeppelin/contracts/access/Ownable.sol\":1855:1860  owner */\n      tag_68\n        /* \"@openzeppelin/contracts/access/Ownable.sol\":1855:1862  owner() */\n      jump\t// in\n    tag_346:\n        /* \"@openzeppelin/contracts/access/Ownable.sol\":1855:1878  owner() != _msgSender() */\n      0xffffffffffffffffffffffffffffffffffffffff\n      and\n      eq\n        /* \"@openzeppelin/contracts/access/Ownable.sol\":1851:1952  if (owner() != _msgSender()) {... */\n      tag_347\n      jumpi\n        /* \"@openzeppelin/contracts/access/Ownable.sol\":1928:1940  _msgSender() */\n      tag_348\n        /* \"@openzeppelin/contracts/access/Ownable.sol\":1928:1938  _msgSender */\n      tag_345\n        /* \"@openzeppelin/contracts/access/Ownable.sol\":1928:1940  _msgSender() */\n      jump\t// in\n    tag_348:\n        /* \"@openzeppelin/contracts/access/Ownable.sol\":1901:1941  OwnableUnauthorizedAccount(_msgSender()) */\n      mload(0x40)\n      0x118cdaa700000000000000000000000000000000000000000000000000000000\n      dup2\n      mstore\n      0x04\n      add\n      tag_349\n      swap2\n      swap1\n      tag_70\n      jump\t// in\n    tag_349:\n      mload(0x40)\n      dup1\n      swap2\n      sub\n      swap1\n      revert\n        /* \"@openzeppelin/contracts/access/Ownable.sol\":1851:1952  if (owner() != _msgSender()) {... */\n    tag_347:\n        /* \"@openzeppelin/contracts/access/Ownable.sol\":1796:1958  function _checkOwner() internal view virtual {... */\n      jump\t// out\n        /* \"@openzeppelin/contracts/access/Ownable.sol\":2912:3099  function _transferOwnership(address newOwner) internal virtual {... */\n    tag_255:\n        /* \"@openzeppelin/contracts/access/Ownable.sol\":2985:3001  address oldOwner */\n      0x00\n        /* \"@openzeppelin/contracts/access/Ownable.sol\":3004:3010  _owner */\n      dup1\n      0x00\n      swap1\n      sload\n      swap1\n      0x0100\n      exp\n      swap1\n      div\n      0xffffffffffffffffffffffffffffffffffffffff\n      and\n        /* \"@openzeppelin/contracts/access/Ownable.sol\":2985:3010  address oldOwner = _owner */\n      swap1\n      pop\n        /* \"@openzeppelin/contracts/access/Ownable.sol\":3029:3037  newOwner */\n      dup2\n        /* \"@openzeppelin/contracts/access/Ownable.sol\":3020:3026  _owner */\n      0x00\n      dup1\n        /* \"@openzeppelin/contracts/access/Ownable.sol\":3020:3037  _owner = newOwner */\n      0x0100\n      exp\n      dup2\n      sload\n      dup2\n      0xffffffffffffffffffffffffffffffffffffffff\n      mul\n      not\n      and\n      swap1\n      dup4\n      0xffffffffffffffffffffffffffffffffffffffff\n      and\n      mul\n      or\n      swap1\n      sstore\n      pop\n        /* \"@openzeppelin/contracts/access/Ownable.sol\":3083:3091  newOwner */\n      dup2\n        /* \"@openzeppelin/contracts/access/Ownable.sol\":3052:3092  OwnershipTransferred(oldOwner, newOwner) */\n      0xffffffffffffffffffffffffffffffffffffffff\n      and\n        /* \"@openzeppelin/contracts/access/Ownable.sol\":3073:3081  oldOwner */\n      dup2\n        /* \"@openzeppelin/contracts/access/Ownable.sol\":3052:3092  OwnershipTransferred(oldOwner, newOwner) */\n      0xffffffffffffffffffffffffffffffffffffffff\n      and\n      0x8be0079c531659141344cd1fd0a4f28419497f9722a3daafe3b4186f6b6457e0\n      mload(0x40)\n      mload(0x40)\n      dup1\n      swap2\n      sub\n      swap1\n      log3\n        /* \"@openzeppelin/contracts/access/Ownable.sol\":2975:3099  {... */\n      pop\n        /* \"@openzeppelin/contracts/access/Ownable.sol\":2912:3099  function _transferOwnership(address newOwner) internal virtual {... */\n      pop\n      jump\t// out\n        /* \"@openzeppelin/contracts/utils/Context.sol\":656:752  function _msgSender() internal view virtual returns (address) {... */\n    tag_345:\n        /* \"@openzeppelin/contracts/utils/Context.sol\":709:716  address */\n      0x00\n        /* \"@openzeppelin/contracts/utils/Context.sol\":735:745  msg.sender */\n      caller\n        /* \"@openzeppelin/contracts/utils/Context.sol\":728:745  return msg.sender */\n      swap1\n      pop\n        /* \"@openzeppelin/contracts/utils/Context.sol\":656:752  function _msgSender() internal view virtual returns (address) {... */\n      swap1\n      jump\t// out\n    tag_172:\n      mload(0x40)\n      dup1\n      0x0160\n      add\n      0x40\n      mstore\n      dup1\n      0x60\n      dup2\n      mstore\n      0x20\n      add\n      0x60\n      dup2\n      mstore\n      0x20\n      add\n      0x00\n      0x03\n      dup2\n      gt\n      iszero\n      tag_352\n      jumpi\n      tag_353\n      tag_100\n      jump\t// in\n    tag_353:\n    tag_352:\n      dup2\n      mstore\n      0x20\n      add\n      0x00\n      0x01\n      dup2\n      gt\n      iszero\n      tag_354\n      jumpi\n      tag_355\n      tag_100\n      jump\t// in\n    tag_355:\n    tag_354:\n      dup2\n      mstore\n      0x20\n      add\n      and(0xffffffff, 0x00)\n      dup2\n      mstore\n      0x20\n      add\n      and(0xffffffff, 0x00)\n      dup2\n      mstore\n      0x20\n      add\n      and(0xffffffff, 0x00)\n      dup2\n      mstore\n      0x20\n      add\n      0x00\n      dup2\n      mstore\n      0x20\n      add\n      and(0xffffffffffffffffffffffffffffffffffffffff, 0x00)\n      dup2\n      mstore\n      0x20\n      add\n      and(0xffffffffffffffffffffffffffffffffffffffff, 0x00)\n      dup2\n      mstore\n      0x20\n      add\n      iszero(iszero(0x00))\n      dup2\n      mstore\n      pop\n      swap1\n      jump\t// out\n        /* \"#utility.yul\":7:84   */\n    tag_356:\n        /* \"#utility.yul\":44:51   */\n      0x00\n        /* \"#utility.yul\":73:78   */\n      dup2\n        /* \"#utility.yul\":62:78   */\n      swap1\n      pop\n        /* \"#utility.yul\":7:84   */\n      swap2\n      swap1\n      pop\n      jump\t// out\n        /* \"#utility.yul\":90:270   */\n    tag_357:\n        /* \"#utility.yul\":138:215   */\n      0x4e487b7100000000000000000000000000000000000000000000000000000000\n        /* \"#utility.yul\":135:136   */\n      0x00\n        /* \"#utility.yul\":128:216   */\n      mstore\n        /* \"#utility.yul\":235:239   */\n      0x11\n        /* \"#utility.yul\":232:233   */\n      0x04\n        /* \"#utility.yul\":225:240   */\n      mstore\n        /* \"#utility.yul\":259:263   */\n      0x24\n        /* \"#utility.yul\":256:257   */\n      0x00\n        /* \"#utility.yul\":249:264   */\n      revert\n        /* \"#utility.yul\":276:467   */\n    tag_21:\n        /* \"#utility.yul\":316:319   */\n      0x00\n        /* \"#utility.yul\":335:355   */\n      tag_469\n        /* \"#utility.yul\":353:354   */\n      dup3\n        /* \"#utility.yul\":335:355   */\n      tag_356\n      jump\t// in\n    tag_469:\n        /* \"#utility.yul\":330:355   */\n      swap2\n      pop\n        /* \"#utility.yul\":369:389   */\n      tag_470\n        /* \"#utility.yul\":387:388   */\n      dup4\n        /* \"#utility.yul\":369:389   */\n      tag_356\n      jump\t// in\n    tag_470:\n        /* \"#utility.yul\":364:389   */\n      swap3\n      pop\n        /* \"#utility.yul\":412:413   */\n      dup3\n        /* \"#utility.yul\":409:410   */\n      dup3\n        /* \"#utility.yul\":405:414   */\n      add\n        /* \"#utility.yul\":398:414   */\n      swap1\n      pop\n        /* \"#utility.yul\":433:436   */\n      dup1\n        /* \"#utility.yul\":430:431   */\n      dup3\n        /* \"#utility.yul\":427:437   */\n      gt\n        /* \"#utility.yul\":424:460   */\n      iszero\n      tag_471\n      jumpi\n        /* \"#utility.yul\":440:458   */\n      tag_472\n      tag_357\n      jump\t// in\n    tag_472:\n        /* \"#utility.yul\":424:460   */\n    tag_471:\n        /* \"#utility.yul\":276:467   */\n      swap3\n      swap2\n      pop\n      pop\n      jump\t// out\n        /* \"#utility.yul\":473:591   */\n    tag_358:\n        /* \"#utility.yul\":560:584   */\n      tag_474\n        /* \"#utility.yul\":578:583   */\n      dup2\n        /* \"#utility.yul\":560:584   */\n      tag_356\n      jump\t// in\n    tag_474:\n        /* \"#utility.yul\":555:558   */\n      dup3\n        /* \"#utility.yul\":548:585   */\n      mstore\n        /* \"#utility.yul\":473:591   */\n      pop\n      pop\n      jump\t// out\n        /* \"#utility.yul\":597:819   */\n    tag_23:\n        /* \"#utility.yul\":690:694   */\n      0x00\n        /* \"#utility.yul\":728:730   */\n      0x20\n        /* \"#utility.yul\":717:726   */\n      dup3\n        /* \"#utility.yul\":713:731   */\n      add\n        /* \"#utility.yul\":705:731   */\n      swap1\n      pop\n        /* \"#utility.yul\":741:812   */\n      tag_476\n        /* \"#utility.yul\":809:810   */\n      0x00\n        /* \"#utility.yul\":798:807   */\n      dup4\n        /* \"#utility.yul\":794:811   */\n      add\n        /* \"#utility.yul\":785:791   */\n      dup5\n        /* \"#utility.yul\":741:812   */\n      tag_358\n      jump\t// in\n    tag_476:\n        /* \"#utility.yul\":597:819   */\n      swap3\n      swap2\n      pop\n      pop\n      jump\t// out\n        /* \"#utility.yul\":825:900   */\n    tag_359:\n        /* \"#utility.yul\":858:864   */\n      0x00\n        /* \"#utility.yul\":891:893   */\n      0x40\n        /* \"#utility.yul\":885:894   */\n      mload\n        /* \"#utility.yul\":875:894   */\n      swap1\n      pop\n        /* \"#utility.yul\":825:900   */\n      swap1\n      jump\t// out\n        /* \"#utility.yul\":906:1023   */\n    tag_360:\n        /* \"#utility.yul\":1015:1016   */\n      0x00\n        /* \"#utility.yul\":1012:1013   */\n      dup1\n        /* \"#utility.yul\":1005:1017   */\n      revert\n        /* \"#utility.yul\":1029:1146   */\n    tag_361:\n        /* \"#utility.yul\":1138:1139   */\n      0x00\n        /* \"#utility.yul\":1135:1136   */\n      dup1\n        /* \"#utility.yul\":1128:1140   */\n      revert\n        /* \"#utility.yul\":1152:1269   */\n    tag_362:\n        /* \"#utility.yul\":1261:1262   */\n      0x00\n        /* \"#utility.yul\":1258:1259   */\n      dup1\n        /* \"#utility.yul\":1251:1263   */\n      revert\n        /* \"#utility.yul\":1275:1392   */\n    tag_363:\n        /* \"#utility.yul\":1384:1385   */\n      0x00\n        /* \"#utility.yul\":1381:1382   */\n      dup1\n        /* \"#utility.yul\":1374:1386   */\n      revert\n        /* \"#utility.yul\":1398:1500   */\n    tag_364:\n        /* \"#utility.yul\":1439:1445   */\n      0x00\n        /* \"#utility.yul\":1490:1492   */\n      0x1f\n        /* \"#utility.yul\":1486:1493   */\n      not\n        /* \"#utility.yul\":1481:1483   */\n      0x1f\n        /* \"#utility.yul\":1474:1479   */\n      dup4\n        /* \"#utility.yul\":1470:1484   */\n      add\n        /* \"#utility.yul\":1466:1494   */\n      and\n        /* \"#utility.yul\":1456:1494   */\n      swap1\n      pop\n        /* \"#utility.yul\":1398:1500   */\n      swap2\n      swap1\n      pop\n      jump\t// out\n        /* \"#utility.yul\":1506:1686   */\n    tag_168:\n        /* \"#utility.yul\":1554:1631   */\n      0x4e487b7100000000000000000000000000000000000000000000000000000000\n        /* \"#utility.yul\":1551:1552   */\n      0x00\n        /* \"#utility.yul\":1544:1632   */\n      mstore\n        /* \"#utility.yul\":1651:1655   */\n      0x41\n        /* \"#utility.yul\":1648:1649   */\n      0x04\n        /* \"#utility.yul\":1641:1656   */\n      mstore\n        /* \"#utility.yul\":1675:1679   */\n      0x24\n        /* \"#utility.yul\":1672:1673   */\n      0x00\n        /* \"#utility.yul\":1665:1680   */\n      revert\n        /* \"#utility.yul\":1692:1973   */\n    tag_365:\n        /* \"#utility.yul\":1775:1802   */\n      tag_485\n        /* \"#utility.yul\":1797:1801   */\n      dup3\n        /* \"#utility.yul\":1775:1802   */\n      tag_364\n      jump\t// in\n    tag_485:\n        /* \"#utility.yul\":1767:1773   */\n      dup2\n        /* \"#utility.yul\":1763:1803   */\n      add\n        /* \"#utility.yul\":1905:1911   */\n      dup2\n        /* \"#utility.yul\":1893:1903   */\n      dup2\n        /* \"#utility.yul\":1890:1912   */\n      lt\n        /* \"#utility.yul\":1869:1887   */\n      0xffffffffffffffff\n        /* \"#utility.yul\":1857:1867   */\n      dup3\n        /* \"#utility.yul\":1854:1888   */\n      gt\n        /* \"#utility.yul\":1851:1913   */\n      or\n        /* \"#utility.yul\":1848:1936   */\n      iszero\n      tag_486\n      jumpi\n        /* \"#utility.yul\":1916:1934   */\n      tag_487\n      tag_168\n      jump\t// in\n    tag_487:\n        /* \"#utility.yul\":1848:1936   */\n    tag_486:\n        /* \"#utility.yul\":1956:1966   */\n      dup1\n        /* \"#utility.yul\":1952:1954   */\n      0x40\n        /* \"#utility.yul\":1945:1967   */\n      mstore\n        /* \"#utility.yul\":1735:1973   */\n      pop\n        /* \"#utility.yul\":1692:1973   */\n      pop\n      pop\n      jump\t// out\n        /* \"#utility.yul\":1979:2108   */\n    tag_366:\n        /* \"#utility.yul\":2013:2019   */\n      0x00\n        /* \"#utility.yul\":2040:2060   */\n      tag_489\n      tag_359\n      jump\t// in\n    tag_489:\n        /* \"#utility.yul\":2030:2060   */\n      swap1\n      pop\n        /* \"#utility.yul\":2069:2102   */\n      tag_490\n        /* \"#utility.yul\":2097:2101   */\n      dup3\n        /* \"#utility.yul\":2089:2095   */\n      dup3\n        /* \"#utility.yul\":2069:2102   */\n      tag_365\n      jump\t// in\n    tag_490:\n        /* \"#utility.yul\":1979:2108   */\n      swap2\n      swap1\n      pop\n      jump\t// out\n        /* \"#utility.yul\":2114:2422   */\n    tag_367:\n        /* \"#utility.yul\":2176:2180   */\n      0x00\n        /* \"#utility.yul\":2266:2284   */\n      0xffffffffffffffff\n        /* \"#utility.yul\":2258:2264   */\n      dup3\n        /* \"#utility.yul\":2255:2285   */\n      gt\n        /* \"#utility.yul\":2252:2308   */\n      iszero\n      tag_492\n      jumpi\n        /* \"#utility.yul\":2288:2306   */\n      tag_493\n      tag_168\n      jump\t// in\n    tag_493:\n        /* \"#utility.yul\":2252:2308   */\n    tag_492:\n        /* \"#utility.yul\":2326:2355   */\n      tag_494\n        /* \"#utility.yul\":2348:2354   */\n      dup3\n        /* \"#utility.yul\":2326:2355   */\n      tag_364\n      jump\t// in\n    tag_494:\n        /* \"#utility.yul\":2318:2355   */\n      swap1\n      pop\n        /* \"#utility.yul\":2410:2414   */\n      0x20\n        /* \"#utility.yul\":2404:2408   */\n      dup2\n        /* \"#utility.yul\":2400:2415   */\n      add\n        /* \"#utility.yul\":2392:2415   */\n      swap1\n      pop\n        /* \"#utility.yul\":2114:2422   */\n      swap2\n      swap1\n      pop\n      jump\t// out\n        /* \"#utility.yul\":2428:2574   */\n    tag_368:\n        /* \"#utility.yul\":2525:2531   */\n      dup3\n        /* \"#utility.yul\":2520:2523   */\n      dup2\n        /* \"#utility.yul\":2515:2518   */\n      dup4\n        /* \"#utility.yul\":2502:2532   */\n      calldatacopy\n        /* \"#utility.yul\":2566:2567   */\n      0x00\n        /* \"#utility.yul\":2557:2563   */\n      dup4\n        /* \"#utility.yul\":2552:2555   */\n      dup4\n        /* \"#utility.yul\":2548:2564   */\n      add\n        /* \"#utility.yul\":2541:2568   */\n      mstore\n        /* \"#utility.yul\":2428:2574   */\n      pop\n      pop\n      pop\n      jump\t// out\n        /* \"#utility.yul\":2580:3005   */\n    tag_369:\n        /* \"#utility.yul\":2658:2663   */\n      0x00\n        /* \"#utility.yul\":2683:2749   */\n      tag_497\n        /* \"#utility.yul\":2699:2748   */\n      tag_498\n        /* \"#utility.yul\":2741:2747   */\n      dup5\n        /* \"#utility.yul\":2699:2748   */\n      tag_367\n      jump\t// in\n    tag_498:\n        /* \"#utility.yul\":2683:2749   */\n      tag_366\n      jump\t// in\n    tag_497:\n        /* \"#utility.yul\":2674:2749   */\n      swap1\n      pop\n        /* \"#utility.yul\":2772:2778   */\n      dup3\n        /* \"#utility.yul\":2765:2770   */\n      dup2\n        /* \"#utility.yul\":2758:2779   */\n      mstore\n        /* \"#utility.yul\":2810:2814   */\n      0x20\n        /* \"#utility.yul\":2803:2808   */\n      dup2\n        /* \"#utility.yul\":2799:2815   */\n      add\n        /* \"#utility.yul\":2848:2851   */\n      dup5\n        /* \"#utility.yul\":2839:2845   */\n      dup5\n        /* \"#utility.yul\":2834:2837   */\n      dup5\n        /* \"#utility.yul\":2830:2846   */\n      add\n        /* \"#utility.yul\":2827:2852   */\n      gt\n        /* \"#utility.yul\":2824:2936   */\n      iszero\n      tag_499\n      jumpi\n        /* \"#utility.yul\":2855:2934   */\n      tag_500\n      tag_363\n      jump\t// in\n    tag_500:\n        /* \"#utility.yul\":2824:2936   */\n    tag_499:\n        /* \"#utility.yul\":2945:2999   */\n      tag_501\n        /* \"#utility.yul\":2992:2998   */\n      dup5\n        /* \"#utility.yul\":2987:2990   */\n      dup3\n        /* \"#utility.yul\":2982:2985   */\n      dup6\n        /* \"#utility.yul\":2945:2999   */\n      tag_368\n      jump\t// in\n    tag_501:\n        /* \"#utility.yul\":2664:3005   */\n      pop\n        /* \"#utility.yul\":2580:3005   */\n      swap4\n      swap3\n      pop\n      pop\n      pop\n      jump\t// out\n        /* \"#utility.yul\":3025:3365   */\n    tag_370:\n        /* \"#utility.yul\":3081:3086   */\n      0x00\n        /* \"#utility.yul\":3130:3133   */\n      dup3\n        /* \"#utility.yul\":3123:3127   */\n      0x1f\n        /* \"#utility.yul\":3115:3121   */\n      dup4\n        /* \"#utility.yul\":3111:3128   */\n      add\n        /* \"#utility.yul\":3107:3134   */\n      slt\n        /* \"#utility.yul\":3097:3219   */\n      tag_503\n      jumpi\n        /* \"#utility.yul\":3138:3217   */\n      tag_504\n      tag_362\n      jump\t// in\n    tag_504:\n        /* \"#utility.yul\":3097:3219   */\n    tag_503:\n        /* \"#utility.yul\":3255:3261   */\n      dup2\n        /* \"#utility.yul\":3242:3262   */\n      calldataload\n        /* \"#utility.yul\":3280:3359   */\n      tag_505\n        /* \"#utility.yul\":3355:3358   */\n      dup5\n        /* \"#utility.yul\":3347:3353   */\n      dup3\n        /* \"#utility.yul\":3340:3344   */\n      0x20\n        /* \"#utility.yul\":3332:3338   */\n      dup7\n        /* \"#utility.yul\":3328:3345   */\n      add\n        /* \"#utility.yul\":3280:3359   */\n      tag_369\n      jump\t// in\n    tag_505:\n        /* \"#utility.yul\":3271:3359   */\n      swap2\n      pop\n        /* \"#utility.yul\":3087:3365   */\n      pop\n        /* \"#utility.yul\":3025:3365   */\n      swap3\n      swap2\n      pop\n      pop\n      jump\t// out\n        /* \"#utility.yul\":3371:3497   */\n    tag_371:\n        /* \"#utility.yul\":3408:3415   */\n      0x00\n        /* \"#utility.yul\":3448:3490   */\n      0xffffffffffffffffffffffffffffffffffffffff\n        /* \"#utility.yul\":3441:3446   */\n      dup3\n        /* \"#utility.yul\":3437:3491   */\n      and\n        /* \"#utility.yul\":3426:3491   */\n      swap1\n      pop\n        /* \"#utility.yul\":3371:3497   */\n      swap2\n      swap1\n      pop\n      jump\t// out\n        /* \"#utility.yul\":3503:3599   */\n    tag_372:\n        /* \"#utility.yul\":3540:3547   */\n      0x00\n        /* \"#utility.yul\":3569:3593   */\n      tag_508\n        /* \"#utility.yul\":3587:3592   */\n      dup3\n        /* \"#utility.yul\":3569:3593   */\n      tag_371\n      jump\t// in\n    tag_508:\n        /* \"#utility.yul\":3558:3593   */\n      swap1\n      pop\n        /* \"#utility.yul\":3503:3599   */\n      swap2\n      swap1\n      pop\n      jump\t// out\n        /* \"#utility.yul\":3605:3727   */\n    tag_373:\n        /* \"#utility.yul\":3678:3702   */\n      tag_510\n        /* \"#utility.yul\":3696:3701   */\n      dup2\n        /* \"#utility.yul\":3678:3702   */\n      tag_372\n      jump\t// in\n    tag_510:\n        /* \"#utility.yul\":3671:3676   */\n      dup2\n        /* \"#utility.yul\":3668:3703   */\n      eq\n        /* \"#utility.yul\":3658:3721   */\n      tag_511\n      jumpi\n        /* \"#utility.yul\":3717:3718   */\n      0x00\n        /* \"#utility.yul\":3714:3715   */\n      dup1\n        /* \"#utility.yul\":3707:3719   */\n      revert\n        /* \"#utility.yul\":3658:3721   */\n    tag_511:\n        /* \"#utility.yul\":3605:3727   */\n      pop\n      jump\t// out\n        /* \"#utility.yul\":3733:3872   */\n    tag_374:\n        /* \"#utility.yul\":3779:3784   */\n      0x00\n        /* \"#utility.yul\":3817:3823   */\n      dup2\n        /* \"#utility.yul\":3804:3824   */\n      calldataload\n        /* \"#utility.yul\":3795:3824   */\n      swap1\n      pop\n        /* \"#utility.yul\":3833:3866   */\n      tag_513\n        /* \"#utility.yul\":3860:3865   */\n      dup2\n        /* \"#utility.yul\":3833:3866   */\n      tag_373\n      jump\t// in\n    tag_513:\n        /* \"#utility.yul\":3733:3872   */\n      swap3\n      swap2\n      pop\n      pop\n      jump\t// out\n        /* \"#utility.yul\":3878:4189   */\n    tag_375:\n        /* \"#utility.yul\":3955:3959   */\n      0x00\n        /* \"#utility.yul\":4045:4063   */\n      0xffffffffffffffff\n        /* \"#utility.yul\":4037:4043   */\n      dup3\n        /* \"#utility.yul\":4034:4064   */\n      gt\n        /* \"#utility.yul\":4031:4087   */\n      iszero\n      tag_515\n      jumpi\n        /* \"#utility.yul\":4067:4085   */\n      tag_516\n      tag_168\n      jump\t// in\n    tag_516:\n        /* \"#utility.yul\":4031:4087   */\n    tag_515:\n        /* \"#utility.yul\":4117:4121   */\n      0x20\n        /* \"#utility.yul\":4109:4115   */\n      dup3\n        /* \"#utility.yul\":4105:4122   */\n      mul\n        /* \"#utility.yul\":4097:4122   */\n      swap1\n      pop\n        /* \"#utility.yul\":4177:4181   */\n      0x20\n        /* \"#utility.yul\":4171:4175   */\n      dup2\n        /* \"#utility.yul\":4167:4182   */\n      add\n        /* \"#utility.yul\":4159:4182   */\n      swap1\n      pop\n        /* \"#utility.yul\":3878:4189   */\n      swap2\n      swap1\n      pop\n      jump\t// out\n        /* \"#utility.yul\":4195:4312   */\n    tag_376:\n        /* \"#utility.yul\":4304:4305   */\n      0x00\n        /* \"#utility.yul\":4301:4302   */\n      dup1\n        /* \"#utility.yul\":4294:4306   */\n      revert\n        /* \"#utility.yul\":4335:5045   */\n    tag_377:\n        /* \"#utility.yul\":4431:4436   */\n      0x00\n        /* \"#utility.yul\":4456:4537   */\n      tag_519\n        /* \"#utility.yul\":4472:4536   */\n      tag_520\n        /* \"#utility.yul\":4529:4535   */\n      dup5\n        /* \"#utility.yul\":4472:4536   */\n      tag_375\n      jump\t// in\n    tag_520:\n        /* \"#utility.yul\":4456:4537   */\n      tag_366\n      jump\t// in\n    tag_519:\n        /* \"#utility.yul\":4447:4537   */\n      swap1\n      pop\n        /* \"#utility.yul\":4557:4562   */\n      dup1\n        /* \"#utility.yul\":4586:4592   */\n      dup4\n        /* \"#utility.yul\":4579:4584   */\n      dup3\n        /* \"#utility.yul\":4572:4593   */\n      mstore\n        /* \"#utility.yul\":4620:4624   */\n      0x20\n        /* \"#utility.yul\":4613:4618   */\n      dup3\n        /* \"#utility.yul\":4609:4625   */\n      add\n        /* \"#utility.yul\":4602:4625   */\n      swap1\n      pop\n        /* \"#utility.yul\":4673:4677   */\n      0x20\n        /* \"#utility.yul\":4665:4671   */\n      dup5\n        /* \"#utility.yul\":4661:4678   */\n      mul\n        /* \"#utility.yul\":4653:4659   */\n      dup4\n        /* \"#utility.yul\":4649:4679   */\n      add\n        /* \"#utility.yul\":4702:4705   */\n      dup6\n        /* \"#utility.yul\":4694:4700   */\n      dup2\n        /* \"#utility.yul\":4691:4706   */\n      gt\n        /* \"#utility.yul\":4688:4810   */\n      iszero\n      tag_521\n      jumpi\n        /* \"#utility.yul\":4721:4800   */\n      tag_522\n      tag_376\n      jump\t// in\n    tag_522:\n        /* \"#utility.yul\":4688:4810   */\n    tag_521:\n        /* \"#utility.yul\":4836:4842   */\n      dup4\n        /* \"#utility.yul\":4819:5039   */\n    tag_523:\n        /* \"#utility.yul\":4853:4859   */\n      dup2\n        /* \"#utility.yul\":4848:4851   */\n      dup2\n        /* \"#utility.yul\":4845:4860   */\n      lt\n        /* \"#utility.yul\":4819:5039   */\n      iszero\n      tag_525\n      jumpi\n        /* \"#utility.yul\":4928:4931   */\n      dup1\n        /* \"#utility.yul\":4957:4994   */\n      tag_526\n        /* \"#utility.yul\":4990:4993   */\n      dup9\n        /* \"#utility.yul\":4978:4988   */\n      dup3\n        /* \"#utility.yul\":4957:4994   */\n      tag_374\n      jump\t// in\n    tag_526:\n        /* \"#utility.yul\":4952:4955   */\n      dup5\n        /* \"#utility.yul\":4945:4995   */\n      mstore\n        /* \"#utility.yul\":5024:5028   */\n      0x20\n        /* \"#utility.yul\":5019:5022   */\n      dup5\n        /* \"#utility.yul\":5015:5029   */\n      add\n        /* \"#utility.yul\":5008:5029   */\n      swap4\n      pop\n        /* \"#utility.yul\":4895:5039   */\n      pop\n        /* \"#utility.yul\":4879:4883   */\n      0x20\n        /* \"#utility.yul\":4874:4877   */\n      dup2\n        /* \"#utility.yul\":4870:4884   */\n      add\n        /* \"#utility.yul\":4863:4884   */\n      swap1\n      pop\n        /* \"#utility.yul\":4819:5039   */\n      jump(tag_523)\n    tag_525:\n        /* \"#utility.yul\":4823:4844   */\n      pop\n        /* \"#utility.yul\":4437:5045   */\n      pop\n      pop\n        /* \"#utility.yul\":4335:5045   */\n      swap4\n      swap3\n      pop\n      pop\n      pop\n      jump\t// out\n        /* \"#utility.yul\":5068:5438   */\n    tag_378:\n        /* \"#utility.yul\":5139:5144   */\n      0x00\n        /* \"#utility.yul\":5188:5191   */\n      dup3\n        /* \"#utility.yul\":5181:5185   */\n      0x1f\n        /* \"#utility.yul\":5173:5179   */\n      dup4\n        /* \"#utility.yul\":5169:5186   */\n      add\n        /* \"#utility.yul\":5165:5192   */\n      slt\n        /* \"#utility.yul\":5155:5277   */\n      tag_528\n      jumpi\n        /* \"#utility.yul\":5196:5275   */\n      tag_529\n      tag_362\n      jump\t// in\n    tag_529:\n        /* \"#utility.yul\":5155:5277   */\n    tag_528:\n        /* \"#utility.yul\":5313:5319   */\n      dup2\n        /* \"#utility.yul\":5300:5320   */\n      calldataload\n        /* \"#utility.yul\":5338:5432   */\n      tag_530\n        /* \"#utility.yul\":5428:5431   */\n      dup5\n        /* \"#utility.yul\":5420:5426   */\n      dup3\n        /* \"#utility.yul\":5413:5417   */\n      0x20\n        /* \"#utility.yul\":5405:5411   */\n      dup7\n        /* \"#utility.yul\":5401:5418   */\n      add\n        /* \"#utility.yul\":5338:5432   */\n      tag_377\n      jump\t// in\n    tag_530:\n        /* \"#utility.yul\":5329:5432   */\n      swap2\n      pop\n        /* \"#utility.yul\":5145:5438   */\n      pop\n        /* \"#utility.yul\":5068:5438   */\n      swap3\n      swap2\n      pop\n      pop\n      jump\t// out\n        /* \"#utility.yul\":5444:5559   */\n    tag_379:\n        /* \"#utility.yul\":5533:5534   */\n      0x02\n        /* \"#utility.yul\":5526:5531   */\n      dup2\n        /* \"#utility.yul\":5523:5535   */\n      lt\n        /* \"#utility.yul\":5513:5553   */\n      tag_532\n      jumpi\n        /* \"#utility.yul\":5549:5550   */\n      0x00\n        /* \"#utility.yul\":5546:5547   */\n      dup1\n        /* \"#utility.yul\":5539:5551   */\n      revert\n        /* \"#utility.yul\":5513:5553   */\n    tag_532:\n        /* \"#utility.yul\":5444:5559   */\n      pop\n      jump\t// out\n        /* \"#utility.yul\":5565:5736   */\n    tag_380:\n        /* \"#utility.yul\":5627:5632   */\n      0x00\n        /* \"#utility.yul\":5665:5671   */\n      dup2\n        /* \"#utility.yul\":5652:5672   */\n      calldataload\n        /* \"#utility.yul\":5643:5672   */\n      swap1\n      pop\n        /* \"#utility.yul\":5681:5730   */\n      tag_534\n        /* \"#utility.yul\":5724:5729   */\n      dup2\n        /* \"#utility.yul\":5681:5730   */\n      tag_379\n      jump\t// in\n    tag_534:\n        /* \"#utility.yul\":5565:5736   */\n      swap3\n      swap2\n      pop\n      pop\n      jump\t// out\n        /* \"#utility.yul\":5742:5864   */\n    tag_381:\n        /* \"#utility.yul\":5815:5839   */\n      tag_536\n        /* \"#utility.yul\":5833:5838   */\n      dup2\n        /* \"#utility.yul\":5815:5839   */\n      tag_356\n      jump\t// in\n    tag_536:\n        /* \"#utility.yul\":5808:5813   */\n      dup2\n        /* \"#utility.yul\":5805:5840   */\n      eq\n        /* \"#utility.yul\":5795:5858   */\n      tag_537\n      jumpi\n        /* \"#utility.yul\":5854:5855   */\n      0x00\n        /* \"#utility.yul\":5851:5852   */\n      dup1\n        /* \"#utility.yul\":5844:5856   */\n      revert\n        /* \"#utility.yul\":5795:5858   */\n    tag_537:\n        /* \"#utility.yul\":5742:5864   */\n      pop\n      jump\t// out\n        /* \"#utility.yul\":5870:6009   */\n    tag_382:\n        /* \"#utility.yul\":5916:5921   */\n      0x00\n        /* \"#utility.yul\":5954:5960   */\n      dup2\n        /* \"#utility.yul\":5941:5961   */\n      calldataload\n        /* \"#utility.yul\":5932:5961   */\n      swap1\n      pop\n        /* \"#utility.yul\":5970:6003   */\n      tag_539\n        /* \"#utility.yul\":5997:6002   */\n      dup2\n        /* \"#utility.yul\":5970:6003   */\n      tag_381\n      jump\t// in\n    tag_539:\n        /* \"#utility.yul\":5870:6009   */\n      swap3\n      swap2\n      pop\n      pop\n      jump\t// out\n        /* \"#utility.yul\":6015:8000   */\n    tag_27:\n        /* \"#utility.yul\":6199:6205   */\n      0x00\n        /* \"#utility.yul\":6207:6213   */\n      dup1\n        /* \"#utility.yul\":6215:6221   */\n      0x00\n        /* \"#utility.yul\":6223:6229   */\n      dup1\n        /* \"#utility.yul\":6231:6237   */\n      0x00\n        /* \"#utility.yul\":6239:6245   */\n      dup1\n        /* \"#utility.yul\":6247:6253   */\n      0x00\n        /* \"#utility.yul\":6296:6299   */\n      0xe0\n        /* \"#utility.yul\":6284:6293   */\n      dup9\n        /* \"#utility.yul\":6275:6282   */\n      dup11\n        /* \"#utility.yul\":6271:6294   */\n      sub\n        /* \"#utility.yul\":6267:6300   */\n      slt\n        /* \"#utility.yul\":6264:6384   */\n      iszero\n      tag_541\n      jumpi\n        /* \"#utility.yul\":6303:6382   */\n      tag_542\n      tag_360\n      jump\t// in\n    tag_542:\n        /* \"#utility.yul\":6264:6384   */\n    tag_541:\n        /* \"#utility.yul\":6451:6452   */\n      0x00\n        /* \"#utility.yul\":6440:6449   */\n      dup9\n        /* \"#utility.yul\":6436:6453   */\n      add\n        /* \"#utility.yul\":6423:6454   */\n      calldataload\n        /* \"#utility.yul\":6481:6499   */\n      0xffffffffffffffff\n        /* \"#utility.yul\":6473:6479   */\n      dup2\n        /* \"#utility.yul\":6470:6500   */\n      gt\n        /* \"#utility.yul\":6467:6584   */\n      iszero\n      tag_543\n      jumpi\n        /* \"#utility.yul\":6503:6582   */\n      tag_544\n      tag_361\n      jump\t// in\n    tag_544:\n        /* \"#utility.yul\":6467:6584   */\n    tag_543:\n        /* \"#utility.yul\":6608:6671   */\n      tag_545\n        /* \"#utility.yul\":6663:6670   */\n      dup11\n        /* \"#utility.yul\":6654:6660   */\n      dup3\n        /* \"#utility.yul\":6643:6652   */\n      dup12\n        /* \"#utility.yul\":6639:6661   */\n      add\n        /* \"#utility.yul\":6608:6671   */\n      tag_370\n      jump\t// in\n    tag_545:\n        /* \"#utility.yul\":6598:6671   */\n      swap8\n      pop\n        /* \"#utility.yul\":6394:6681   */\n      pop\n        /* \"#utility.yul\":6748:6750   */\n      0x20\n        /* \"#utility.yul\":6737:6746   */\n      dup9\n        /* \"#utility.yul\":6733:6751   */\n      add\n        /* \"#utility.yul\":6720:6752   */\n      calldataload\n        /* \"#utility.yul\":6779:6797   */\n      0xffffffffffffffff\n        /* \"#utility.yul\":6771:6777   */\n      dup2\n        /* \"#utility.yul\":6768:6798   */\n      gt\n        /* \"#utility.yul\":6765:6882   */\n      iszero\n      tag_546\n      jumpi\n        /* \"#utility.yul\":6801:6880   */\n      tag_547\n      tag_361\n      jump\t// in\n    tag_547:\n        /* \"#utility.yul\":6765:6882   */\n    tag_546:\n        /* \"#utility.yul\":6906:6969   */\n      tag_548\n        /* \"#utility.yul\":6961:6968   */\n      dup11\n        /* \"#utility.yul\":6952:6958   */\n      dup3\n        /* \"#utility.yul\":6941:6950   */\n      dup12\n        /* \"#utility.yul\":6937:6959   */\n      add\n        /* \"#utility.yul\":6906:6969   */\n      tag_370\n      jump\t// in\n    tag_548:\n        /* \"#utility.yul\":6896:6969   */\n      swap7\n      pop\n        /* \"#utility.yul\":6691:6979   */\n      pop\n        /* \"#utility.yul\":7018:7020   */\n      0x40\n        /* \"#utility.yul\":7044:7097   */\n      tag_549\n        /* \"#utility.yul\":7089:7096   */\n      dup11\n        /* \"#utility.yul\":7080:7086   */\n      dup3\n        /* \"#utility.yul\":7069:7078   */\n      dup12\n        /* \"#utility.yul\":7065:7087   */\n      add\n        /* \"#utility.yul\":7044:7097   */\n      tag_374\n      jump\t// in\n    tag_549:\n        /* \"#utility.yul\":7034:7097   */\n      swap6\n      pop\n        /* \"#utility.yul\":6989:7107   */\n      pop\n        /* \"#utility.yul\":7174:7176   */\n      0x60\n        /* \"#utility.yul\":7163:7172   */\n      dup9\n        /* \"#utility.yul\":7159:7177   */\n      add\n        /* \"#utility.yul\":7146:7178   */\n      calldataload\n        /* \"#utility.yul\":7205:7223   */\n      0xffffffffffffffff\n        /* \"#utility.yul\":7197:7203   */\n      dup2\n        /* \"#utility.yul\":7194:7224   */\n      gt\n        /* \"#utility.yul\":7191:7308   */\n      iszero\n      tag_550\n      jumpi\n        /* \"#utility.yul\":7227:7306   */\n      tag_551\n      tag_361\n      jump\t// in\n    tag_551:\n        /* \"#utility.yul\":7191:7308   */\n    tag_550:\n        /* \"#utility.yul\":7332:7410   */\n      tag_552\n        /* \"#utility.yul\":7402:7409   */\n      dup11\n        /* \"#utility.yul\":7393:7399   */\n      dup3\n        /* \"#utility.yul\":7382:7391   */\n      dup12\n        /* \"#utility.yul\":7378:7400   */\n      add\n        /* \"#utility.yul\":7332:7410   */\n      tag_378\n      jump\t// in\n    tag_552:\n        /* \"#utility.yul\":7322:7410   */\n      swap5\n      pop\n        /* \"#utility.yul\":7117:7420   */\n      pop\n        /* \"#utility.yul\":7487:7490   */\n      0x80\n        /* \"#utility.yul\":7476:7485   */\n      dup9\n        /* \"#utility.yul\":7472:7491   */\n      add\n        /* \"#utility.yul\":7459:7492   */\n      calldataload\n        /* \"#utility.yul\":7519:7537   */\n      0xffffffffffffffff\n        /* \"#utility.yul\":7511:7517   */\n      dup2\n        /* \"#utility.yul\":7508:7538   */\n      gt\n        /* \"#utility.yul\":7505:7622   */\n      iszero\n      tag_553\n      jumpi\n        /* \"#utility.yul\":7541:7620   */\n      tag_554\n      tag_361\n      jump\t// in\n    tag_554:\n        /* \"#utility.yul\":7505:7622   */\n    tag_553:\n        /* \"#utility.yul\":7646:7709   */\n      tag_555\n        /* \"#utility.yul\":7701:7708   */\n      dup11\n        /* \"#utility.yul\":7692:7698   */\n      dup3\n        /* \"#utility.yul\":7681:7690   */\n      dup12\n        /* \"#utility.yul\":7677:7699   */\n      add\n        /* \"#utility.yul\":7646:7709   */\n      tag_370\n      jump\t// in\n    tag_555:\n        /* \"#utility.yul\":7636:7709   */\n      swap4\n      pop\n        /* \"#utility.yul\":7430:7719   */\n      pop\n        /* \"#utility.yul\":7758:7761   */\n      0xa0\n        /* \"#utility.yul\":7785:7854   */\n      tag_556\n        /* \"#utility.yul\":7846:7853   */\n      dup11\n        /* \"#utility.yul\":7837:7843   */\n      dup3\n        /* \"#utility.yul\":7826:7835   */\n      dup12\n        /* \"#utility.yul\":7822:7844   */\n      add\n        /* \"#utility.yul\":7785:7854   */\n      tag_380\n      jump\t// in\n    tag_556:\n        /* \"#utility.yul\":7775:7854   */\n      swap3\n      pop\n        /* \"#utility.yul\":7729:7864   */\n      pop\n        /* \"#utility.yul\":7903:7906   */\n      0xc0\n        /* \"#utility.yul\":7930:7983   */\n      tag_557\n        /* \"#utility.yul\":7975:7982   */\n      dup11\n        /* \"#utility.yul\":7966:7972   */\n      dup3\n        /* \"#utility.yul\":7955:7964   */\n      dup12\n        /* \"#utility.yul\":7951:7973   */\n      add\n        /* \"#utility.yul\":7930:7983   */\n      tag_382\n      jump\t// in\n    tag_557:\n        /* \"#utility.yul\":7920:7983   */\n      swap2\n      pop\n        /* \"#utility.yul\":7874:7993   */\n      pop\n        /* \"#utility.yul\":6015:8000   */\n      swap3\n      swap6\n      swap9\n      swap2\n      swap5\n      swap8\n      pop\n      swap3\n      swap6\n      pop\n      jump\t// out\n        /* \"#utility.yul\":8006:8117   */\n    tag_383:\n        /* \"#utility.yul\":8091:8092   */\n      0x02\n        /* \"#utility.yul\":8084:8089   */\n      dup2\n        /* \"#utility.yul\":8081:8093   */\n      lt\n        /* \"#utility.yul\":8071:8111   */\n      tag_559\n      jumpi\n        /* \"#utility.yul\":8107:8108   */\n      0x00\n        /* \"#utility.yul\":8104:8105   */\n      dup1\n        /* \"#utility.yul\":8097:8109   */\n      revert\n        /* \"#utility.yul\":8071:8111   */\n    tag_559:\n        /* \"#utility.yul\":8006:8117   */\n      pop\n      jump\t// out\n        /* \"#utility.yul\":8123:8286   */\n    tag_384:\n        /* \"#utility.yul\":8181:8186   */\n      0x00\n        /* \"#utility.yul\":8219:8225   */\n      dup2\n        /* \"#utility.yul\":8206:8226   */\n      calldataload\n        /* \"#utility.yul\":8197:8226   */\n      swap1\n      pop\n        /* \"#utility.yul\":8235:8280   */\n      tag_561\n        /* \"#utility.yul\":8274:8279   */\n      dup2\n        /* \"#utility.yul\":8235:8280   */\n      tag_383\n      jump\t// in\n    tag_561:\n        /* \"#utility.yul\":8123:8286   */\n      swap3\n      swap2\n      pop\n      pop\n      jump\t// out\n        /* \"#utility.yul\":8292:8790   */\n    tag_33:\n        /* \"#utility.yul\":8372:8378   */\n      0x00\n        /* \"#utility.yul\":8380:8386   */\n      dup1\n        /* \"#utility.yul\":8429:8431   */\n      0x40\n        /* \"#utility.yul\":8417:8426   */\n      dup4\n        /* \"#utility.yul\":8408:8415   */\n      dup6\n        /* \"#utility.yul\":8404:8427   */\n      sub\n        /* \"#utility.yul\":8400:8432   */\n      slt\n        /* \"#utility.yul\":8397:8516   */\n      iszero\n      tag_563\n      jumpi\n        /* \"#utility.yul\":8435:8514   */\n      tag_564\n      tag_360\n      jump\t// in\n    tag_564:\n        /* \"#utility.yul\":8397:8516   */\n    tag_563:\n        /* \"#utility.yul\":8555:8556   */\n      0x00\n        /* \"#utility.yul\":8580:8633   */\n      tag_565\n        /* \"#utility.yul\":8625:8632   */\n      dup6\n        /* \"#utility.yul\":8616:8622   */\n      dup3\n        /* \"#utility.yul\":8605:8614   */\n      dup7\n        /* \"#utility.yul\":8601:8623   */\n      add\n        /* \"#utility.yul\":8580:8633   */\n      tag_382\n      jump\t// in\n    tag_565:\n        /* \"#utility.yul\":8570:8633   */\n      swap3\n      pop\n        /* \"#utility.yul\":8526:8643   */\n      pop\n        /* \"#utility.yul\":8682:8684   */\n      0x20\n        /* \"#utility.yul\":8708:8773   */\n      tag_566\n        /* \"#utility.yul\":8765:8772   */\n      dup6\n        /* \"#utility.yul\":8756:8762   */\n      dup3\n        /* \"#utility.yul\":8745:8754   */\n      dup7\n        /* \"#utility.yul\":8741:8763   */\n      add\n        /* \"#utility.yul\":8708:8773   */\n      tag_384\n      jump\t// in\n    tag_566:\n        /* \"#utility.yul\":8698:8773   */\n      swap2\n      pop\n        /* \"#utility.yul\":8653:8783   */\n      pop\n        /* \"#utility.yul\":8292:8790   */\n      swap3\n      pop\n      swap3\n      swap1\n      pop\n      jump\t// out\n        /* \"#utility.yul\":8796:9305   */\n    tag_42:\n        /* \"#utility.yul\":8865:8871   */\n      0x00\n        /* \"#utility.yul\":8914:8916   */\n      0x20\n        /* \"#utility.yul\":8902:8911   */\n      dup3\n        /* \"#utility.yul\":8893:8900   */\n      dup5\n        /* \"#utility.yul\":8889:8912   */\n      sub\n        /* \"#utility.yul\":8885:8917   */\n      slt\n        /* \"#utility.yul\":8882:9001   */\n      iszero\n      tag_568\n      jumpi\n        /* \"#utility.yul\":8920:8999   */\n      tag_569\n      tag_360\n      jump\t// in\n    tag_569:\n        /* \"#utility.yul\":8882:9001   */\n    tag_568:\n        /* \"#utility.yul\":9068:9069   */\n      0x00\n        /* \"#utility.yul\":9057:9066   */\n      dup3\n        /* \"#utility.yul\":9053:9070   */\n      add\n        /* \"#utility.yul\":9040:9071   */\n      calldataload\n        /* \"#utility.yul\":9098:9116   */\n      0xffffffffffffffff\n        /* \"#utility.yul\":9090:9096   */\n      dup2\n        /* \"#utility.yul\":9087:9117   */\n      gt\n        /* \"#utility.yul\":9084:9201   */\n      iszero\n      tag_570\n      jumpi\n        /* \"#utility.yul\":9120:9199   */\n      tag_571\n      tag_361\n      jump\t// in\n    tag_571:\n        /* \"#utility.yul\":9084:9201   */\n    tag_570:\n        /* \"#utility.yul\":9225:9288   */\n      tag_572\n        /* \"#utility.yul\":9280:9287   */\n      dup5\n        /* \"#utility.yul\":9271:9277   */\n      dup3\n        /* \"#utility.yul\":9260:9269   */\n      dup6\n        /* \"#utility.yul\":9256:9278   */\n      add\n        /* \"#utility.yul\":9225:9288   */\n      tag_370\n      jump\t// in\n    tag_572:\n        /* \"#utility.yul\":9215:9288   */\n      swap2\n      pop\n        /* \"#utility.yul\":9011:9298   */\n      pop\n        /* \"#utility.yul\":8796:9305   */\n      swap3\n      swap2\n      pop\n      pop\n      jump\t// out\n        /* \"#utility.yul\":9311:9450   */\n    tag_385:\n        /* \"#utility.yul\":9403:9409   */\n      0x00\n        /* \"#utility.yul\":9437:9442   */\n      dup2\n        /* \"#utility.yul\":9431:9443   */\n      mload\n        /* \"#utility.yul\":9421:9443   */\n      swap1\n      pop\n        /* \"#utility.yul\":9311:9450   */\n      swap2\n      swap1\n      pop\n      jump\t// out\n        /* \"#utility.yul\":9456:9665   */\n    tag_386:\n        /* \"#utility.yul\":9580:9591   */\n      0x00\n        /* \"#utility.yul\":9614:9620   */\n      dup3\n        /* \"#utility.yul\":9609:9612   */\n      dup3\n        /* \"#utility.yul\":9602:9621   */\n      mstore\n        /* \"#utility.yul\":9654:9658   */\n      0x20\n        /* \"#utility.yul\":9649:9652   */\n      dup3\n        /* \"#utility.yul\":9645:9659   */\n      add\n        /* \"#utility.yul\":9630:9659   */\n      swap1\n      pop\n        /* \"#utility.yul\":9456:9665   */\n      swap3\n      swap2\n      pop\n      pop\n      jump\t// out\n        /* \"#utility.yul\":9671:9828   */\n    tag_387:\n        /* \"#utility.yul\":9763:9767   */\n      0x00\n        /* \"#utility.yul\":9786:9789   */\n      dup2\n        /* \"#utility.yul\":9778:9789   */\n      swap1\n      pop\n        /* \"#utility.yul\":9816:9820   */\n      0x20\n        /* \"#utility.yul\":9811:9814   */\n      dup3\n        /* \"#utility.yul\":9807:9821   */\n      add\n        /* \"#utility.yul\":9799:9821   */\n      swap1\n      pop\n        /* \"#utility.yul\":9671:9828   */\n      swap2\n      swap1\n      pop\n      jump\t// out\n        /* \"#utility.yul\":9834:9933   */\n    tag_388:\n        /* \"#utility.yul\":9886:9892   */\n      0x00\n        /* \"#utility.yul\":9920:9925   */\n      dup2\n        /* \"#utility.yul\":9914:9926   */\n      mload\n        /* \"#utility.yul\":9904:9926   */\n      swap1\n      pop\n        /* \"#utility.yul\":9834:9933   */\n      swap2\n      swap1\n      pop\n      jump\t// out\n        /* \"#utility.yul\":9939:10098   */\n    tag_389:\n        /* \"#utility.yul\":10013:10024   */\n      0x00\n        /* \"#utility.yul\":10047:10053   */\n      dup3\n        /* \"#utility.yul\":10042:10045   */\n      dup3\n        /* \"#utility.yul\":10035:10054   */\n      mstore\n        /* \"#utility.yul\":10087:10091   */\n      0x20\n        /* \"#utility.yul\":10082:10085   */\n      dup3\n        /* \"#utility.yul\":10078:10092   */\n      add\n        /* \"#utility.yul\":10063:10092   */\n      swap1\n      pop\n        /* \"#utility.yul\":9939:10098   */\n      swap3\n      swap2\n      pop\n      pop\n      jump\t// out\n        /* \"#utility.yul\":10104:10350   */\n    tag_390:\n        /* \"#utility.yul\":10185:10186   */\n      0x00\n        /* \"#utility.yul\":10195:10308   */\n    tag_579:\n        /* \"#utility.yul\":10209:10215   */\n      dup4\n        /* \"#utility.yul\":10206:10207   */\n      dup2\n        /* \"#utility.yul\":10203:10216   */\n      lt\n        /* \"#utility.yul\":10195:10308   */\n      iszero\n      tag_581\n      jumpi\n        /* \"#utility.yul\":10294:10295   */\n      dup1\n        /* \"#utility.yul\":10289:10292   */\n      dup3\n        /* \"#utility.yul\":10285:10296   */\n      add\n        /* \"#utility.yul\":10279:10297   */\n      mload\n        /* \"#utility.yul\":10275:10276   */\n      dup2\n        /* \"#utility.yul\":10270:10273   */\n      dup5\n        /* \"#utility.yul\":10266:10277   */\n      add\n        /* \"#utility.yul\":10259:10298   */\n      mstore\n        /* \"#utility.yul\":10231:10233   */\n      0x20\n        /* \"#utility.yul\":10228:10229   */\n      dup2\n        /* \"#utility.yul\":10224:10234   */\n      add\n        /* \"#utility.yul\":10219:10234   */\n      swap1\n      pop\n        /* \"#utility.yul\":10195:10308   */\n      jump(tag_579)\n    tag_581:\n        /* \"#utility.yul\":10342:10343   */\n      0x00\n        /* \"#utility.yul\":10333:10339   */\n      dup5\n        /* \"#utility.yul\":10328:10331   */\n      dup5\n        /* \"#utility.yul\":10324:10340   */\n      add\n        /* \"#utility.yul\":10317:10344   */\n      mstore\n        /* \"#utility.yul\":10166:10350   */\n      pop\n        /* \"#utility.yul\":10104:10350   */\n      pop\n      pop\n      pop\n      jump\t// out\n        /* \"#utility.yul\":10356:10713   */\n    tag_391:\n        /* \"#utility.yul\":10434:10437   */\n      0x00\n        /* \"#utility.yul\":10462:10501   */\n      tag_583\n        /* \"#utility.yul\":10495:10500   */\n      dup3\n        /* \"#utility.yul\":10462:10501   */\n      tag_388\n      jump\t// in\n    tag_583:\n        /* \"#utility.yul\":10517:10578   */\n      tag_584\n        /* \"#utility.yul\":10571:10577   */\n      dup2\n        /* \"#utility.yul\":10566:10569   */\n      dup6\n        /* \"#utility.yul\":10517:10578   */\n      tag_389\n      jump\t// in\n    tag_584:\n        /* \"#utility.yul\":10510:10578   */\n      swap4\n      pop\n        /* \"#utility.yul\":10587:10652   */\n      tag_585\n        /* \"#utility.yul\":10645:10651   */\n      dup2\n        /* \"#utility.yul\":10640:10643   */\n      dup6\n        /* \"#utility.yul\":10633:10637   */\n      0x20\n        /* \"#utility.yul\":10626:10631   */\n      dup7\n        /* \"#utility.yul\":10622:10638   */\n      add\n        /* \"#utility.yul\":10587:10652   */\n      tag_390\n      jump\t// in\n    tag_585:\n        /* \"#utility.yul\":10677:10706   */\n      tag_586\n        /* \"#utility.yul\":10699:10705   */\n      dup2\n        /* \"#utility.yul\":10677:10706   */\n      tag_364\n      jump\t// in\n    tag_586:\n        /* \"#utility.yul\":10672:10675   */\n      dup5\n        /* \"#utility.yul\":10668:10707   */\n      add\n        /* \"#utility.yul\":10661:10707   */\n      swap2\n      pop\n        /* \"#utility.yul\":10438:10713   */\n      pop\n        /* \"#utility.yul\":10356:10713   */\n      swap3\n      swap2\n      pop\n      pop\n      jump\t// out\n        /* \"#utility.yul\":10719:10899   */\n    tag_100:\n        /* \"#utility.yul\":10767:10844   */\n      0x4e487b7100000000000000000000000000000000000000000000000000000000\n        /* \"#utility.yul\":10764:10765   */\n      0x00\n        /* \"#utility.yul\":10757:10845   */\n      mstore\n        /* \"#utility.yul\":10864:10868   */\n      0x21\n        /* \"#utility.yul\":10861:10862   */\n      0x04\n        /* \"#utility.yul\":10854:10869   */\n      mstore\n        /* \"#utility.yul\":10888:10892   */\n      0x24\n        /* \"#utility.yul\":10885:10886   */\n      0x00\n        /* \"#utility.yul\":10878:10893   */\n      revert\n        /* \"#utility.yul\":10905:11027   */\n    tag_392:\n        /* \"#utility.yul\":10995:10996   */\n      0x04\n        /* \"#utility.yul\":10988:10993   */\n      dup2\n        /* \"#utility.yul\":10985:10997   */\n      lt\n        /* \"#utility.yul\":10975:11021   */\n      tag_589\n      jumpi\n        /* \"#utility.yul\":11001:11019   */\n      tag_590\n      tag_100\n      jump\t// in\n    tag_590:\n        /* \"#utility.yul\":10975:11021   */\n    tag_589:\n        /* \"#utility.yul\":10905:11027   */\n      pop\n      jump\t// out\n        /* \"#utility.yul\":11033:11178   */\n    tag_393:\n        /* \"#utility.yul\":11087:11094   */\n      0x00\n        /* \"#utility.yul\":11116:11121   */\n      dup2\n        /* \"#utility.yul\":11105:11121   */\n      swap1\n      pop\n        /* \"#utility.yul\":11122:11172   */\n      tag_592\n        /* \"#utility.yul\":11166:11171   */\n      dup3\n        /* \"#utility.yul\":11122:11172   */\n      tag_392\n      jump\t// in\n    tag_592:\n        /* \"#utility.yul\":11033:11178   */\n      swap2\n      swap1\n      pop\n      jump\t// out\n        /* \"#utility.yul\":11184:11329   */\n    tag_394:\n        /* \"#utility.yul\":11249:11258   */\n      0x00\n        /* \"#utility.yul\":11282:11323   */\n      tag_594\n        /* \"#utility.yul\":11317:11322   */\n      dup3\n        /* \"#utility.yul\":11282:11323   */\n      tag_393\n      jump\t// in\n    tag_594:\n        /* \"#utility.yul\":11269:11323   */\n      swap1\n      pop\n        /* \"#utility.yul\":11184:11329   */\n      swap2\n      swap1\n      pop\n      jump\t// out\n        /* \"#utility.yul\":11335:11486   */\n    tag_395:\n        /* \"#utility.yul\":11427:11479   */\n      tag_596\n        /* \"#utility.yul\":11473:11478   */\n      dup2\n        /* \"#utility.yul\":11427:11479   */\n      tag_394\n      jump\t// in\n    tag_596:\n        /* \"#utility.yul\":11422:11425   */\n      dup3\n        /* \"#utility.yul\":11415:11480   */\n      mstore\n        /* \"#utility.yul\":11335:11486   */\n      pop\n      pop\n      jump\t// out\n        /* \"#utility.yul\":11492:11613   */\n    tag_396:\n        /* \"#utility.yul\":11581:11582   */\n      0x02\n        /* \"#utility.yul\":11574:11579   */\n      dup2\n        /* \"#utility.yul\":11571:11583   */\n      lt\n        /* \"#utility.yul\":11561:11607   */\n      tag_598\n      jumpi\n        /* \"#utility.yul\":11587:11605   */\n      tag_599\n      tag_100\n      jump\t// in\n    tag_599:\n        /* \"#utility.yul\":11561:11607   */\n    tag_598:\n        /* \"#utility.yul\":11492:11613   */\n      pop\n      jump\t// out\n        /* \"#utility.yul\":11619:11762   */\n    tag_397:\n        /* \"#utility.yul\":11672:11679   */\n      0x00\n        /* \"#utility.yul\":11701:11706   */\n      dup2\n        /* \"#utility.yul\":11690:11706   */\n      swap1\n      pop\n        /* \"#utility.yul\":11707:11756   */\n      tag_601\n        /* \"#utility.yul\":11750:11755   */\n      dup3\n        /* \"#utility.yul\":11707:11756   */\n      tag_396\n      jump\t// in\n    tag_601:\n        /* \"#utility.yul\":11619:11762   */\n      swap2\n      swap1\n      pop\n      jump\t// out\n        /* \"#utility.yul\":11768:11911   */\n    tag_398:\n        /* \"#utility.yul\":11832:11841   */\n      0x00\n        /* \"#utility.yul\":11865:11905   */\n      tag_603\n        /* \"#utility.yul\":11899:11904   */\n      dup3\n        /* \"#utility.yul\":11865:11905   */\n      tag_397\n      jump\t// in\n    tag_603:\n        /* \"#utility.yul\":11852:11905   */\n      swap1\n      pop\n        /* \"#utility.yul\":11768:11911   */\n      swap2\n      swap1\n      pop\n      jump\t// out\n        /* \"#utility.yul\":11917:12066   */\n    tag_399:\n        /* \"#utility.yul\":12008:12059   */\n      tag_605\n        /* \"#utility.yul\":12053:12058   */\n      dup2\n        /* \"#utility.yul\":12008:12059   */\n      tag_398\n      jump\t// in\n    tag_605:\n        /* \"#utility.yul\":12003:12006   */\n      dup3\n        /* \"#utility.yul\":11996:12060   */\n      mstore\n        /* \"#utility.yul\":11917:12066   */\n      pop\n      pop\n      jump\t// out\n        /* \"#utility.yul\":12072:12165   */\n    tag_400:\n        /* \"#utility.yul\":12108:12115   */\n      0x00\n        /* \"#utility.yul\":12148:12158   */\n      0xffffffff\n        /* \"#utility.yul\":12141:12146   */\n      dup3\n        /* \"#utility.yul\":12137:12159   */\n      and\n        /* \"#utility.yul\":12126:12159   */\n      swap1\n      pop\n        /* \"#utility.yul\":12072:12165   */\n      swap2\n      swap1\n      pop\n      jump\t// out\n        /* \"#utility.yul\":12171:12276   */\n    tag_401:\n        /* \"#utility.yul\":12246:12269   */\n      tag_608\n        /* \"#utility.yul\":12263:12268   */\n      dup2\n        /* \"#utility.yul\":12246:12269   */\n      tag_400\n      jump\t// in\n    tag_608:\n        /* \"#utility.yul\":12241:12244   */\n      dup3\n        /* \"#utility.yul\":12234:12270   */\n      mstore\n        /* \"#utility.yul\":12171:12276   */\n      pop\n      pop\n      jump\t// out\n        /* \"#utility.yul\":12282:12390   */\n    tag_402:\n        /* \"#utility.yul\":12359:12383   */\n      tag_610\n        /* \"#utility.yul\":12377:12382   */\n      dup2\n        /* \"#utility.yul\":12359:12383   */\n      tag_356\n      jump\t// in\n    tag_610:\n        /* \"#utility.yul\":12354:12357   */\n      dup3\n        /* \"#utility.yul\":12347:12384   */\n      mstore\n        /* \"#utility.yul\":12282:12390   */\n      pop\n      pop\n      jump\t// out\n        /* \"#utility.yul\":12396:12504   */\n    tag_403:\n        /* \"#utility.yul\":12473:12497   */\n      tag_612\n        /* \"#utility.yul\":12491:12496   */\n      dup2\n        /* \"#utility.yul\":12473:12497   */\n      tag_372\n      jump\t// in\n    tag_612:\n        /* \"#utility.yul\":12468:12471   */\n      dup3\n        /* \"#utility.yul\":12461:12498   */\n      mstore\n        /* \"#utility.yul\":12396:12504   */\n      pop\n      pop\n      jump\t// out\n        /* \"#utility.yul\":12510:12600   */\n    tag_404:\n        /* \"#utility.yul\":12544:12551   */\n      0x00\n        /* \"#utility.yul\":12587:12592   */\n      dup2\n        /* \"#utility.yul\":12580:12593   */\n      iszero\n        /* \"#utility.yul\":12573:12594   */\n      iszero\n        /* \"#utility.yul\":12562:12594   */\n      swap1\n      pop\n        /* \"#utility.yul\":12510:12600   */\n      swap2\n      swap1\n      pop\n      jump\t// out\n        /* \"#utility.yul\":12606:12705   */\n    tag_405:\n        /* \"#utility.yul\":12677:12698   */\n      tag_615\n        /* \"#utility.yul\":12692:12697   */\n      dup2\n        /* \"#utility.yul\":12677:12698   */\n      tag_404\n      jump\t// in\n    tag_615:\n        /* \"#utility.yul\":12672:12675   */\n      dup3\n        /* \"#utility.yul\":12665:12699   */\n      mstore\n        /* \"#utility.yul\":12606:12705   */\n      pop\n      pop\n      jump\t// out\n        /* \"#utility.yul\":12773:15125   */\n    tag_406:\n        /* \"#utility.yul\":12882:12885   */\n      0x00\n        /* \"#utility.yul\":12918:12924   */\n      0x0160\n        /* \"#utility.yul\":12913:12916   */\n      dup4\n        /* \"#utility.yul\":12909:12925   */\n      add\n        /* \"#utility.yul\":13007:13011   */\n      0x00\n        /* \"#utility.yul\":13000:13005   */\n      dup4\n        /* \"#utility.yul\":12996:13012   */\n      add\n        /* \"#utility.yul\":12990:13013   */\n      mload\n        /* \"#utility.yul\":13060:13063   */\n      dup5\n        /* \"#utility.yul\":13054:13058   */\n      dup3\n        /* \"#utility.yul\":13050:13064   */\n      sub\n        /* \"#utility.yul\":13043:13047   */\n      0x00\n        /* \"#utility.yul\":13038:13041   */\n      dup7\n        /* \"#utility.yul\":13034:13048   */\n      add\n        /* \"#utility.yul\":13027:13065   */\n      mstore\n        /* \"#utility.yul\":13086:13159   */\n      tag_617\n        /* \"#utility.yul\":13154:13158   */\n      dup3\n        /* \"#utility.yul\":13140:13152   */\n      dup3\n        /* \"#utility.yul\":13086:13159   */\n      tag_391\n      jump\t// in\n    tag_617:\n        /* \"#utility.yul\":13078:13159   */\n      swap2\n      pop\n        /* \"#utility.yul\":12935:13170   */\n      pop\n        /* \"#utility.yul\":13253:13257   */\n      0x20\n        /* \"#utility.yul\":13246:13251   */\n      dup4\n        /* \"#utility.yul\":13242:13258   */\n      add\n        /* \"#utility.yul\":13236:13259   */\n      mload\n        /* \"#utility.yul\":13306:13309   */\n      dup5\n        /* \"#utility.yul\":13300:13304   */\n      dup3\n        /* \"#utility.yul\":13296:13310   */\n      sub\n        /* \"#utility.yul\":13289:13293   */\n      0x20\n        /* \"#utility.yul\":13284:13287   */\n      dup7\n        /* \"#utility.yul\":13280:13294   */\n      add\n        /* \"#utility.yul\":13273:13311   */\n      mstore\n        /* \"#utility.yul\":13332:13405   */\n      tag_618\n        /* \"#utility.yul\":13400:13404   */\n      dup3\n        /* \"#utility.yul\":13386:13398   */\n      dup3\n        /* \"#utility.yul\":13332:13405   */\n      tag_391\n      jump\t// in\n    tag_618:\n        /* \"#utility.yul\":13324:13405   */\n      swap2\n      pop\n        /* \"#utility.yul\":13180:13416   */\n      pop\n        /* \"#utility.yul\":13507:13511   */\n      0x40\n        /* \"#utility.yul\":13500:13505   */\n      dup4\n        /* \"#utility.yul\":13496:13512   */\n      add\n        /* \"#utility.yul\":13490:13513   */\n      mload\n        /* \"#utility.yul\":13526:13604   */\n      tag_619\n        /* \"#utility.yul\":13598:13602   */\n      0x40\n        /* \"#utility.yul\":13593:13596   */\n      dup7\n        /* \"#utility.yul\":13589:13603   */\n      add\n        /* \"#utility.yul\":13575:13587   */\n      dup3\n        /* \"#utility.yul\":13526:13604   */\n      tag_395\n      jump\t// in\n    tag_619:\n        /* \"#utility.yul\":13426:13614   */\n      pop\n        /* \"#utility.yul\":13704:13708   */\n      0x60\n        /* \"#utility.yul\":13697:13702   */\n      dup4\n        /* \"#utility.yul\":13693:13709   */\n      add\n        /* \"#utility.yul\":13687:13710   */\n      mload\n        /* \"#utility.yul\":13723:13800   */\n      tag_620\n        /* \"#utility.yul\":13794:13798   */\n      0x60\n        /* \"#utility.yul\":13789:13792   */\n      dup7\n        /* \"#utility.yul\":13785:13799   */\n      add\n        /* \"#utility.yul\":13771:13783   */\n      dup3\n        /* \"#utility.yul\":13723:13800   */\n      tag_399\n      jump\t// in\n    tag_620:\n        /* \"#utility.yul\":13624:13810   */\n      pop\n        /* \"#utility.yul\":13908:13912   */\n      0x80\n        /* \"#utility.yul\":13901:13906   */\n      dup4\n        /* \"#utility.yul\":13897:13913   */\n      add\n        /* \"#utility.yul\":13891:13914   */\n      mload\n        /* \"#utility.yul\":13927:13988   */\n      tag_621\n        /* \"#utility.yul\":13982:13986   */\n      0x80\n        /* \"#utility.yul\":13977:13980   */\n      dup7\n        /* \"#utility.yul\":13973:13987   */\n      add\n        /* \"#utility.yul\":13959:13971   */\n      dup3\n        /* \"#utility.yul\":13927:13988   */\n      tag_401\n      jump\t// in\n    tag_621:\n        /* \"#utility.yul\":13820:13998   */\n      pop\n        /* \"#utility.yul\":14084:14088   */\n      0xa0\n        /* \"#utility.yul\":14077:14082   */\n      dup4\n        /* \"#utility.yul\":14073:14089   */\n      add\n        /* \"#utility.yul\":14067:14090   */\n      mload\n        /* \"#utility.yul\":14103:14164   */\n      tag_622\n        /* \"#utility.yul\":14158:14162   */\n      0xa0\n        /* \"#utility.yul\":14153:14156   */\n      dup7\n        /* \"#utility.yul\":14149:14163   */\n      add\n        /* \"#utility.yul\":14135:14147   */\n      dup3\n        /* \"#utility.yul\":14103:14164   */\n      tag_401\n      jump\t// in\n    tag_622:\n        /* \"#utility.yul\":14008:14174   */\n      pop\n        /* \"#utility.yul\":14264:14268   */\n      0xc0\n        /* \"#utility.yul\":14257:14262   */\n      dup4\n        /* \"#utility.yul\":14253:14269   */\n      add\n        /* \"#utility.yul\":14247:14270   */\n      mload\n        /* \"#utility.yul\":14283:14344   */\n      tag_623\n        /* \"#utility.yul\":14338:14342   */\n      0xc0\n        /* \"#utility.yul\":14333:14336   */\n      dup7\n        /* \"#utility.yul\":14329:14343   */\n      add\n        /* \"#utility.yul\":14315:14327   */\n      dup3\n        /* \"#utility.yul\":14283:14344   */\n      tag_401\n      jump\t// in\n    tag_623:\n        /* \"#utility.yul\":14184:14354   */\n      pop\n        /* \"#utility.yul\":14438:14442   */\n      0xe0\n        /* \"#utility.yul\":14431:14436   */\n      dup4\n        /* \"#utility.yul\":14427:14443   */\n      add\n        /* \"#utility.yul\":14421:14444   */\n      mload\n        /* \"#utility.yul\":14457:14520   */\n      tag_624\n        /* \"#utility.yul\":14514:14518   */\n      0xe0\n        /* \"#utility.yul\":14509:14512   */\n      dup7\n        /* \"#utility.yul\":14505:14519   */\n      add\n        /* \"#utility.yul\":14491:14503   */\n      dup3\n        /* \"#utility.yul\":14457:14520   */\n      tag_402\n      jump\t// in\n    tag_624:\n        /* \"#utility.yul\":14364:14530   */\n      pop\n        /* \"#utility.yul\":14626:14632   */\n      0x0100\n        /* \"#utility.yul\":14619:14624   */\n      dup4\n        /* \"#utility.yul\":14615:14633   */\n      add\n        /* \"#utility.yul\":14609:14634   */\n      mload\n        /* \"#utility.yul\":14647:14712   */\n      tag_625\n        /* \"#utility.yul\":14704:14710   */\n      0x0100\n        /* \"#utility.yul\":14699:14702   */\n      dup7\n        /* \"#utility.yul\":14695:14711   */\n      add\n        /* \"#utility.yul\":14681:14693   */\n      dup3\n        /* \"#utility.yul\":14647:14712   */\n      tag_403\n      jump\t// in\n    tag_625:\n        /* \"#utility.yul\":14540:14722   */\n      pop\n        /* \"#utility.yul\":14812:14818   */\n      0x0120\n        /* \"#utility.yul\":14805:14810   */\n      dup4\n        /* \"#utility.yul\":14801:14819   */\n      add\n        /* \"#utility.yul\":14795:14820   */\n      mload\n        /* \"#utility.yul\":14833:14898   */\n      tag_626\n        /* \"#utility.yul\":14890:14896   */\n      0x0120\n        /* \"#utility.yul\":14885:14888   */\n      dup7\n        /* \"#utility.yul\":14881:14897   */\n      add\n        /* \"#utility.yul\":14867:14879   */\n      dup3\n        /* \"#utility.yul\":14833:14898   */\n      tag_403\n      jump\t// in\n    tag_626:\n        /* \"#utility.yul\":14732:14908   */\n      pop\n        /* \"#utility.yul\":15008:15014   */\n      0x0140\n        /* \"#utility.yul\":15001:15006   */\n      dup4\n        /* \"#utility.yul\":14997:15015   */\n      add\n        /* \"#utility.yul\":14991:15016   */\n      mload\n        /* \"#utility.yul\":15029:15088   */\n      tag_627\n        /* \"#utility.yul\":15080:15086   */\n      0x0140\n        /* \"#utility.yul\":15075:15078   */\n      dup7\n        /* \"#utility.yul\":15071:15087   */\n      add\n        /* \"#utility.yul\":15057:15069   */\n      dup3\n        /* \"#utility.yul\":15029:15088   */\n      tag_405\n      jump\t// in\n    tag_627:\n        /* \"#utility.yul\":14918:15098   */\n      pop\n        /* \"#utility.yul\":15115:15119   */\n      dup1\n        /* \"#utility.yul\":15108:15119   */\n      swap2\n      pop\n        /* \"#utility.yul\":12887:15125   */\n      pop\n        /* \"#utility.yul\":12773:15125   */\n      swap3\n      swap2\n      pop\n      pop\n      jump\t// out\n        /* \"#utility.yul\":15131:15387   */\n    tag_407:\n        /* \"#utility.yul\":15250:15260   */\n      0x00\n        /* \"#utility.yul\":15285:15381   */\n      tag_629\n        /* \"#utility.yul\":15377:15380   */\n      dup4\n        /* \"#utility.yul\":15369:15375   */\n      dup4\n        /* \"#utility.yul\":15285:15381   */\n      tag_406\n      jump\t// in\n    tag_629:\n        /* \"#utility.yul\":15271:15381   */\n      swap1\n      pop\n        /* \"#utility.yul\":15131:15387   */\n      swap3\n      swap2\n      pop\n      pop\n      jump\t// out\n        /* \"#utility.yul\":15393:15531   */\n    tag_408:\n        /* \"#utility.yul\":15488:15492   */\n      0x00\n        /* \"#utility.yul\":15520:15524   */\n      0x20\n        /* \"#utility.yul\":15515:15518   */\n      dup3\n        /* \"#utility.yul\":15511:15525   */\n      add\n        /* \"#utility.yul\":15503:15525   */\n      swap1\n      pop\n        /* \"#utility.yul\":15393:15531   */\n      swap2\n      swap1\n      pop\n      jump\t// out\n        /* \"#utility.yul\":15603:16714   */\n    tag_409:\n        /* \"#utility.yul\":15772:15775   */\n      0x00\n        /* \"#utility.yul\":15801:15880   */\n      tag_632\n        /* \"#utility.yul\":15874:15879   */\n      dup3\n        /* \"#utility.yul\":15801:15880   */\n      tag_385\n      jump\t// in\n    tag_632:\n        /* \"#utility.yul\":15896:16007   */\n      tag_633\n        /* \"#utility.yul\":16000:16006   */\n      dup2\n        /* \"#utility.yul\":15995:15998   */\n      dup6\n        /* \"#utility.yul\":15896:16007   */\n      tag_386\n      jump\t// in\n    tag_633:\n        /* \"#utility.yul\":15889:16007   */\n      swap4\n      pop\n        /* \"#utility.yul\":16033:16036   */\n      dup4\n        /* \"#utility.yul\":16078:16082   */\n      0x20\n        /* \"#utility.yul\":16070:16076   */\n      dup3\n        /* \"#utility.yul\":16066:16083   */\n      mul\n        /* \"#utility.yul\":16061:16064   */\n      dup6\n        /* \"#utility.yul\":16057:16084   */\n      add\n        /* \"#utility.yul\":16108:16189   */\n      tag_634\n        /* \"#utility.yul\":16183:16188   */\n      dup6\n        /* \"#utility.yul\":16108:16189   */\n      tag_387\n      jump\t// in\n    tag_634:\n        /* \"#utility.yul\":16212:16219   */\n      dup1\n        /* \"#utility.yul\":16243:16244   */\n      0x00\n        /* \"#utility.yul\":16228:16669   */\n    tag_635:\n        /* \"#utility.yul\":16253:16259   */\n      dup6\n        /* \"#utility.yul\":16250:16251   */\n      dup2\n        /* \"#utility.yul\":16247:16260   */\n      lt\n        /* \"#utility.yul\":16228:16669   */\n      iszero\n      tag_637\n      jumpi\n        /* \"#utility.yul\":16324:16333   */\n      dup5\n        /* \"#utility.yul\":16318:16322   */\n      dup5\n        /* \"#utility.yul\":16314:16334   */\n      sub\n        /* \"#utility.yul\":16309:16312   */\n      dup10\n        /* \"#utility.yul\":16302:16335   */\n      mstore\n        /* \"#utility.yul\":16375:16381   */\n      dup2\n        /* \"#utility.yul\":16369:16382   */\n      mload\n        /* \"#utility.yul\":16403:16517   */\n      tag_638\n        /* \"#utility.yul\":16512:16516   */\n      dup6\n        /* \"#utility.yul\":16497:16510   */\n      dup3\n        /* \"#utility.yul\":16403:16517   */\n      tag_407\n      jump\t// in\n    tag_638:\n        /* \"#utility.yul\":16395:16517   */\n      swap5\n      pop\n        /* \"#utility.yul\":16540:16625   */\n      tag_639\n        /* \"#utility.yul\":16618:16624   */\n      dup4\n        /* \"#utility.yul\":16540:16625   */\n      tag_408\n      jump\t// in\n    tag_639:\n        /* \"#utility.yul\":16530:16625   */\n      swap3\n      pop\n        /* \"#utility.yul\":16654:16658   */\n      0x20\n        /* \"#utility.yul\":16649:16652   */\n      dup11\n        /* \"#utility.yul\":16645:16659   */\n      add\n        /* \"#utility.yul\":16638:16659   */\n      swap10\n      pop\n        /* \"#utility.yul\":16288:16669   */\n      pop\n        /* \"#utility.yul\":16275:16276   */\n      0x01\n        /* \"#utility.yul\":16272:16273   */\n      dup2\n        /* \"#utility.yul\":16268:16277   */\n      add\n        /* \"#utility.yul\":16263:16277   */\n      swap1\n      pop\n        /* \"#utility.yul\":16228:16669   */\n      jump(tag_635)\n    tag_637:\n        /* \"#utility.yul\":16232:16246   */\n      pop\n        /* \"#utility.yul\":16685:16689   */\n      dup3\n        /* \"#utility.yul\":16678:16689   */\n      swap8\n      pop\n        /* \"#utility.yul\":16705:16708   */\n      dup8\n        /* \"#utility.yul\":16698:16708   */\n      swap6\n      pop\n        /* \"#utility.yul\":15777:16714   */\n      pop\n      pop\n      pop\n      pop\n      pop\n        /* \"#utility.yul\":15603:16714   */\n      swap3\n      swap2\n      pop\n      pop\n      jump\t// out\n        /* \"#utility.yul\":16720:17193   */\n    tag_45:\n        /* \"#utility.yul\":16913:16917   */\n      0x00\n        /* \"#utility.yul\":16951:16953   */\n      0x20\n        /* \"#utility.yul\":16940:16949   */\n      dup3\n        /* \"#utility.yul\":16936:16954   */\n      add\n        /* \"#utility.yul\":16928:16954   */\n      swap1\n      pop\n        /* \"#utility.yul\":17000:17009   */\n      dup2\n        /* \"#utility.yul\":16994:16998   */\n      dup2\n        /* \"#utility.yul\":16990:17010   */\n      sub\n        /* \"#utility.yul\":16986:16987   */\n      0x00\n        /* \"#utility.yul\":16975:16984   */\n      dup4\n        /* \"#utility.yul\":16971:16988   */\n      add\n        /* \"#utility.yul\":16964:17011   */\n      mstore\n        /* \"#utility.yul\":17028:17186   */\n      tag_641\n        /* \"#utility.yul\":17181:17185   */\n      dup2\n        /* \"#utility.yul\":17172:17178   */\n      dup5\n        /* \"#utility.yul\":17028:17186   */\n      tag_409\n      jump\t// in\n    tag_641:\n        /* \"#utility.yul\":17020:17186   */\n      swap1\n      pop\n        /* \"#utility.yul\":16720:17193   */\n      swap3\n      swap2\n      pop\n      pop\n      jump\t// out\n        /* \"#utility.yul\":17199:17528   */\n    tag_53:\n        /* \"#utility.yul\":17258:17264   */\n      0x00\n        /* \"#utility.yul\":17307:17309   */\n      0x20\n        /* \"#utility.yul\":17295:17304   */\n      dup3\n        /* \"#utility.yul\":17286:17293   */\n      dup5\n        /* \"#utility.yul\":17282:17305   */\n      sub\n        /* \"#utility.yul\":17278:17310   */\n      slt\n        /* \"#utility.yul\":17275:17394   */\n      iszero\n      tag_643\n      jumpi\n        /* \"#utility.yul\":17313:17392   */\n      tag_644\n      tag_360\n      jump\t// in\n    tag_644:\n        /* \"#utility.yul\":17275:17394   */\n    tag_643:\n        /* \"#utility.yul\":17433:17434   */\n      0x00\n        /* \"#utility.yul\":17458:17511   */\n      tag_645\n        /* \"#utility.yul\":17503:17510   */\n      dup5\n        /* \"#utility.yul\":17494:17500   */\n      dup3\n        /* \"#utility.yul\":17483:17492   */\n      dup6\n        /* \"#utility.yul\":17479:17501   */\n      add\n        /* \"#utility.yul\":17458:17511   */\n      tag_382\n      jump\t// in\n    tag_645:\n        /* \"#utility.yul\":17448:17511   */\n      swap2\n      pop\n        /* \"#utility.yul\":17404:17521   */\n      pop\n        /* \"#utility.yul\":17199:17528   */\n      swap3\n      swap2\n      pop\n      pop\n      jump\t// out\n        /* \"#utility.yul\":17596:19958   */\n    tag_410:\n        /* \"#utility.yul\":17715:17718   */\n      0x00\n        /* \"#utility.yul\":17751:17757   */\n      0x0160\n        /* \"#utility.yul\":17746:17749   */\n      dup4\n        /* \"#utility.yul\":17742:17758   */\n      add\n        /* \"#utility.yul\":17840:17844   */\n      0x00\n        /* \"#utility.yul\":17833:17838   */\n      dup4\n        /* \"#utility.yul\":17829:17845   */\n      add\n        /* \"#utility.yul\":17823:17846   */\n      mload\n        /* \"#utility.yul\":17893:17896   */\n      dup5\n        /* \"#utility.yul\":17887:17891   */\n      dup3\n        /* \"#utility.yul\":17883:17897   */\n      sub\n        /* \"#utility.yul\":17876:17880   */\n      0x00\n        /* \"#utility.yul\":17871:17874   */\n      dup7\n        /* \"#utility.yul\":17867:17881   */\n      add\n        /* \"#utility.yul\":17860:17898   */\n      mstore\n        /* \"#utility.yul\":17919:17992   */\n      tag_647\n        /* \"#utility.yul\":17987:17991   */\n      dup3\n        /* \"#utility.yul\":17973:17985   */\n      dup3\n        /* \"#utility.yul\":17919:17992   */\n      tag_391\n      jump\t// in\n    tag_647:\n        /* \"#utility.yul\":17911:17992   */\n      swap2\n      pop\n        /* \"#utility.yul\":17768:18003   */\n      pop\n        /* \"#utility.yul\":18086:18090   */\n      0x20\n        /* \"#utility.yul\":18079:18084   */\n      dup4\n        /* \"#utility.yul\":18075:18091   */\n      add\n        /* \"#utility.yul\":18069:18092   */\n      mload\n        /* \"#utility.yul\":18139:18142   */\n      dup5\n        /* \"#utility.yul\":18133:18137   */\n      dup3\n        /* \"#utility.yul\":18129:18143   */\n      sub\n        /* \"#utility.yul\":18122:18126   */\n      0x20\n        /* \"#utility.yul\":18117:18120   */\n      dup7\n        /* \"#utility.yul\":18113:18127   */\n      add\n        /* \"#utility.yul\":18106:18144   */\n      mstore\n        /* \"#utility.yul\":18165:18238   */\n      tag_648\n        /* \"#utility.yul\":18233:18237   */\n      dup3\n        /* \"#utility.yul\":18219:18231   */\n      dup3\n        /* \"#utility.yul\":18165:18238   */\n      tag_391\n      jump\t// in\n    tag_648:\n        /* \"#utility.yul\":18157:18238   */\n      swap2\n      pop\n        /* \"#utility.yul\":18013:18249   */\n      pop\n        /* \"#utility.yul\":18340:18344   */\n      0x40\n        /* \"#utility.yul\":18333:18338   */\n      dup4\n        /* \"#utility.yul\":18329:18345   */\n      add\n        /* \"#utility.yul\":18323:18346   */\n      mload\n        /* \"#utility.yul\":18359:18437   */\n      tag_649\n        /* \"#utility.yul\":18431:18435   */\n      0x40\n        /* \"#utility.yul\":18426:18429   */\n      dup7\n        /* \"#utility.yul\":18422:18436   */\n      add\n        /* \"#utility.yul\":18408:18420   */\n      dup3\n        /* \"#utility.yul\":18359:18437   */\n      tag_395\n      jump\t// in\n    tag_649:\n        /* \"#utility.yul\":18259:18447   */\n      pop\n        /* \"#utility.yul\":18537:18541   */\n      0x60\n        /* \"#utility.yul\":18530:18535   */\n      dup4\n        /* \"#utility.yul\":18526:18542   */\n      add\n        /* \"#utility.yul\":18520:18543   */\n      mload\n        /* \"#utility.yul\":18556:18633   */\n      tag_650\n        /* \"#utility.yul\":18627:18631   */\n      0x60\n        /* \"#utility.yul\":18622:18625   */\n      dup7\n        /* \"#utility.yul\":18618:18632   */\n      add\n        /* \"#utility.yul\":18604:18616   */\n      dup3\n        /* \"#utility.yul\":18556:18633   */\n      tag_399\n      jump\t// in\n    tag_650:\n        /* \"#utility.yul\":18457:18643   */\n      pop\n        /* \"#utility.yul\":18741:18745   */\n      0x80\n        /* \"#utility.yul\":18734:18739   */\n      dup4\n        /* \"#utility.yul\":18730:18746   */\n      add\n        /* \"#utility.yul\":18724:18747   */\n      mload\n        /* \"#utility.yul\":18760:18821   */\n      tag_651\n        /* \"#utility.yul\":18815:18819   */\n      0x80\n        /* \"#utility.yul\":18810:18813   */\n      dup7\n        /* \"#utility.yul\":18806:18820   */\n      add\n        /* \"#utility.yul\":18792:18804   */\n      dup3\n        /* \"#utility.yul\":18760:18821   */\n      tag_401\n      jump\t// in\n    tag_651:\n        /* \"#utility.yul\":18653:18831   */\n      pop\n        /* \"#utility.yul\":18917:18921   */\n      0xa0\n        /* \"#utility.yul\":18910:18915   */\n      dup4\n        /* \"#utility.yul\":18906:18922   */\n      add\n        /* \"#utility.yul\":18900:18923   */\n      mload\n        /* \"#utility.yul\":18936:18997   */\n      tag_652\n        /* \"#utility.yul\":18991:18995   */\n      0xa0\n        /* \"#utility.yul\":18986:18989   */\n      dup7\n        /* \"#utility.yul\":18982:18996   */\n      add\n        /* \"#utility.yul\":18968:18980   */\n      dup3\n        /* \"#utility.yul\":18936:18997   */\n      tag_401\n      jump\t// in\n    tag_652:\n        /* \"#utility.yul\":18841:19007   */\n      pop\n        /* \"#utility.yul\":19097:19101   */\n      0xc0\n        /* \"#utility.yul\":19090:19095   */\n      dup4\n        /* \"#utility.yul\":19086:19102   */\n      add\n        /* \"#utility.yul\":19080:19103   */\n      mload\n        /* \"#utility.yul\":19116:19177   */\n      tag_653\n        /* \"#utility.yul\":19171:19175   */\n      0xc0\n        /* \"#utility.yul\":19166:19169   */\n      dup7\n        /* \"#utility.yul\":19162:19176   */\n      add\n        /* \"#utility.yul\":19148:19160   */\n      dup3\n        /* \"#utility.yul\":19116:19177   */\n      tag_401\n      jump\t// in\n    tag_653:\n        /* \"#utility.yul\":19017:19187   */\n      pop\n        /* \"#utility.yul\":19271:19275   */\n      0xe0\n        /* \"#utility.yul\":19264:19269   */\n      dup4\n        /* \"#utility.yul\":19260:19276   */\n      add\n        /* \"#utility.yul\":19254:19277   */\n      mload\n        /* \"#utility.yul\":19290:19353   */\n      tag_654\n        /* \"#utility.yul\":19347:19351   */\n      0xe0\n        /* \"#utility.yul\":19342:19345   */\n      dup7\n        /* \"#utility.yul\":19338:19352   */\n      add\n        /* \"#utility.yul\":19324:19336   */\n      dup3\n        /* \"#utility.yul\":19290:19353   */\n      tag_402\n      jump\t// in\n    tag_654:\n        /* \"#utility.yul\":19197:19363   */\n      pop\n        /* \"#utility.yul\":19459:19465   */\n      0x0100\n        /* \"#utility.yul\":19452:19457   */\n      dup4\n        /* \"#utility.yul\":19448:19466   */\n      add\n        /* \"#utility.yul\":19442:19467   */\n      mload\n        /* \"#utility.yul\":19480:19545   */\n      tag_655\n        /* \"#utility.yul\":19537:19543   */\n      0x0100\n        /* \"#utility.yul\":19532:19535   */\n      dup7\n        /* \"#utility.yul\":19528:19544   */\n      add\n        /* \"#utility.yul\":19514:19526   */\n      dup3\n        /* \"#utility.yul\":19480:19545   */\n      tag_403\n      jump\t// in\n    tag_655:\n        /* \"#utility.yul\":19373:19555   */\n      pop\n        /* \"#utility.yul\":19645:19651   */\n      0x0120\n        /* \"#utility.yul\":19638:19643   */\n      dup4\n        /* \"#utility.yul\":19634:19652   */\n      add\n        /* \"#utility.yul\":19628:19653   */\n      mload\n        /* \"#utility.yul\":19666:19731   */\n      tag_656\n        /* \"#utility.yul\":19723:19729   */\n      0x0120\n        /* \"#utility.yul\":19718:19721   */\n      dup7\n        /* \"#utility.yul\":19714:19730   */\n      add\n        /* \"#utility.yul\":19700:19712   */\n      dup3\n        /* \"#utility.yul\":19666:19731   */\n      tag_403\n      jump\t// in\n    tag_656:\n        /* \"#utility.yul\":19565:19741   */\n      pop\n        /* \"#utility.yul\":19841:19847   */\n      0x0140\n        /* \"#utility.yul\":19834:19839   */\n      dup4\n        /* \"#utility.yul\":19830:19848   */\n      add\n        /* \"#utility.yul\":19824:19849   */\n      mload\n        /* \"#utility.yul\":19862:19921   */\n      tag_657\n        /* \"#utility.yul\":19913:19919   */\n      0x0140\n        /* \"#utility.yul\":19908:19911   */\n      dup7\n        /* \"#utility.yul\":19904:19920   */\n      add\n        /* \"#utility.yul\":19890:19902   */\n      dup3\n        /* \"#utility.yul\":19862:19921   */\n      tag_405\n      jump\t// in\n    tag_657:\n        /* \"#utility.yul\":19751:19931   */\n      pop\n        /* \"#utility.yul\":19948:19952   */\n      dup1\n        /* \"#utility.yul\":19941:19952   */\n      swap2\n      pop\n        /* \"#utility.yul\":17720:19958   */\n      pop\n        /* \"#utility.yul\":17596:19958   */\n      swap3\n      swap2\n      pop\n      pop\n      jump\t// out\n        /* \"#utility.yul\":19964:20337   */\n    tag_56:\n        /* \"#utility.yul\":20107:20111   */\n      0x00\n        /* \"#utility.yul\":20145:20147   */\n      0x20\n        /* \"#utility.yul\":20134:20143   */\n      dup3\n        /* \"#utility.yul\":20130:20148   */\n      add\n        /* \"#utility.yul\":20122:20148   */\n      swap1\n      pop\n        /* \"#utility.yul\":20194:20203   */\n      dup2\n        /* \"#utility.yul\":20188:20192   */\n      dup2\n        /* \"#utility.yul\":20184:20204   */\n      sub\n        /* \"#utility.yul\":20180:20181   */\n      0x00\n        /* \"#utility.yul\":20169:20178   */\n      dup4\n        /* \"#utility.yul\":20165:20182   */\n      add\n        /* \"#utility.yul\":20158:20205   */\n      mstore\n        /* \"#utility.yul\":20222:20330   */\n      tag_659\n        /* \"#utility.yul\":20325:20329   */\n      dup2\n        /* \"#utility.yul\":20316:20322   */\n      dup5\n        /* \"#utility.yul\":20222:20330   */\n      tag_410\n      jump\t// in\n    tag_659:\n        /* \"#utility.yul\":20214:20330   */\n      swap1\n      pop\n        /* \"#utility.yul\":19964:20337   */\n      swap3\n      swap2\n      pop\n      pop\n      jump\t// out\n        /* \"#utility.yul\":20343:20452   */\n    tag_411:\n        /* \"#utility.yul\":20424:20445   */\n      tag_661\n        /* \"#utility.yul\":20439:20444   */\n      dup2\n        /* \"#utility.yul\":20424:20445   */\n      tag_404\n      jump\t// in\n    tag_661:\n        /* \"#utility.yul\":20419:20422   */\n      dup3\n        /* \"#utility.yul\":20412:20446   */\n      mstore\n        /* \"#utility.yul\":20343:20452   */\n      pop\n      pop\n      jump\t// out\n        /* \"#utility.yul\":20458:20668   */\n    tag_65:\n        /* \"#utility.yul\":20545:20549   */\n      0x00\n        /* \"#utility.yul\":20583:20585   */\n      0x20\n        /* \"#utility.yul\":20572:20581   */\n      dup3\n        /* \"#utility.yul\":20568:20586   */\n      add\n        /* \"#utility.yul\":20560:20586   */\n      swap1\n      pop\n        /* \"#utility.yul\":20596:20661   */\n      tag_663\n        /* \"#utility.yul\":20658:20659   */\n      0x00\n        /* \"#utility.yul\":20647:20656   */\n      dup4\n        /* \"#utility.yul\":20643:20660   */\n      add\n        /* \"#utility.yul\":20634:20640   */\n      dup5\n        /* \"#utility.yul\":20596:20661   */\n      tag_411\n      jump\t// in\n    tag_663:\n        /* \"#utility.yul\":20458:20668   */\n      swap3\n      swap2\n      pop\n      pop\n      jump\t// out\n        /* \"#utility.yul\":20674:20792   */\n    tag_412:\n        /* \"#utility.yul\":20761:20785   */\n      tag_665\n        /* \"#utility.yul\":20779:20784   */\n      dup2\n        /* \"#utility.yul\":20761:20785   */\n      tag_372\n      jump\t// in\n    tag_665:\n        /* \"#utility.yul\":20756:20759   */\n      dup3\n        /* \"#utility.yul\":20749:20786   */\n      mstore\n        /* \"#utility.yul\":20674:20792   */\n      pop\n      pop\n      jump\t// out\n        /* \"#utility.yul\":20798:21020   */\n    tag_70:\n        /* \"#utility.yul\":20891:20895   */\n      0x00\n        /* \"#utility.yul\":20929:20931   */\n      0x20\n        /* \"#utility.yul\":20918:20927   */\n      dup3\n        /* \"#utility.yul\":20914:20932   */\n      add\n        /* \"#utility.yul\":20906:20932   */\n      swap1\n      pop\n        /* \"#utility.yul\":20942:21013   */\n      tag_667\n        /* \"#utility.yul\":21010:21011   */\n      0x00\n        /* \"#utility.yul\":20999:21008   */\n      dup4\n        /* \"#utility.yul\":20995:21012   */\n      add\n        /* \"#utility.yul\":20986:20992   */\n      dup5\n        /* \"#utility.yul\":20942:21013   */\n      tag_412\n      jump\t// in\n    tag_667:\n        /* \"#utility.yul\":20798:21020   */\n      swap3\n      swap2\n      pop\n      pop\n      jump\t// out\n        /* \"#utility.yul\":21026:21500   */\n    tag_77:\n        /* \"#utility.yul\":21094:21100   */\n      0x00\n        /* \"#utility.yul\":21102:21108   */\n      dup1\n        /* \"#utility.yul\":21151:21153   */\n      0x40\n        /* \"#utility.yul\":21139:21148   */\n      dup4\n        /* \"#utility.yul\":21130:21137   */\n      dup6\n        /* \"#utility.yul\":21126:21149   */\n      sub\n        /* \"#utility.yul\":21122:21154   */\n      slt\n        /* \"#utility.yul\":21119:21238   */\n      iszero\n      tag_669\n      jumpi\n        /* \"#utility.yul\":21157:21236   */\n      tag_670\n      tag_360\n      jump\t// in\n    tag_670:\n        /* \"#utility.yul\":21119:21238   */\n    tag_669:\n        /* \"#utility.yul\":21277:21278   */\n      0x00\n        /* \"#utility.yul\":21302:21355   */\n      tag_671\n        /* \"#utility.yul\":21347:21354   */\n      dup6\n        /* \"#utility.yul\":21338:21344   */\n      dup3\n        /* \"#utility.yul\":21327:21336   */\n      dup7\n        /* \"#utility.yul\":21323:21345   */\n      add\n        /* \"#utility.yul\":21302:21355   */\n      tag_374\n      jump\t// in\n    tag_671:\n        /* \"#utility.yul\":21292:21355   */\n      swap3\n      pop\n        /* \"#utility.yul\":21248:21365   */\n      pop\n        /* \"#utility.yul\":21404:21406   */\n      0x20\n        /* \"#utility.yul\":21430:21483   */\n      tag_672\n        /* \"#utility.yul\":21475:21482   */\n      dup6\n        /* \"#utility.yul\":21466:21472   */\n      dup3\n        /* \"#utility.yul\":21455:21464   */\n      dup7\n        /* \"#utility.yul\":21451:21473   */\n      add\n        /* \"#utility.yul\":21430:21483   */\n      tag_382\n      jump\t// in\n    tag_672:\n        /* \"#utility.yul\":21420:21483   */\n      swap2\n      pop\n        /* \"#utility.yul\":21375:21493   */\n      pop\n        /* \"#utility.yul\":21026:21500   */\n      swap3\n      pop\n      swap3\n      swap1\n      pop\n      jump\t// out\n        /* \"#utility.yul\":21506:21835   */\n    tag_82:\n        /* \"#utility.yul\":21565:21571   */\n      0x00\n        /* \"#utility.yul\":21614:21616   */\n      0x20\n        /* \"#utility.yul\":21602:21611   */\n      dup3\n        /* \"#utility.yul\":21593:21600   */\n      dup5\n        /* \"#utility.yul\":21589:21612   */\n      sub\n        /* \"#utility.yul\":21585:21617   */\n      slt\n        /* \"#utility.yul\":21582:21701   */\n      iszero\n      tag_674\n      jumpi\n        /* \"#utility.yul\":21620:21699   */\n      tag_675\n      tag_360\n      jump\t// in\n    tag_675:\n        /* \"#utility.yul\":21582:21701   */\n    tag_674:\n        /* \"#utility.yul\":21740:21741   */\n      0x00\n        /* \"#utility.yul\":21765:21818   */\n      tag_676\n        /* \"#utility.yul\":21810:21817   */\n      dup5\n        /* \"#utility.yul\":21801:21807   */\n      dup3\n        /* \"#utility.yul\":21790:21799   */\n      dup6\n        /* \"#utility.yul\":21786:21808   */\n      add\n        /* \"#utility.yul\":21765:21818   */\n      tag_374\n      jump\t// in\n    tag_676:\n        /* \"#utility.yul\":21755:21818   */\n      swap2\n      pop\n        /* \"#utility.yul\":21711:21828   */\n      pop\n        /* \"#utility.yul\":21506:21835   */\n      swap3\n      swap2\n      pop\n      pop\n      jump\t// out\n        /* \"#utility.yul\":21841:22021   */\n    tag_413:\n        /* \"#utility.yul\":21889:21966   */\n      0x4e487b7100000000000000000000000000000000000000000000000000000000\n        /* \"#utility.yul\":21886:21887   */\n      0x00\n        /* \"#utility.yul\":21879:21967   */\n      mstore\n        /* \"#utility.yul\":21986:21990   */\n      0x12\n        /* \"#utility.yul\":21983:21984   */\n      0x04\n        /* \"#utility.yul\":21976:21991   */\n      mstore\n        /* \"#utility.yul\":22010:22014   */\n      0x24\n        /* \"#utility.yul\":22007:22008   */\n      0x00\n        /* \"#utility.yul\":22000:22015   */\n      revert\n        /* \"#utility.yul\":22027:22203   */\n    tag_89:\n        /* \"#utility.yul\":22059:22060   */\n      0x00\n        /* \"#utility.yul\":22076:22096   */\n      tag_679\n        /* \"#utility.yul\":22094:22095   */\n      dup3\n        /* \"#utility.yul\":22076:22096   */\n      tag_356\n      jump\t// in\n    tag_679:\n        /* \"#utility.yul\":22071:22096   */\n      swap2\n      pop\n        /* \"#utility.yul\":22110:22130   */\n      tag_680\n        /* \"#utility.yul\":22128:22129   */\n      dup4\n        /* \"#utility.yul\":22110:22130   */\n      tag_356\n      jump\t// in\n    tag_680:\n        /* \"#utility.yul\":22105:22130   */\n      swap3\n      pop\n        /* \"#utility.yul\":22149:22150   */\n      dup3\n        /* \"#utility.yul\":22139:22174   */\n      tag_681\n      jumpi\n        /* \"#utility.yul\":22154:22172   */\n      tag_682\n      tag_413\n      jump\t// in\n    tag_682:\n        /* \"#utility.yul\":22139:22174   */\n    tag_681:\n        /* \"#utility.yul\":22195:22196   */\n      dup3\n        /* \"#utility.yul\":22192:22193   */\n      dup3\n        /* \"#utility.yul\":22188:22197   */\n      mod\n        /* \"#utility.yul\":22183:22197   */\n      swap1\n      pop\n        /* \"#utility.yul\":22027:22203   */\n      swap3\n      swap2\n      pop\n      pop\n      jump\t// out\n        /* \"#utility.yul\":22209:22378   */\n    tag_414:\n        /* \"#utility.yul\":22293:22304   */\n      0x00\n        /* \"#utility.yul\":22327:22333   */\n      dup3\n        /* \"#utility.yul\":22322:22325   */\n      dup3\n        /* \"#utility.yul\":22315:22334   */\n      mstore\n        /* \"#utility.yul\":22367:22371   */\n      0x20\n        /* \"#utility.yul\":22362:22365   */\n      dup3\n        /* \"#utility.yul\":22358:22372   */\n      add\n        /* \"#utility.yul\":22343:22372   */\n      swap1\n      pop\n        /* \"#utility.yul\":22209:22378   */\n      swap3\n      swap2\n      pop\n      pop\n      jump\t// out\n        /* \"#utility.yul\":22384:22616   */\n    tag_415:\n        /* \"#utility.yul\":22524:22558   */\n      0x416e206576656e206e756d626572206f662070617274696370616e7473206973\n        /* \"#utility.yul\":22520:22521   */\n      0x00\n        /* \"#utility.yul\":22512:22518   */\n      dup3\n        /* \"#utility.yul\":22508:22522   */\n      add\n        /* \"#utility.yul\":22501:22559   */\n      mstore\n        /* \"#utility.yul\":22593:22608   */\n      0x206e6f7420616c6c6f7765642e00000000000000000000000000000000000000\n        /* \"#utility.yul\":22588:22590   */\n      0x20\n        /* \"#utility.yul\":22580:22586   */\n      dup3\n        /* \"#utility.yul\":22576:22591   */\n      add\n        /* \"#utility.yul\":22569:22609   */\n      mstore\n        /* \"#utility.yul\":22384:22616   */\n      pop\n      jump\t// out\n        /* \"#utility.yul\":22622:22988   */\n    tag_416:\n        /* \"#utility.yul\":22764:22767   */\n      0x00\n        /* \"#utility.yul\":22785:22852   */\n      tag_686\n        /* \"#utility.yul\":22849:22851   */\n      0x2d\n        /* \"#utility.yul\":22844:22847   */\n      dup4\n        /* \"#utility.yul\":22785:22852   */\n      tag_414\n      jump\t// in\n    tag_686:\n        /* \"#utility.yul\":22778:22852   */\n      swap2\n      pop\n        /* \"#utility.yul\":22861:22954   */\n      tag_687\n        /* \"#utility.yul\":22950:22953   */\n      dup3\n        /* \"#utility.yul\":22861:22954   */\n      tag_415\n      jump\t// in\n    tag_687:\n        /* \"#utility.yul\":22979:22981   */\n      0x40\n        /* \"#utility.yul\":22974:22977   */\n      dup3\n        /* \"#utility.yul\":22970:22982   */\n      add\n        /* \"#utility.yul\":22963:22982   */\n      swap1\n      pop\n        /* \"#utility.yul\":22622:22988   */\n      swap2\n      swap1\n      pop\n      jump\t// out\n        /* \"#utility.yul\":22994:23413   */\n    tag_92:\n        /* \"#utility.yul\":23160:23164   */\n      0x00\n        /* \"#utility.yul\":23198:23200   */\n      0x20\n        /* \"#utility.yul\":23187:23196   */\n      dup3\n        /* \"#utility.yul\":23183:23201   */\n      add\n        /* \"#utility.yul\":23175:23201   */\n      swap1\n      pop\n        /* \"#utility.yul\":23247:23256   */\n      dup2\n        /* \"#utility.yul\":23241:23245   */\n      dup2\n        /* \"#utility.yul\":23237:23257   */\n      sub\n        /* \"#utility.yul\":23233:23234   */\n      0x00\n        /* \"#utility.yul\":23222:23231   */\n      dup4\n        /* \"#utility.yul\":23218:23235   */\n      add\n        /* \"#utility.yul\":23211:23258   */\n      mstore\n        /* \"#utility.yul\":23275:23406   */\n      tag_689\n        /* \"#utility.yul\":23401:23405   */\n      dup2\n        /* \"#utility.yul\":23275:23406   */\n      tag_416\n      jump\t// in\n    tag_689:\n        /* \"#utility.yul\":23267:23406   */\n      swap1\n      pop\n        /* \"#utility.yul\":22994:23413   */\n      swap2\n      swap1\n      pop\n      jump\t// out\n        /* \"#utility.yul\":23419:23498   */\n    tag_417:\n        /* \"#utility.yul\":23458:23465   */\n      0x00\n        /* \"#utility.yul\":23487:23492   */\n      dup2\n        /* \"#utility.yul\":23476:23492   */\n      swap1\n      pop\n        /* \"#utility.yul\":23419:23498   */\n      swap2\n      swap1\n      pop\n      jump\t// out\n        /* \"#utility.yul\":23504:23661   */\n    tag_418:\n        /* \"#utility.yul\":23609:23654   */\n      tag_692\n        /* \"#utility.yul\":23629:23653   */\n      tag_693\n        /* \"#utility.yul\":23647:23652   */\n      dup3\n        /* \"#utility.yul\":23629:23653   */\n      tag_356\n      jump\t// in\n    tag_693:\n        /* \"#utility.yul\":23609:23654   */\n      tag_417\n      jump\t// in\n    tag_692:\n        /* \"#utility.yul\":23604:23607   */\n      dup3\n        /* \"#utility.yul\":23597:23655   */\n      mstore\n        /* \"#utility.yul\":23504:23661   */\n      pop\n      pop\n      jump\t// out\n        /* \"#utility.yul\":23667:23761   */\n    tag_419:\n        /* \"#utility.yul\":23700:23708   */\n      0x00\n        /* \"#utility.yul\":23748:23753   */\n      dup2\n        /* \"#utility.yul\":23744:23746   */\n      0x60\n        /* \"#utility.yul\":23740:23754   */\n      shl\n        /* \"#utility.yul\":23719:23754   */\n      swap1\n      pop\n        /* \"#utility.yul\":23667:23761   */\n      swap2\n      swap1\n      pop\n      jump\t// out\n        /* \"#utility.yul\":23767:23861   */\n    tag_420:\n        /* \"#utility.yul\":23806:23813   */\n      0x00\n        /* \"#utility.yul\":23835:23855   */\n      tag_696\n        /* \"#utility.yul\":23849:23854   */\n      dup3\n        /* \"#utility.yul\":23835:23855   */\n      tag_419\n      jump\t// in\n    tag_696:\n        /* \"#utility.yul\":23824:23855   */\n      swap1\n      pop\n        /* \"#utility.yul\":23767:23861   */\n      swap2\n      swap1\n      pop\n      jump\t// out\n        /* \"#utility.yul\":23867:23967   */\n    tag_421:\n        /* \"#utility.yul\":23906:23913   */\n      0x00\n        /* \"#utility.yul\":23935:23961   */\n      tag_698\n        /* \"#utility.yul\":23955:23960   */\n      dup3\n        /* \"#utility.yul\":23935:23961   */\n      tag_420\n      jump\t// in\n    tag_698:\n        /* \"#utility.yul\":23924:23961   */\n      swap1\n      pop\n        /* \"#utility.yul\":23867:23967   */\n      swap2\n      swap1\n      pop\n      jump\t// out\n        /* \"#utility.yul\":23973:24130   */\n    tag_422:\n        /* \"#utility.yul\":24078:24123   */\n      tag_700\n        /* \"#utility.yul\":24098:24122   */\n      tag_701\n        /* \"#utility.yul\":24116:24121   */\n      dup3\n        /* \"#utility.yul\":24098:24122   */\n      tag_372\n      jump\t// in\n    tag_701:\n        /* \"#utility.yul\":24078:24123   */\n      tag_421\n      jump\t// in\n    tag_700:\n        /* \"#utility.yul\":24073:24076   */\n      dup3\n        /* \"#utility.yul\":24066:24124   */\n      mstore\n        /* \"#utility.yul\":23973:24130   */\n      pop\n      pop\n      jump\t// out\n        /* \"#utility.yul\":24136:24533   */\n    tag_94:\n        /* \"#utility.yul\":24276:24279   */\n      0x00\n        /* \"#utility.yul\":24291:24366   */\n      tag_703\n        /* \"#utility.yul\":24362:24365   */\n      dup3\n        /* \"#utility.yul\":24353:24359   */\n      dup6\n        /* \"#utility.yul\":24291:24366   */\n      tag_418\n      jump\t// in\n    tag_703:\n        /* \"#utility.yul\":24391:24393   */\n      0x20\n        /* \"#utility.yul\":24386:24389   */\n      dup3\n        /* \"#utility.yul\":24382:24394   */\n      add\n        /* \"#utility.yul\":24375:24394   */\n      swap2\n      pop\n        /* \"#utility.yul\":24404:24479   */\n      tag_704\n        /* \"#utility.yul\":24475:24478   */\n      dup3\n        /* \"#utility.yul\":24466:24472   */\n      dup5\n        /* \"#utility.yul\":24404:24479   */\n      tag_422\n      jump\t// in\n    tag_704:\n        /* \"#utility.yul\":24504:24506   */\n      0x14\n        /* \"#utility.yul\":24499:24502   */\n      dup3\n        /* \"#utility.yul\":24495:24507   */\n      add\n        /* \"#utility.yul\":24488:24507   */\n      swap2\n      pop\n        /* \"#utility.yul\":24524:24527   */\n      dup2\n        /* \"#utility.yul\":24517:24527   */\n      swap1\n      pop\n        /* \"#utility.yul\":24136:24533   */\n      swap4\n      swap3\n      pop\n      pop\n      pop\n      jump\t// out\n        /* \"#utility.yul\":24539:24719   */\n    tag_423:\n        /* \"#utility.yul\":24587:24664   */\n      0x4e487b7100000000000000000000000000000000000000000000000000000000\n        /* \"#utility.yul\":24584:24585   */\n      0x00\n        /* \"#utility.yul\":24577:24665   */\n      mstore\n        /* \"#utility.yul\":24684:24688   */\n      0x22\n        /* \"#utility.yul\":24681:24682   */\n      0x04\n        /* \"#utility.yul\":24674:24689   */\n      mstore\n        /* \"#utility.yul\":24708:24712   */\n      0x24\n        /* \"#utility.yul\":24705:24706   */\n      0x00\n        /* \"#utility.yul\":24698:24713   */\n      revert\n        /* \"#utility.yul\":24725:25045   */\n    tag_117:\n        /* \"#utility.yul\":24769:24775   */\n      0x00\n        /* \"#utility.yul\":24806:24807   */\n      0x02\n        /* \"#utility.yul\":24800:24804   */\n      dup3\n        /* \"#utility.yul\":24796:24808   */\n      div\n        /* \"#utility.yul\":24786:24808   */\n      swap1\n      pop\n        /* \"#utility.yul\":24853:24854   */\n      0x01\n        /* \"#utility.yul\":24847:24851   */\n      dup3\n        /* \"#utility.yul\":24843:24855   */\n      and\n        /* \"#utility.yul\":24874:24892   */\n      dup1\n        /* \"#utility.yul\":24864:24945   */\n      tag_707\n      jumpi\n        /* \"#utility.yul\":24930:24934   */\n      0x7f\n        /* \"#utility.yul\":24922:24928   */\n      dup3\n        /* \"#utility.yul\":24918:24935   */\n      and\n        /* \"#utility.yul\":24908:24935   */\n      swap2\n      pop\n        /* \"#utility.yul\":24864:24945   */\n    tag_707:\n        /* \"#utility.yul\":24992:24994   */\n      0x20\n        /* \"#utility.yul\":24984:24990   */\n      dup3\n        /* \"#utility.yul\":24981:24995   */\n      lt\n        /* \"#utility.yul\":24961:24979   */\n      dup2\n        /* \"#utility.yul\":24958:24996   */\n      sub\n        /* \"#utility.yul\":24955:25039   */\n      tag_708\n      jumpi\n        /* \"#utility.yul\":25011:25029   */\n      tag_709\n      tag_423\n      jump\t// in\n    tag_709:\n        /* \"#utility.yul\":24955:25039   */\n    tag_708:\n        /* \"#utility.yul\":24776:25045   */\n      pop\n        /* \"#utility.yul\":24725:25045   */\n      swap2\n      swap1\n      pop\n      jump\t// out\n        /* \"#utility.yul\":25051:25192   */\n    tag_424:\n        /* \"#utility.yul\":25100:25104   */\n      0x00\n        /* \"#utility.yul\":25123:25126   */\n      dup2\n        /* \"#utility.yul\":25115:25126   */\n      swap1\n      pop\n        /* \"#utility.yul\":25146:25149   */\n      dup2\n        /* \"#utility.yul\":25143:25144   */\n      0x00\n        /* \"#utility.yul\":25136:25150   */\n      mstore\n        /* \"#utility.yul\":25180:25184   */\n      0x20\n        /* \"#utility.yul\":25177:25178   */\n      0x00\n        /* \"#utility.yul\":25167:25185   */\n      keccak256\n        /* \"#utility.yul\":25159:25185   */\n      swap1\n      pop\n        /* \"#utility.yul\":25051:25192   */\n      swap2\n      swap1\n      pop\n      jump\t// out\n        /* \"#utility.yul\":25198:25291   */\n    tag_425:\n        /* \"#utility.yul\":25235:25241   */\n      0x00\n        /* \"#utility.yul\":25282:25284   */\n      0x20\n        /* \"#utility.yul\":25277:25279   */\n      0x1f\n        /* \"#utility.yul\":25270:25275   */\n      dup4\n        /* \"#utility.yul\":25266:25280   */\n      add\n        /* \"#utility.yul\":25262:25285   */\n      div\n        /* \"#utility.yul\":25252:25285   */\n      swap1\n      pop\n        /* \"#utility.yul\":25198:25291   */\n      swap2\n      swap1\n      pop\n      jump\t// out\n        /* \"#utility.yul\":25297:25404   */\n    tag_426:\n        /* \"#utility.yul\":25341:25349   */\n      0x00\n        /* \"#utility.yul\":25391:25396   */\n      dup3\n        /* \"#utility.yul\":25385:25389   */\n      dup3\n        /* \"#utility.yul\":25381:25397   */\n      shl\n        /* \"#utility.yul\":25360:25397   */\n      swap1\n      pop\n        /* \"#utility.yul\":25297:25404   */\n      swap3\n      swap2\n      pop\n      pop\n      jump\t// out\n        /* \"#utility.yul\":25410:25803   */\n    tag_427:\n        /* \"#utility.yul\":25479:25485   */\n      0x00\n        /* \"#utility.yul\":25529:25530   */\n      0x08\n        /* \"#utility.yul\":25517:25527   */\n      dup4\n        /* \"#utility.yul\":25513:25531   */\n      mul\n        /* \"#utility.yul\":25552:25649   */\n      tag_714\n        /* \"#utility.yul\":25582:25648   */\n      0xffffffffffffffffffffffffffffffffffffffffffffffffffffffffffffffff\n        /* \"#utility.yul\":25571:25580   */\n      dup3\n        /* \"#utility.yul\":25552:25649   */\n      tag_426\n      jump\t// in\n    tag_714:\n        /* \"#utility.yul\":25670:25709   */\n      tag_715\n        /* \"#utility.yul\":25700:25708   */\n      dup7\n        /* \"#utility.yul\":25689:25698   */\n      dup4\n        /* \"#utility.yul\":25670:25709   */\n      tag_426\n      jump\t// in\n    tag_715:\n        /* \"#utility.yul\":25658:25709   */\n      swap6\n      pop\n        /* \"#utility.yul\":25742:25746   */\n      dup1\n        /* \"#utility.yul\":25738:25747   */\n      not\n        /* \"#utility.yul\":25731:25736   */\n      dup5\n        /* \"#utility.yul\":25727:25748   */\n      and\n        /* \"#utility.yul\":25718:25748   */\n      swap4\n      pop\n        /* \"#utility.yul\":25791:25795   */\n      dup1\n        /* \"#utility.yul\":25781:25789   */\n      dup7\n        /* \"#utility.yul\":25777:25796   */\n      and\n        /* \"#utility.yul\":25770:25775   */\n      dup5\n        /* \"#utility.yul\":25767:25797   */\n      or\n        /* \"#utility.yul\":25757:25797   */\n      swap3\n      pop\n        /* \"#utility.yul\":25486:25803   */\n      pop\n      pop\n        /* \"#utility.yul\":25410:25803   */\n      swap4\n      swap3\n      pop\n      pop\n      pop\n      jump\t// out\n        /* \"#utility.yul\":25809:25869   */\n    tag_428:\n        /* \"#utility.yul\":25837:25840   */\n      0x00\n        /* \"#utility.yul\":25858:25863   */\n      dup2\n        /* \"#utility.yul\":25851:25863   */\n      swap1\n      pop\n        /* \"#utility.yul\":25809:25869   */\n      swap2\n      swap1\n      pop\n      jump\t// out\n        /* \"#utility.yul\":25875:26017   */\n    tag_429:\n        /* \"#utility.yul\":25925:25934   */\n      0x00\n        /* \"#utility.yul\":25958:26011   */\n      tag_718\n        /* \"#utility.yul\":25976:26010   */\n      tag_719\n        /* \"#utility.yul\":25985:26009   */\n      tag_720\n        /* \"#utility.yul\":26003:26008   */\n      dup5\n        /* \"#utility.yul\":25985:26009   */\n      tag_356\n      jump\t// in\n    tag_720:\n        /* \"#utility.yul\":25976:26010   */\n      tag_428\n      jump\t// in\n    tag_719:\n        /* \"#utility.yul\":25958:26011   */\n      tag_356\n      jump\t// in\n    tag_718:\n        /* \"#utility.yul\":25945:26011   */\n      swap1\n      pop\n        /* \"#utility.yul\":25875:26017   */\n      swap2\n      swap1\n      pop\n      jump\t// out\n        /* \"#utility.yul\":26023:26098   */\n    tag_430:\n        /* \"#utility.yul\":26066:26069   */\n      0x00\n        /* \"#utility.yul\":26087:26092   */\n      dup2\n        /* \"#utility.yul\":26080:26092   */\n      swap1\n      pop\n        /* \"#utility.yul\":26023:26098   */\n      swap2\n      swap1\n      pop\n      jump\t// out\n        /* \"#utility.yul\":26104:26373   */\n    tag_431:\n        /* \"#utility.yul\":26214:26253   */\n      tag_723\n        /* \"#utility.yul\":26245:26252   */\n      dup4\n        /* \"#utility.yul\":26214:26253   */\n      tag_429\n      jump\t// in\n    tag_723:\n        /* \"#utility.yul\":26275:26366   */\n      tag_724\n        /* \"#utility.yul\":26324:26365   */\n      tag_725\n        /* \"#utility.yul\":26348:26364   */\n      dup3\n        /* \"#utility.yul\":26324:26365   */\n      tag_430\n      jump\t// in\n    tag_725:\n        /* \"#utility.yul\":26316:26322   */\n      dup5\n        /* \"#utility.yul\":26309:26313   */\n      dup5\n        /* \"#utility.yul\":26303:26314   */\n      sload\n        /* \"#utility.yul\":26275:26366   */\n      tag_427\n      jump\t// in\n    tag_724:\n        /* \"#utility.yul\":26269:26273   */\n      dup3\n        /* \"#utility.yul\":26262:26367   */\n      sstore\n        /* \"#utility.yul\":26180:26373   */\n      pop\n        /* \"#utility.yul\":26104:26373   */\n      pop\n      pop\n      pop\n      jump\t// out\n        /* \"#utility.yul\":26379:26452   */\n    tag_432:\n        /* \"#utility.yul\":26424:26427   */\n      0x00\n        /* \"#utility.yul\":26379:26452   */\n      swap1\n      jump\t// out\n        /* \"#utility.yul\":26458:26647   */\n    tag_433:\n        /* \"#utility.yul\":26535:26567   */\n      tag_728\n      tag_432\n      jump\t// in\n    tag_728:\n        /* \"#utility.yul\":26576:26641   */\n      tag_729\n        /* \"#utility.yul\":26634:26640   */\n      dup2\n        /* \"#utility.yul\":26626:26632   */\n      dup5\n        /* \"#utility.yul\":26620:26624   */\n      dup5\n        /* \"#utility.yul\":26576:26641   */\n      tag_431\n      jump\t// in\n    tag_729:\n        /* \"#utility.yul\":26511:26647   */\n      pop\n        /* \"#utility.yul\":26458:26647   */\n      pop\n      pop\n      jump\t// out\n        /* \"#utility.yul\":26653:26839   */\n    tag_434:\n        /* \"#utility.yul\":26713:26833   */\n    tag_731:\n        /* \"#utility.yul\":26730:26733   */\n      dup2\n        /* \"#utility.yul\":26723:26728   */\n      dup2\n        /* \"#utility.yul\":26720:26734   */\n      lt\n        /* \"#utility.yul\":26713:26833   */\n      iszero\n      tag_733\n      jumpi\n        /* \"#utility.yul\":26784:26823   */\n      tag_734\n        /* \"#utility.yul\":26821:26822   */\n      0x00\n        /* \"#utility.yul\":26814:26819   */\n      dup3\n        /* \"#utility.yul\":26784:26823   */\n      tag_433\n      jump\t// in\n    tag_734:\n        /* \"#utility.yul\":26757:26758   */\n      0x01\n        /* \"#utility.yul\":26750:26755   */\n      dup2\n        /* \"#utility.yul\":26746:26759   */\n      add\n        /* \"#utility.yul\":26737:26759   */\n      swap1\n      pop\n        /* \"#utility.yul\":26713:26833   */\n      jump(tag_731)\n    tag_733:\n        /* \"#utility.yul\":26653:26839   */\n      pop\n      pop\n      jump\t// out\n        /* \"#utility.yul\":26845:27388   */\n    tag_435:\n        /* \"#utility.yul\":26946:26948   */\n      0x1f\n        /* \"#utility.yul\":26941:26944   */\n      dup3\n        /* \"#utility.yul\":26938:26949   */\n      gt\n        /* \"#utility.yul\":26935:27381   */\n      iszero\n      tag_736\n      jumpi\n        /* \"#utility.yul\":26980:27018   */\n      tag_737\n        /* \"#utility.yul\":27012:27017   */\n      dup2\n        /* \"#utility.yul\":26980:27018   */\n      tag_424\n      jump\t// in\n    tag_737:\n        /* \"#utility.yul\":27064:27093   */\n      tag_738\n        /* \"#utility.yul\":27082:27092   */\n      dup5\n        /* \"#utility.yul\":27064:27093   */\n      tag_425\n      jump\t// in\n    tag_738:\n        /* \"#utility.yul\":27054:27062   */\n      dup2\n        /* \"#utility.yul\":27050:27094   */\n      add\n        /* \"#utility.yul\":27247:27249   */\n      0x20\n        /* \"#utility.yul\":27235:27245   */\n      dup6\n        /* \"#utility.yul\":27232:27250   */\n      lt\n        /* \"#utility.yul\":27229:27278   */\n      iszero\n      tag_739\n      jumpi\n        /* \"#utility.yul\":27268:27276   */\n      dup2\n        /* \"#utility.yul\":27253:27276   */\n      swap1\n      pop\n        /* \"#utility.yul\":27229:27278   */\n    tag_739:\n        /* \"#utility.yul\":27291:27371   */\n      tag_740\n        /* \"#utility.yul\":27347:27369   */\n      tag_741\n        /* \"#utility.yul\":27365:27368   */\n      dup6\n        /* \"#utility.yul\":27347:27369   */\n      tag_425\n      jump\t// in\n    tag_741:\n        /* \"#utility.yul\":27337:27345   */\n      dup4\n        /* \"#utility.yul\":27333:27370   */\n      add\n        /* \"#utility.yul\":27320:27331   */\n      dup3\n        /* \"#utility.yul\":27291:27371   */\n      tag_434\n      jump\t// in\n    tag_740:\n        /* \"#utility.yul\":26950:27381   */\n      pop\n      pop\n        /* \"#utility.yul\":26935:27381   */\n    tag_736:\n        /* \"#utility.yul\":26845:27388   */\n      pop\n      pop\n      pop\n      jump\t// out\n        /* \"#utility.yul\":27394:27511   */\n    tag_436:\n        /* \"#utility.yul\":27448:27456   */\n      0x00\n        /* \"#utility.yul\":27498:27503   */\n      dup3\n        /* \"#utility.yul\":27492:27496   */\n      dup3\n        /* \"#utility.yul\":27488:27504   */\n      shr\n        /* \"#utility.yul\":27467:27504   */\n      swap1\n      pop\n        /* \"#utility.yul\":27394:27511   */\n      swap3\n      swap2\n      pop\n      pop\n      jump\t// out\n        /* \"#utility.yul\":27517:27686   */\n    tag_437:\n        /* \"#utility.yul\":27561:27567   */\n      0x00\n        /* \"#utility.yul\":27594:27645   */\n      tag_744\n        /* \"#utility.yul\":27642:27643   */\n      0x00\n        /* \"#utility.yul\":27638:27644   */\n      not\n        /* \"#utility.yul\":27630:27635   */\n      dup5\n        /* \"#utility.yul\":27627:27628   */\n      0x08\n        /* \"#utility.yul\":27623:27636   */\n      mul\n        /* \"#utility.yul\":27594:27645   */\n      tag_436\n      jump\t// in\n    tag_744:\n        /* \"#utility.yul\":27590:27646   */\n      not\n        /* \"#utility.yul\":27675:27679   */\n      dup1\n        /* \"#utility.yul\":27669:27673   */\n      dup4\n        /* \"#utility.yul\":27665:27680   */\n      and\n        /* \"#utility.yul\":27655:27680   */\n      swap2\n      pop\n        /* \"#utility.yul\":27568:27686   */\n      pop\n        /* \"#utility.yul\":27517:27686   */\n      swap3\n      swap2\n      pop\n      pop\n      jump\t// out\n        /* \"#utility.yul\":27691:27986   */\n    tag_438:\n        /* \"#utility.yul\":27767:27771   */\n      0x00\n        /* \"#utility.yul\":27913:27942   */\n      tag_746\n        /* \"#utility.yul\":27938:27941   */\n      dup4\n        /* \"#utility.yul\":27932:27936   */\n      dup4\n        /* \"#utility.yul\":27913:27942   */\n      tag_437\n      jump\t// in\n    tag_746:\n        /* \"#utility.yul\":27905:27942   */\n      swap2\n      pop\n        /* \"#utility.yul\":27975:27978   */\n      dup3\n        /* \"#utility.yul\":27972:27973   */\n      0x02\n        /* \"#utility.yul\":27968:27979   */\n      mul\n        /* \"#utility.yul\":27962:27966   */\n      dup3\n        /* \"#utility.yul\":27959:27980   */\n      or\n        /* \"#utility.yul\":27951:27980   */\n      swap1\n      pop\n        /* \"#utility.yul\":27691:27986   */\n      swap3\n      swap2\n      pop\n      pop\n      jump\t// out\n        /* \"#utility.yul\":27991:29386   */\n    tag_96:\n        /* \"#utility.yul\":28108:28145   */\n      tag_748\n        /* \"#utility.yul\":28141:28144   */\n      dup3\n        /* \"#utility.yul\":28108:28145   */\n      tag_388\n      jump\t// in\n    tag_748:\n        /* \"#utility.yul\":28210:28228   */\n      0xffffffffffffffff\n        /* \"#utility.yul\":28202:28208   */\n      dup2\n        /* \"#utility.yul\":28199:28229   */\n      gt\n        /* \"#utility.yul\":28196:28252   */\n      iszero\n      tag_749\n      jumpi\n        /* \"#utility.yul\":28232:28250   */\n      tag_750\n      tag_168\n      jump\t// in\n    tag_750:\n        /* \"#utility.yul\":28196:28252   */\n    tag_749:\n        /* \"#utility.yul\":28276:28314   */\n      tag_751\n        /* \"#utility.yul\":28308:28312   */\n      dup3\n        /* \"#utility.yul\":28302:28313   */\n      sload\n        /* \"#utility.yul\":28276:28314   */\n      tag_117\n      jump\t// in\n    tag_751:\n        /* \"#utility.yul\":28361:28428   */\n      tag_752\n        /* \"#utility.yul\":28421:28427   */\n      dup3\n        /* \"#utility.yul\":28413:28419   */\n      dup3\n        /* \"#utility.yul\":28407:28411   */\n      dup6\n        /* \"#utility.yul\":28361:28428   */\n      tag_435\n      jump\t// in\n    tag_752:\n        /* \"#utility.yul\":28455:28456   */\n      0x00\n        /* \"#utility.yul\":28479:28483   */\n      0x20\n        /* \"#utility.yul\":28466:28483   */\n      swap1\n      pop\n        /* \"#utility.yul\":28511:28513   */\n      0x1f\n        /* \"#utility.yul\":28503:28509   */\n      dup4\n        /* \"#utility.yul\":28500:28514   */\n      gt\n        /* \"#utility.yul\":28528:28529   */\n      0x01\n        /* \"#utility.yul\":28523:29141   */\n      dup2\n      eq\n      tag_754\n      jumpi\n        /* \"#utility.yul\":29185:29186   */\n      0x00\n        /* \"#utility.yul\":29202:29208   */\n      dup5\n        /* \"#utility.yul\":29199:29276   */\n      iszero\n      tag_755\n      jumpi\n        /* \"#utility.yul\":29251:29260   */\n      dup3\n        /* \"#utility.yul\":29246:29249   */\n      dup8\n        /* \"#utility.yul\":29242:29261   */\n      add\n        /* \"#utility.yul\":29236:29262   */\n      mload\n        /* \"#utility.yul\":29227:29262   */\n      swap1\n      pop\n        /* \"#utility.yul\":29199:29276   */\n    tag_755:\n        /* \"#utility.yul\":29302:29369   */\n      tag_756\n        /* \"#utility.yul\":29362:29368   */\n      dup6\n        /* \"#utility.yul\":29355:29360   */\n      dup3\n        /* \"#utility.yul\":29302:29369   */\n      tag_438\n      jump\t// in\n    tag_756:\n        /* \"#utility.yul\":29296:29300   */\n      dup7\n        /* \"#utility.yul\":29289:29370   */\n      sstore\n        /* \"#utility.yul\":29158:29380   */\n      pop\n        /* \"#utility.yul\":28493:29380   */\n      jump(tag_753)\n        /* \"#utility.yul\":28523:29141   */\n    tag_754:\n        /* \"#utility.yul\":28575:28579   */\n      0x1f\n        /* \"#utility.yul\":28571:28580   */\n      not\n        /* \"#utility.yul\":28563:28569   */\n      dup5\n        /* \"#utility.yul\":28559:28581   */\n      and\n        /* \"#utility.yul\":28609:28646   */\n      tag_757\n        /* \"#utility.yul\":28641:28645   */\n      dup7\n        /* \"#utility.yul\":28609:28646   */\n      tag_424\n      jump\t// in\n    tag_757:\n        /* \"#utility.yul\":28668:28669   */\n      0x00\n        /* \"#utility.yul\":28682:28890   */\n    tag_758:\n        /* \"#utility.yul\":28696:28703   */\n      dup3\n        /* \"#utility.yul\":28693:28694   */\n      dup2\n        /* \"#utility.yul\":28690:28704   */\n      lt\n        /* \"#utility.yul\":28682:28890   */\n      iszero\n      tag_760\n      jumpi\n        /* \"#utility.yul\":28775:28784   */\n      dup5\n        /* \"#utility.yul\":28770:28773   */\n      dup10\n        /* \"#utility.yul\":28766:28785   */\n      add\n        /* \"#utility.yul\":28760:28786   */\n      mload\n        /* \"#utility.yul\":28752:28758   */\n      dup3\n        /* \"#utility.yul\":28745:28787   */\n      sstore\n        /* \"#utility.yul\":28826:28827   */\n      0x01\n        /* \"#utility.yul\":28818:28824   */\n      dup3\n        /* \"#utility.yul\":28814:28828   */\n      add\n        /* \"#utility.yul\":28804:28828   */\n      swap2\n      pop\n        /* \"#utility.yul\":28873:28875   */\n      0x20\n        /* \"#utility.yul\":28862:28871   */\n      dup6\n        /* \"#utility.yul\":28858:28876   */\n      add\n        /* \"#utility.yul\":28845:28876   */\n      swap5\n      pop\n        /* \"#utility.yul\":28719:28723   */\n      0x20\n        /* \"#utility.yul\":28716:28717   */\n      dup2\n        /* \"#utility.yul\":28712:28724   */\n      add\n        /* \"#utility.yul\":28707:28724   */\n      swap1\n      pop\n        /* \"#utility.yul\":28682:28890   */\n      jump(tag_758)\n    tag_760:\n        /* \"#utility.yul\":28918:28924   */\n      dup7\n        /* \"#utility.yul\":28909:28916   */\n      dup4\n        /* \"#utility.yul\":28906:28925   */\n      lt\n        /* \"#utility.yul\":28903:29082   */\n      iszero\n      tag_761\n      jumpi\n        /* \"#utility.yul\":28976:28985   */\n      dup5\n        /* \"#utility.yul\":28971:28974   */\n      dup10\n        /* \"#utility.yul\":28967:28986   */\n      add\n        /* \"#utility.yul\":28961:28987   */\n      mload\n        /* \"#utility.yul\":29019:29067   */\n      tag_762\n        /* \"#utility.yul\":29061:29065   */\n      0x1f\n        /* \"#utility.yul\":29053:29059   */\n      dup10\n        /* \"#utility.yul\":29049:29066   */\n      and\n        /* \"#utility.yul\":29038:29047   */\n      dup3\n        /* \"#utility.yul\":29019:29067   */\n      tag_437\n      jump\t// in\n    tag_762:\n        /* \"#utility.yul\":29011:29017   */\n      dup4\n        /* \"#utility.yul\":29004:29068   */\n      sstore\n        /* \"#utility.yul\":28926:29082   */\n      pop\n        /* \"#utility.yul\":28903:29082   */\n    tag_761:\n        /* \"#utility.yul\":29128:29129   */\n      0x01\n        /* \"#utility.yul\":29124:29125   */\n      0x02\n        /* \"#utility.yul\":29116:29122   */\n      dup9\n        /* \"#utility.yul\":29112:29126   */\n      mul\n        /* \"#utility.yul\":29108:29130   */\n      add\n        /* \"#utility.yul\":29102:29106   */\n      dup9\n        /* \"#utility.yul\":29095:29131   */\n      sstore\n        /* \"#utility.yul\":28530:29141   */\n      pop\n      pop\n      pop\n        /* \"#utility.yul\":28493:29380   */\n    tag_753:\n      pop\n        /* \"#utility.yul\":28083:29386   */\n      pop\n      pop\n      pop\n        /* \"#utility.yul\":27991:29386   */\n      pop\n      pop\n      jump\t// out\n        /* \"#utility.yul\":29392:29572   */\n    tag_108:\n        /* \"#utility.yul\":29440:29517   */\n      0x4e487b7100000000000000000000000000000000000000000000000000000000\n        /* \"#utility.yul\":29437:29438   */\n      0x00\n        /* \"#utility.yul\":29430:29518   */\n      mstore\n        /* \"#utility.yul\":29537:29541   */\n      0x32\n        /* \"#utility.yul\":29534:29535   */\n      0x04\n        /* \"#utility.yul\":29527:29542   */\n      mstore\n        /* \"#utility.yul\":29561:29565   */\n      0x24\n        /* \"#utility.yul\":29558:29559   */\n      0x00\n        /* \"#utility.yul\":29551:29566   */\n      revert\n        /* \"#utility.yul\":29578:29726   */\n    tag_439:\n        /* \"#utility.yul\":29680:29691   */\n      0x00\n        /* \"#utility.yul\":29717:29720   */\n      dup2\n        /* \"#utility.yul\":29702:29720   */\n      swap1\n      pop\n        /* \"#utility.yul\":29578:29726   */\n      swap3\n      swap2\n      pop\n      pop\n      jump\t// out\n        /* \"#utility.yul\":29732:30122   */\n    tag_440:\n        /* \"#utility.yul\":29838:29841   */\n      0x00\n        /* \"#utility.yul\":29866:29905   */\n      tag_766\n        /* \"#utility.yul\":29899:29904   */\n      dup3\n        /* \"#utility.yul\":29866:29905   */\n      tag_388\n      jump\t// in\n    tag_766:\n        /* \"#utility.yul\":29921:30010   */\n      tag_767\n        /* \"#utility.yul\":30003:30009   */\n      dup2\n        /* \"#utility.yul\":29998:30001   */\n      dup6\n        /* \"#utility.yul\":29921:30010   */\n      tag_439\n      jump\t// in\n    tag_767:\n        /* \"#utility.yul\":29914:30010   */\n      swap4\n      pop\n        /* \"#utility.yul\":30019:30084   */\n      tag_768\n        /* \"#utility.yul\":30077:30083   */\n      dup2\n        /* \"#utility.yul\":30072:30075   */\n      dup6\n        /* \"#utility.yul\":30065:30069   */\n      0x20\n        /* \"#utility.yul\":30058:30063   */\n      dup7\n        /* \"#utility.yul\":30054:30070   */\n      add\n        /* \"#utility.yul\":30019:30084   */\n      tag_390\n      jump\t// in\n    tag_768:\n        /* \"#utility.yul\":30109:30115   */\n      dup1\n        /* \"#utility.yul\":30104:30107   */\n      dup5\n        /* \"#utility.yul\":30100:30116   */\n      add\n        /* \"#utility.yul\":30093:30116   */\n      swap2\n      pop\n        /* \"#utility.yul\":29842:30122   */\n      pop\n        /* \"#utility.yul\":29732:30122   */\n      swap3\n      swap2\n      pop\n      pop\n      jump\t// out\n        /* \"#utility.yul\":30128:30403   */\n    tag_111:\n        /* \"#utility.yul\":30260:30263   */\n      0x00\n        /* \"#utility.yul\":30282:30377   */\n      tag_770\n        /* \"#utility.yul\":30373:30376   */\n      dup3\n        /* \"#utility.yul\":30364:30370   */\n      dup5\n        /* \"#utility.yul\":30282:30377   */\n      tag_440\n      jump\t// in\n    tag_770:\n        /* \"#utility.yul\":30275:30377   */\n      swap2\n      pop\n        /* \"#utility.yul\":30394:30397   */\n      dup2\n        /* \"#utility.yul\":30387:30397   */\n      swap1\n      pop\n        /* \"#utility.yul\":30128:30403   */\n      swap3\n      swap2\n      pop\n      pop\n      jump\t// out\n        /* \"#utility.yul\":30409:30786   */\n    tag_441:\n        /* \"#utility.yul\":30497:30500   */\n      0x00\n        /* \"#utility.yul\":30525:30564   */\n      tag_772\n        /* \"#utility.yul\":30558:30563   */\n      dup3\n        /* \"#utility.yul\":30525:30564   */\n      tag_388\n      jump\t// in\n    tag_772:\n        /* \"#utility.yul\":30580:30651   */\n      tag_773\n        /* \"#utility.yul\":30644:30650   */\n      dup2\n        /* \"#utility.yul\":30639:30642   */\n      dup6\n        /* \"#utility.yul\":30580:30651   */\n      tag_414\n      jump\t// in\n    tag_773:\n        /* \"#utility.yul\":30573:30651   */\n      swap4\n      pop\n        /* \"#utility.yul\":30660:30725   */\n      tag_774\n        /* \"#utility.yul\":30718:30724   */\n      dup2\n        /* \"#utility.yul\":30713:30716   */\n      dup6\n        /* \"#utility.yul\":30706:30710   */\n      0x20\n        /* \"#utility.yul\":30699:30704   */\n      dup7\n        /* \"#utility.yul\":30695:30711   */\n      add\n        /* \"#utility.yul\":30660:30725   */\n      tag_390\n      jump\t// in\n    tag_774:\n        /* \"#utility.yul\":30750:30779   */\n      tag_775\n        /* \"#utility.yul\":30772:30778   */\n      dup2\n        /* \"#utility.yul\":30750:30779   */\n      tag_364\n      jump\t// in\n    tag_775:\n        /* \"#utility.yul\":30745:30748   */\n      dup5\n        /* \"#utility.yul\":30741:30780   */\n      add\n        /* \"#utility.yul\":30734:30780   */\n      swap2\n      pop\n        /* \"#utility.yul\":30501:30786   */\n      pop\n        /* \"#utility.yul\":30409:30786   */\n      swap3\n      swap2\n      pop\n      pop\n      jump\t// out\n        /* \"#utility.yul\":30792:31215   */\n    tag_114:\n        /* \"#utility.yul\":30933:30937   */\n      0x00\n        /* \"#utility.yul\":30971:30973   */\n      0x40\n        /* \"#utility.yul\":30960:30969   */\n      dup3\n        /* \"#utility.yul\":30956:30974   */\n      add\n        /* \"#utility.yul\":30948:30974   */\n      swap1\n      pop\n        /* \"#utility.yul\":31020:31029   */\n      dup2\n        /* \"#utility.yul\":31014:31018   */\n      dup2\n        /* \"#utility.yul\":31010:31030   */\n      sub\n        /* \"#utility.yul\":31006:31007   */\n      0x00\n        /* \"#utility.yul\":30995:31004   */\n      dup4\n        /* \"#utility.yul\":30991:31008   */\n      add\n        /* \"#utility.yul\":30984:31031   */\n      mstore\n        /* \"#utility.yul\":31048:31126   */\n      tag_777\n        /* \"#utility.yul\":31121:31125   */\n      dup2\n        /* \"#utility.yul\":31112:31118   */\n      dup6\n        /* \"#utility.yul\":31048:31126   */\n      tag_441\n      jump\t// in\n    tag_777:\n        /* \"#utility.yul\":31040:31126   */\n      swap1\n      pop\n        /* \"#utility.yul\":31136:31208   */\n      tag_778\n        /* \"#utility.yul\":31204:31206   */\n      0x20\n        /* \"#utility.yul\":31193:31202   */\n      dup4\n        /* \"#utility.yul\":31189:31207   */\n      add\n        /* \"#utility.yul\":31180:31186   */\n      dup5\n        /* \"#utility.yul\":31136:31208   */\n      tag_358\n      jump\t// in\n    tag_778:\n        /* \"#utility.yul\":30792:31215   */\n      swap4\n      swap3\n      pop\n      pop\n      pop\n      jump\t// out\n        /* \"#utility.yul\":31221:31447   */\n    tag_442:\n        /* \"#utility.yul\":31361:31395   */\n      0x566f74696e67206f6e207468697320636f6e7472616374206973206e6f742061\n        /* \"#utility.yul\":31357:31358   */\n      0x00\n        /* \"#utility.yul\":31349:31355   */\n      dup3\n        /* \"#utility.yul\":31345:31359   */\n      add\n        /* \"#utility.yul\":31338:31396   */\n      mstore\n        /* \"#utility.yul\":31430:31439   */\n      0x6c6c6f7765642e00000000000000000000000000000000000000000000000000\n        /* \"#utility.yul\":31425:31427   */\n      0x20\n        /* \"#utility.yul\":31417:31423   */\n      dup3\n        /* \"#utility.yul\":31413:31428   */\n      add\n        /* \"#utility.yul\":31406:31440   */\n      mstore\n        /* \"#utility.yul\":31221:31447   */\n      pop\n      jump\t// out\n        /* \"#utility.yul\":31453:31819   */\n    tag_443:\n        /* \"#utility.yul\":31595:31598   */\n      0x00\n        /* \"#utility.yul\":31616:31683   */\n      tag_781\n        /* \"#utility.yul\":31680:31682   */\n      0x27\n        /* \"#utility.yul\":31675:31678   */\n      dup4\n        /* \"#utility.yul\":31616:31683   */\n      tag_414\n      jump\t// in\n    tag_781:\n        /* \"#utility.yul\":31609:31683   */\n      swap2\n      pop\n        /* \"#utility.yul\":31692:31785   */\n      tag_782\n        /* \"#utility.yul\":31781:31784   */\n      dup3\n        /* \"#utility.yul\":31692:31785   */\n      tag_442\n      jump\t// in\n    tag_782:\n        /* \"#utility.yul\":31810:31812   */\n      0x40\n        /* \"#utility.yul\":31805:31808   */\n      dup3\n        /* \"#utility.yul\":31801:31813   */\n      add\n        /* \"#utility.yul\":31794:31813   */\n      swap1\n      pop\n        /* \"#utility.yul\":31453:31819   */\n      swap2\n      swap1\n      pop\n      jump\t// out\n        /* \"#utility.yul\":31825:32244   */\n    tag_141:\n        /* \"#utility.yul\":31991:31995   */\n      0x00\n        /* \"#utility.yul\":32029:32031   */\n      0x20\n        /* \"#utility.yul\":32018:32027   */\n      dup3\n        /* \"#utility.yul\":32014:32032   */\n      add\n        /* \"#utility.yul\":32006:32032   */\n      swap1\n      pop\n        /* \"#utility.yul\":32078:32087   */\n      dup2\n        /* \"#utility.yul\":32072:32076   */\n      dup2\n        /* \"#utility.yul\":32068:32088   */\n      sub\n        /* \"#utility.yul\":32064:32065   */\n      0x00\n        /* \"#utility.yul\":32053:32062   */\n      dup4\n        /* \"#utility.yul\":32049:32066   */\n      add\n        /* \"#utility.yul\":32042:32089   */\n      mstore\n        /* \"#utility.yul\":32106:32237   */\n      tag_784\n        /* \"#utility.yul\":32232:32236   */\n      dup2\n        /* \"#utility.yul\":32106:32237   */\n      tag_443\n      jump\t// in\n    tag_784:\n        /* \"#utility.yul\":32098:32237   */\n      swap1\n      pop\n        /* \"#utility.yul\":31825:32244   */\n      swap2\n      swap1\n      pop\n      jump\t// out\n        /* \"#utility.yul\":32250:32425   */\n    tag_148:\n        /* \"#utility.yul\":32288:32291   */\n      0x00\n        /* \"#utility.yul\":32311:32334   */\n      tag_786\n        /* \"#utility.yul\":32328:32333   */\n      dup3\n        /* \"#utility.yul\":32311:32334   */\n      tag_400\n      jump\t// in\n    tag_786:\n        /* \"#utility.yul\":32302:32334   */\n      swap2\n      pop\n        /* \"#utility.yul\":32356:32366   */\n      0xffffffff\n        /* \"#utility.yul\":32349:32354   */\n      dup3\n        /* \"#utility.yul\":32346:32367   */\n      sub\n        /* \"#utility.yul\":32343:32390   */\n      tag_787\n      jumpi\n        /* \"#utility.yul\":32370:32388   */\n      tag_788\n      tag_357\n      jump\t// in\n    tag_788:\n        /* \"#utility.yul\":32343:32390   */\n    tag_787:\n        /* \"#utility.yul\":32417:32418   */\n      0x01\n        /* \"#utility.yul\":32410:32415   */\n      dup3\n        /* \"#utility.yul\":32406:32419   */\n      add\n        /* \"#utility.yul\":32399:32419   */\n      swap1\n      pop\n        /* \"#utility.yul\":32250:32425   */\n      swap2\n      swap1\n      pop\n      jump\t// out\n        /* \"#utility.yul\":32431:32607   */\n    tag_444:\n        /* \"#utility.yul\":32571:32599   */\n      0x436f6e74726163742063616e206e6f74206265207365616c6564000000000000\n        /* \"#utility.yul\":32567:32568   */\n      0x00\n        /* \"#utility.yul\":32559:32565   */\n      dup3\n        /* \"#utility.yul\":32555:32569   */\n      add\n        /* \"#utility.yul\":32548:32600   */\n      mstore\n        /* \"#utility.yul\":32431:32607   */\n      pop\n      jump\t// out\n        /* \"#utility.yul\":32613:32979   */\n    tag_445:\n        /* \"#utility.yul\":32755:32758   */\n      0x00\n        /* \"#utility.yul\":32776:32843   */\n      tag_791\n        /* \"#utility.yul\":32840:32842   */\n      0x1a\n        /* \"#utility.yul\":32835:32838   */\n      dup4\n        /* \"#utility.yul\":32776:32843   */\n      tag_414\n      jump\t// in\n    tag_791:\n        /* \"#utility.yul\":32769:32843   */\n      swap2\n      pop\n        /* \"#utility.yul\":32852:32945   */\n      tag_792\n        /* \"#utility.yul\":32941:32944   */\n      dup3\n        /* \"#utility.yul\":32852:32945   */\n      tag_444\n      jump\t// in\n    tag_792:\n        /* \"#utility.yul\":32970:32972   */\n      0x20\n        /* \"#utility.yul\":32965:32968   */\n      dup3\n        /* \"#utility.yul\":32961:32973   */\n      add\n        /* \"#utility.yul\":32954:32973   */\n      swap1\n      pop\n        /* \"#utility.yul\":32613:32979   */\n      swap2\n      swap1\n      pop\n      jump\t// out\n        /* \"#utility.yul\":32985:33404   */\n    tag_263:\n        /* \"#utility.yul\":33151:33155   */\n      0x00\n        /* \"#utility.yul\":33189:33191   */\n      0x20\n        /* \"#utility.yul\":33178:33187   */\n      dup3\n        /* \"#utility.yul\":33174:33192   */\n      add\n        /* \"#utility.yul\":33166:33192   */\n      swap1\n      pop\n        /* \"#utility.yul\":33238:33247   */\n      dup2\n        /* \"#utility.yul\":33232:33236   */\n      dup2\n        /* \"#utility.yul\":33228:33248   */\n      sub\n        /* \"#utility.yul\":33224:33225   */\n      0x00\n        /* \"#utility.yul\":33213:33222   */\n      dup4\n        /* \"#utility.yul\":33209:33226   */\n      add\n        /* \"#utility.yul\":33202:33249   */\n      mstore\n        /* \"#utility.yul\":33266:33397   */\n      tag_794\n        /* \"#utility.yul\":33392:33396   */\n      dup2\n        /* \"#utility.yul\":33266:33397   */\n      tag_445\n      jump\t// in\n    tag_794:\n        /* \"#utility.yul\":33258:33397   */\n      swap1\n      pop\n        /* \"#utility.yul\":32985:33404   */\n      swap2\n      swap1\n      pop\n      jump\t// out\n        /* \"#utility.yul\":33410:33640   */\n    tag_446:\n        /* \"#utility.yul\":33550:33584   */\n      0x436f6e747261637420686173206e6f7420706169642e2049742063616e206e6f\n        /* \"#utility.yul\":33546:33547   */\n      0x00\n        /* \"#utility.yul\":33538:33544   */\n      dup3\n        /* \"#utility.yul\":33534:33548   */\n      add\n        /* \"#utility.yul\":33527:33585   */\n      mstore\n        /* \"#utility.yul\":33619:33632   */\n      0x74206265207365616c6564000000000000000000000000000000000000000000\n        /* \"#utility.yul\":33614:33616   */\n      0x20\n        /* \"#utility.yul\":33606:33612   */\n      dup3\n        /* \"#utility.yul\":33602:33617   */\n      add\n        /* \"#utility.yul\":33595:33633   */\n      mstore\n        /* \"#utility.yul\":33410:33640   */\n      pop\n      jump\t// out\n        /* \"#utility.yul\":33646:34012   */\n    tag_447:\n        /* \"#utility.yul\":33788:33791   */\n      0x00\n        /* \"#utility.yul\":33809:33876   */\n      tag_797\n        /* \"#utility.yul\":33873:33875   */\n      0x2b\n        /* \"#utility.yul\":33868:33871   */\n      dup4\n        /* \"#utility.yul\":33809:33876   */\n      tag_414\n      jump\t// in\n    tag_797:\n        /* \"#utility.yul\":33802:33876   */\n      swap2\n      pop\n        /* \"#utility.yul\":33885:33978   */\n      tag_798\n        /* \"#utility.yul\":33974:33977   */\n      dup3\n        /* \"#utility.yul\":33885:33978   */\n      tag_446\n      jump\t// in\n    tag_798:\n        /* \"#utility.yul\":34003:34005   */\n      0x40\n        /* \"#utility.yul\":33998:34001   */\n      dup3\n        /* \"#utility.yul\":33994:34006   */\n      add\n        /* \"#utility.yul\":33987:34006   */\n      swap1\n      pop\n        /* \"#utility.yul\":33646:34012   */\n      swap2\n      swap1\n      pop\n      jump\t// out\n        /* \"#utility.yul\":34018:34437   */\n    tag_266:\n        /* \"#utility.yul\":34184:34188   */\n      0x00\n        /* \"#utility.yul\":34222:34224   */\n      0x20\n        /* \"#utility.yul\":34211:34220   */\n      dup3\n        /* \"#utility.yul\":34207:34225   */\n      add\n        /* \"#utility.yul\":34199:34225   */\n      swap1\n      pop\n        /* \"#utility.yul\":34271:34280   */\n      dup2\n        /* \"#utility.yul\":34265:34269   */\n      dup2\n        /* \"#utility.yul\":34261:34281   */\n      sub\n        /* \"#utility.yul\":34257:34258   */\n      0x00\n        /* \"#utility.yul\":34246:34255   */\n      dup4\n        /* \"#utility.yul\":34242:34259   */\n      add\n        /* \"#utility.yul\":34235:34282   */\n      mstore\n        /* \"#utility.yul\":34299:34430   */\n      tag_800\n        /* \"#utility.yul\":34425:34429   */\n      dup2\n        /* \"#utility.yul\":34299:34430   */\n      tag_447\n      jump\t// in\n    tag_800:\n        /* \"#utility.yul\":34291:34430   */\n      swap1\n      pop\n        /* \"#utility.yul\":34018:34437   */\n      swap2\n      swap1\n      pop\n      jump\t// out\n        /* \"#utility.yul\":34443:34598   */\n    tag_448:\n        /* \"#utility.yul\":34583:34590   */\n      0x6669727374000000000000000000000000000000000000000000000000000000\n        /* \"#utility.yul\":34579:34580   */\n      0x00\n        /* \"#utility.yul\":34571:34577   */\n      dup3\n        /* \"#utility.yul\":34567:34581   */\n      add\n        /* \"#utility.yul\":34560:34591   */\n      mstore\n        /* \"#utility.yul\":34443:34598   */\n      pop\n      jump\t// out\n        /* \"#utility.yul\":34604:34969   */\n    tag_449:\n        /* \"#utility.yul\":34746:34749   */\n      0x00\n        /* \"#utility.yul\":34767:34833   */\n      tag_803\n        /* \"#utility.yul\":34831:34832   */\n      0x05\n        /* \"#utility.yul\":34826:34829   */\n      dup4\n        /* \"#utility.yul\":34767:34833   */\n      tag_414\n      jump\t// in\n    tag_803:\n        /* \"#utility.yul\":34760:34833   */\n      swap2\n      pop\n        /* \"#utility.yul\":34842:34935   */\n      tag_804\n        /* \"#utility.yul\":34931:34934   */\n      dup3\n        /* \"#utility.yul\":34842:34935   */\n      tag_448\n      jump\t// in\n    tag_804:\n        /* \"#utility.yul\":34960:34962   */\n      0x20\n        /* \"#utility.yul\":34955:34958   */\n      dup3\n        /* \"#utility.yul\":34951:34963   */\n      add\n        /* \"#utility.yul\":34944:34963   */\n      swap1\n      pop\n        /* \"#utility.yul\":34604:34969   */\n      swap2\n      swap1\n      pop\n      jump\t// out\n        /* \"#utility.yul\":34975:35394   */\n    tag_273:\n        /* \"#utility.yul\":35141:35145   */\n      0x00\n        /* \"#utility.yul\":35179:35181   */\n      0x20\n        /* \"#utility.yul\":35168:35177   */\n      dup3\n        /* \"#utility.yul\":35164:35182   */\n      add\n        /* \"#utility.yul\":35156:35182   */\n      swap1\n      pop\n        /* \"#utility.yul\":35228:35237   */\n      dup2\n        /* \"#utility.yul\":35222:35226   */\n      dup2\n        /* \"#utility.yul\":35218:35238   */\n      sub\n        /* \"#utility.yul\":35214:35215   */\n      0x00\n        /* \"#utility.yul\":35203:35212   */\n      dup4\n        /* \"#utility.yul\":35199:35216   */\n      add\n        /* \"#utility.yul\":35192:35239   */\n      mstore\n        /* \"#utility.yul\":35256:35387   */\n      tag_806\n        /* \"#utility.yul\":35382:35386   */\n      dup2\n        /* \"#utility.yul\":35256:35387   */\n      tag_449\n      jump\t// in\n    tag_806:\n        /* \"#utility.yul\":35248:35387   */\n      swap1\n      pop\n        /* \"#utility.yul\":34975:35394   */\n      swap2\n      swap1\n      pop\n      jump\t// out\n        /* \"#utility.yul\":35400:35556   */\n    tag_450:\n        /* \"#utility.yul\":35540:35548   */\n      0x7365636f6e640000000000000000000000000000000000000000000000000000\n        /* \"#utility.yul\":35536:35537   */\n      0x00\n        /* \"#utility.yul\":35528:35534   */\n      dup3\n        /* \"#utility.yul\":35524:35538   */\n      add\n        /* \"#utility.yul\":35517:35549   */\n      mstore\n        /* \"#utility.yul\":35400:35556   */\n      pop\n      jump\t// out\n        /* \"#utility.yul\":35562:35927   */\n    tag_451:\n        /* \"#utility.yul\":35704:35707   */\n      0x00\n        /* \"#utility.yul\":35725:35791   */\n      tag_809\n        /* \"#utility.yul\":35789:35790   */\n      0x06\n        /* \"#utility.yul\":35784:35787   */\n      dup4\n        /* \"#utility.yul\":35725:35791   */\n      tag_414\n      jump\t// in\n    tag_809:\n        /* \"#utility.yul\":35718:35791   */\n      swap2\n      pop\n        /* \"#utility.yul\":35800:35893   */\n      tag_810\n        /* \"#utility.yul\":35889:35892   */\n      dup3\n        /* \"#utility.yul\":35800:35893   */\n      tag_450\n      jump\t// in\n    tag_810:\n        /* \"#utility.yul\":35918:35920   */\n      0x20\n        /* \"#utility.yul\":35913:35916   */\n      dup3\n        /* \"#utility.yul\":35909:35921   */\n      add\n        /* \"#utility.yul\":35902:35921   */\n      swap1\n      pop\n        /* \"#utility.yul\":35562:35927   */\n      swap2\n      swap1\n      pop\n      jump\t// out\n        /* \"#utility.yul\":35933:36352   */\n    tag_293:\n        /* \"#utility.yul\":36099:36103   */\n      0x00\n        /* \"#utility.yul\":36137:36139   */\n      0x20\n        /* \"#utility.yul\":36126:36135   */\n      dup3\n        /* \"#utility.yul\":36122:36140   */\n      add\n        /* \"#utility.yul\":36114:36140   */\n      swap1\n      pop\n        /* \"#utility.yul\":36186:36195   */\n      dup2\n        /* \"#utility.yul\":36180:36184   */\n      dup2\n        /* \"#utility.yul\":36176:36196   */\n      sub\n        /* \"#utility.yul\":36172:36173   */\n      0x00\n        /* \"#utility.yul\":36161:36170   */\n      dup4\n        /* \"#utility.yul\":36157:36174   */\n      add\n        /* \"#utility.yul\":36150:36197   */\n      mstore\n        /* \"#utility.yul\":36214:36345   */\n      tag_812\n        /* \"#utility.yul\":36340:36344   */\n      dup2\n        /* \"#utility.yul\":36214:36345   */\n      tag_451\n      jump\t// in\n    tag_812:\n        /* \"#utility.yul\":36206:36345   */\n      swap1\n      pop\n        /* \"#utility.yul\":35933:36352   */\n      swap2\n      swap1\n      pop\n      jump\t// out\n        /* \"#utility.yul\":36358:36456   */\n    tag_452:\n        /* \"#utility.yul\":36409:36415   */\n      0x00\n        /* \"#utility.yul\":36443:36448   */\n      dup2\n        /* \"#utility.yul\":36437:36449   */\n      mload\n        /* \"#utility.yul\":36427:36449   */\n      swap1\n      pop\n        /* \"#utility.yul\":36358:36456   */\n      swap2\n      swap1\n      pop\n      jump\t// out\n        /* \"#utility.yul\":36462:36609   */\n    tag_453:\n        /* \"#utility.yul\":36563:36574   */\n      0x00\n        /* \"#utility.yul\":36600:36603   */\n      dup2\n        /* \"#utility.yul\":36585:36603   */\n      swap1\n      pop\n        /* \"#utility.yul\":36462:36609   */\n      swap3\n      swap2\n      pop\n      pop\n      jump\t// out\n        /* \"#utility.yul\":36615:37001   */\n    tag_454:\n        /* \"#utility.yul\":36719:36722   */\n      0x00\n        /* \"#utility.yul\":36747:36785   */\n      tag_816\n        /* \"#utility.yul\":36779:36784   */\n      dup3\n        /* \"#utility.yul\":36747:36785   */\n      tag_452\n      jump\t// in\n    tag_816:\n        /* \"#utility.yul\":36801:36889   */\n      tag_817\n        /* \"#utility.yul\":36882:36888   */\n      dup2\n        /* \"#utility.yul\":36877:36880   */\n      dup6\n        /* \"#utility.yul\":36801:36889   */\n      tag_453\n      jump\t// in\n    tag_817:\n        /* \"#utility.yul\":36794:36889   */\n      swap4\n      pop\n        /* \"#utility.yul\":36898:36963   */\n      tag_818\n        /* \"#utility.yul\":36956:36962   */\n      dup2\n        /* \"#utility.yul\":36951:36954   */\n      dup6\n        /* \"#utility.yul\":36944:36948   */\n      0x20\n        /* \"#utility.yul\":36937:36942   */\n      dup7\n        /* \"#utility.yul\":36933:36949   */\n      add\n        /* \"#utility.yul\":36898:36963   */\n      tag_390\n      jump\t// in\n    tag_818:\n        /* \"#utility.yul\":36988:36994   */\n      dup1\n        /* \"#utility.yul\":36983:36986   */\n      dup5\n        /* \"#utility.yul\":36979:36995   */\n      add\n        /* \"#utility.yul\":36972:36995   */\n      swap2\n      pop\n        /* \"#utility.yul\":36723:37001   */\n      pop\n        /* \"#utility.yul\":36615:37001   */\n      swap3\n      swap2\n      pop\n      pop\n      jump\t// out\n        /* \"#utility.yul\":37007:37278   */\n    tag_296:\n        /* \"#utility.yul\":37137:37140   */\n      0x00\n        /* \"#utility.yul\":37159:37252   */\n      tag_820\n        /* \"#utility.yul\":37248:37251   */\n      dup3\n        /* \"#utility.yul\":37239:37245   */\n      dup5\n        /* \"#utility.yul\":37159:37252   */\n      tag_454\n      jump\t// in\n    tag_820:\n        /* \"#utility.yul\":37152:37252   */\n      swap2\n      pop\n        /* \"#utility.yul\":37269:37272   */\n      dup2\n        /* \"#utility.yul\":37262:37272   */\n      swap1\n      pop\n        /* \"#utility.yul\":37007:37278   */\n      swap3\n      swap2\n      pop\n      pop\n      jump\t// out\n        /* \"#utility.yul\":37284:37458   */\n    tag_455:\n        /* \"#utility.yul\":37424:37450   */\n      0x5061796d656e74206973206e6f7420636f6d706c657465640000000000000000\n        /* \"#utility.yul\":37420:37421   */\n      0x00\n        /* \"#utility.yul\":37412:37418   */\n      dup3\n        /* \"#utility.yul\":37408:37422   */\n      add\n        /* \"#utility.yul\":37401:37451   */\n      mstore\n        /* \"#utility.yul\":37284:37458   */\n      pop\n      jump\t// out\n        /* \"#utility.yul\":37464:37830   */\n    tag_456:\n        /* \"#utility.yul\":37606:37609   */\n      0x00\n        /* \"#utility.yul\":37627:37694   */\n      tag_823\n        /* \"#utility.yul\":37691:37693   */\n      0x18\n        /* \"#utility.yul\":37686:37689   */\n      dup4\n        /* \"#utility.yul\":37627:37694   */\n      tag_414\n      jump\t// in\n    tag_823:\n        /* \"#utility.yul\":37620:37694   */\n      swap2\n      pop\n        /* \"#utility.yul\":37703:37796   */\n      tag_824\n        /* \"#utility.yul\":37792:37795   */\n      dup3\n        /* \"#utility.yul\":37703:37796   */\n      tag_455\n      jump\t// in\n    tag_824:\n        /* \"#utility.yul\":37821:37823   */\n      0x20\n        /* \"#utility.yul\":37816:37819   */\n      dup3\n        /* \"#utility.yul\":37812:37824   */\n      add\n        /* \"#utility.yul\":37805:37824   */\n      swap1\n      pop\n        /* \"#utility.yul\":37464:37830   */\n      swap2\n      swap1\n      pop\n      jump\t// out\n        /* \"#utility.yul\":37836:38255   */\n    tag_302:\n        /* \"#utility.yul\":38002:38006   */\n      0x00\n        /* \"#utility.yul\":38040:38042   */\n      0x20\n        /* \"#utility.yul\":38029:38038   */\n      dup3\n        /* \"#utility.yul\":38025:38043   */\n      add\n        /* \"#utility.yul\":38017:38043   */\n      swap1\n      pop\n        /* \"#utility.yul\":38089:38098   */\n      dup2\n        /* \"#utility.yul\":38083:38087   */\n      dup2\n        /* \"#utility.yul\":38079:38099   */\n      sub\n        /* \"#utility.yul\":38075:38076   */\n      0x00\n        /* \"#utility.yul\":38064:38073   */\n      dup4\n        /* \"#utility.yul\":38060:38077   */\n      add\n        /* \"#utility.yul\":38053:38100   */\n      mstore\n        /* \"#utility.yul\":38117:38248   */\n      tag_826\n        /* \"#utility.yul\":38243:38247   */\n      dup2\n        /* \"#utility.yul\":38117:38248   */\n      tag_456\n      jump\t// in\n    tag_826:\n        /* \"#utility.yul\":38109:38248   */\n      swap1\n      pop\n        /* \"#utility.yul\":37836:38255   */\n      swap2\n      swap1\n      pop\n      jump\t// out\n        /* \"#utility.yul\":38261:38436   */\n    tag_457:\n        /* \"#utility.yul\":38401:38428   */\n      0x496e76616c696420726563697069656e74206164647265737300000000000000\n        /* \"#utility.yul\":38397:38398   */\n      0x00\n        /* \"#utility.yul\":38389:38395   */\n      dup3\n        /* \"#utility.yul\":38385:38399   */\n      add\n        /* \"#utility.yul\":38378:38429   */\n      mstore\n        /* \"#utility.yul\":38261:38436   */\n      pop\n      jump\t// out\n        /* \"#utility.yul\":38442:38808   */\n    tag_458:\n        /* \"#utility.yul\":38584:38587   */\n      0x00\n        /* \"#utility.yul\":38605:38672   */\n      tag_829\n        /* \"#utility.yul\":38669:38671   */\n      0x19\n        /* \"#utility.yul\":38664:38667   */\n      dup4\n        /* \"#utility.yul\":38605:38672   */\n      tag_414\n      jump\t// in\n    tag_829:\n        /* \"#utility.yul\":38598:38672   */\n      swap2\n      pop\n        /* \"#utility.yul\":38681:38774   */\n      tag_830\n        /* \"#utility.yul\":38770:38773   */\n      dup3\n        /* \"#utility.yul\":38681:38774   */\n      tag_457\n      jump\t// in\n    tag_830:\n        /* \"#utility.yul\":38799:38801   */\n      0x20\n        /* \"#utility.yul\":38794:38797   */\n      dup3\n        /* \"#utility.yul\":38790:38802   */\n      add\n        /* \"#utility.yul\":38783:38802   */\n      swap1\n      pop\n        /* \"#utility.yul\":38442:38808   */\n      swap2\n      swap1\n      pop\n      jump\t// out\n        /* \"#utility.yul\":38814:39233   */\n    tag_312:\n        /* \"#utility.yul\":38980:38984   */\n      0x00\n        /* \"#utility.yul\":39018:39020   */\n      0x20\n        /* \"#utility.yul\":39007:39016   */\n      dup3\n        /* \"#utility.yul\":39003:39021   */\n      add\n        /* \"#utility.yul\":38995:39021   */\n      swap1\n      pop\n        /* \"#utility.yul\":39067:39076   */\n      dup2\n        /* \"#utility.yul\":39061:39065   */\n      dup2\n        /* \"#utility.yul\":39057:39077   */\n      sub\n        /* \"#utility.yul\":39053:39054   */\n      0x00\n        /* \"#utility.yul\":39042:39051   */\n      dup4\n        /* \"#utility.yul\":39038:39055   */\n      add\n        /* \"#utility.yul\":39031:39078   */\n      mstore\n        /* \"#utility.yul\":39095:39226   */\n      tag_832\n        /* \"#utility.yul\":39221:39225   */\n      dup2\n        /* \"#utility.yul\":39095:39226   */\n      tag_458\n      jump\t// in\n    tag_832:\n        /* \"#utility.yul\":39087:39226   */\n      swap1\n      pop\n        /* \"#utility.yul\":38814:39233   */\n      swap2\n      swap1\n      pop\n      jump\t// out\n        /* \"#utility.yul\":39239:39421   */\n    tag_459:\n        /* \"#utility.yul\":39379:39413   */\n      0x416d6f756e74206d7573742062652067726561746572207468616e207a65726f\n        /* \"#utility.yul\":39375:39376   */\n      0x00\n        /* \"#utility.yul\":39367:39373   */\n      dup3\n        /* \"#utility.yul\":39363:39377   */\n      add\n        /* \"#utility.yul\":39356:39414   */\n      mstore\n        /* \"#utility.yul\":39239:39421   */\n      pop\n      jump\t// out\n        /* \"#utility.yul\":39427:39793   */\n    tag_460:\n        /* \"#utility.yul\":39569:39572   */\n      0x00\n        /* \"#utility.yul\":39590:39657   */\n      tag_835\n        /* \"#utility.yul\":39654:39656   */\n      0x20\n        /* \"#utility.yul\":39649:39652   */\n      dup4\n        /* \"#utility.yul\":39590:39657   */\n      tag_414\n      jump\t// in\n    tag_835:\n        /* \"#utility.yul\":39583:39657   */\n      swap2\n      pop\n        /* \"#utility.yul\":39666:39759   */\n      tag_836\n        /* \"#utility.yul\":39755:39758   */\n      dup3\n        /* \"#utility.yul\":39666:39759   */\n      tag_459\n      jump\t// in\n    tag_836:\n        /* \"#utility.yul\":39784:39786   */\n      0x20\n        /* \"#utility.yul\":39779:39782   */\n      dup3\n        /* \"#utility.yul\":39775:39787   */\n      add\n        /* \"#utility.yul\":39768:39787   */\n      swap1\n      pop\n        /* \"#utility.yul\":39427:39793   */\n      swap2\n      swap1\n      pop\n      jump\t// out\n        /* \"#utility.yul\":39799:40218   */\n    tag_315:\n        /* \"#utility.yul\":39965:39969   */\n      0x00\n        /* \"#utility.yul\":40003:40005   */\n      0x20\n        /* \"#utility.yul\":39992:40001   */\n      dup3\n        /* \"#utility.yul\":39988:40006   */\n      add\n        /* \"#utility.yul\":39980:40006   */\n      swap1\n      pop\n        /* \"#utility.yul\":40052:40061   */\n      dup2\n        /* \"#utility.yul\":40046:40050   */\n      dup2\n        /* \"#utility.yul\":40042:40062   */\n      sub\n        /* \"#utility.yul\":40038:40039   */\n      0x00\n        /* \"#utility.yul\":40027:40036   */\n      dup4\n        /* \"#utility.yul\":40023:40040   */\n      add\n        /* \"#utility.yul\":40016:40063   */\n      mstore\n        /* \"#utility.yul\":40080:40211   */\n      tag_838\n        /* \"#utility.yul\":40206:40210   */\n      dup2\n        /* \"#utility.yul\":40080:40211   */\n      tag_460\n      jump\t// in\n    tag_838:\n        /* \"#utility.yul\":40072:40211   */\n      swap1\n      pop\n        /* \"#utility.yul\":39799:40218   */\n      swap2\n      swap1\n      pop\n      jump\t// out\n        /* \"#utility.yul\":40224:40338   */\n    tag_461:\n      pop\n      jump\t// out\n        /* \"#utility.yul\":40344:40742   */\n    tag_462:\n        /* \"#utility.yul\":40503:40506   */\n      0x00\n        /* \"#utility.yul\":40524:40607   */\n      tag_841\n        /* \"#utility.yul\":40605:40606   */\n      0x00\n        /* \"#utility.yul\":40600:40603   */\n      dup4\n        /* \"#utility.yul\":40524:40607   */\n      tag_453\n      jump\t// in\n    tag_841:\n        /* \"#utility.yul\":40517:40607   */\n      swap2\n      pop\n        /* \"#utility.yul\":40616:40709   */\n      tag_842\n        /* \"#utility.yul\":40705:40708   */\n      dup3\n        /* \"#utility.yul\":40616:40709   */\n      tag_461\n      jump\t// in\n    tag_842:\n        /* \"#utility.yul\":40734:40735   */\n      0x00\n        /* \"#utility.yul\":40729:40732   */\n      dup3\n        /* \"#utility.yul\":40725:40736   */\n      add\n        /* \"#utility.yul\":40718:40736   */\n      swap1\n      pop\n        /* \"#utility.yul\":40344:40742   */\n      swap2\n      swap1\n      pop\n      jump\t// out\n        /* \"#utility.yul\":40748:41127   */\n    tag_317:\n        /* \"#utility.yul\":40932:40935   */\n      0x00\n        /* \"#utility.yul\":40954:41101   */\n      tag_844\n        /* \"#utility.yul\":41097:41100   */\n      dup3\n        /* \"#utility.yul\":40954:41101   */\n      tag_462\n      jump\t// in\n    tag_844:\n        /* \"#utility.yul\":40947:41101   */\n      swap2\n      pop\n        /* \"#utility.yul\":41118:41121   */\n      dup2\n        /* \"#utility.yul\":41111:41121   */\n      swap1\n      pop\n        /* \"#utility.yul\":40748:41127   */\n      swap2\n      swap1\n      pop\n      jump\t// out\n        /* \"#utility.yul\":41133:41298   */\n    tag_463:\n        /* \"#utility.yul\":41273:41290   */\n      0x5472616e73666572206661696c65640000000000000000000000000000000000\n        /* \"#utility.yul\":41269:41270   */\n      0x00\n        /* \"#utility.yul\":41261:41267   */\n      dup3\n        /* \"#utility.yul\":41257:41271   */\n      add\n        /* \"#utility.yul\":41250:41291   */\n      mstore\n        /* \"#utility.yul\":41133:41298   */\n      pop\n      jump\t// out\n        /* \"#utility.yul\":41304:41670   */\n    tag_464:\n        /* \"#utility.yul\":41446:41449   */\n      0x00\n        /* \"#utility.yul\":41467:41534   */\n      tag_847\n        /* \"#utility.yul\":41531:41533   */\n      0x0f\n        /* \"#utility.yul\":41526:41529   */\n      dup4\n        /* \"#utility.yul\":41467:41534   */\n      tag_414\n      jump\t// in\n    tag_847:\n        /* \"#utility.yul\":41460:41534   */\n      swap2\n      pop\n        /* \"#utility.yul\":41543:41636   */\n      tag_848\n        /* \"#utility.yul\":41632:41635   */\n      dup3\n        /* \"#utility.yul\":41543:41636   */\n      tag_463\n      jump\t// in\n    tag_848:\n        /* \"#utility.yul\":41661:41663   */\n      0x20\n        /* \"#utility.yul\":41656:41659   */\n      dup3\n        /* \"#utility.yul\":41652:41664   */\n      add\n        /* \"#utility.yul\":41645:41664   */\n      swap1\n      pop\n        /* \"#utility.yul\":41304:41670   */\n      swap2\n      swap1\n      pop\n      jump\t// out\n        /* \"#utility.yul\":41676:42095   */\n    tag_323:\n        /* \"#utility.yul\":41842:41846   */\n      0x00\n        /* \"#utility.yul\":41880:41882   */\n      0x20\n        /* \"#utility.yul\":41869:41878   */\n      dup3\n        /* \"#utility.yul\":41865:41883   */\n      add\n        /* \"#utility.yul\":41857:41883   */\n      swap1\n      pop\n        /* \"#utility.yul\":41929:41938   */\n      dup2\n        /* \"#utility.yul\":41923:41927   */\n      dup2\n        /* \"#utility.yul\":41919:41939   */\n      sub\n        /* \"#utility.yul\":41915:41916   */\n      0x00\n        /* \"#utility.yul\":41904:41913   */\n      dup4\n        /* \"#utility.yul\":41900:41917   */\n      add\n        /* \"#utility.yul\":41893:41940   */\n      mstore\n        /* \"#utility.yul\":41957:42088   */\n      tag_850\n        /* \"#utility.yul\":42083:42087   */\n      dup2\n        /* \"#utility.yul\":41957:42088   */\n      tag_464\n      jump\t// in\n    tag_850:\n        /* \"#utility.yul\":41949:42088   */\n      swap1\n      pop\n        /* \"#utility.yul\":41676:42095   */\n      swap2\n      swap1\n      pop\n      jump\t// out\n        /* \"#utility.yul\":42101:42283   */\n    tag_326:\n        /* \"#utility.yul\":42140:42141   */\n      0x00\n        /* \"#utility.yul\":42157:42176   */\n      tag_852\n        /* \"#utility.yul\":42174:42175   */\n      dup3\n        /* \"#utility.yul\":42157:42176   */\n      tag_400\n      jump\t// in\n    tag_852:\n        /* \"#utility.yul\":42152:42176   */\n      swap2\n      pop\n        /* \"#utility.yul\":42190:42209   */\n      tag_853\n        /* \"#utility.yul\":42207:42208   */\n      dup4\n        /* \"#utility.yul\":42190:42209   */\n      tag_400\n      jump\t// in\n    tag_853:\n        /* \"#utility.yul\":42185:42209   */\n      swap3\n      pop\n        /* \"#utility.yul\":42228:42229   */\n      dup3\n        /* \"#utility.yul\":42218:42253   */\n      tag_854\n      jumpi\n        /* \"#utility.yul\":42233:42251   */\n      tag_855\n      tag_413\n      jump\t// in\n    tag_855:\n        /* \"#utility.yul\":42218:42253   */\n    tag_854:\n        /* \"#utility.yul\":42275:42276   */\n      dup3\n        /* \"#utility.yul\":42272:42273   */\n      dup3\n        /* \"#utility.yul\":42268:42277   */\n      div\n        /* \"#utility.yul\":42263:42277   */\n      swap1\n      pop\n        /* \"#utility.yul\":42101:42283   */\n      swap3\n      swap2\n      pop\n      pop\n      jump\t// out\n        /* \"#utility.yul\":42289:42621   */\n    tag_342:\n        /* \"#utility.yul\":42410:42414   */\n      0x00\n        /* \"#utility.yul\":42448:42450   */\n      0x40\n        /* \"#utility.yul\":42437:42446   */\n      dup3\n        /* \"#utility.yul\":42433:42451   */\n      add\n        /* \"#utility.yul\":42425:42451   */\n      swap1\n      pop\n        /* \"#utility.yul\":42461:42532   */\n      tag_857\n        /* \"#utility.yul\":42529:42530   */\n      0x00\n        /* \"#utility.yul\":42518:42527   */\n      dup4\n        /* \"#utility.yul\":42514:42531   */\n      add\n        /* \"#utility.yul\":42505:42511   */\n      dup6\n        /* \"#utility.yul\":42461:42532   */\n      tag_412\n      jump\t// in\n    tag_857:\n        /* \"#utility.yul\":42542:42614   */\n      tag_858\n        /* \"#utility.yul\":42610:42612   */\n      0x20\n        /* \"#utility.yul\":42599:42608   */\n      dup4\n        /* \"#utility.yul\":42595:42613   */\n      add\n        /* \"#utility.yul\":42586:42592   */\n      dup5\n        /* \"#utility.yul\":42542:42614   */\n      tag_358\n      jump\t// in\n    tag_858:\n        /* \"#utility.yul\":42289:42621   */\n      swap4\n      swap3\n      pop\n      pop\n      pop\n      jump\t// out\n\n    auxdata: 0xa2646970667358221220c3f0794c43d0014d0a44b1fafca4a92b52d263353d600bf3367bd883937d536864736f6c63430008160033\n}\n",
				"bytecode": {
					"linkReferences": {},
					"object": "60806040525f60025534801562000014575f80fd5b50604051620038503803806200385083398181016040528101906200003a91906200022f565b80805f73ffffffffffffffffffffffffffffffffffffffff168173ffffffffffffffffffffffffffffffffffffffff1603620000af575f6040517f1e4fbdf7000000000000000000000000000000000000000000000000000000008152600401620000a6919062000270565b60405180910390fd5b620000c0816200010960201b60201c565b503360015f6101000a81548173ffffffffffffffffffffffffffffffffffffffff021916908373ffffffffffffffffffffffffffffffffffffffff16021790555050506200028b565b5f805f9054906101000a900473ffffffffffffffffffffffffffffffffffffffff169050815f806101000a81548173ffffffffffffffffffffffffffffffffffffffff021916908373ffffffffffffffffffffffffffffffffffffffff1602179055508173ffffffffffffffffffffffffffffffffffffffff168173ffffffffffffffffffffffffffffffffffffffff167f8be0079c531659141344cd1fd0a4f28419497f9722a3daafe3b4186f6b6457e060405160405180910390a35050565b5f80fd5b5f73ffffffffffffffffffffffffffffffffffffffff82169050919050565b5f620001f982620001ce565b9050919050565b6200020b81620001ed565b811462000216575f80fd5b50565b5f81519050620002298162000200565b92915050565b5f60208284031215620002475762000246620001ca565b5b5f620002568482850162000219565b91505092915050565b6200026a81620001ed565b82525050565b5f602082019050620002855f8301846200025f565b92915050565b6135b780620002995f395ff3fe6080604052600436106100c5575f3560e01c8063715018a61161007e578063998aa46511610058578063998aa465146102e2578063cbfa1a7014610312578063f2fde38b1461032e578063f98cf07c1461035657610132565b8063715018a6146102665780638b50d8c61461027c5780638da5cb5b146102b857610132565b80632f144bcd14610136578063567813881461017257806365ac43411461019a57806367c7b5d6146101c45780636d3fff27146102005780636ebc8c861461022a57610132565b36610132573460025f8282546100db919061212d565b925050819055503373ffffffffffffffffffffffffffffffffffffffff167f88a5966d370b9919b20f3e2c13ff65706f196a4e32cc2c12bf57088f8852587434604051610128919061216f565b60405180910390a2005b5f80fd5b348015610141575f80fd5b5061015c60048036038101906101579190612440565b610372565b604051610169919061216f565b60405180910390f35b34801561017d575f80fd5b5061019860048036038101906101939190612570565b61064e565b005b3480156101a5575f80fd5b506101ae610a5e565b6040516101bb919061216f565b60405180910390f35b3480156101cf575f80fd5b506101ea60048036038101906101e591906125ae565b610a6f565b6040516101f7919061292c565b60405180910390f35b34801561020b575f80fd5b50610214610e84565b604051610221919061292c565b60405180910390f35b348015610235575f80fd5b50610250600480360381019061024b919061294c565b6112b6565b60405161025d9190612a6a565b60405180910390f35b348015610271575f80fd5b5061027a6115b7565b005b348015610287575f80fd5b506102a2600480360381019061029d919061294c565b6115ca565b6040516102af9190612a99565b60405180910390f35b3480156102c3575f80fd5b506102cc6116f8565b6040516102d99190612ac1565b60405180910390f35b6102fc60048036038101906102f7919061294c565b61171f565b6040516103099190612a99565b60405180910390f35b61032c60048036038101906103279190612ada565b611756565b005b348015610339575f80fd5b50610354600480360381019061034f9190612b18565b611bf6565b005b610370600480360381019061036b9190612ada565b611c7a565b005b5f80600286516103829190612b70565b036103c2576040517f08c379a00000000000000000000000000000000000000000000000000000000081526004016103b990612c20565b60405180910390fd5b5f42336040516020016103d6929190612ca3565b604051602081830303815290604052805190602001205f1c90505f60035f8381526020019081526020015f20905089815f0190816104149190612ec8565b50888160010190816104269190612ec8565b505f816002015f6101000a81548160ff0219169083600381111561044d5761044c612698565b5b021790555087816004015f6101000a81548173ffffffffffffffffffffffffffffffffffffffff021916908373ffffffffffffffffffffffffffffffffffffffff16021790555033816005015f6101000a81548173ffffffffffffffffffffffffffffffffffffffff021916908373ffffffffffffffffffffffffffffffffffffffff160217905550848160020160016101000a81548160ff021916908360018111156104fd576104fc612698565b5b021790555086518160020160026101000a81548163ffffffff021916908363ffffffff1602179055508381600301819055505f5b87518110156105c25760055f8983815181106105505761054f612f97565b5b602002602001015173ffffffffffffffffffffffffffffffffffffffff1673ffffffffffffffffffffffffffffffffffffffff1681526020019081526020015f2083908060018154018082558091505060019003905f5260205f20015f90919091909150558080600101915050610531565b506004866040516105d39190612ffe565b908152602001604051809103902082908060018154018082558091505060019003905f5260205f20015f90919091909150557fcadd79c29aad986976dab64ddbba56db81c411ada9ed7b182dba65753d693dd88a8360405161063692919061304c565b60405180910390a18192505050979650505050505050565b5f60035f8481526020019081526020015f20604051806101600160405290815f8201805461067b90612cfb565b80601f01602080910402602001604051908101604052809291908181526020018280546106a790612cfb565b80156106f25780601f106106c9576101008083540402835291602001916106f2565b820191905f5260205f20905b8154815290600101906020018083116106d557829003601f168201915b5050505050815260200160018201805461070b90612cfb565b80601f016020809104026020016040519081016040528092919081815260200182805461073790612cfb565b80156107825780601f1061075957610100808354040283529160200191610782565b820191905f5260205f20905b81548152906001019060200180831161076557829003601f168201915b50505050508152602001600282015f9054906101000a900460ff1660038111156107af576107ae612698565b5b60038111156107c1576107c0612698565b5b81526020016002820160019054906101000a900460ff1660018111156107ea576107e9612698565b5b60018111156107fc576107fb612698565b5b81526020016002820160029054906101000a900463ffffffff1663ffffffff1663ffffffff1681526020016002820160069054906101000a900463ffffffff1663ffffffff1663ffffffff16815260200160028201600a9054906101000a900463ffffffff1663ffffffff1663ffffffff16815260200160038201548152602001600482015f9054906101000a900473ffffffffffffffffffffffffffffffffffffffff1673ffffffffffffffffffffffffffffffffffffffff1673ffffffffffffffffffffffffffffffffffffffff168152602001600582015f9054906101000a900473ffffffffffffffffffffffffffffffffffffffff1673ffffffffffffffffffffffffffffffffffffffff1673ffffffffffffffffffffffffffffffffffffffff1681526020016005820160149054906101000a900460ff16151515158152505090506001600381111561095757610956612698565b5b8160400151600381111561096e5761096d612698565b5b146109ae576040517f08c379a00000000000000000000000000000000000000000000000000000000081526004016109a5906130ea565b60405180910390fd5b5f60018111156109c1576109c0612698565b5b8260018111156109d4576109d3612698565b5b03610a00578060a00180518091906109eb90613108565b63ffffffff1663ffffffff1681525050610a4f565b600180811115610a1357610a12612698565b5b826001811115610a2657610a25612698565b5b03610a4e578060c0018051809190610a3d90613108565b63ffffffff1663ffffffff16815250505b5b610a598184611dd7565b505050565b5f610a67611ef3565b600254905090565b60605f600483604051610a829190612ffe565b9081526020016040518091039020805480602002602001604051908101604052809291908181526020018280548015610ad857602002820191905f5260205f20905b815481526020019060010190808311610ac4575b505050505090505f815167ffffffffffffffff811115610afb57610afa6121b1565b5b604051908082528060200260200182016040528015610b3457816020015b610b21612042565b815260200190600190039081610b195790505b5090505f5b8251811015610e795760035f848381518110610b5857610b57612f97565b5b602002602001015181526020019081526020015f20604051806101600160405290815f82018054610b8890612cfb565b80601f0160208091040260200160405190810160405280929190818152602001828054610bb490612cfb565b8015610bff5780601f10610bd657610100808354040283529160200191610bff565b820191905f5260205f20905b815481529060010190602001808311610be257829003601f168201915b50505050508152602001600182018054610c1890612cfb565b80601f0160208091040260200160405190810160405280929190818152602001828054610c4490612cfb565b8015610c8f5780601f10610c6657610100808354040283529160200191610c8f565b820191905f5260205f20905b815481529060010190602001808311610c7257829003601f168201915b50505050508152602001600282015f9054906101000a900460ff166003811115610cbc57610cbb612698565b5b6003811115610cce57610ccd612698565b5b81526020016002820160019054906101000a900460ff166001811115610cf757610cf6612698565b5b6001811115610d0957610d08612698565b5b81526020016002820160029054906101000a900463ffffffff1663ffffffff1663ffffffff1681526020016002820160069054906101000a900463ffffffff1663ffffffff1663ffffffff16815260200160028201600a9054906101000a900463ffffffff1663ffffffff1663ffffffff16815260200160038201548152602001600482015f9054906101000a900473ffffffffffffffffffffffffffffffffffffffff1673ffffffffffffffffffffffffffffffffffffffff1673ffffffffffffffffffffffffffffffffffffffff168152602001600582015f9054906101000a900473ffffffffffffffffffffffffffffffffffffffff1673ffffffffffffffffffffffffffffffffffffffff1673ffffffffffffffffffffffffffffffffffffffff1681526020016005820160149054906101000a900460ff161515151581525050828281518110610e6157610e60612f97565b5b60200260200101819052508080600101915050610b39565b508092505050919050565b60605f60055f3373ffffffffffffffffffffffffffffffffffffffff1673ffffffffffffffffffffffffffffffffffffffff1681526020019081526020015f20805480602002602001604051908101604052809291908181526020018280548015610f0c57602002820191905f5260205f20905b815481526020019060010190808311610ef8575b505050505090505f815167ffffffffffffffff811115610f2f57610f2e6121b1565b5b604051908082528060200260200182016040528015610f6857816020015b610f55612042565b815260200190600190039081610f4d5790505b5090505f5b82518110156112ad5760035f848381518110610f8c57610f8b612f97565b5b602002602001015181526020019081526020015f20604051806101600160405290815f82018054610fbc90612cfb565b80601f0160208091040260200160405190810160405280929190818152602001828054610fe890612cfb565b80156110335780601f1061100a57610100808354040283529160200191611033565b820191905f5260205f20905b81548152906001019060200180831161101657829003601f168201915b5050505050815260200160018201805461104c90612cfb565b80601f016020809104026020016040519081016040528092919081815260200182805461107890612cfb565b80156110c35780601f1061109a576101008083540402835291602001916110c3565b820191905f5260205f20905b8154815290600101906020018083116110a657829003601f168201915b50505050508152602001600282015f9054906101000a900460ff1660038111156110f0576110ef612698565b5b600381111561110257611101612698565b5b81526020016002820160019054906101000a900460ff16600181111561112b5761112a612698565b5b600181111561113d5761113c612698565b5b81526020016002820160029054906101000a900463ffffffff1663ffffffff1663ffffffff1681526020016002820160069054906101000a900463ffffffff1663ffffffff1663ffffffff16815260200160028201600a9054906101000a900463ffffffff1663ffffffff1663ffffffff16815260200160038201548152602001600482015f9054906101000a900473ffffffffffffffffffffffffffffffffffffffff1673ffffffffffffffffffffffffffffffffffffffff1673ffffffffffffffffffffffffffffffffffffffff168152602001600582015f9054906101000a900473ffffffffffffffffffffffffffffffffffffffff1673ffffffffffffffffffffffffffffffffffffffff1673ffffffffffffffffffffffffffffffffffffffff1681526020016005820160149054906101000a900460ff16151515158152505082828151811061129557611294612f97565b5b60200260200101819052508080600101915050610f6d565b50809250505090565b6112be612042565b60035f8381526020019081526020015f20604051806101600160405290815f820180546112ea90612cfb565b80601f016020809104026020016040519081016040528092919081815260200182805461131690612cfb565b80156113615780601f1061133857610100808354040283529160200191611361565b820191905f5260205f20905b81548152906001019060200180831161134457829003601f168201915b5050505050815260200160018201805461137a90612cfb565b80601f01602080910402602001604051908101604052809291908181526020018280546113a690612cfb565b80156113f15780601f106113c8576101008083540402835291602001916113f1565b820191905f5260205f20905b8154815290600101906020018083116113d457829003601f168201915b50505050508152602001600282015f9054906101000a900460ff16600381111561141e5761141d612698565b5b60038111156114305761142f612698565b5b81526020016002820160019054906101000a900460ff16600181111561145957611458612698565b5b600181111561146b5761146a612698565b5b81526020016002820160029054906101000a900463ffffffff1663ffffffff1663ffffffff1681526020016002820160069054906101000a900463ffffffff1663ffffffff1663ffffffff16815260200160028201600a9054906101000a900463ffffffff1663ffffffff1663ffffffff16815260200160038201548152602001600482015f9054906101000a900473ffffffffffffffffffffffffffffffffffffffff1673ffffffffffffffffffffffffffffffffffffffff1673ffffffffffffffffffffffffffffffffffffffff168152602001600582015f9054906101000a900473ffffffffffffffffffffffffffffffffffffffff1673ffffffffffffffffffffffffffffffffffffffff1673ffffffffffffffffffffffffffffffffffffffff1681526020016005820160149054906101000a900460ff1615151515815250509050919050565b6115bf611ef3565b6115c85f611f7a565b565b5f600260038111156115df576115de612698565b5b60035f8481526020019081526020015f206002015f9054906101000a900460ff16600381111561161257611611612698565b5b14611652576040517f08c379a00000000000000000000000000000000000000000000000000000000081526004016116499061317d565b60405180910390fd5b60035f8381526020019081526020015f2060050160149054906101000a900460ff166116b3576040517f08c379a00000000000000000000000000000000000000000000000000000000081526004016116aa9061320b565b60405180910390fd5b600160035f8481526020019081526020015f206002015f6101000a81548160ff021916908360038111156116ea576116e9612698565b5b021790555060019050919050565b5f805f9054906101000a900473ffffffffffffffffffffffffffffffffffffffff16905090565b5f600160035f8481526020019081526020015f2060050160146101000a81548160ff02191690831515021790555060019050919050565b7f65e06b3884a88e13243953e5160aec7a836e4cc7abc0762f84c66d6b918efe7f60405161178390613273565b60405180910390a15f60035f8381526020019081526020015f20604051806101600160405290815f820180546117b890612cfb565b80601f01602080910402602001604051908101604052809291908181526020018280546117e490612cfb565b801561182f5780601f106118065761010080835404028352916020019161182f565b820191905f5260205f20905b81548152906001019060200180831161181257829003601f168201915b5050505050815260200160018201805461184890612cfb565b80601f016020809104026020016040519081016040528092919081815260200182805461187490612cfb565b80156118bf5780601f10611896576101008083540402835291602001916118bf565b820191905f5260205f20905b8154815290600101906020018083116118a257829003601f168201915b50505050508152602001600282015f9054906101000a900460ff1660038111156118ec576118eb612698565b5b60038111156118fe576118fd612698565b5b81526020016002820160019054906101000a900460ff16600181111561192757611926612698565b5b600181111561193957611938612698565b5b81526020016002820160029054906101000a900463ffffffff1663ffffffff1663ffffffff1681526020016002820160069054906101000a900463ffffffff1663ffffffff1663ffffffff16815260200160028201600a9054906101000a900463ffffffff1663ffffffff1663ffffffff16815260200160038201548152602001600482015f9054906101000a900473ffffffffffffffffffffffffffffffffffffffff1673ffffffffffffffffffffffffffffffffffffffff1673ffffffffffffffffffffffffffffffffffffffff168152602001600582015f9054906101000a900473ffffffffffffffffffffffffffffffffffffffff1673ffffffffffffffffffffffffffffffffffffffff1673ffffffffffffffffffffffffffffffffffffffff1681526020016005820160149054906101000a900460ff16151515158152505090507f65e06b3884a88e13243953e5160aec7a836e4cc7abc0762f84c66d6b918efe7f604051611aad906132db565b60405180910390a15f8373ffffffffffffffffffffffffffffffffffffffff168260e0015184604051602401611ae3919061216f565b6040516020818303038152906040527f998aa465000000000000000000000000000000000000000000000000000000007bffffffffffffffffffffffffffffffffffffffffffffffffffffffff19166020820180517bffffffffffffffffffffffffffffffffffffffffffffffffffffffff8381831617835250505050604051611b6d919061333d565b5f6040518083038185875af1925050503d805f8114611ba7576040519150601f19603f3d011682016040523d82523d5f602084013e611bac565b606091505b5050905080611bf0576040517f08c379a0000000000000000000000000000000000000000000000000000000008152600401611be79061339d565b60405180910390fd5b50505050565b611bfe611ef3565b5f73ffffffffffffffffffffffffffffffffffffffff168173ffffffffffffffffffffffffffffffffffffffff1603611c6e575f6040517f1e4fbdf7000000000000000000000000000000000000000000000000000000008152600401611c659190612ac1565b60405180910390fd5b611c7781611f7a565b50565b5f73ffffffffffffffffffffffffffffffffffffffff168273ffffffffffffffffffffffffffffffffffffffff1603611ce8576040517f08c379a0000000000000000000000000000000000000000000000000000000008152600401611cdf90613405565b60405180910390fd5b5f8111611d2a576040517f08c379a0000000000000000000000000000000000000000000000000000000008152600401611d219061346d565b60405180910390fd5b5f8273ffffffffffffffffffffffffffffffffffffffff1682604051611d4f906134ae565b5f6040518083038185875af1925050503d805f8114611d89576040519150601f19603f3d011682016040523d82523d5f602084013e611d8e565b606091505b5050905080611dd2576040517f08c379a0000000000000000000000000000000000000000000000000000000008152600401611dc99061350c565b60405180910390fd5b505050565b60028260800151611de8919061352a565b63ffffffff168260a0015163ffffffff161115611e4857611e128261010001518360e00151611c7a565b600382604001906003811115611e2b57611e2a612698565b5b90816003811115611e3f57611e3e612698565b5b81525050611eb6565b60028260800151611e59919061352a565b63ffffffff168260c0015163ffffffff161115611eb557611e838261012001518360e00151611c7a565b600382604001906003811115611e9c57611e9b612698565b5b90816003811115611eb057611eaf612698565b5b815250505b5b7feac3d83c2e72fbc1d7624dad3e1753f855ffd9cb39a7e0736c0e684b055ed57f3382604051611ee792919061355a565b60405180910390a15050565b611efb61203b565b73ffffffffffffffffffffffffffffffffffffffff16611f196116f8565b73ffffffffffffffffffffffffffffffffffffffff1614611f7857611f3c61203b565b6040517f118cdaa7000000000000000000000000000000000000000000000000000000008152600401611f6f9190612ac1565b60405180910390fd5b565b5f805f9054906101000a900473ffffffffffffffffffffffffffffffffffffffff169050815f806101000a81548173ffffffffffffffffffffffffffffffffffffffff021916908373ffffffffffffffffffffffffffffffffffffffff1602179055508173ffffffffffffffffffffffffffffffffffffffff168173ffffffffffffffffffffffffffffffffffffffff167f8be0079c531659141344cd1fd0a4f28419497f9722a3daafe3b4186f6b6457e060405160405180910390a35050565b5f33905090565b60405180610160016040528060608152602001606081526020015f600381111561206f5761206e612698565b5b81526020015f600181111561208757612086612698565b5b81526020015f63ffffffff1681526020015f63ffffffff1681526020015f63ffffffff1681526020015f81526020015f73ffffffffffffffffffffffffffffffffffffffff1681526020015f73ffffffffffffffffffffffffffffffffffffffff1681526020015f151581525090565b5f819050919050565b7f4e487b71000000000000000000000000000000000000000000000000000000005f52601160045260245ffd5b5f612137826120f7565b9150612142836120f7565b925082820190508082111561215a57612159612100565b5b92915050565b612169816120f7565b82525050565b5f6020820190506121825f830184612160565b92915050565b5f604051905090565b5f80fd5b5f80fd5b5f80fd5b5f80fd5b5f601f19601f8301169050919050565b7f4e487b71000000000000000000000000000000000000000000000000000000005f52604160045260245ffd5b6121e7826121a1565b810181811067ffffffffffffffff82111715612206576122056121b1565b5b80604052505050565b5f612218612188565b905061222482826121de565b919050565b5f67ffffffffffffffff821115612243576122426121b1565b5b61224c826121a1565b9050602081019050919050565b828183375f83830152505050565b5f61227961227484612229565b61220f565b9050828152602081018484840111156122955761229461219d565b5b6122a0848285612259565b509392505050565b5f82601f8301126122bc576122bb612199565b5b81356122cc848260208601612267565b91505092915050565b5f73ffffffffffffffffffffffffffffffffffffffff82169050919050565b5f6122fe826122d5565b9050919050565b61230e816122f4565b8114612318575f80fd5b50565b5f8135905061232981612305565b92915050565b5f67ffffffffffffffff821115612349576123486121b1565b5b602082029050602081019050919050565b5f80fd5b5f61237061236b8461232f565b61220f565b905080838252602082019050602084028301858111156123935761239261235a565b5b835b818110156123bc57806123a8888261231b565b845260208401935050602081019050612395565b5050509392505050565b5f82601f8301126123da576123d9612199565b5b81356123ea84826020860161235e565b91505092915050565b600281106123ff575f80fd5b50565b5f81359050612410816123f3565b92915050565b61241f816120f7565b8114612429575f80fd5b50565b5f8135905061243a81612416565b92915050565b5f805f805f805f60e0888a03121561245b5761245a612191565b5b5f88013567ffffffffffffffff81111561247857612477612195565b5b6124848a828b016122a8565b975050602088013567ffffffffffffffff8111156124a5576124a4612195565b5b6124b18a828b016122a8565b96505060406124c28a828b0161231b565b955050606088013567ffffffffffffffff8111156124e3576124e2612195565b5b6124ef8a828b016123c6565b945050608088013567ffffffffffffffff8111156125105761250f612195565b5b61251c8a828b016122a8565b93505060a061252d8a828b01612402565b92505060c061253e8a828b0161242c565b91505092959891949750929550565b60028110612559575f80fd5b50565b5f8135905061256a8161254d565b92915050565b5f806040838503121561258657612585612191565b5b5f6125938582860161242c565b92505060206125a48582860161255c565b9150509250929050565b5f602082840312156125c3576125c2612191565b5b5f82013567ffffffffffffffff8111156125e0576125df612195565b5b6125ec848285016122a8565b91505092915050565b5f81519050919050565b5f82825260208201905092915050565b5f819050602082019050919050565b5f81519050919050565b5f82825260208201905092915050565b5f5b8381101561265557808201518184015260208101905061263a565b5f8484015250505050565b5f61266a8261261e565b6126748185612628565b9350612684818560208601612638565b61268d816121a1565b840191505092915050565b7f4e487b71000000000000000000000000000000000000000000000000000000005f52602160045260245ffd5b600481106126d6576126d5612698565b5b50565b5f8190506126e6826126c5565b919050565b5f6126f5826126d9565b9050919050565b612705816126eb565b82525050565b6002811061271c5761271b612698565b5b50565b5f81905061272c8261270b565b919050565b5f61273b8261271f565b9050919050565b61274b81612731565b82525050565b5f63ffffffff82169050919050565b61276981612751565b82525050565b612778816120f7565b82525050565b612787816122f4565b82525050565b5f8115159050919050565b6127a18161278d565b82525050565b5f61016083015f8301518482035f8601526127c28282612660565b915050602083015184820360208601526127dc8282612660565b91505060408301516127f160408601826126fc565b5060608301516128046060860182612742565b5060808301516128176080860182612760565b5060a083015161282a60a0860182612760565b5060c083015161283d60c0860182612760565b5060e083015161285060e086018261276f565b5061010083015161286561010086018261277e565b5061012083015161287a61012086018261277e565b5061014083015161288f610140860182612798565b508091505092915050565b5f6128a583836127a7565b905092915050565b5f602082019050919050565b5f6128c3826125f5565b6128cd81856125ff565b9350836020820285016128df8561260f565b805f5b8581101561291a57848403895281516128fb858261289a565b9450612906836128ad565b925060208a019950506001810190506128e2565b50829750879550505050505092915050565b5f6020820190508181035f83015261294481846128b9565b905092915050565b5f6020828403121561296157612960612191565b5b5f61296e8482850161242c565b91505092915050565b5f61016083015f8301518482035f8601526129928282612660565b915050602083015184820360208601526129ac8282612660565b91505060408301516129c160408601826126fc565b5060608301516129d46060860182612742565b5060808301516129e76080860182612760565b5060a08301516129fa60a0860182612760565b5060c0830151612a0d60c0860182612760565b5060e0830151612a2060e086018261276f565b50610100830151612a3561010086018261277e565b50610120830151612a4a61012086018261277e565b50610140830151612a5f610140860182612798565b508091505092915050565b5f6020820190508181035f830152612a828184612977565b905092915050565b612a938161278d565b82525050565b5f602082019050612aac5f830184612a8a565b92915050565b612abb816122f4565b82525050565b5f602082019050612ad45f830184612ab2565b92915050565b5f8060408385031215612af057612aef612191565b5b5f612afd8582860161231b565b9250506020612b0e8582860161242c565b9150509250929050565b5f60208284031215612b2d57612b2c612191565b5b5f612b3a8482850161231b565b91505092915050565b7f4e487b71000000000000000000000000000000000000000000000000000000005f52601260045260245ffd5b5f612b7a826120f7565b9150612b85836120f7565b925082612b9557612b94612b43565b5b828206905092915050565b5f82825260208201905092915050565b7f416e206576656e206e756d626572206f662070617274696370616e74732069735f8201527f206e6f7420616c6c6f7765642e00000000000000000000000000000000000000602082015250565b5f612c0a602d83612ba0565b9150612c1582612bb0565b604082019050919050565b5f6020820190508181035f830152612c3781612bfe565b9050919050565b5f819050919050565b612c58612c53826120f7565b612c3e565b82525050565b5f8160601b9050919050565b5f612c7482612c5e565b9050919050565b5f612c8582612c6a565b9050919050565b612c9d612c98826122f4565b612c7b565b82525050565b5f612cae8285612c47565b602082019150612cbe8284612c8c565b6014820191508190509392505050565b7f4e487b71000000000000000000000000000000000000000000000000000000005f52602260045260245ffd5b5f6002820490506001821680612d1257607f821691505b602082108103612d2557612d24612cce565b5b50919050565b5f819050815f5260205f209050919050565b5f6020601f8301049050919050565b5f82821b905092915050565b5f60088302612d877fffffffffffffffffffffffffffffffffffffffffffffffffffffffffffffffff82612d4c565b612d918683612d4c565b95508019841693508086168417925050509392505050565b5f819050919050565b5f612dcc612dc7612dc2846120f7565b612da9565b6120f7565b9050919050565b5f819050919050565b612de583612db2565b612df9612df182612dd3565b848454612d58565b825550505050565b5f90565b612e0d612e01565b612e18818484612ddc565b505050565b5b81811015612e3b57612e305f82612e05565b600181019050612e1e565b5050565b601f821115612e8057612e5181612d2b565b612e5a84612d3d565b81016020851015612e69578190505b612e7d612e7585612d3d565b830182612e1d565b50505b505050565b5f82821c905092915050565b5f612ea05f1984600802612e85565b1980831691505092915050565b5f612eb88383612e91565b9150826002028217905092915050565b612ed18261261e565b67ffffffffffffffff811115612eea57612ee96121b1565b5b612ef48254612cfb565b612eff828285612e3f565b5f60209050601f831160018114612f30575f8415612f1e578287015190505b612f288582612ead565b865550612f8f565b601f198416612f3e86612d2b565b5f5b82811015612f6557848901518255600182019150602085019450602081019050612f40565b86831015612f825784890151612f7e601f891682612e91565b8355505b6001600288020188555050505b505050505050565b7f4e487b71000000000000000000000000000000000000000000000000000000005f52603260045260245ffd5b5f81905092915050565b5f612fd88261261e565b612fe28185612fc4565b9350612ff2818560208601612638565b80840191505092915050565b5f6130098284612fce565b915081905092915050565b5f61301e8261261e565b6130288185612ba0565b9350613038818560208601612638565b613041816121a1565b840191505092915050565b5f6040820190508181035f8301526130648185613014565b90506130736020830184612160565b9392505050565b7f566f74696e67206f6e207468697320636f6e7472616374206973206e6f7420615f8201527f6c6c6f7765642e00000000000000000000000000000000000000000000000000602082015250565b5f6130d4602783612ba0565b91506130df8261307a565b604082019050919050565b5f6020820190508181035f830152613101816130c8565b9050919050565b5f61311282612751565b915063ffffffff820361312857613127612100565b5b600182019050919050565b7f436f6e74726163742063616e206e6f74206265207365616c65640000000000005f82015250565b5f613167601a83612ba0565b915061317282613133565b602082019050919050565b5f6020820190508181035f8301526131948161315b565b9050919050565b7f436f6e747261637420686173206e6f7420706169642e2049742063616e206e6f5f8201527f74206265207365616c6564000000000000000000000000000000000000000000602082015250565b5f6131f5602b83612ba0565b91506132008261319b565b604082019050919050565b5f6020820190508181035f830152613222816131e9565b9050919050565b7f66697273740000000000000000000000000000000000000000000000000000005f82015250565b5f61325d600583612ba0565b915061326882613229565b602082019050919050565b5f6020820190508181035f83015261328a81613251565b9050919050565b7f7365636f6e6400000000000000000000000000000000000000000000000000005f82015250565b5f6132c5600683612ba0565b91506132d082613291565b602082019050919050565b5f6020820190508181035f8301526132f2816132b9565b9050919050565b5f81519050919050565b5f81905092915050565b5f613317826132f9565b6133218185613303565b9350613331818560208601612638565b80840191505092915050565b5f613348828461330d565b915081905092915050565b7f5061796d656e74206973206e6f7420636f6d706c6574656400000000000000005f82015250565b5f613387601883612ba0565b915061339282613353565b602082019050919050565b5f6020820190508181035f8301526133b48161337b565b9050919050565b7f496e76616c696420726563697069656e742061646472657373000000000000005f82015250565b5f6133ef601983612ba0565b91506133fa826133bb565b602082019050919050565b5f6020820190508181035f83015261341c816133e3565b9050919050565b7f416d6f756e74206d7573742062652067726561746572207468616e207a65726f5f82015250565b5f613457602083612ba0565b915061346282613423565b602082019050919050565b5f6020820190508181035f8301526134848161344b565b9050919050565b50565b5f6134995f83613303565b91506134a48261348b565b5f82019050919050565b5f6134b88261348e565b9150819050919050565b7f5472616e73666572206661696c656400000000000000000000000000000000005f82015250565b5f6134f6600f83612ba0565b9150613501826134c2565b602082019050919050565b5f6020820190508181035f830152613523816134ea565b9050919050565b5f61353482612751565b915061353f83612751565b92508261354f5761354e612b43565b5b828204905092915050565b5f60408201905061356d5f830185612ab2565b61357a6020830184612160565b939250505056fea2646970667358221220c3f0794c43d0014d0a44b1fafca4a92b52d263353d600bf3367bd883937d536864736f6c63430008160033",
					"opcodes": "PUSH1 0x80 PUSH1 0x40 MSTORE PUSH0 PUSH1 0x2 SSTORE CALLVALUE DUP1 ISZERO PUSH3 0x14 JUMPI PUSH0 DUP1 REVERT JUMPDEST POP PUSH1 0x40 MLOAD PUSH3 0x3850 CODESIZE SUB DUP1 PUSH3 0x3850 DUP4 CODECOPY DUP2 DUP2 ADD PUSH1 0x40 MSTORE DUP2 ADD SWAP1 PUSH3 0x3A SWAP2 SWAP1 PUSH3 0x22F JUMP JUMPDEST DUP1 DUP1 PUSH0 PUSH20 0xFFFFFFFFFFFFFFFFFFFFFFFFFFFFFFFFFFFFFFFF AND DUP2 PUSH20 0xFFFFFFFFFFFFFFFFFFFFFFFFFFFFFFFFFFFFFFFF AND SUB PUSH3 0xAF JUMPI PUSH0 PUSH1 0x40 MLOAD PUSH32 0x1E4FBDF700000000000000000000000000000000000000000000000000000000 DUP2 MSTORE PUSH1 0x4 ADD PUSH3 0xA6 SWAP2 SWAP1 PUSH3 0x270 JUMP JUMPDEST PUSH1 0x40 MLOAD DUP1 SWAP2 SUB SWAP1 REVERT JUMPDEST PUSH3 0xC0 DUP2 PUSH3 0x109 PUSH1 0x20 SHL PUSH1 0x20 SHR JUMP JUMPDEST POP CALLER PUSH1 0x1 PUSH0 PUSH2 0x100 EXP DUP2 SLOAD DUP2 PUSH20 0xFFFFFFFFFFFFFFFFFFFFFFFFFFFFFFFFFFFFFFFF MUL NOT AND SWAP1 DUP4 PUSH20 0xFFFFFFFFFFFFFFFFFFFFFFFFFFFFFFFFFFFFFFFF AND MUL OR SWAP1 SSTORE POP POP POP PUSH3 0x28B JUMP JUMPDEST PUSH0 DUP1 PUSH0 SWAP1 SLOAD SWAP1 PUSH2 0x100 EXP SWAP1 DIV PUSH20 0xFFFFFFFFFFFFFFFFFFFFFFFFFFFFFFFFFFFFFFFF AND SWAP1 POP DUP2 PUSH0 DUP1 PUSH2 0x100 EXP DUP2 SLOAD DUP2 PUSH20 0xFFFFFFFFFFFFFFFFFFFFFFFFFFFFFFFFFFFFFFFF MUL NOT AND SWAP1 DUP4 PUSH20 0xFFFFFFFFFFFFFFFFFFFFFFFFFFFFFFFFFFFFFFFF AND MUL OR SWAP1 SSTORE POP DUP2 PUSH20 0xFFFFFFFFFFFFFFFFFFFFFFFFFFFFFFFFFFFFFFFF AND DUP2 PUSH20 0xFFFFFFFFFFFFFFFFFFFFFFFFFFFFFFFFFFFFFFFF AND PUSH32 0x8BE0079C531659141344CD1FD0A4F28419497F9722A3DAAFE3B4186F6B6457E0 PUSH1 0x40 MLOAD PUSH1 0x40 MLOAD DUP1 SWAP2 SUB SWAP1 LOG3 POP POP JUMP JUMPDEST PUSH0 DUP1 REVERT JUMPDEST PUSH0 PUSH20 0xFFFFFFFFFFFFFFFFFFFFFFFFFFFFFFFFFFFFFFFF DUP3 AND SWAP1 POP SWAP2 SWAP1 POP JUMP JUMPDEST PUSH0 PUSH3 0x1F9 DUP3 PUSH3 0x1CE JUMP JUMPDEST SWAP1 POP SWAP2 SWAP1 POP JUMP JUMPDEST PUSH3 0x20B DUP2 PUSH3 0x1ED JUMP JUMPDEST DUP2 EQ PUSH3 0x216 JUMPI PUSH0 DUP1 REVERT JUMPDEST POP JUMP JUMPDEST PUSH0 DUP2 MLOAD SWAP1 POP PUSH3 0x229 DUP2 PUSH3 0x200 JUMP JUMPDEST SWAP3 SWAP2 POP POP JUMP JUMPDEST PUSH0 PUSH1 0x20 DUP3 DUP5 SUB SLT ISZERO PUSH3 0x247 JUMPI PUSH3 0x246 PUSH3 0x1CA JUMP JUMPDEST JUMPDEST PUSH0 PUSH3 0x256 DUP5 DUP3 DUP6 ADD PUSH3 0x219 JUMP JUMPDEST SWAP2 POP POP SWAP3 SWAP2 POP POP JUMP JUMPDEST PUSH3 0x26A DUP2 PUSH3 0x1ED JUMP JUMPDEST DUP3 MSTORE POP POP JUMP JUMPDEST PUSH0 PUSH1 0x20 DUP3 ADD SWAP1 POP PUSH3 0x285 PUSH0 DUP4 ADD DUP5 PUSH3 0x25F JUMP JUMPDEST SWAP3 SWAP2 POP POP JUMP JUMPDEST PUSH2 0x35B7 DUP1 PUSH3 0x299 PUSH0 CODECOPY PUSH0 RETURN INVALID PUSH1 0x80 PUSH1 0x40 MSTORE PUSH1 0x4 CALLDATASIZE LT PUSH2 0xC5 JUMPI PUSH0 CALLDATALOAD PUSH1 0xE0 SHR DUP1 PUSH4 0x715018A6 GT PUSH2 0x7E JUMPI DUP1 PUSH4 0x998AA465 GT PUSH2 0x58 JUMPI DUP1 PUSH4 0x998AA465 EQ PUSH2 0x2E2 JUMPI DUP1 PUSH4 0xCBFA1A70 EQ PUSH2 0x312 JUMPI DUP1 PUSH4 0xF2FDE38B EQ PUSH2 0x32E JUMPI DUP1 PUSH4 0xF98CF07C EQ PUSH2 0x356 JUMPI PUSH2 0x132 JUMP JUMPDEST DUP1 PUSH4 0x715018A6 EQ PUSH2 0x266 JUMPI DUP1 PUSH4 0x8B50D8C6 EQ PUSH2 0x27C JUMPI DUP1 PUSH4 0x8DA5CB5B EQ PUSH2 0x2B8 JUMPI PUSH2 0x132 JUMP JUMPDEST DUP1 PUSH4 0x2F144BCD EQ PUSH2 0x136 JUMPI DUP1 PUSH4 0x56781388 EQ PUSH2 0x172 JUMPI DUP1 PUSH4 0x65AC4341 EQ PUSH2 0x19A JUMPI DUP1 PUSH4 0x67C7B5D6 EQ PUSH2 0x1C4 JUMPI DUP1 PUSH4 0x6D3FFF27 EQ PUSH2 0x200 JUMPI DUP1 PUSH4 0x6EBC8C86 EQ PUSH2 0x22A JUMPI PUSH2 0x132 JUMP JUMPDEST CALLDATASIZE PUSH2 0x132 JUMPI CALLVALUE PUSH1 0x2 PUSH0 DUP3 DUP3 SLOAD PUSH2 0xDB SWAP2 SWAP1 PUSH2 0x212D JUMP JUMPDEST SWAP3 POP POP DUP2 SWAP1 SSTORE POP CALLER PUSH20 0xFFFFFFFFFFFFFFFFFFFFFFFFFFFFFFFFFFFFFFFF AND PUSH32 0x88A5966D370B9919B20F3E2C13FF65706F196A4E32CC2C12BF57088F88525874 CALLVALUE PUSH1 0x40 MLOAD PUSH2 0x128 SWAP2 SWAP1 PUSH2 0x216F JUMP JUMPDEST PUSH1 0x40 MLOAD DUP1 SWAP2 SUB SWAP1 LOG2 STOP JUMPDEST PUSH0 DUP1 REVERT JUMPDEST CALLVALUE DUP1 ISZERO PUSH2 0x141 JUMPI PUSH0 DUP1 REVERT JUMPDEST POP PUSH2 0x15C PUSH1 0x4 DUP1 CALLDATASIZE SUB DUP2 ADD SWAP1 PUSH2 0x157 SWAP2 SWAP1 PUSH2 0x2440 JUMP JUMPDEST PUSH2 0x372 JUMP JUMPDEST PUSH1 0x40 MLOAD PUSH2 0x169 SWAP2 SWAP1 PUSH2 0x216F JUMP JUMPDEST PUSH1 0x40 MLOAD DUP1 SWAP2 SUB SWAP1 RETURN JUMPDEST CALLVALUE DUP1 ISZERO PUSH2 0x17D JUMPI PUSH0 DUP1 REVERT JUMPDEST POP PUSH2 0x198 PUSH1 0x4 DUP1 CALLDATASIZE SUB DUP2 ADD SWAP1 PUSH2 0x193 SWAP2 SWAP1 PUSH2 0x2570 JUMP JUMPDEST PUSH2 0x64E JUMP JUMPDEST STOP JUMPDEST CALLVALUE DUP1 ISZERO PUSH2 0x1A5 JUMPI PUSH0 DUP1 REVERT JUMPDEST POP PUSH2 0x1AE PUSH2 0xA5E JUMP JUMPDEST PUSH1 0x40 MLOAD PUSH2 0x1BB SWAP2 SWAP1 PUSH2 0x216F JUMP JUMPDEST PUSH1 0x40 MLOAD DUP1 SWAP2 SUB SWAP1 RETURN JUMPDEST CALLVALUE DUP1 ISZERO PUSH2 0x1CF JUMPI PUSH0 DUP1 REVERT JUMPDEST POP PUSH2 0x1EA PUSH1 0x4 DUP1 CALLDATASIZE SUB DUP2 ADD SWAP1 PUSH2 0x1E5 SWAP2 SWAP1 PUSH2 0x25AE JUMP JUMPDEST PUSH2 0xA6F JUMP JUMPDEST PUSH1 0x40 MLOAD PUSH2 0x1F7 SWAP2 SWAP1 PUSH2 0x292C JUMP JUMPDEST PUSH1 0x40 MLOAD DUP1 SWAP2 SUB SWAP1 RETURN JUMPDEST CALLVALUE DUP1 ISZERO PUSH2 0x20B JUMPI PUSH0 DUP1 REVERT JUMPDEST POP PUSH2 0x214 PUSH2 0xE84 JUMP JUMPDEST PUSH1 0x40 MLOAD PUSH2 0x221 SWAP2 SWAP1 PUSH2 0x292C JUMP JUMPDEST PUSH1 0x40 MLOAD DUP1 SWAP2 SUB SWAP1 RETURN JUMPDEST CALLVALUE DUP1 ISZERO PUSH2 0x235 JUMPI PUSH0 DUP1 REVERT JUMPDEST POP PUSH2 0x250 PUSH1 0x4 DUP1 CALLDATASIZE SUB DUP2 ADD SWAP1 PUSH2 0x24B SWAP2 SWAP1 PUSH2 0x294C JUMP JUMPDEST PUSH2 0x12B6 JUMP JUMPDEST PUSH1 0x40 MLOAD PUSH2 0x25D SWAP2 SWAP1 PUSH2 0x2A6A JUMP JUMPDEST PUSH1 0x40 MLOAD DUP1 SWAP2 SUB SWAP1 RETURN JUMPDEST CALLVALUE DUP1 ISZERO PUSH2 0x271 JUMPI PUSH0 DUP1 REVERT JUMPDEST POP PUSH2 0x27A PUSH2 0x15B7 JUMP JUMPDEST STOP JUMPDEST CALLVALUE DUP1 ISZERO PUSH2 0x287 JUMPI PUSH0 DUP1 REVERT JUMPDEST POP PUSH2 0x2A2 PUSH1 0x4 DUP1 CALLDATASIZE SUB DUP2 ADD SWAP1 PUSH2 0x29D SWAP2 SWAP1 PUSH2 0x294C JUMP JUMPDEST PUSH2 0x15CA JUMP JUMPDEST PUSH1 0x40 MLOAD PUSH2 0x2AF SWAP2 SWAP1 PUSH2 0x2A99 JUMP JUMPDEST PUSH1 0x40 MLOAD DUP1 SWAP2 SUB SWAP1 RETURN JUMPDEST CALLVALUE DUP1 ISZERO PUSH2 0x2C3 JUMPI PUSH0 DUP1 REVERT JUMPDEST POP PUSH2 0x2CC PUSH2 0x16F8 JUMP JUMPDEST PUSH1 0x40 MLOAD PUSH2 0x2D9 SWAP2 SWAP1 PUSH2 0x2AC1 JUMP JUMPDEST PUSH1 0x40 MLOAD DUP1 SWAP2 SUB SWAP1 RETURN JUMPDEST PUSH2 0x2FC PUSH1 0x4 DUP1 CALLDATASIZE SUB DUP2 ADD SWAP1 PUSH2 0x2F7 SWAP2 SWAP1 PUSH2 0x294C JUMP JUMPDEST PUSH2 0x171F JUMP JUMPDEST PUSH1 0x40 MLOAD PUSH2 0x309 SWAP2 SWAP1 PUSH2 0x2A99 JUMP JUMPDEST PUSH1 0x40 MLOAD DUP1 SWAP2 SUB SWAP1 RETURN JUMPDEST PUSH2 0x32C PUSH1 0x4 DUP1 CALLDATASIZE SUB DUP2 ADD SWAP1 PUSH2 0x327 SWAP2 SWAP1 PUSH2 0x2ADA JUMP JUMPDEST PUSH2 0x1756 JUMP JUMPDEST STOP JUMPDEST CALLVALUE DUP1 ISZERO PUSH2 0x339 JUMPI PUSH0 DUP1 REVERT JUMPDEST POP PUSH2 0x354 PUSH1 0x4 DUP1 CALLDATASIZE SUB DUP2 ADD SWAP1 PUSH2 0x34F SWAP2 SWAP1 PUSH2 0x2B18 JUMP JUMPDEST PUSH2 0x1BF6 JUMP JUMPDEST STOP JUMPDEST PUSH2 0x370 PUSH1 0x4 DUP1 CALLDATASIZE SUB DUP2 ADD SWAP1 PUSH2 0x36B SWAP2 SWAP1 PUSH2 0x2ADA JUMP JUMPDEST PUSH2 0x1C7A JUMP JUMPDEST STOP JUMPDEST PUSH0 DUP1 PUSH1 0x2 DUP7 MLOAD PUSH2 0x382 SWAP2 SWAP1 PUSH2 0x2B70 JUMP JUMPDEST SUB PUSH2 0x3C2 JUMPI PUSH1 0x40 MLOAD PUSH32 0x8C379A000000000000000000000000000000000000000000000000000000000 DUP2 MSTORE PUSH1 0x4 ADD PUSH2 0x3B9 SWAP1 PUSH2 0x2C20 JUMP JUMPDEST PUSH1 0x40 MLOAD DUP1 SWAP2 SUB SWAP1 REVERT JUMPDEST PUSH0 TIMESTAMP CALLER PUSH1 0x40 MLOAD PUSH1 0x20 ADD PUSH2 0x3D6 SWAP3 SWAP2 SWAP1 PUSH2 0x2CA3 JUMP JUMPDEST PUSH1 0x40 MLOAD PUSH1 0x20 DUP2 DUP4 SUB SUB DUP2 MSTORE SWAP1 PUSH1 0x40 MSTORE DUP1 MLOAD SWAP1 PUSH1 0x20 ADD KECCAK256 PUSH0 SHR SWAP1 POP PUSH0 PUSH1 0x3 PUSH0 DUP4 DUP2 MSTORE PUSH1 0x20 ADD SWAP1 DUP2 MSTORE PUSH1 0x20 ADD PUSH0 KECCAK256 SWAP1 POP DUP10 DUP2 PUSH0 ADD SWAP1 DUP2 PUSH2 0x414 SWAP2 SWAP1 PUSH2 0x2EC8 JUMP JUMPDEST POP DUP9 DUP2 PUSH1 0x1 ADD SWAP1 DUP2 PUSH2 0x426 SWAP2 SWAP1 PUSH2 0x2EC8 JUMP JUMPDEST POP PUSH0 DUP2 PUSH1 0x2 ADD PUSH0 PUSH2 0x100 EXP DUP2 SLOAD DUP2 PUSH1 0xFF MUL NOT AND SWAP1 DUP4 PUSH1 0x3 DUP2 GT ISZERO PUSH2 0x44D JUMPI PUSH2 0x44C PUSH2 0x2698 JUMP JUMPDEST JUMPDEST MUL OR SWAP1 SSTORE POP DUP8 DUP2 PUSH1 0x4 ADD PUSH0 PUSH2 0x100 EXP DUP2 SLOAD DUP2 PUSH20 0xFFFFFFFFFFFFFFFFFFFFFFFFFFFFFFFFFFFFFFFF MUL NOT AND SWAP1 DUP4 PUSH20 0xFFFFFFFFFFFFFFFFFFFFFFFFFFFFFFFFFFFFFFFF AND MUL OR SWAP1 SSTORE POP CALLER DUP2 PUSH1 0x5 ADD PUSH0 PUSH2 0x100 EXP DUP2 SLOAD DUP2 PUSH20 0xFFFFFFFFFFFFFFFFFFFFFFFFFFFFFFFFFFFFFFFF MUL NOT AND SWAP1 DUP4 PUSH20 0xFFFFFFFFFFFFFFFFFFFFFFFFFFFFFFFFFFFFFFFF AND MUL OR SWAP1 SSTORE POP DUP5 DUP2 PUSH1 0x2 ADD PUSH1 0x1 PUSH2 0x100 EXP DUP2 SLOAD DUP2 PUSH1 0xFF MUL NOT AND SWAP1 DUP4 PUSH1 0x1 DUP2 GT ISZERO PUSH2 0x4FD JUMPI PUSH2 0x4FC PUSH2 0x2698 JUMP JUMPDEST JUMPDEST MUL OR SWAP1 SSTORE POP DUP7 MLOAD DUP2 PUSH1 0x2 ADD PUSH1 0x2 PUSH2 0x100 EXP DUP2 SLOAD DUP2 PUSH4 0xFFFFFFFF MUL NOT AND SWAP1 DUP4 PUSH4 0xFFFFFFFF AND MUL OR SWAP1 SSTORE POP DUP4 DUP2 PUSH1 0x3 ADD DUP2 SWAP1 SSTORE POP PUSH0 JUMPDEST DUP8 MLOAD DUP2 LT ISZERO PUSH2 0x5C2 JUMPI PUSH1 0x5 PUSH0 DUP10 DUP4 DUP2 MLOAD DUP2 LT PUSH2 0x550 JUMPI PUSH2 0x54F PUSH2 0x2F97 JUMP JUMPDEST JUMPDEST PUSH1 0x20 MUL PUSH1 0x20 ADD ADD MLOAD PUSH20 0xFFFFFFFFFFFFFFFFFFFFFFFFFFFFFFFFFFFFFFFF AND PUSH20 0xFFFFFFFFFFFFFFFFFFFFFFFFFFFFFFFFFFFFFFFF AND DUP2 MSTORE PUSH1 0x20 ADD SWAP1 DUP2 MSTORE PUSH1 0x20 ADD PUSH0 KECCAK256 DUP4 SWAP1 DUP1 PUSH1 0x1 DUP2 SLOAD ADD DUP1 DUP3 SSTORE DUP1 SWAP2 POP POP PUSH1 0x1 SWAP1 SUB SWAP1 PUSH0 MSTORE PUSH1 0x20 PUSH0 KECCAK256 ADD PUSH0 SWAP1 SWAP2 SWAP1 SWAP2 SWAP1 SWAP2 POP SSTORE DUP1 DUP1 PUSH1 0x1 ADD SWAP2 POP POP PUSH2 0x531 JUMP JUMPDEST POP PUSH1 0x4 DUP7 PUSH1 0x40 MLOAD PUSH2 0x5D3 SWAP2 SWAP1 PUSH2 0x2FFE JUMP JUMPDEST SWAP1 DUP2 MSTORE PUSH1 0x20 ADD PUSH1 0x40 MLOAD DUP1 SWAP2 SUB SWAP1 KECCAK256 DUP3 SWAP1 DUP1 PUSH1 0x1 DUP2 SLOAD ADD DUP1 DUP3 SSTORE DUP1 SWAP2 POP POP PUSH1 0x1 SWAP1 SUB SWAP1 PUSH0 MSTORE PUSH1 0x20 PUSH0 KECCAK256 ADD PUSH0 SWAP1 SWAP2 SWAP1 SWAP2 SWAP1 SWAP2 POP SSTORE PUSH32 0xCADD79C29AAD986976DAB64DDBBA56DB81C411ADA9ED7B182DBA65753D693DD8 DUP11 DUP4 PUSH1 0x40 MLOAD PUSH2 0x636 SWAP3 SWAP2 SWAP1 PUSH2 0x304C JUMP JUMPDEST PUSH1 0x40 MLOAD DUP1 SWAP2 SUB SWAP1 LOG1 DUP2 SWAP3 POP POP POP SWAP8 SWAP7 POP POP POP POP POP POP POP JUMP JUMPDEST PUSH0 PUSH1 0x3 PUSH0 DUP5 DUP2 MSTORE PUSH1 0x20 ADD SWAP1 DUP2 MSTORE PUSH1 0x20 ADD PUSH0 KECCAK256 PUSH1 0x40 MLOAD DUP1 PUSH2 0x160 ADD PUSH1 0x40 MSTORE SWAP1 DUP2 PUSH0 DUP3 ADD DUP1 SLOAD PUSH2 0x67B SWAP1 PUSH2 0x2CFB JUMP JUMPDEST DUP1 PUSH1 0x1F ADD PUSH1 0x20 DUP1 SWAP2 DIV MUL PUSH1 0x20 ADD PUSH1 0x40 MLOAD SWAP1 DUP2 ADD PUSH1 0x40 MSTORE DUP1 SWAP3 SWAP2 SWAP1 DUP2 DUP2 MSTORE PUSH1 0x20 ADD DUP3 DUP1 SLOAD PUSH2 0x6A7 SWAP1 PUSH2 0x2CFB JUMP JUMPDEST DUP1 ISZERO PUSH2 0x6F2 JUMPI DUP1 PUSH1 0x1F LT PUSH2 0x6C9 JUMPI PUSH2 0x100 DUP1 DUP4 SLOAD DIV MUL DUP4 MSTORE SWAP2 PUSH1 0x20 ADD SWAP2 PUSH2 0x6F2 JUMP JUMPDEST DUP3 ADD SWAP2 SWAP1 PUSH0 MSTORE PUSH1 0x20 PUSH0 KECCAK256 SWAP1 JUMPDEST DUP2 SLOAD DUP2 MSTORE SWAP1 PUSH1 0x1 ADD SWAP1 PUSH1 0x20 ADD DUP1 DUP4 GT PUSH2 0x6D5 JUMPI DUP3 SWAP1 SUB PUSH1 0x1F AND DUP3 ADD SWAP2 JUMPDEST POP POP POP POP POP DUP2 MSTORE PUSH1 0x20 ADD PUSH1 0x1 DUP3 ADD DUP1 SLOAD PUSH2 0x70B SWAP1 PUSH2 0x2CFB JUMP JUMPDEST DUP1 PUSH1 0x1F ADD PUSH1 0x20 DUP1 SWAP2 DIV MUL PUSH1 0x20 ADD PUSH1 0x40 MLOAD SWAP1 DUP2 ADD PUSH1 0x40 MSTORE DUP1 SWAP3 SWAP2 SWAP1 DUP2 DUP2 MSTORE PUSH1 0x20 ADD DUP3 DUP1 SLOAD PUSH2 0x737 SWAP1 PUSH2 0x2CFB JUMP JUMPDEST DUP1 ISZERO PUSH2 0x782 JUMPI DUP1 PUSH1 0x1F LT PUSH2 0x759 JUMPI PUSH2 0x100 DUP1 DUP4 SLOAD DIV MUL DUP4 MSTORE SWAP2 PUSH1 0x20 ADD SWAP2 PUSH2 0x782 JUMP JUMPDEST DUP3 ADD SWAP2 SWAP1 PUSH0 MSTORE PUSH1 0x20 PUSH0 KECCAK256 SWAP1 JUMPDEST DUP2 SLOAD DUP2 MSTORE SWAP1 PUSH1 0x1 ADD SWAP1 PUSH1 0x20 ADD DUP1 DUP4 GT PUSH2 0x765 JUMPI DUP3 SWAP1 SUB PUSH1 0x1F AND DUP3 ADD SWAP2 JUMPDEST POP POP POP POP POP DUP2 MSTORE PUSH1 0x20 ADD PUSH1 0x2 DUP3 ADD PUSH0 SWAP1 SLOAD SWAP1 PUSH2 0x100 EXP SWAP1 DIV PUSH1 0xFF AND PUSH1 0x3 DUP2 GT ISZERO PUSH2 0x7AF JUMPI PUSH2 0x7AE PUSH2 0x2698 JUMP JUMPDEST JUMPDEST PUSH1 0x3 DUP2 GT ISZERO PUSH2 0x7C1 JUMPI PUSH2 0x7C0 PUSH2 0x2698 JUMP JUMPDEST JUMPDEST DUP2 MSTORE PUSH1 0x20 ADD PUSH1 0x2 DUP3 ADD PUSH1 0x1 SWAP1 SLOAD SWAP1 PUSH2 0x100 EXP SWAP1 DIV PUSH1 0xFF AND PUSH1 0x1 DUP2 GT ISZERO PUSH2 0x7EA JUMPI PUSH2 0x7E9 PUSH2 0x2698 JUMP JUMPDEST JUMPDEST PUSH1 0x1 DUP2 GT ISZERO PUSH2 0x7FC JUMPI PUSH2 0x7FB PUSH2 0x2698 JUMP JUMPDEST JUMPDEST DUP2 MSTORE PUSH1 0x20 ADD PUSH1 0x2 DUP3 ADD PUSH1 0x2 SWAP1 SLOAD SWAP1 PUSH2 0x100 EXP SWAP1 DIV PUSH4 0xFFFFFFFF AND PUSH4 0xFFFFFFFF AND PUSH4 0xFFFFFFFF AND DUP2 MSTORE PUSH1 0x20 ADD PUSH1 0x2 DUP3 ADD PUSH1 0x6 SWAP1 SLOAD SWAP1 PUSH2 0x100 EXP SWAP1 DIV PUSH4 0xFFFFFFFF AND PUSH4 0xFFFFFFFF AND PUSH4 0xFFFFFFFF AND DUP2 MSTORE PUSH1 0x20 ADD PUSH1 0x2 DUP3 ADD PUSH1 0xA SWAP1 SLOAD SWAP1 PUSH2 0x100 EXP SWAP1 DIV PUSH4 0xFFFFFFFF AND PUSH4 0xFFFFFFFF AND PUSH4 0xFFFFFFFF AND DUP2 MSTORE PUSH1 0x20 ADD PUSH1 0x3 DUP3 ADD SLOAD DUP2 MSTORE PUSH1 0x20 ADD PUSH1 0x4 DUP3 ADD PUSH0 SWAP1 SLOAD SWAP1 PUSH2 0x100 EXP SWAP1 DIV PUSH20 0xFFFFFFFFFFFFFFFFFFFFFFFFFFFFFFFFFFFFFFFF AND PUSH20 0xFFFFFFFFFFFFFFFFFFFFFFFFFFFFFFFFFFFFFFFF AND PUSH20 0xFFFFFFFFFFFFFFFFFFFFFFFFFFFFFFFFFFFFFFFF AND DUP2 MSTORE PUSH1 0x20 ADD PUSH1 0x5 DUP3 ADD PUSH0 SWAP1 SLOAD SWAP1 PUSH2 0x100 EXP SWAP1 DIV PUSH20 0xFFFFFFFFFFFFFFFFFFFFFFFFFFFFFFFFFFFFFFFF AND PUSH20 0xFFFFFFFFFFFFFFFFFFFFFFFFFFFFFFFFFFFFFFFF AND PUSH20 0xFFFFFFFFFFFFFFFFFFFFFFFFFFFFFFFFFFFFFFFF AND DUP2 MSTORE PUSH1 0x20 ADD PUSH1 0x5 DUP3 ADD PUSH1 0x14 SWAP1 SLOAD SWAP1 PUSH2 0x100 EXP SWAP1 DIV PUSH1 0xFF AND ISZERO ISZERO ISZERO ISZERO DUP2 MSTORE POP POP SWAP1 POP PUSH1 0x1 PUSH1 0x3 DUP2 GT ISZERO PUSH2 0x957 JUMPI PUSH2 0x956 PUSH2 0x2698 JUMP JUMPDEST JUMPDEST DUP2 PUSH1 0x40 ADD MLOAD PUSH1 0x3 DUP2 GT ISZERO PUSH2 0x96E JUMPI PUSH2 0x96D PUSH2 0x2698 JUMP JUMPDEST JUMPDEST EQ PUSH2 0x9AE JUMPI PUSH1 0x40 MLOAD PUSH32 0x8C379A000000000000000000000000000000000000000000000000000000000 DUP2 MSTORE PUSH1 0x4 ADD PUSH2 0x9A5 SWAP1 PUSH2 0x30EA JUMP JUMPDEST PUSH1 0x40 MLOAD DUP1 SWAP2 SUB SWAP1 REVERT JUMPDEST PUSH0 PUSH1 0x1 DUP2 GT ISZERO PUSH2 0x9C1 JUMPI PUSH2 0x9C0 PUSH2 0x2698 JUMP JUMPDEST JUMPDEST DUP3 PUSH1 0x1 DUP2 GT ISZERO PUSH2 0x9D4 JUMPI PUSH2 0x9D3 PUSH2 0x2698 JUMP JUMPDEST JUMPDEST SUB PUSH2 0xA00 JUMPI DUP1 PUSH1 0xA0 ADD DUP1 MLOAD DUP1 SWAP2 SWAP1 PUSH2 0x9EB SWAP1 PUSH2 0x3108 JUMP JUMPDEST PUSH4 0xFFFFFFFF AND PUSH4 0xFFFFFFFF AND DUP2 MSTORE POP POP PUSH2 0xA4F JUMP JUMPDEST PUSH1 0x1 DUP1 DUP2 GT ISZERO PUSH2 0xA13 JUMPI PUSH2 0xA12 PUSH2 0x2698 JUMP JUMPDEST JUMPDEST DUP3 PUSH1 0x1 DUP2 GT ISZERO PUSH2 0xA26 JUMPI PUSH2 0xA25 PUSH2 0x2698 JUMP JUMPDEST JUMPDEST SUB PUSH2 0xA4E JUMPI DUP1 PUSH1 0xC0 ADD DUP1 MLOAD DUP1 SWAP2 SWAP1 PUSH2 0xA3D SWAP1 PUSH2 0x3108 JUMP JUMPDEST PUSH4 0xFFFFFFFF AND PUSH4 0xFFFFFFFF AND DUP2 MSTORE POP POP JUMPDEST JUMPDEST PUSH2 0xA59 DUP2 DUP5 PUSH2 0x1DD7 JUMP JUMPDEST POP POP POP JUMP JUMPDEST PUSH0 PUSH2 0xA67 PUSH2 0x1EF3 JUMP JUMPDEST PUSH1 0x2 SLOAD SWAP1 POP SWAP1 JUMP JUMPDEST PUSH1 0x60 PUSH0 PUSH1 0x4 DUP4 PUSH1 0x40 MLOAD PUSH2 0xA82 SWAP2 SWAP1 PUSH2 0x2FFE JUMP JUMPDEST SWAP1 DUP2 MSTORE PUSH1 0x20 ADD PUSH1 0x40 MLOAD DUP1 SWAP2 SUB SWAP1 KECCAK256 DUP1 SLOAD DUP1 PUSH1 0x20 MUL PUSH1 0x20 ADD PUSH1 0x40 MLOAD SWAP1 DUP2 ADD PUSH1 0x40 MSTORE DUP1 SWAP3 SWAP2 SWAP1 DUP2 DUP2 MSTORE PUSH1 0x20 ADD DUP3 DUP1 SLOAD DUP1 ISZERO PUSH2 0xAD8 JUMPI PUSH1 0x20 MUL DUP3 ADD SWAP2 SWAP1 PUSH0 MSTORE PUSH1 0x20 PUSH0 KECCAK256 SWAP1 JUMPDEST DUP2 SLOAD DUP2 MSTORE PUSH1 0x20 ADD SWAP1 PUSH1 0x1 ADD SWAP1 DUP1 DUP4 GT PUSH2 0xAC4 JUMPI JUMPDEST POP POP POP POP POP SWAP1 POP PUSH0 DUP2 MLOAD PUSH8 0xFFFFFFFFFFFFFFFF DUP2 GT ISZERO PUSH2 0xAFB JUMPI PUSH2 0xAFA PUSH2 0x21B1 JUMP JUMPDEST JUMPDEST PUSH1 0x40 MLOAD SWAP1 DUP1 DUP3 MSTORE DUP1 PUSH1 0x20 MUL PUSH1 0x20 ADD DUP3 ADD PUSH1 0x40 MSTORE DUP1 ISZERO PUSH2 0xB34 JUMPI DUP2 PUSH1 0x20 ADD JUMPDEST PUSH2 0xB21 PUSH2 0x2042 JUMP JUMPDEST DUP2 MSTORE PUSH1 0x20 ADD SWAP1 PUSH1 0x1 SWAP1 SUB SWAP1 DUP2 PUSH2 0xB19 JUMPI SWAP1 POP JUMPDEST POP SWAP1 POP PUSH0 JUMPDEST DUP3 MLOAD DUP2 LT ISZERO PUSH2 0xE79 JUMPI PUSH1 0x3 PUSH0 DUP5 DUP4 DUP2 MLOAD DUP2 LT PUSH2 0xB58 JUMPI PUSH2 0xB57 PUSH2 0x2F97 JUMP JUMPDEST JUMPDEST PUSH1 0x20 MUL PUSH1 0x20 ADD ADD MLOAD DUP2 MSTORE PUSH1 0x20 ADD SWAP1 DUP2 MSTORE PUSH1 0x20 ADD PUSH0 KECCAK256 PUSH1 0x40 MLOAD DUP1 PUSH2 0x160 ADD PUSH1 0x40 MSTORE SWAP1 DUP2 PUSH0 DUP3 ADD DUP1 SLOAD PUSH2 0xB88 SWAP1 PUSH2 0x2CFB JUMP JUMPDEST DUP1 PUSH1 0x1F ADD PUSH1 0x20 DUP1 SWAP2 DIV MUL PUSH1 0x20 ADD PUSH1 0x40 MLOAD SWAP1 DUP2 ADD PUSH1 0x40 MSTORE DUP1 SWAP3 SWAP2 SWAP1 DUP2 DUP2 MSTORE PUSH1 0x20 ADD DUP3 DUP1 SLOAD PUSH2 0xBB4 SWAP1 PUSH2 0x2CFB JUMP JUMPDEST DUP1 ISZERO PUSH2 0xBFF JUMPI DUP1 PUSH1 0x1F LT PUSH2 0xBD6 JUMPI PUSH2 0x100 DUP1 DUP4 SLOAD DIV MUL DUP4 MSTORE SWAP2 PUSH1 0x20 ADD SWAP2 PUSH2 0xBFF JUMP JUMPDEST DUP3 ADD SWAP2 SWAP1 PUSH0 MSTORE PUSH1 0x20 PUSH0 KECCAK256 SWAP1 JUMPDEST DUP2 SLOAD DUP2 MSTORE SWAP1 PUSH1 0x1 ADD SWAP1 PUSH1 0x20 ADD DUP1 DUP4 GT PUSH2 0xBE2 JUMPI DUP3 SWAP1 SUB PUSH1 0x1F AND DUP3 ADD SWAP2 JUMPDEST POP POP POP POP POP DUP2 MSTORE PUSH1 0x20 ADD PUSH1 0x1 DUP3 ADD DUP1 SLOAD PUSH2 0xC18 SWAP1 PUSH2 0x2CFB JUMP JUMPDEST DUP1 PUSH1 0x1F ADD PUSH1 0x20 DUP1 SWAP2 DIV MUL PUSH1 0x20 ADD PUSH1 0x40 MLOAD SWAP1 DUP2 ADD PUSH1 0x40 MSTORE DUP1 SWAP3 SWAP2 SWAP1 DUP2 DUP2 MSTORE PUSH1 0x20 ADD DUP3 DUP1 SLOAD PUSH2 0xC44 SWAP1 PUSH2 0x2CFB JUMP JUMPDEST DUP1 ISZERO PUSH2 0xC8F JUMPI DUP1 PUSH1 0x1F LT PUSH2 0xC66 JUMPI PUSH2 0x100 DUP1 DUP4 SLOAD DIV MUL DUP4 MSTORE SWAP2 PUSH1 0x20 ADD SWAP2 PUSH2 0xC8F JUMP JUMPDEST DUP3 ADD SWAP2 SWAP1 PUSH0 MSTORE PUSH1 0x20 PUSH0 KECCAK256 SWAP1 JUMPDEST DUP2 SLOAD DUP2 MSTORE SWAP1 PUSH1 0x1 ADD SWAP1 PUSH1 0x20 ADD DUP1 DUP4 GT PUSH2 0xC72 JUMPI DUP3 SWAP1 SUB PUSH1 0x1F AND DUP3 ADD SWAP2 JUMPDEST POP POP POP POP POP DUP2 MSTORE PUSH1 0x20 ADD PUSH1 0x2 DUP3 ADD PUSH0 SWAP1 SLOAD SWAP1 PUSH2 0x100 EXP SWAP1 DIV PUSH1 0xFF AND PUSH1 0x3 DUP2 GT ISZERO PUSH2 0xCBC JUMPI PUSH2 0xCBB PUSH2 0x2698 JUMP JUMPDEST JUMPDEST PUSH1 0x3 DUP2 GT ISZERO PUSH2 0xCCE JUMPI PUSH2 0xCCD PUSH2 0x2698 JUMP JUMPDEST JUMPDEST DUP2 MSTORE PUSH1 0x20 ADD PUSH1 0x2 DUP3 ADD PUSH1 0x1 SWAP1 SLOAD SWAP1 PUSH2 0x100 EXP SWAP1 DIV PUSH1 0xFF AND PUSH1 0x1 DUP2 GT ISZERO PUSH2 0xCF7 JUMPI PUSH2 0xCF6 PUSH2 0x2698 JUMP JUMPDEST JUMPDEST PUSH1 0x1 DUP2 GT ISZERO PUSH2 0xD09 JUMPI PUSH2 0xD08 PUSH2 0x2698 JUMP JUMPDEST JUMPDEST DUP2 MSTORE PUSH1 0x20 ADD PUSH1 0x2 DUP3 ADD PUSH1 0x2 SWAP1 SLOAD SWAP1 PUSH2 0x100 EXP SWAP1 DIV PUSH4 0xFFFFFFFF AND PUSH4 0xFFFFFFFF AND PUSH4 0xFFFFFFFF AND DUP2 MSTORE PUSH1 0x20 ADD PUSH1 0x2 DUP3 ADD PUSH1 0x6 SWAP1 SLOAD SWAP1 PUSH2 0x100 EXP SWAP1 DIV PUSH4 0xFFFFFFFF AND PUSH4 0xFFFFFFFF AND PUSH4 0xFFFFFFFF AND DUP2 MSTORE PUSH1 0x20 ADD PUSH1 0x2 DUP3 ADD PUSH1 0xA SWAP1 SLOAD SWAP1 PUSH2 0x100 EXP SWAP1 DIV PUSH4 0xFFFFFFFF AND PUSH4 0xFFFFFFFF AND PUSH4 0xFFFFFFFF AND DUP2 MSTORE PUSH1 0x20 ADD PUSH1 0x3 DUP3 ADD SLOAD DUP2 MSTORE PUSH1 0x20 ADD PUSH1 0x4 DUP3 ADD PUSH0 SWAP1 SLOAD SWAP1 PUSH2 0x100 EXP SWAP1 DIV PUSH20 0xFFFFFFFFFFFFFFFFFFFFFFFFFFFFFFFFFFFFFFFF AND PUSH20 0xFFFFFFFFFFFFFFFFFFFFFFFFFFFFFFFFFFFFFFFF AND PUSH20 0xFFFFFFFFFFFFFFFFFFFFFFFFFFFFFFFFFFFFFFFF AND DUP2 MSTORE PUSH1 0x20 ADD PUSH1 0x5 DUP3 ADD PUSH0 SWAP1 SLOAD SWAP1 PUSH2 0x100 EXP SWAP1 DIV PUSH20 0xFFFFFFFFFFFFFFFFFFFFFFFFFFFFFFFFFFFFFFFF AND PUSH20 0xFFFFFFFFFFFFFFFFFFFFFFFFFFFFFFFFFFFFFFFF AND PUSH20 0xFFFFFFFFFFFFFFFFFFFFFFFFFFFFFFFFFFFFFFFF AND DUP2 MSTORE PUSH1 0x20 ADD PUSH1 0x5 DUP3 ADD PUSH1 0x14 SWAP1 SLOAD SWAP1 PUSH2 0x100 EXP SWAP1 DIV PUSH1 0xFF AND ISZERO ISZERO ISZERO ISZERO DUP2 MSTORE POP POP DUP3 DUP3 DUP2 MLOAD DUP2 LT PUSH2 0xE61 JUMPI PUSH2 0xE60 PUSH2 0x2F97 JUMP JUMPDEST JUMPDEST PUSH1 0x20 MUL PUSH1 0x20 ADD ADD DUP2 SWAP1 MSTORE POP DUP1 DUP1 PUSH1 0x1 ADD SWAP2 POP POP PUSH2 0xB39 JUMP JUMPDEST POP DUP1 SWAP3 POP POP POP SWAP2 SWAP1 POP JUMP JUMPDEST PUSH1 0x60 PUSH0 PUSH1 0x5 PUSH0 CALLER PUSH20 0xFFFFFFFFFFFFFFFFFFFFFFFFFFFFFFFFFFFFFFFF AND PUSH20 0xFFFFFFFFFFFFFFFFFFFFFFFFFFFFFFFFFFFFFFFF AND DUP2 MSTORE PUSH1 0x20 ADD SWAP1 DUP2 MSTORE PUSH1 0x20 ADD PUSH0 KECCAK256 DUP1 SLOAD DUP1 PUSH1 0x20 MUL PUSH1 0x20 ADD PUSH1 0x40 MLOAD SWAP1 DUP2 ADD PUSH1 0x40 MSTORE DUP1 SWAP3 SWAP2 SWAP1 DUP2 DUP2 MSTORE PUSH1 0x20 ADD DUP3 DUP1 SLOAD DUP1 ISZERO PUSH2 0xF0C JUMPI PUSH1 0x20 MUL DUP3 ADD SWAP2 SWAP1 PUSH0 MSTORE PUSH1 0x20 PUSH0 KECCAK256 SWAP1 JUMPDEST DUP2 SLOAD DUP2 MSTORE PUSH1 0x20 ADD SWAP1 PUSH1 0x1 ADD SWAP1 DUP1 DUP4 GT PUSH2 0xEF8 JUMPI JUMPDEST POP POP POP POP POP SWAP1 POP PUSH0 DUP2 MLOAD PUSH8 0xFFFFFFFFFFFFFFFF DUP2 GT ISZERO PUSH2 0xF2F JUMPI PUSH2 0xF2E PUSH2 0x21B1 JUMP JUMPDEST JUMPDEST PUSH1 0x40 MLOAD SWAP1 DUP1 DUP3 MSTORE DUP1 PUSH1 0x20 MUL PUSH1 0x20 ADD DUP3 ADD PUSH1 0x40 MSTORE DUP1 ISZERO PUSH2 0xF68 JUMPI DUP2 PUSH1 0x20 ADD JUMPDEST PUSH2 0xF55 PUSH2 0x2042 JUMP JUMPDEST DUP2 MSTORE PUSH1 0x20 ADD SWAP1 PUSH1 0x1 SWAP1 SUB SWAP1 DUP2 PUSH2 0xF4D JUMPI SWAP1 POP JUMPDEST POP SWAP1 POP PUSH0 JUMPDEST DUP3 MLOAD DUP2 LT ISZERO PUSH2 0x12AD JUMPI PUSH1 0x3 PUSH0 DUP5 DUP4 DUP2 MLOAD DUP2 LT PUSH2 0xF8C JUMPI PUSH2 0xF8B PUSH2 0x2F97 JUMP JUMPDEST JUMPDEST PUSH1 0x20 MUL PUSH1 0x20 ADD ADD MLOAD DUP2 MSTORE PUSH1 0x20 ADD SWAP1 DUP2 MSTORE PUSH1 0x20 ADD PUSH0 KECCAK256 PUSH1 0x40 MLOAD DUP1 PUSH2 0x160 ADD PUSH1 0x40 MSTORE SWAP1 DUP2 PUSH0 DUP3 ADD DUP1 SLOAD PUSH2 0xFBC SWAP1 PUSH2 0x2CFB JUMP JUMPDEST DUP1 PUSH1 0x1F ADD PUSH1 0x20 DUP1 SWAP2 DIV MUL PUSH1 0x20 ADD PUSH1 0x40 MLOAD SWAP1 DUP2 ADD PUSH1 0x40 MSTORE DUP1 SWAP3 SWAP2 SWAP1 DUP2 DUP2 MSTORE PUSH1 0x20 ADD DUP3 DUP1 SLOAD PUSH2 0xFE8 SWAP1 PUSH2 0x2CFB JUMP JUMPDEST DUP1 ISZERO PUSH2 0x1033 JUMPI DUP1 PUSH1 0x1F LT PUSH2 0x100A JUMPI PUSH2 0x100 DUP1 DUP4 SLOAD DIV MUL DUP4 MSTORE SWAP2 PUSH1 0x20 ADD SWAP2 PUSH2 0x1033 JUMP JUMPDEST DUP3 ADD SWAP2 SWAP1 PUSH0 MSTORE PUSH1 0x20 PUSH0 KECCAK256 SWAP1 JUMPDEST DUP2 SLOAD DUP2 MSTORE SWAP1 PUSH1 0x1 ADD SWAP1 PUSH1 0x20 ADD DUP1 DUP4 GT PUSH2 0x1016 JUMPI DUP3 SWAP1 SUB PUSH1 0x1F AND DUP3 ADD SWAP2 JUMPDEST POP POP POP POP POP DUP2 MSTORE PUSH1 0x20 ADD PUSH1 0x1 DUP3 ADD DUP1 SLOAD PUSH2 0x104C SWAP1 PUSH2 0x2CFB JUMP JUMPDEST DUP1 PUSH1 0x1F ADD PUSH1 0x20 DUP1 SWAP2 DIV MUL PUSH1 0x20 ADD PUSH1 0x40 MLOAD SWAP1 DUP2 ADD PUSH1 0x40 MSTORE DUP1 SWAP3 SWAP2 SWAP1 DUP2 DUP2 MSTORE PUSH1 0x20 ADD DUP3 DUP1 SLOAD PUSH2 0x1078 SWAP1 PUSH2 0x2CFB JUMP JUMPDEST DUP1 ISZERO PUSH2 0x10C3 JUMPI DUP1 PUSH1 0x1F LT PUSH2 0x109A JUMPI PUSH2 0x100 DUP1 DUP4 SLOAD DIV MUL DUP4 MSTORE SWAP2 PUSH1 0x20 ADD SWAP2 PUSH2 0x10C3 JUMP JUMPDEST DUP3 ADD SWAP2 SWAP1 PUSH0 MSTORE PUSH1 0x20 PUSH0 KECCAK256 SWAP1 JUMPDEST DUP2 SLOAD DUP2 MSTORE SWAP1 PUSH1 0x1 ADD SWAP1 PUSH1 0x20 ADD DUP1 DUP4 GT PUSH2 0x10A6 JUMPI DUP3 SWAP1 SUB PUSH1 0x1F AND DUP3 ADD SWAP2 JUMPDEST POP POP POP POP POP DUP2 MSTORE PUSH1 0x20 ADD PUSH1 0x2 DUP3 ADD PUSH0 SWAP1 SLOAD SWAP1 PUSH2 0x100 EXP SWAP1 DIV PUSH1 0xFF AND PUSH1 0x3 DUP2 GT ISZERO PUSH2 0x10F0 JUMPI PUSH2 0x10EF PUSH2 0x2698 JUMP JUMPDEST JUMPDEST PUSH1 0x3 DUP2 GT ISZERO PUSH2 0x1102 JUMPI PUSH2 0x1101 PUSH2 0x2698 JUMP JUMPDEST JUMPDEST DUP2 MSTORE PUSH1 0x20 ADD PUSH1 0x2 DUP3 ADD PUSH1 0x1 SWAP1 SLOAD SWAP1 PUSH2 0x100 EXP SWAP1 DIV PUSH1 0xFF AND PUSH1 0x1 DUP2 GT ISZERO PUSH2 0x112B JUMPI PUSH2 0x112A PUSH2 0x2698 JUMP JUMPDEST JUMPDEST PUSH1 0x1 DUP2 GT ISZERO PUSH2 0x113D JUMPI PUSH2 0x113C PUSH2 0x2698 JUMP JUMPDEST JUMPDEST DUP2 MSTORE PUSH1 0x20 ADD PUSH1 0x2 DUP3 ADD PUSH1 0x2 SWAP1 SLOAD SWAP1 PUSH2 0x100 EXP SWAP1 DIV PUSH4 0xFFFFFFFF AND PUSH4 0xFFFFFFFF AND PUSH4 0xFFFFFFFF AND DUP2 MSTORE PUSH1 0x20 ADD PUSH1 0x2 DUP3 ADD PUSH1 0x6 SWAP1 SLOAD SWAP1 PUSH2 0x100 EXP SWAP1 DIV PUSH4 0xFFFFFFFF AND PUSH4 0xFFFFFFFF AND PUSH4 0xFFFFFFFF AND DUP2 MSTORE PUSH1 0x20 ADD PUSH1 0x2 DUP3 ADD PUSH1 0xA SWAP1 SLOAD SWAP1 PUSH2 0x100 EXP SWAP1 DIV PUSH4 0xFFFFFFFF AND PUSH4 0xFFFFFFFF AND PUSH4 0xFFFFFFFF AND DUP2 MSTORE PUSH1 0x20 ADD PUSH1 0x3 DUP3 ADD SLOAD DUP2 MSTORE PUSH1 0x20 ADD PUSH1 0x4 DUP3 ADD PUSH0 SWAP1 SLOAD SWAP1 PUSH2 0x100 EXP SWAP1 DIV PUSH20 0xFFFFFFFFFFFFFFFFFFFFFFFFFFFFFFFFFFFFFFFF AND PUSH20 0xFFFFFFFFFFFFFFFFFFFFFFFFFFFFFFFFFFFFFFFF AND PUSH20 0xFFFFFFFFFFFFFFFFFFFFFFFFFFFFFFFFFFFFFFFF AND DUP2 MSTORE PUSH1 0x20 ADD PUSH1 0x5 DUP3 ADD PUSH0 SWAP1 SLOAD SWAP1 PUSH2 0x100 EXP SWAP1 DIV PUSH20 0xFFFFFFFFFFFFFFFFFFFFFFFFFFFFFFFFFFFFFFFF AND PUSH20 0xFFFFFFFFFFFFFFFFFFFFFFFFFFFFFFFFFFFFFFFF AND PUSH20 0xFFFFFFFFFFFFFFFFFFFFFFFFFFFFFFFFFFFFFFFF AND DUP2 MSTORE PUSH1 0x20 ADD PUSH1 0x5 DUP3 ADD PUSH1 0x14 SWAP1 SLOAD SWAP1 PUSH2 0x100 EXP SWAP1 DIV PUSH1 0xFF AND ISZERO ISZERO ISZERO ISZERO DUP2 MSTORE POP POP DUP3 DUP3 DUP2 MLOAD DUP2 LT PUSH2 0x1295 JUMPI PUSH2 0x1294 PUSH2 0x2F97 JUMP JUMPDEST JUMPDEST PUSH1 0x20 MUL PUSH1 0x20 ADD ADD DUP2 SWAP1 MSTORE POP DUP1 DUP1 PUSH1 0x1 ADD SWAP2 POP POP PUSH2 0xF6D JUMP JUMPDEST POP DUP1 SWAP3 POP POP POP SWAP1 JUMP JUMPDEST PUSH2 0x12BE PUSH2 0x2042 JUMP JUMPDEST PUSH1 0x3 PUSH0 DUP4 DUP2 MSTORE PUSH1 0x20 ADD SWAP1 DUP2 MSTORE PUSH1 0x20 ADD PUSH0 KECCAK256 PUSH1 0x40 MLOAD DUP1 PUSH2 0x160 ADD PUSH1 0x40 MSTORE SWAP1 DUP2 PUSH0 DUP3 ADD DUP1 SLOAD PUSH2 0x12EA SWAP1 PUSH2 0x2CFB JUMP JUMPDEST DUP1 PUSH1 0x1F ADD PUSH1 0x20 DUP1 SWAP2 DIV MUL PUSH1 0x20 ADD PUSH1 0x40 MLOAD SWAP1 DUP2 ADD PUSH1 0x40 MSTORE DUP1 SWAP3 SWAP2 SWAP1 DUP2 DUP2 MSTORE PUSH1 0x20 ADD DUP3 DUP1 SLOAD PUSH2 0x1316 SWAP1 PUSH2 0x2CFB JUMP JUMPDEST DUP1 ISZERO PUSH2 0x1361 JUMPI DUP1 PUSH1 0x1F LT PUSH2 0x1338 JUMPI PUSH2 0x100 DUP1 DUP4 SLOAD DIV MUL DUP4 MSTORE SWAP2 PUSH1 0x20 ADD SWAP2 PUSH2 0x1361 JUMP JUMPDEST DUP3 ADD SWAP2 SWAP1 PUSH0 MSTORE PUSH1 0x20 PUSH0 KECCAK256 SWAP1 JUMPDEST DUP2 SLOAD DUP2 MSTORE SWAP1 PUSH1 0x1 ADD SWAP1 PUSH1 0x20 ADD DUP1 DUP4 GT PUSH2 0x1344 JUMPI DUP3 SWAP1 SUB PUSH1 0x1F AND DUP3 ADD SWAP2 JUMPDEST POP POP POP POP POP DUP2 MSTORE PUSH1 0x20 ADD PUSH1 0x1 DUP3 ADD DUP1 SLOAD PUSH2 0x137A SWAP1 PUSH2 0x2CFB JUMP JUMPDEST DUP1 PUSH1 0x1F ADD PUSH1 0x20 DUP1 SWAP2 DIV MUL PUSH1 0x20 ADD PUSH1 0x40 MLOAD SWAP1 DUP2 ADD PUSH1 0x40 MSTORE DUP1 SWAP3 SWAP2 SWAP1 DUP2 DUP2 MSTORE PUSH1 0x20 ADD DUP3 DUP1 SLOAD PUSH2 0x13A6 SWAP1 PUSH2 0x2CFB JUMP JUMPDEST DUP1 ISZERO PUSH2 0x13F1 JUMPI DUP1 PUSH1 0x1F LT PUSH2 0x13C8 JUMPI PUSH2 0x100 DUP1 DUP4 SLOAD DIV MUL DUP4 MSTORE SWAP2 PUSH1 0x20 ADD SWAP2 PUSH2 0x13F1 JUMP JUMPDEST DUP3 ADD SWAP2 SWAP1 PUSH0 MSTORE PUSH1 0x20 PUSH0 KECCAK256 SWAP1 JUMPDEST DUP2 SLOAD DUP2 MSTORE SWAP1 PUSH1 0x1 ADD SWAP1 PUSH1 0x20 ADD DUP1 DUP4 GT PUSH2 0x13D4 JUMPI DUP3 SWAP1 SUB PUSH1 0x1F AND DUP3 ADD SWAP2 JUMPDEST POP POP POP POP POP DUP2 MSTORE PUSH1 0x20 ADD PUSH1 0x2 DUP3 ADD PUSH0 SWAP1 SLOAD SWAP1 PUSH2 0x100 EXP SWAP1 DIV PUSH1 0xFF AND PUSH1 0x3 DUP2 GT ISZERO PUSH2 0x141E JUMPI PUSH2 0x141D PUSH2 0x2698 JUMP JUMPDEST JUMPDEST PUSH1 0x3 DUP2 GT ISZERO PUSH2 0x1430 JUMPI PUSH2 0x142F PUSH2 0x2698 JUMP JUMPDEST JUMPDEST DUP2 MSTORE PUSH1 0x20 ADD PUSH1 0x2 DUP3 ADD PUSH1 0x1 SWAP1 SLOAD SWAP1 PUSH2 0x100 EXP SWAP1 DIV PUSH1 0xFF AND PUSH1 0x1 DUP2 GT ISZERO PUSH2 0x1459 JUMPI PUSH2 0x1458 PUSH2 0x2698 JUMP JUMPDEST JUMPDEST PUSH1 0x1 DUP2 GT ISZERO PUSH2 0x146B JUMPI PUSH2 0x146A PUSH2 0x2698 JUMP JUMPDEST JUMPDEST DUP2 MSTORE PUSH1 0x20 ADD PUSH1 0x2 DUP3 ADD PUSH1 0x2 SWAP1 SLOAD SWAP1 PUSH2 0x100 EXP SWAP1 DIV PUSH4 0xFFFFFFFF AND PUSH4 0xFFFFFFFF AND PUSH4 0xFFFFFFFF AND DUP2 MSTORE PUSH1 0x20 ADD PUSH1 0x2 DUP3 ADD PUSH1 0x6 SWAP1 SLOAD SWAP1 PUSH2 0x100 EXP SWAP1 DIV PUSH4 0xFFFFFFFF AND PUSH4 0xFFFFFFFF AND PUSH4 0xFFFFFFFF AND DUP2 MSTORE PUSH1 0x20 ADD PUSH1 0x2 DUP3 ADD PUSH1 0xA SWAP1 SLOAD SWAP1 PUSH2 0x100 EXP SWAP1 DIV PUSH4 0xFFFFFFFF AND PUSH4 0xFFFFFFFF AND PUSH4 0xFFFFFFFF AND DUP2 MSTORE PUSH1 0x20 ADD PUSH1 0x3 DUP3 ADD SLOAD DUP2 MSTORE PUSH1 0x20 ADD PUSH1 0x4 DUP3 ADD PUSH0 SWAP1 SLOAD SWAP1 PUSH2 0x100 EXP SWAP1 DIV PUSH20 0xFFFFFFFFFFFFFFFFFFFFFFFFFFFFFFFFFFFFFFFF AND PUSH20 0xFFFFFFFFFFFFFFFFFFFFFFFFFFFFFFFFFFFFFFFF AND PUSH20 0xFFFFFFFFFFFFFFFFFFFFFFFFFFFFFFFFFFFFFFFF AND DUP2 MSTORE PUSH1 0x20 ADD PUSH1 0x5 DUP3 ADD PUSH0 SWAP1 SLOAD SWAP1 PUSH2 0x100 EXP SWAP1 DIV PUSH20 0xFFFFFFFFFFFFFFFFFFFFFFFFFFFFFFFFFFFFFFFF AND PUSH20 0xFFFFFFFFFFFFFFFFFFFFFFFFFFFFFFFFFFFFFFFF AND PUSH20 0xFFFFFFFFFFFFFFFFFFFFFFFFFFFFFFFFFFFFFFFF AND DUP2 MSTORE PUSH1 0x20 ADD PUSH1 0x5 DUP3 ADD PUSH1 0x14 SWAP1 SLOAD SWAP1 PUSH2 0x100 EXP SWAP1 DIV PUSH1 0xFF AND ISZERO ISZERO ISZERO ISZERO DUP2 MSTORE POP POP SWAP1 POP SWAP2 SWAP1 POP JUMP JUMPDEST PUSH2 0x15BF PUSH2 0x1EF3 JUMP JUMPDEST PUSH2 0x15C8 PUSH0 PUSH2 0x1F7A JUMP JUMPDEST JUMP JUMPDEST PUSH0 PUSH1 0x2 PUSH1 0x3 DUP2 GT ISZERO PUSH2 0x15DF JUMPI PUSH2 0x15DE PUSH2 0x2698 JUMP JUMPDEST JUMPDEST PUSH1 0x3 PUSH0 DUP5 DUP2 MSTORE PUSH1 0x20 ADD SWAP1 DUP2 MSTORE PUSH1 0x20 ADD PUSH0 KECCAK256 PUSH1 0x2 ADD PUSH0 SWAP1 SLOAD SWAP1 PUSH2 0x100 EXP SWAP1 DIV PUSH1 0xFF AND PUSH1 0x3 DUP2 GT ISZERO PUSH2 0x1612 JUMPI PUSH2 0x1611 PUSH2 0x2698 JUMP JUMPDEST JUMPDEST EQ PUSH2 0x1652 JUMPI PUSH1 0x40 MLOAD PUSH32 0x8C379A000000000000000000000000000000000000000000000000000000000 DUP2 MSTORE PUSH1 0x4 ADD PUSH2 0x1649 SWAP1 PUSH2 0x317D JUMP JUMPDEST PUSH1 0x40 MLOAD DUP1 SWAP2 SUB SWAP1 REVERT JUMPDEST PUSH1 0x3 PUSH0 DUP4 DUP2 MSTORE PUSH1 0x20 ADD SWAP1 DUP2 MSTORE PUSH1 0x20 ADD PUSH0 KECCAK256 PUSH1 0x5 ADD PUSH1 0x14 SWAP1 SLOAD SWAP1 PUSH2 0x100 EXP SWAP1 DIV PUSH1 0xFF AND PUSH2 0x16B3 JUMPI PUSH1 0x40 MLOAD PUSH32 0x8C379A000000000000000000000000000000000000000000000000000000000 DUP2 MSTORE PUSH1 0x4 ADD PUSH2 0x16AA SWAP1 PUSH2 0x320B JUMP JUMPDEST PUSH1 0x40 MLOAD DUP1 SWAP2 SUB SWAP1 REVERT JUMPDEST PUSH1 0x1 PUSH1 0x3 PUSH0 DUP5 DUP2 MSTORE PUSH1 0x20 ADD SWAP1 DUP2 MSTORE PUSH1 0x20 ADD PUSH0 KECCAK256 PUSH1 0x2 ADD PUSH0 PUSH2 0x100 EXP DUP2 SLOAD DUP2 PUSH1 0xFF MUL NOT AND SWAP1 DUP4 PUSH1 0x3 DUP2 GT ISZERO PUSH2 0x16EA JUMPI PUSH2 0x16E9 PUSH2 0x2698 JUMP JUMPDEST JUMPDEST MUL OR SWAP1 SSTORE POP PUSH1 0x1 SWAP1 POP SWAP2 SWAP1 POP JUMP JUMPDEST PUSH0 DUP1 PUSH0 SWAP1 SLOAD SWAP1 PUSH2 0x100 EXP SWAP1 DIV PUSH20 0xFFFFFFFFFFFFFFFFFFFFFFFFFFFFFFFFFFFFFFFF AND SWAP1 POP SWAP1 JUMP JUMPDEST PUSH0 PUSH1 0x1 PUSH1 0x3 PUSH0 DUP5 DUP2 MSTORE PUSH1 0x20 ADD SWAP1 DUP2 MSTORE PUSH1 0x20 ADD PUSH0 KECCAK256 PUSH1 0x5 ADD PUSH1 0x14 PUSH2 0x100 EXP DUP2 SLOAD DUP2 PUSH1 0xFF MUL NOT AND SWAP1 DUP4 ISZERO ISZERO MUL OR SWAP1 SSTORE POP PUSH1 0x1 SWAP1 POP SWAP2 SWAP1 POP JUMP JUMPDEST PUSH32 0x65E06B3884A88E13243953E5160AEC7A836E4CC7ABC0762F84C66D6B918EFE7F PUSH1 0x40 MLOAD PUSH2 0x1783 SWAP1 PUSH2 0x3273 JUMP JUMPDEST PUSH1 0x40 MLOAD DUP1 SWAP2 SUB SWAP1 LOG1 PUSH0 PUSH1 0x3 PUSH0 DUP4 DUP2 MSTORE PUSH1 0x20 ADD SWAP1 DUP2 MSTORE PUSH1 0x20 ADD PUSH0 KECCAK256 PUSH1 0x40 MLOAD DUP1 PUSH2 0x160 ADD PUSH1 0x40 MSTORE SWAP1 DUP2 PUSH0 DUP3 ADD DUP1 SLOAD PUSH2 0x17B8 SWAP1 PUSH2 0x2CFB JUMP JUMPDEST DUP1 PUSH1 0x1F ADD PUSH1 0x20 DUP1 SWAP2 DIV MUL PUSH1 0x20 ADD PUSH1 0x40 MLOAD SWAP1 DUP2 ADD PUSH1 0x40 MSTORE DUP1 SWAP3 SWAP2 SWAP1 DUP2 DUP2 MSTORE PUSH1 0x20 ADD DUP3 DUP1 SLOAD PUSH2 0x17E4 SWAP1 PUSH2 0x2CFB JUMP JUMPDEST DUP1 ISZERO PUSH2 0x182F JUMPI DUP1 PUSH1 0x1F LT PUSH2 0x1806 JUMPI PUSH2 0x100 DUP1 DUP4 SLOAD DIV MUL DUP4 MSTORE SWAP2 PUSH1 0x20 ADD SWAP2 PUSH2 0x182F JUMP JUMPDEST DUP3 ADD SWAP2 SWAP1 PUSH0 MSTORE PUSH1 0x20 PUSH0 KECCAK256 SWAP1 JUMPDEST DUP2 SLOAD DUP2 MSTORE SWAP1 PUSH1 0x1 ADD SWAP1 PUSH1 0x20 ADD DUP1 DUP4 GT PUSH2 0x1812 JUMPI DUP3 SWAP1 SUB PUSH1 0x1F AND DUP3 ADD SWAP2 JUMPDEST POP POP POP POP POP DUP2 MSTORE PUSH1 0x20 ADD PUSH1 0x1 DUP3 ADD DUP1 SLOAD PUSH2 0x1848 SWAP1 PUSH2 0x2CFB JUMP JUMPDEST DUP1 PUSH1 0x1F ADD PUSH1 0x20 DUP1 SWAP2 DIV MUL PUSH1 0x20 ADD PUSH1 0x40 MLOAD SWAP1 DUP2 ADD PUSH1 0x40 MSTORE DUP1 SWAP3 SWAP2 SWAP1 DUP2 DUP2 MSTORE PUSH1 0x20 ADD DUP3 DUP1 SLOAD PUSH2 0x1874 SWAP1 PUSH2 0x2CFB JUMP JUMPDEST DUP1 ISZERO PUSH2 0x18BF JUMPI DUP1 PUSH1 0x1F LT PUSH2 0x1896 JUMPI PUSH2 0x100 DUP1 DUP4 SLOAD DIV MUL DUP4 MSTORE SWAP2 PUSH1 0x20 ADD SWAP2 PUSH2 0x18BF JUMP JUMPDEST DUP3 ADD SWAP2 SWAP1 PUSH0 MSTORE PUSH1 0x20 PUSH0 KECCAK256 SWAP1 JUMPDEST DUP2 SLOAD DUP2 MSTORE SWAP1 PUSH1 0x1 ADD SWAP1 PUSH1 0x20 ADD DUP1 DUP4 GT PUSH2 0x18A2 JUMPI DUP3 SWAP1 SUB PUSH1 0x1F AND DUP3 ADD SWAP2 JUMPDEST POP POP POP POP POP DUP2 MSTORE PUSH1 0x20 ADD PUSH1 0x2 DUP3 ADD PUSH0 SWAP1 SLOAD SWAP1 PUSH2 0x100 EXP SWAP1 DIV PUSH1 0xFF AND PUSH1 0x3 DUP2 GT ISZERO PUSH2 0x18EC JUMPI PUSH2 0x18EB PUSH2 0x2698 JUMP JUMPDEST JUMPDEST PUSH1 0x3 DUP2 GT ISZERO PUSH2 0x18FE JUMPI PUSH2 0x18FD PUSH2 0x2698 JUMP JUMPDEST JUMPDEST DUP2 MSTORE PUSH1 0x20 ADD PUSH1 0x2 DUP3 ADD PUSH1 0x1 SWAP1 SLOAD SWAP1 PUSH2 0x100 EXP SWAP1 DIV PUSH1 0xFF AND PUSH1 0x1 DUP2 GT ISZERO PUSH2 0x1927 JUMPI PUSH2 0x1926 PUSH2 0x2698 JUMP JUMPDEST JUMPDEST PUSH1 0x1 DUP2 GT ISZERO PUSH2 0x1939 JUMPI PUSH2 0x1938 PUSH2 0x2698 JUMP JUMPDEST JUMPDEST DUP2 MSTORE PUSH1 0x20 ADD PUSH1 0x2 DUP3 ADD PUSH1 0x2 SWAP1 SLOAD SWAP1 PUSH2 0x100 EXP SWAP1 DIV PUSH4 0xFFFFFFFF AND PUSH4 0xFFFFFFFF AND PUSH4 0xFFFFFFFF AND DUP2 MSTORE PUSH1 0x20 ADD PUSH1 0x2 DUP3 ADD PUSH1 0x6 SWAP1 SLOAD SWAP1 PUSH2 0x100 EXP SWAP1 DIV PUSH4 0xFFFFFFFF AND PUSH4 0xFFFFFFFF AND PUSH4 0xFFFFFFFF AND DUP2 MSTORE PUSH1 0x20 ADD PUSH1 0x2 DUP3 ADD PUSH1 0xA SWAP1 SLOAD SWAP1 PUSH2 0x100 EXP SWAP1 DIV PUSH4 0xFFFFFFFF AND PUSH4 0xFFFFFFFF AND PUSH4 0xFFFFFFFF AND DUP2 MSTORE PUSH1 0x20 ADD PUSH1 0x3 DUP3 ADD SLOAD DUP2 MSTORE PUSH1 0x20 ADD PUSH1 0x4 DUP3 ADD PUSH0 SWAP1 SLOAD SWAP1 PUSH2 0x100 EXP SWAP1 DIV PUSH20 0xFFFFFFFFFFFFFFFFFFFFFFFFFFFFFFFFFFFFFFFF AND PUSH20 0xFFFFFFFFFFFFFFFFFFFFFFFFFFFFFFFFFFFFFFFF AND PUSH20 0xFFFFFFFFFFFFFFFFFFFFFFFFFFFFFFFFFFFFFFFF AND DUP2 MSTORE PUSH1 0x20 ADD PUSH1 0x5 DUP3 ADD PUSH0 SWAP1 SLOAD SWAP1 PUSH2 0x100 EXP SWAP1 DIV PUSH20 0xFFFFFFFFFFFFFFFFFFFFFFFFFFFFFFFFFFFFFFFF AND PUSH20 0xFFFFFFFFFFFFFFFFFFFFFFFFFFFFFFFFFFFFFFFF AND PUSH20 0xFFFFFFFFFFFFFFFFFFFFFFFFFFFFFFFFFFFFFFFF AND DUP2 MSTORE PUSH1 0x20 ADD PUSH1 0x5 DUP3 ADD PUSH1 0x14 SWAP1 SLOAD SWAP1 PUSH2 0x100 EXP SWAP1 DIV PUSH1 0xFF AND ISZERO ISZERO ISZERO ISZERO DUP2 MSTORE POP POP SWAP1 POP PUSH32 0x65E06B3884A88E13243953E5160AEC7A836E4CC7ABC0762F84C66D6B918EFE7F PUSH1 0x40 MLOAD PUSH2 0x1AAD SWAP1 PUSH2 0x32DB JUMP JUMPDEST PUSH1 0x40 MLOAD DUP1 SWAP2 SUB SWAP1 LOG1 PUSH0 DUP4 PUSH20 0xFFFFFFFFFFFFFFFFFFFFFFFFFFFFFFFFFFFFFFFF AND DUP3 PUSH1 0xE0 ADD MLOAD DUP5 PUSH1 0x40 MLOAD PUSH1 0x24 ADD PUSH2 0x1AE3 SWAP2 SWAP1 PUSH2 0x216F JUMP JUMPDEST PUSH1 0x40 MLOAD PUSH1 0x20 DUP2 DUP4 SUB SUB DUP2 MSTORE SWAP1 PUSH1 0x40 MSTORE PUSH32 0x998AA46500000000000000000000000000000000000000000000000000000000 PUSH28 0xFFFFFFFFFFFFFFFFFFFFFFFFFFFFFFFFFFFFFFFFFFFFFFFFFFFFFFFF NOT AND PUSH1 0x20 DUP3 ADD DUP1 MLOAD PUSH28 0xFFFFFFFFFFFFFFFFFFFFFFFFFFFFFFFFFFFFFFFFFFFFFFFFFFFFFFFF DUP4 DUP2 DUP4 AND OR DUP4 MSTORE POP POP POP POP PUSH1 0x40 MLOAD PUSH2 0x1B6D SWAP2 SWAP1 PUSH2 0x333D JUMP JUMPDEST PUSH0 PUSH1 0x40 MLOAD DUP1 DUP4 SUB DUP2 DUP6 DUP8 GAS CALL SWAP3 POP POP POP RETURNDATASIZE DUP1 PUSH0 DUP2 EQ PUSH2 0x1BA7 JUMPI PUSH1 0x40 MLOAD SWAP2 POP PUSH1 0x1F NOT PUSH1 0x3F RETURNDATASIZE ADD AND DUP3 ADD PUSH1 0x40 MSTORE RETURNDATASIZE DUP3 MSTORE RETURNDATASIZE PUSH0 PUSH1 0x20 DUP5 ADD RETURNDATACOPY PUSH2 0x1BAC JUMP JUMPDEST PUSH1 0x60 SWAP2 POP JUMPDEST POP POP SWAP1 POP DUP1 PUSH2 0x1BF0 JUMPI PUSH1 0x40 MLOAD PUSH32 0x8C379A000000000000000000000000000000000000000000000000000000000 DUP2 MSTORE PUSH1 0x4 ADD PUSH2 0x1BE7 SWAP1 PUSH2 0x339D JUMP JUMPDEST PUSH1 0x40 MLOAD DUP1 SWAP2 SUB SWAP1 REVERT JUMPDEST POP POP POP POP JUMP JUMPDEST PUSH2 0x1BFE PUSH2 0x1EF3 JUMP JUMPDEST PUSH0 PUSH20 0xFFFFFFFFFFFFFFFFFFFFFFFFFFFFFFFFFFFFFFFF AND DUP2 PUSH20 0xFFFFFFFFFFFFFFFFFFFFFFFFFFFFFFFFFFFFFFFF AND SUB PUSH2 0x1C6E JUMPI PUSH0 PUSH1 0x40 MLOAD PUSH32 0x1E4FBDF700000000000000000000000000000000000000000000000000000000 DUP2 MSTORE PUSH1 0x4 ADD PUSH2 0x1C65 SWAP2 SWAP1 PUSH2 0x2AC1 JUMP JUMPDEST PUSH1 0x40 MLOAD DUP1 SWAP2 SUB SWAP1 REVERT JUMPDEST PUSH2 0x1C77 DUP2 PUSH2 0x1F7A JUMP JUMPDEST POP JUMP JUMPDEST PUSH0 PUSH20 0xFFFFFFFFFFFFFFFFFFFFFFFFFFFFFFFFFFFFFFFF AND DUP3 PUSH20 0xFFFFFFFFFFFFFFFFFFFFFFFFFFFFFFFFFFFFFFFF AND SUB PUSH2 0x1CE8 JUMPI PUSH1 0x40 MLOAD PUSH32 0x8C379A000000000000000000000000000000000000000000000000000000000 DUP2 MSTORE PUSH1 0x4 ADD PUSH2 0x1CDF SWAP1 PUSH2 0x3405 JUMP JUMPDEST PUSH1 0x40 MLOAD DUP1 SWAP2 SUB SWAP1 REVERT JUMPDEST PUSH0 DUP2 GT PUSH2 0x1D2A JUMPI PUSH1 0x40 MLOAD PUSH32 0x8C379A000000000000000000000000000000000000000000000000000000000 DUP2 MSTORE PUSH1 0x4 ADD PUSH2 0x1D21 SWAP1 PUSH2 0x346D JUMP JUMPDEST PUSH1 0x40 MLOAD DUP1 SWAP2 SUB SWAP1 REVERT JUMPDEST PUSH0 DUP3 PUSH20 0xFFFFFFFFFFFFFFFFFFFFFFFFFFFFFFFFFFFFFFFF AND DUP3 PUSH1 0x40 MLOAD PUSH2 0x1D4F SWAP1 PUSH2 0x34AE JUMP JUMPDEST PUSH0 PUSH1 0x40 MLOAD DUP1 DUP4 SUB DUP2 DUP6 DUP8 GAS CALL SWAP3 POP POP POP RETURNDATASIZE DUP1 PUSH0 DUP2 EQ PUSH2 0x1D89 JUMPI PUSH1 0x40 MLOAD SWAP2 POP PUSH1 0x1F NOT PUSH1 0x3F RETURNDATASIZE ADD AND DUP3 ADD PUSH1 0x40 MSTORE RETURNDATASIZE DUP3 MSTORE RETURNDATASIZE PUSH0 PUSH1 0x20 DUP5 ADD RETURNDATACOPY PUSH2 0x1D8E JUMP JUMPDEST PUSH1 0x60 SWAP2 POP JUMPDEST POP POP SWAP1 POP DUP1 PUSH2 0x1DD2 JUMPI PUSH1 0x40 MLOAD PUSH32 0x8C379A000000000000000000000000000000000000000000000000000000000 DUP2 MSTORE PUSH1 0x4 ADD PUSH2 0x1DC9 SWAP1 PUSH2 0x350C JUMP JUMPDEST PUSH1 0x40 MLOAD DUP1 SWAP2 SUB SWAP1 REVERT JUMPDEST POP POP POP JUMP JUMPDEST PUSH1 0x2 DUP3 PUSH1 0x80 ADD MLOAD PUSH2 0x1DE8 SWAP2 SWAP1 PUSH2 0x352A JUMP JUMPDEST PUSH4 0xFFFFFFFF AND DUP3 PUSH1 0xA0 ADD MLOAD PUSH4 0xFFFFFFFF AND GT ISZERO PUSH2 0x1E48 JUMPI PUSH2 0x1E12 DUP3 PUSH2 0x100 ADD MLOAD DUP4 PUSH1 0xE0 ADD MLOAD PUSH2 0x1C7A JUMP JUMPDEST PUSH1 0x3 DUP3 PUSH1 0x40 ADD SWAP1 PUSH1 0x3 DUP2 GT ISZERO PUSH2 0x1E2B JUMPI PUSH2 0x1E2A PUSH2 0x2698 JUMP JUMPDEST JUMPDEST SWAP1 DUP2 PUSH1 0x3 DUP2 GT ISZERO PUSH2 0x1E3F JUMPI PUSH2 0x1E3E PUSH2 0x2698 JUMP JUMPDEST JUMPDEST DUP2 MSTORE POP POP PUSH2 0x1EB6 JUMP JUMPDEST PUSH1 0x2 DUP3 PUSH1 0x80 ADD MLOAD PUSH2 0x1E59 SWAP2 SWAP1 PUSH2 0x352A JUMP JUMPDEST PUSH4 0xFFFFFFFF AND DUP3 PUSH1 0xC0 ADD MLOAD PUSH4 0xFFFFFFFF AND GT ISZERO PUSH2 0x1EB5 JUMPI PUSH2 0x1E83 DUP3 PUSH2 0x120 ADD MLOAD DUP4 PUSH1 0xE0 ADD MLOAD PUSH2 0x1C7A JUMP JUMPDEST PUSH1 0x3 DUP3 PUSH1 0x40 ADD SWAP1 PUSH1 0x3 DUP2 GT ISZERO PUSH2 0x1E9C JUMPI PUSH2 0x1E9B PUSH2 0x2698 JUMP JUMPDEST JUMPDEST SWAP1 DUP2 PUSH1 0x3 DUP2 GT ISZERO PUSH2 0x1EB0 JUMPI PUSH2 0x1EAF PUSH2 0x2698 JUMP JUMPDEST JUMPDEST DUP2 MSTORE POP POP JUMPDEST JUMPDEST PUSH32 0xEAC3D83C2E72FBC1D7624DAD3E1753F855FFD9CB39A7E0736C0E684B055ED57F CALLER DUP3 PUSH1 0x40 MLOAD PUSH2 0x1EE7 SWAP3 SWAP2 SWAP1 PUSH2 0x355A JUMP JUMPDEST PUSH1 0x40 MLOAD DUP1 SWAP2 SUB SWAP1 LOG1 POP POP JUMP JUMPDEST PUSH2 0x1EFB PUSH2 0x203B JUMP JUMPDEST PUSH20 0xFFFFFFFFFFFFFFFFFFFFFFFFFFFFFFFFFFFFFFFF AND PUSH2 0x1F19 PUSH2 0x16F8 JUMP JUMPDEST PUSH20 0xFFFFFFFFFFFFFFFFFFFFFFFFFFFFFFFFFFFFFFFF AND EQ PUSH2 0x1F78 JUMPI PUSH2 0x1F3C PUSH2 0x203B JUMP JUMPDEST PUSH1 0x40 MLOAD PUSH32 0x118CDAA700000000000000000000000000000000000000000000000000000000 DUP2 MSTORE PUSH1 0x4 ADD PUSH2 0x1F6F SWAP2 SWAP1 PUSH2 0x2AC1 JUMP JUMPDEST PUSH1 0x40 MLOAD DUP1 SWAP2 SUB SWAP1 REVERT JUMPDEST JUMP JUMPDEST PUSH0 DUP1 PUSH0 SWAP1 SLOAD SWAP1 PUSH2 0x100 EXP SWAP1 DIV PUSH20 0xFFFFFFFFFFFFFFFFFFFFFFFFFFFFFFFFFFFFFFFF AND SWAP1 POP DUP2 PUSH0 DUP1 PUSH2 0x100 EXP DUP2 SLOAD DUP2 PUSH20 0xFFFFFFFFFFFFFFFFFFFFFFFFFFFFFFFFFFFFFFFF MUL NOT AND SWAP1 DUP4 PUSH20 0xFFFFFFFFFFFFFFFFFFFFFFFFFFFFFFFFFFFFFFFF AND MUL OR SWAP1 SSTORE POP DUP2 PUSH20 0xFFFFFFFFFFFFFFFFFFFFFFFFFFFFFFFFFFFFFFFF AND DUP2 PUSH20 0xFFFFFFFFFFFFFFFFFFFFFFFFFFFFFFFFFFFFFFFF AND PUSH32 0x8BE0079C531659141344CD1FD0A4F28419497F9722A3DAAFE3B4186F6B6457E0 PUSH1 0x40 MLOAD PUSH1 0x40 MLOAD DUP1 SWAP2 SUB SWAP1 LOG3 POP POP JUMP JUMPDEST PUSH0 CALLER SWAP1 POP SWAP1 JUMP JUMPDEST PUSH1 0x40 MLOAD DUP1 PUSH2 0x160 ADD PUSH1 0x40 MSTORE DUP1 PUSH1 0x60 DUP2 MSTORE PUSH1 0x20 ADD PUSH1 0x60 DUP2 MSTORE PUSH1 0x20 ADD PUSH0 PUSH1 0x3 DUP2 GT ISZERO PUSH2 0x206F JUMPI PUSH2 0x206E PUSH2 0x2698 JUMP JUMPDEST JUMPDEST DUP2 MSTORE PUSH1 0x20 ADD PUSH0 PUSH1 0x1 DUP2 GT ISZERO PUSH2 0x2087 JUMPI PUSH2 0x2086 PUSH2 0x2698 JUMP JUMPDEST JUMPDEST DUP2 MSTORE PUSH1 0x20 ADD PUSH0 PUSH4 0xFFFFFFFF AND DUP2 MSTORE PUSH1 0x20 ADD PUSH0 PUSH4 0xFFFFFFFF AND DUP2 MSTORE PUSH1 0x20 ADD PUSH0 PUSH4 0xFFFFFFFF AND DUP2 MSTORE PUSH1 0x20 ADD PUSH0 DUP2 MSTORE PUSH1 0x20 ADD PUSH0 PUSH20 0xFFFFFFFFFFFFFFFFFFFFFFFFFFFFFFFFFFFFFFFF AND DUP2 MSTORE PUSH1 0x20 ADD PUSH0 PUSH20 0xFFFFFFFFFFFFFFFFFFFFFFFFFFFFFFFFFFFFFFFF AND DUP2 MSTORE PUSH1 0x20 ADD PUSH0 ISZERO ISZERO DUP2 MSTORE POP SWAP1 JUMP JUMPDEST PUSH0 DUP2 SWAP1 POP SWAP2 SWAP1 POP JUMP JUMPDEST PUSH32 0x4E487B7100000000000000000000000000000000000000000000000000000000 PUSH0 MSTORE PUSH1 0x11 PUSH1 0x4 MSTORE PUSH1 0x24 PUSH0 REVERT JUMPDEST PUSH0 PUSH2 0x2137 DUP3 PUSH2 0x20F7 JUMP JUMPDEST SWAP2 POP PUSH2 0x2142 DUP4 PUSH2 0x20F7 JUMP JUMPDEST SWAP3 POP DUP3 DUP3 ADD SWAP1 POP DUP1 DUP3 GT ISZERO PUSH2 0x215A JUMPI PUSH2 0x2159 PUSH2 0x2100 JUMP JUMPDEST JUMPDEST SWAP3 SWAP2 POP POP JUMP JUMPDEST PUSH2 0x2169 DUP2 PUSH2 0x20F7 JUMP JUMPDEST DUP3 MSTORE POP POP JUMP JUMPDEST PUSH0 PUSH1 0x20 DUP3 ADD SWAP1 POP PUSH2 0x2182 PUSH0 DUP4 ADD DUP5 PUSH2 0x2160 JUMP JUMPDEST SWAP3 SWAP2 POP POP JUMP JUMPDEST PUSH0 PUSH1 0x40 MLOAD SWAP1 POP SWAP1 JUMP JUMPDEST PUSH0 DUP1 REVERT JUMPDEST PUSH0 DUP1 REVERT JUMPDEST PUSH0 DUP1 REVERT JUMPDEST PUSH0 DUP1 REVERT JUMPDEST PUSH0 PUSH1 0x1F NOT PUSH1 0x1F DUP4 ADD AND SWAP1 POP SWAP2 SWAP1 POP JUMP JUMPDEST PUSH32 0x4E487B7100000000000000000000000000000000000000000000000000000000 PUSH0 MSTORE PUSH1 0x41 PUSH1 0x4 MSTORE PUSH1 0x24 PUSH0 REVERT JUMPDEST PUSH2 0x21E7 DUP3 PUSH2 0x21A1 JUMP JUMPDEST DUP2 ADD DUP2 DUP2 LT PUSH8 0xFFFFFFFFFFFFFFFF DUP3 GT OR ISZERO PUSH2 0x2206 JUMPI PUSH2 0x2205 PUSH2 0x21B1 JUMP JUMPDEST JUMPDEST DUP1 PUSH1 0x40 MSTORE POP POP POP JUMP JUMPDEST PUSH0 PUSH2 0x2218 PUSH2 0x2188 JUMP JUMPDEST SWAP1 POP PUSH2 0x2224 DUP3 DUP3 PUSH2 0x21DE JUMP JUMPDEST SWAP2 SWAP1 POP JUMP JUMPDEST PUSH0 PUSH8 0xFFFFFFFFFFFFFFFF DUP3 GT ISZERO PUSH2 0x2243 JUMPI PUSH2 0x2242 PUSH2 0x21B1 JUMP JUMPDEST JUMPDEST PUSH2 0x224C DUP3 PUSH2 0x21A1 JUMP JUMPDEST SWAP1 POP PUSH1 0x20 DUP2 ADD SWAP1 POP SWAP2 SWAP1 POP JUMP JUMPDEST DUP3 DUP2 DUP4 CALLDATACOPY PUSH0 DUP4 DUP4 ADD MSTORE POP POP POP JUMP JUMPDEST PUSH0 PUSH2 0x2279 PUSH2 0x2274 DUP5 PUSH2 0x2229 JUMP JUMPDEST PUSH2 0x220F JUMP JUMPDEST SWAP1 POP DUP3 DUP2 MSTORE PUSH1 0x20 DUP2 ADD DUP5 DUP5 DUP5 ADD GT ISZERO PUSH2 0x2295 JUMPI PUSH2 0x2294 PUSH2 0x219D JUMP JUMPDEST JUMPDEST PUSH2 0x22A0 DUP5 DUP3 DUP6 PUSH2 0x2259 JUMP JUMPDEST POP SWAP4 SWAP3 POP POP POP JUMP JUMPDEST PUSH0 DUP3 PUSH1 0x1F DUP4 ADD SLT PUSH2 0x22BC JUMPI PUSH2 0x22BB PUSH2 0x2199 JUMP JUMPDEST JUMPDEST DUP2 CALLDATALOAD PUSH2 0x22CC DUP5 DUP3 PUSH1 0x20 DUP7 ADD PUSH2 0x2267 JUMP JUMPDEST SWAP2 POP POP SWAP3 SWAP2 POP POP JUMP JUMPDEST PUSH0 PUSH20 0xFFFFFFFFFFFFFFFFFFFFFFFFFFFFFFFFFFFFFFFF DUP3 AND SWAP1 POP SWAP2 SWAP1 POP JUMP JUMPDEST PUSH0 PUSH2 0x22FE DUP3 PUSH2 0x22D5 JUMP JUMPDEST SWAP1 POP SWAP2 SWAP1 POP JUMP JUMPDEST PUSH2 0x230E DUP2 PUSH2 0x22F4 JUMP JUMPDEST DUP2 EQ PUSH2 0x2318 JUMPI PUSH0 DUP1 REVERT JUMPDEST POP JUMP JUMPDEST PUSH0 DUP2 CALLDATALOAD SWAP1 POP PUSH2 0x2329 DUP2 PUSH2 0x2305 JUMP JUMPDEST SWAP3 SWAP2 POP POP JUMP JUMPDEST PUSH0 PUSH8 0xFFFFFFFFFFFFFFFF DUP3 GT ISZERO PUSH2 0x2349 JUMPI PUSH2 0x2348 PUSH2 0x21B1 JUMP JUMPDEST JUMPDEST PUSH1 0x20 DUP3 MUL SWAP1 POP PUSH1 0x20 DUP2 ADD SWAP1 POP SWAP2 SWAP1 POP JUMP JUMPDEST PUSH0 DUP1 REVERT JUMPDEST PUSH0 PUSH2 0x2370 PUSH2 0x236B DUP5 PUSH2 0x232F JUMP JUMPDEST PUSH2 0x220F JUMP JUMPDEST SWAP1 POP DUP1 DUP4 DUP3 MSTORE PUSH1 0x20 DUP3 ADD SWAP1 POP PUSH1 0x20 DUP5 MUL DUP4 ADD DUP6 DUP2 GT ISZERO PUSH2 0x2393 JUMPI PUSH2 0x2392 PUSH2 0x235A JUMP JUMPDEST JUMPDEST DUP4 JUMPDEST DUP2 DUP2 LT ISZERO PUSH2 0x23BC JUMPI DUP1 PUSH2 0x23A8 DUP9 DUP3 PUSH2 0x231B JUMP JUMPDEST DUP5 MSTORE PUSH1 0x20 DUP5 ADD SWAP4 POP POP PUSH1 0x20 DUP2 ADD SWAP1 POP PUSH2 0x2395 JUMP JUMPDEST POP POP POP SWAP4 SWAP3 POP POP POP JUMP JUMPDEST PUSH0 DUP3 PUSH1 0x1F DUP4 ADD SLT PUSH2 0x23DA JUMPI PUSH2 0x23D9 PUSH2 0x2199 JUMP JUMPDEST JUMPDEST DUP2 CALLDATALOAD PUSH2 0x23EA DUP5 DUP3 PUSH1 0x20 DUP7 ADD PUSH2 0x235E JUMP JUMPDEST SWAP2 POP POP SWAP3 SWAP2 POP POP JUMP JUMPDEST PUSH1 0x2 DUP2 LT PUSH2 0x23FF JUMPI PUSH0 DUP1 REVERT JUMPDEST POP JUMP JUMPDEST PUSH0 DUP2 CALLDATALOAD SWAP1 POP PUSH2 0x2410 DUP2 PUSH2 0x23F3 JUMP JUMPDEST SWAP3 SWAP2 POP POP JUMP JUMPDEST PUSH2 0x241F DUP2 PUSH2 0x20F7 JUMP JUMPDEST DUP2 EQ PUSH2 0x2429 JUMPI PUSH0 DUP1 REVERT JUMPDEST POP JUMP JUMPDEST PUSH0 DUP2 CALLDATALOAD SWAP1 POP PUSH2 0x243A DUP2 PUSH2 0x2416 JUMP JUMPDEST SWAP3 SWAP2 POP POP JUMP JUMPDEST PUSH0 DUP1 PUSH0 DUP1 PUSH0 DUP1 PUSH0 PUSH1 0xE0 DUP9 DUP11 SUB SLT ISZERO PUSH2 0x245B JUMPI PUSH2 0x245A PUSH2 0x2191 JUMP JUMPDEST JUMPDEST PUSH0 DUP9 ADD CALLDATALOAD PUSH8 0xFFFFFFFFFFFFFFFF DUP2 GT ISZERO PUSH2 0x2478 JUMPI PUSH2 0x2477 PUSH2 0x2195 JUMP JUMPDEST JUMPDEST PUSH2 0x2484 DUP11 DUP3 DUP12 ADD PUSH2 0x22A8 JUMP JUMPDEST SWAP8 POP POP PUSH1 0x20 DUP9 ADD CALLDATALOAD PUSH8 0xFFFFFFFFFFFFFFFF DUP2 GT ISZERO PUSH2 0x24A5 JUMPI PUSH2 0x24A4 PUSH2 0x2195 JUMP JUMPDEST JUMPDEST PUSH2 0x24B1 DUP11 DUP3 DUP12 ADD PUSH2 0x22A8 JUMP JUMPDEST SWAP7 POP POP PUSH1 0x40 PUSH2 0x24C2 DUP11 DUP3 DUP12 ADD PUSH2 0x231B JUMP JUMPDEST SWAP6 POP POP PUSH1 0x60 DUP9 ADD CALLDATALOAD PUSH8 0xFFFFFFFFFFFFFFFF DUP2 GT ISZERO PUSH2 0x24E3 JUMPI PUSH2 0x24E2 PUSH2 0x2195 JUMP JUMPDEST JUMPDEST PUSH2 0x24EF DUP11 DUP3 DUP12 ADD PUSH2 0x23C6 JUMP JUMPDEST SWAP5 POP POP PUSH1 0x80 DUP9 ADD CALLDATALOAD PUSH8 0xFFFFFFFFFFFFFFFF DUP2 GT ISZERO PUSH2 0x2510 JUMPI PUSH2 0x250F PUSH2 0x2195 JUMP JUMPDEST JUMPDEST PUSH2 0x251C DUP11 DUP3 DUP12 ADD PUSH2 0x22A8 JUMP JUMPDEST SWAP4 POP POP PUSH1 0xA0 PUSH2 0x252D DUP11 DUP3 DUP12 ADD PUSH2 0x2402 JUMP JUMPDEST SWAP3 POP POP PUSH1 0xC0 PUSH2 0x253E DUP11 DUP3 DUP12 ADD PUSH2 0x242C JUMP JUMPDEST SWAP2 POP POP SWAP3 SWAP6 SWAP9 SWAP2 SWAP5 SWAP8 POP SWAP3 SWAP6 POP JUMP JUMPDEST PUSH1 0x2 DUP2 LT PUSH2 0x2559 JUMPI PUSH0 DUP1 REVERT JUMPDEST POP JUMP JUMPDEST PUSH0 DUP2 CALLDATALOAD SWAP1 POP PUSH2 0x256A DUP2 PUSH2 0x254D JUMP JUMPDEST SWAP3 SWAP2 POP POP JUMP JUMPDEST PUSH0 DUP1 PUSH1 0x40 DUP4 DUP6 SUB SLT ISZERO PUSH2 0x2586 JUMPI PUSH2 0x2585 PUSH2 0x2191 JUMP JUMPDEST JUMPDEST PUSH0 PUSH2 0x2593 DUP6 DUP3 DUP7 ADD PUSH2 0x242C JUMP JUMPDEST SWAP3 POP POP PUSH1 0x20 PUSH2 0x25A4 DUP6 DUP3 DUP7 ADD PUSH2 0x255C JUMP JUMPDEST SWAP2 POP POP SWAP3 POP SWAP3 SWAP1 POP JUMP JUMPDEST PUSH0 PUSH1 0x20 DUP3 DUP5 SUB SLT ISZERO PUSH2 0x25C3 JUMPI PUSH2 0x25C2 PUSH2 0x2191 JUMP JUMPDEST JUMPDEST PUSH0 DUP3 ADD CALLDATALOAD PUSH8 0xFFFFFFFFFFFFFFFF DUP2 GT ISZERO PUSH2 0x25E0 JUMPI PUSH2 0x25DF PUSH2 0x2195 JUMP JUMPDEST JUMPDEST PUSH2 0x25EC DUP5 DUP3 DUP6 ADD PUSH2 0x22A8 JUMP JUMPDEST SWAP2 POP POP SWAP3 SWAP2 POP POP JUMP JUMPDEST PUSH0 DUP2 MLOAD SWAP1 POP SWAP2 SWAP1 POP JUMP JUMPDEST PUSH0 DUP3 DUP3 MSTORE PUSH1 0x20 DUP3 ADD SWAP1 POP SWAP3 SWAP2 POP POP JUMP JUMPDEST PUSH0 DUP2 SWAP1 POP PUSH1 0x20 DUP3 ADD SWAP1 POP SWAP2 SWAP1 POP JUMP JUMPDEST PUSH0 DUP2 MLOAD SWAP1 POP SWAP2 SWAP1 POP JUMP JUMPDEST PUSH0 DUP3 DUP3 MSTORE PUSH1 0x20 DUP3 ADD SWAP1 POP SWAP3 SWAP2 POP POP JUMP JUMPDEST PUSH0 JUMPDEST DUP4 DUP2 LT ISZERO PUSH2 0x2655 JUMPI DUP1 DUP3 ADD MLOAD DUP2 DUP5 ADD MSTORE PUSH1 0x20 DUP2 ADD SWAP1 POP PUSH2 0x263A JUMP JUMPDEST PUSH0 DUP5 DUP5 ADD MSTORE POP POP POP POP JUMP JUMPDEST PUSH0 PUSH2 0x266A DUP3 PUSH2 0x261E JUMP JUMPDEST PUSH2 0x2674 DUP2 DUP6 PUSH2 0x2628 JUMP JUMPDEST SWAP4 POP PUSH2 0x2684 DUP2 DUP6 PUSH1 0x20 DUP7 ADD PUSH2 0x2638 JUMP JUMPDEST PUSH2 0x268D DUP2 PUSH2 0x21A1 JUMP JUMPDEST DUP5 ADD SWAP2 POP POP SWAP3 SWAP2 POP POP JUMP JUMPDEST PUSH32 0x4E487B7100000000000000000000000000000000000000000000000000000000 PUSH0 MSTORE PUSH1 0x21 PUSH1 0x4 MSTORE PUSH1 0x24 PUSH0 REVERT JUMPDEST PUSH1 0x4 DUP2 LT PUSH2 0x26D6 JUMPI PUSH2 0x26D5 PUSH2 0x2698 JUMP JUMPDEST JUMPDEST POP JUMP JUMPDEST PUSH0 DUP2 SWAP1 POP PUSH2 0x26E6 DUP3 PUSH2 0x26C5 JUMP JUMPDEST SWAP2 SWAP1 POP JUMP JUMPDEST PUSH0 PUSH2 0x26F5 DUP3 PUSH2 0x26D9 JUMP JUMPDEST SWAP1 POP SWAP2 SWAP1 POP JUMP JUMPDEST PUSH2 0x2705 DUP2 PUSH2 0x26EB JUMP JUMPDEST DUP3 MSTORE POP POP JUMP JUMPDEST PUSH1 0x2 DUP2 LT PUSH2 0x271C JUMPI PUSH2 0x271B PUSH2 0x2698 JUMP JUMPDEST JUMPDEST POP JUMP JUMPDEST PUSH0 DUP2 SWAP1 POP PUSH2 0x272C DUP3 PUSH2 0x270B JUMP JUMPDEST SWAP2 SWAP1 POP JUMP JUMPDEST PUSH0 PUSH2 0x273B DUP3 PUSH2 0x271F JUMP JUMPDEST SWAP1 POP SWAP2 SWAP1 POP JUMP JUMPDEST PUSH2 0x274B DUP2 PUSH2 0x2731 JUMP JUMPDEST DUP3 MSTORE POP POP JUMP JUMPDEST PUSH0 PUSH4 0xFFFFFFFF DUP3 AND SWAP1 POP SWAP2 SWAP1 POP JUMP JUMPDEST PUSH2 0x2769 DUP2 PUSH2 0x2751 JUMP JUMPDEST DUP3 MSTORE POP POP JUMP JUMPDEST PUSH2 0x2778 DUP2 PUSH2 0x20F7 JUMP JUMPDEST DUP3 MSTORE POP POP JUMP JUMPDEST PUSH2 0x2787 DUP2 PUSH2 0x22F4 JUMP JUMPDEST DUP3 MSTORE POP POP JUMP JUMPDEST PUSH0 DUP2 ISZERO ISZERO SWAP1 POP SWAP2 SWAP1 POP JUMP JUMPDEST PUSH2 0x27A1 DUP2 PUSH2 0x278D JUMP JUMPDEST DUP3 MSTORE POP POP JUMP JUMPDEST PUSH0 PUSH2 0x160 DUP4 ADD PUSH0 DUP4 ADD MLOAD DUP5 DUP3 SUB PUSH0 DUP7 ADD MSTORE PUSH2 0x27C2 DUP3 DUP3 PUSH2 0x2660 JUMP JUMPDEST SWAP2 POP POP PUSH1 0x20 DUP4 ADD MLOAD DUP5 DUP3 SUB PUSH1 0x20 DUP7 ADD MSTORE PUSH2 0x27DC DUP3 DUP3 PUSH2 0x2660 JUMP JUMPDEST SWAP2 POP POP PUSH1 0x40 DUP4 ADD MLOAD PUSH2 0x27F1 PUSH1 0x40 DUP7 ADD DUP3 PUSH2 0x26FC JUMP JUMPDEST POP PUSH1 0x60 DUP4 ADD MLOAD PUSH2 0x2804 PUSH1 0x60 DUP7 ADD DUP3 PUSH2 0x2742 JUMP JUMPDEST POP PUSH1 0x80 DUP4 ADD MLOAD PUSH2 0x2817 PUSH1 0x80 DUP7 ADD DUP3 PUSH2 0x2760 JUMP JUMPDEST POP PUSH1 0xA0 DUP4 ADD MLOAD PUSH2 0x282A PUSH1 0xA0 DUP7 ADD DUP3 PUSH2 0x2760 JUMP JUMPDEST POP PUSH1 0xC0 DUP4 ADD MLOAD PUSH2 0x283D PUSH1 0xC0 DUP7 ADD DUP3 PUSH2 0x2760 JUMP JUMPDEST POP PUSH1 0xE0 DUP4 ADD MLOAD PUSH2 0x2850 PUSH1 0xE0 DUP7 ADD DUP3 PUSH2 0x276F JUMP JUMPDEST POP PUSH2 0x100 DUP4 ADD MLOAD PUSH2 0x2865 PUSH2 0x100 DUP7 ADD DUP3 PUSH2 0x277E JUMP JUMPDEST POP PUSH2 0x120 DUP4 ADD MLOAD PUSH2 0x287A PUSH2 0x120 DUP7 ADD DUP3 PUSH2 0x277E JUMP JUMPDEST POP PUSH2 0x140 DUP4 ADD MLOAD PUSH2 0x288F PUSH2 0x140 DUP7 ADD DUP3 PUSH2 0x2798 JUMP JUMPDEST POP DUP1 SWAP2 POP POP SWAP3 SWAP2 POP POP JUMP JUMPDEST PUSH0 PUSH2 0x28A5 DUP4 DUP4 PUSH2 0x27A7 JUMP JUMPDEST SWAP1 POP SWAP3 SWAP2 POP POP JUMP JUMPDEST PUSH0 PUSH1 0x20 DUP3 ADD SWAP1 POP SWAP2 SWAP1 POP JUMP JUMPDEST PUSH0 PUSH2 0x28C3 DUP3 PUSH2 0x25F5 JUMP JUMPDEST PUSH2 0x28CD DUP2 DUP6 PUSH2 0x25FF JUMP JUMPDEST SWAP4 POP DUP4 PUSH1 0x20 DUP3 MUL DUP6 ADD PUSH2 0x28DF DUP6 PUSH2 0x260F JUMP JUMPDEST DUP1 PUSH0 JUMPDEST DUP6 DUP2 LT ISZERO PUSH2 0x291A JUMPI DUP5 DUP5 SUB DUP10 MSTORE DUP2 MLOAD PUSH2 0x28FB DUP6 DUP3 PUSH2 0x289A JUMP JUMPDEST SWAP5 POP PUSH2 0x2906 DUP4 PUSH2 0x28AD JUMP JUMPDEST SWAP3 POP PUSH1 0x20 DUP11 ADD SWAP10 POP POP PUSH1 0x1 DUP2 ADD SWAP1 POP PUSH2 0x28E2 JUMP JUMPDEST POP DUP3 SWAP8 POP DUP8 SWAP6 POP POP POP POP POP POP SWAP3 SWAP2 POP POP JUMP JUMPDEST PUSH0 PUSH1 0x20 DUP3 ADD SWAP1 POP DUP2 DUP2 SUB PUSH0 DUP4 ADD MSTORE PUSH2 0x2944 DUP2 DUP5 PUSH2 0x28B9 JUMP JUMPDEST SWAP1 POP SWAP3 SWAP2 POP POP JUMP JUMPDEST PUSH0 PUSH1 0x20 DUP3 DUP5 SUB SLT ISZERO PUSH2 0x2961 JUMPI PUSH2 0x2960 PUSH2 0x2191 JUMP JUMPDEST JUMPDEST PUSH0 PUSH2 0x296E DUP5 DUP3 DUP6 ADD PUSH2 0x242C JUMP JUMPDEST SWAP2 POP POP SWAP3 SWAP2 POP POP JUMP JUMPDEST PUSH0 PUSH2 0x160 DUP4 ADD PUSH0 DUP4 ADD MLOAD DUP5 DUP3 SUB PUSH0 DUP7 ADD MSTORE PUSH2 0x2992 DUP3 DUP3 PUSH2 0x2660 JUMP JUMPDEST SWAP2 POP POP PUSH1 0x20 DUP4 ADD MLOAD DUP5 DUP3 SUB PUSH1 0x20 DUP7 ADD MSTORE PUSH2 0x29AC DUP3 DUP3 PUSH2 0x2660 JUMP JUMPDEST SWAP2 POP POP PUSH1 0x40 DUP4 ADD MLOAD PUSH2 0x29C1 PUSH1 0x40 DUP7 ADD DUP3 PUSH2 0x26FC JUMP JUMPDEST POP PUSH1 0x60 DUP4 ADD MLOAD PUSH2 0x29D4 PUSH1 0x60 DUP7 ADD DUP3 PUSH2 0x2742 JUMP JUMPDEST POP PUSH1 0x80 DUP4 ADD MLOAD PUSH2 0x29E7 PUSH1 0x80 DUP7 ADD DUP3 PUSH2 0x2760 JUMP JUMPDEST POP PUSH1 0xA0 DUP4 ADD MLOAD PUSH2 0x29FA PUSH1 0xA0 DUP7 ADD DUP3 PUSH2 0x2760 JUMP JUMPDEST POP PUSH1 0xC0 DUP4 ADD MLOAD PUSH2 0x2A0D PUSH1 0xC0 DUP7 ADD DUP3 PUSH2 0x2760 JUMP JUMPDEST POP PUSH1 0xE0 DUP4 ADD MLOAD PUSH2 0x2A20 PUSH1 0xE0 DUP7 ADD DUP3 PUSH2 0x276F JUMP JUMPDEST POP PUSH2 0x100 DUP4 ADD MLOAD PUSH2 0x2A35 PUSH2 0x100 DUP7 ADD DUP3 PUSH2 0x277E JUMP JUMPDEST POP PUSH2 0x120 DUP4 ADD MLOAD PUSH2 0x2A4A PUSH2 0x120 DUP7 ADD DUP3 PUSH2 0x277E JUMP JUMPDEST POP PUSH2 0x140 DUP4 ADD MLOAD PUSH2 0x2A5F PUSH2 0x140 DUP7 ADD DUP3 PUSH2 0x2798 JUMP JUMPDEST POP DUP1 SWAP2 POP POP SWAP3 SWAP2 POP POP JUMP JUMPDEST PUSH0 PUSH1 0x20 DUP3 ADD SWAP1 POP DUP2 DUP2 SUB PUSH0 DUP4 ADD MSTORE PUSH2 0x2A82 DUP2 DUP5 PUSH2 0x2977 JUMP JUMPDEST SWAP1 POP SWAP3 SWAP2 POP POP JUMP JUMPDEST PUSH2 0x2A93 DUP2 PUSH2 0x278D JUMP JUMPDEST DUP3 MSTORE POP POP JUMP JUMPDEST PUSH0 PUSH1 0x20 DUP3 ADD SWAP1 POP PUSH2 0x2AAC PUSH0 DUP4 ADD DUP5 PUSH2 0x2A8A JUMP JUMPDEST SWAP3 SWAP2 POP POP JUMP JUMPDEST PUSH2 0x2ABB DUP2 PUSH2 0x22F4 JUMP JUMPDEST DUP3 MSTORE POP POP JUMP JUMPDEST PUSH0 PUSH1 0x20 DUP3 ADD SWAP1 POP PUSH2 0x2AD4 PUSH0 DUP4 ADD DUP5 PUSH2 0x2AB2 JUMP JUMPDEST SWAP3 SWAP2 POP POP JUMP JUMPDEST PUSH0 DUP1 PUSH1 0x40 DUP4 DUP6 SUB SLT ISZERO PUSH2 0x2AF0 JUMPI PUSH2 0x2AEF PUSH2 0x2191 JUMP JUMPDEST JUMPDEST PUSH0 PUSH2 0x2AFD DUP6 DUP3 DUP7 ADD PUSH2 0x231B JUMP JUMPDEST SWAP3 POP POP PUSH1 0x20 PUSH2 0x2B0E DUP6 DUP3 DUP7 ADD PUSH2 0x242C JUMP JUMPDEST SWAP2 POP POP SWAP3 POP SWAP3 SWAP1 POP JUMP JUMPDEST PUSH0 PUSH1 0x20 DUP3 DUP5 SUB SLT ISZERO PUSH2 0x2B2D JUMPI PUSH2 0x2B2C PUSH2 0x2191 JUMP JUMPDEST JUMPDEST PUSH0 PUSH2 0x2B3A DUP5 DUP3 DUP6 ADD PUSH2 0x231B JUMP JUMPDEST SWAP2 POP POP SWAP3 SWAP2 POP POP JUMP JUMPDEST PUSH32 0x4E487B7100000000000000000000000000000000000000000000000000000000 PUSH0 MSTORE PUSH1 0x12 PUSH1 0x4 MSTORE PUSH1 0x24 PUSH0 REVERT JUMPDEST PUSH0 PUSH2 0x2B7A DUP3 PUSH2 0x20F7 JUMP JUMPDEST SWAP2 POP PUSH2 0x2B85 DUP4 PUSH2 0x20F7 JUMP JUMPDEST SWAP3 POP DUP3 PUSH2 0x2B95 JUMPI PUSH2 0x2B94 PUSH2 0x2B43 JUMP JUMPDEST JUMPDEST DUP3 DUP3 MOD SWAP1 POP SWAP3 SWAP2 POP POP JUMP JUMPDEST PUSH0 DUP3 DUP3 MSTORE PUSH1 0x20 DUP3 ADD SWAP1 POP SWAP3 SWAP2 POP POP JUMP JUMPDEST PUSH32 0x416E206576656E206E756D626572206F662070617274696370616E7473206973 PUSH0 DUP3 ADD MSTORE PUSH32 0x206E6F7420616C6C6F7765642E00000000000000000000000000000000000000 PUSH1 0x20 DUP3 ADD MSTORE POP JUMP JUMPDEST PUSH0 PUSH2 0x2C0A PUSH1 0x2D DUP4 PUSH2 0x2BA0 JUMP JUMPDEST SWAP2 POP PUSH2 0x2C15 DUP3 PUSH2 0x2BB0 JUMP JUMPDEST PUSH1 0x40 DUP3 ADD SWAP1 POP SWAP2 SWAP1 POP JUMP JUMPDEST PUSH0 PUSH1 0x20 DUP3 ADD SWAP1 POP DUP2 DUP2 SUB PUSH0 DUP4 ADD MSTORE PUSH2 0x2C37 DUP2 PUSH2 0x2BFE JUMP JUMPDEST SWAP1 POP SWAP2 SWAP1 POP JUMP JUMPDEST PUSH0 DUP2 SWAP1 POP SWAP2 SWAP1 POP JUMP JUMPDEST PUSH2 0x2C58 PUSH2 0x2C53 DUP3 PUSH2 0x20F7 JUMP JUMPDEST PUSH2 0x2C3E JUMP JUMPDEST DUP3 MSTORE POP POP JUMP JUMPDEST PUSH0 DUP2 PUSH1 0x60 SHL SWAP1 POP SWAP2 SWAP1 POP JUMP JUMPDEST PUSH0 PUSH2 0x2C74 DUP3 PUSH2 0x2C5E JUMP JUMPDEST SWAP1 POP SWAP2 SWAP1 POP JUMP JUMPDEST PUSH0 PUSH2 0x2C85 DUP3 PUSH2 0x2C6A JUMP JUMPDEST SWAP1 POP SWAP2 SWAP1 POP JUMP JUMPDEST PUSH2 0x2C9D PUSH2 0x2C98 DUP3 PUSH2 0x22F4 JUMP JUMPDEST PUSH2 0x2C7B JUMP JUMPDEST DUP3 MSTORE POP POP JUMP JUMPDEST PUSH0 PUSH2 0x2CAE DUP3 DUP6 PUSH2 0x2C47 JUMP JUMPDEST PUSH1 0x20 DUP3 ADD SWAP2 POP PUSH2 0x2CBE DUP3 DUP5 PUSH2 0x2C8C JUMP JUMPDEST PUSH1 0x14 DUP3 ADD SWAP2 POP DUP2 SWAP1 POP SWAP4 SWAP3 POP POP POP JUMP JUMPDEST PUSH32 0x4E487B7100000000000000000000000000000000000000000000000000000000 PUSH0 MSTORE PUSH1 0x22 PUSH1 0x4 MSTORE PUSH1 0x24 PUSH0 REVERT JUMPDEST PUSH0 PUSH1 0x2 DUP3 DIV SWAP1 POP PUSH1 0x1 DUP3 AND DUP1 PUSH2 0x2D12 JUMPI PUSH1 0x7F DUP3 AND SWAP2 POP JUMPDEST PUSH1 0x20 DUP3 LT DUP2 SUB PUSH2 0x2D25 JUMPI PUSH2 0x2D24 PUSH2 0x2CCE JUMP JUMPDEST JUMPDEST POP SWAP2 SWAP1 POP JUMP JUMPDEST PUSH0 DUP2 SWAP1 POP DUP2 PUSH0 MSTORE PUSH1 0x20 PUSH0 KECCAK256 SWAP1 POP SWAP2 SWAP1 POP JUMP JUMPDEST PUSH0 PUSH1 0x20 PUSH1 0x1F DUP4 ADD DIV SWAP1 POP SWAP2 SWAP1 POP JUMP JUMPDEST PUSH0 DUP3 DUP3 SHL SWAP1 POP SWAP3 SWAP2 POP POP JUMP JUMPDEST PUSH0 PUSH1 0x8 DUP4 MUL PUSH2 0x2D87 PUSH32 0xFFFFFFFFFFFFFFFFFFFFFFFFFFFFFFFFFFFFFFFFFFFFFFFFFFFFFFFFFFFFFFFF DUP3 PUSH2 0x2D4C JUMP JUMPDEST PUSH2 0x2D91 DUP7 DUP4 PUSH2 0x2D4C JUMP JUMPDEST SWAP6 POP DUP1 NOT DUP5 AND SWAP4 POP DUP1 DUP7 AND DUP5 OR SWAP3 POP POP POP SWAP4 SWAP3 POP POP POP JUMP JUMPDEST PUSH0 DUP2 SWAP1 POP SWAP2 SWAP1 POP JUMP JUMPDEST PUSH0 PUSH2 0x2DCC PUSH2 0x2DC7 PUSH2 0x2DC2 DUP5 PUSH2 0x20F7 JUMP JUMPDEST PUSH2 0x2DA9 JUMP JUMPDEST PUSH2 0x20F7 JUMP JUMPDEST SWAP1 POP SWAP2 SWAP1 POP JUMP JUMPDEST PUSH0 DUP2 SWAP1 POP SWAP2 SWAP1 POP JUMP JUMPDEST PUSH2 0x2DE5 DUP4 PUSH2 0x2DB2 JUMP JUMPDEST PUSH2 0x2DF9 PUSH2 0x2DF1 DUP3 PUSH2 0x2DD3 JUMP JUMPDEST DUP5 DUP5 SLOAD PUSH2 0x2D58 JUMP JUMPDEST DUP3 SSTORE POP POP POP POP JUMP JUMPDEST PUSH0 SWAP1 JUMP JUMPDEST PUSH2 0x2E0D PUSH2 0x2E01 JUMP JUMPDEST PUSH2 0x2E18 DUP2 DUP5 DUP5 PUSH2 0x2DDC JUMP JUMPDEST POP POP POP JUMP JUMPDEST JUMPDEST DUP2 DUP2 LT ISZERO PUSH2 0x2E3B JUMPI PUSH2 0x2E30 PUSH0 DUP3 PUSH2 0x2E05 JUMP JUMPDEST PUSH1 0x1 DUP2 ADD SWAP1 POP PUSH2 0x2E1E JUMP JUMPDEST POP POP JUMP JUMPDEST PUSH1 0x1F DUP3 GT ISZERO PUSH2 0x2E80 JUMPI PUSH2 0x2E51 DUP2 PUSH2 0x2D2B JUMP JUMPDEST PUSH2 0x2E5A DUP5 PUSH2 0x2D3D JUMP JUMPDEST DUP2 ADD PUSH1 0x20 DUP6 LT ISZERO PUSH2 0x2E69 JUMPI DUP2 SWAP1 POP JUMPDEST PUSH2 0x2E7D PUSH2 0x2E75 DUP6 PUSH2 0x2D3D JUMP JUMPDEST DUP4 ADD DUP3 PUSH2 0x2E1D JUMP JUMPDEST POP POP JUMPDEST POP POP POP JUMP JUMPDEST PUSH0 DUP3 DUP3 SHR SWAP1 POP SWAP3 SWAP2 POP POP JUMP JUMPDEST PUSH0 PUSH2 0x2EA0 PUSH0 NOT DUP5 PUSH1 0x8 MUL PUSH2 0x2E85 JUMP JUMPDEST NOT DUP1 DUP4 AND SWAP2 POP POP SWAP3 SWAP2 POP POP JUMP JUMPDEST PUSH0 PUSH2 0x2EB8 DUP4 DUP4 PUSH2 0x2E91 JUMP JUMPDEST SWAP2 POP DUP3 PUSH1 0x2 MUL DUP3 OR SWAP1 POP SWAP3 SWAP2 POP POP JUMP JUMPDEST PUSH2 0x2ED1 DUP3 PUSH2 0x261E JUMP JUMPDEST PUSH8 0xFFFFFFFFFFFFFFFF DUP2 GT ISZERO PUSH2 0x2EEA JUMPI PUSH2 0x2EE9 PUSH2 0x21B1 JUMP JUMPDEST JUMPDEST PUSH2 0x2EF4 DUP3 SLOAD PUSH2 0x2CFB JUMP JUMPDEST PUSH2 0x2EFF DUP3 DUP3 DUP6 PUSH2 0x2E3F JUMP JUMPDEST PUSH0 PUSH1 0x20 SWAP1 POP PUSH1 0x1F DUP4 GT PUSH1 0x1 DUP2 EQ PUSH2 0x2F30 JUMPI PUSH0 DUP5 ISZERO PUSH2 0x2F1E JUMPI DUP3 DUP8 ADD MLOAD SWAP1 POP JUMPDEST PUSH2 0x2F28 DUP6 DUP3 PUSH2 0x2EAD JUMP JUMPDEST DUP7 SSTORE POP PUSH2 0x2F8F JUMP JUMPDEST PUSH1 0x1F NOT DUP5 AND PUSH2 0x2F3E DUP7 PUSH2 0x2D2B JUMP JUMPDEST PUSH0 JUMPDEST DUP3 DUP2 LT ISZERO PUSH2 0x2F65 JUMPI DUP5 DUP10 ADD MLOAD DUP3 SSTORE PUSH1 0x1 DUP3 ADD SWAP2 POP PUSH1 0x20 DUP6 ADD SWAP5 POP PUSH1 0x20 DUP2 ADD SWAP1 POP PUSH2 0x2F40 JUMP JUMPDEST DUP7 DUP4 LT ISZERO PUSH2 0x2F82 JUMPI DUP5 DUP10 ADD MLOAD PUSH2 0x2F7E PUSH1 0x1F DUP10 AND DUP3 PUSH2 0x2E91 JUMP JUMPDEST DUP4 SSTORE POP JUMPDEST PUSH1 0x1 PUSH1 0x2 DUP9 MUL ADD DUP9 SSTORE POP POP POP JUMPDEST POP POP POP POP POP POP JUMP JUMPDEST PUSH32 0x4E487B7100000000000000000000000000000000000000000000000000000000 PUSH0 MSTORE PUSH1 0x32 PUSH1 0x4 MSTORE PUSH1 0x24 PUSH0 REVERT JUMPDEST PUSH0 DUP2 SWAP1 POP SWAP3 SWAP2 POP POP JUMP JUMPDEST PUSH0 PUSH2 0x2FD8 DUP3 PUSH2 0x261E JUMP JUMPDEST PUSH2 0x2FE2 DUP2 DUP6 PUSH2 0x2FC4 JUMP JUMPDEST SWAP4 POP PUSH2 0x2FF2 DUP2 DUP6 PUSH1 0x20 DUP7 ADD PUSH2 0x2638 JUMP JUMPDEST DUP1 DUP5 ADD SWAP2 POP POP SWAP3 SWAP2 POP POP JUMP JUMPDEST PUSH0 PUSH2 0x3009 DUP3 DUP5 PUSH2 0x2FCE JUMP JUMPDEST SWAP2 POP DUP2 SWAP1 POP SWAP3 SWAP2 POP POP JUMP JUMPDEST PUSH0 PUSH2 0x301E DUP3 PUSH2 0x261E JUMP JUMPDEST PUSH2 0x3028 DUP2 DUP6 PUSH2 0x2BA0 JUMP JUMPDEST SWAP4 POP PUSH2 0x3038 DUP2 DUP6 PUSH1 0x20 DUP7 ADD PUSH2 0x2638 JUMP JUMPDEST PUSH2 0x3041 DUP2 PUSH2 0x21A1 JUMP JUMPDEST DUP5 ADD SWAP2 POP POP SWAP3 SWAP2 POP POP JUMP JUMPDEST PUSH0 PUSH1 0x40 DUP3 ADD SWAP1 POP DUP2 DUP2 SUB PUSH0 DUP4 ADD MSTORE PUSH2 0x3064 DUP2 DUP6 PUSH2 0x3014 JUMP JUMPDEST SWAP1 POP PUSH2 0x3073 PUSH1 0x20 DUP4 ADD DUP5 PUSH2 0x2160 JUMP JUMPDEST SWAP4 SWAP3 POP POP POP JUMP JUMPDEST PUSH32 0x566F74696E67206F6E207468697320636F6E7472616374206973206E6F742061 PUSH0 DUP3 ADD MSTORE PUSH32 0x6C6C6F7765642E00000000000000000000000000000000000000000000000000 PUSH1 0x20 DUP3 ADD MSTORE POP JUMP JUMPDEST PUSH0 PUSH2 0x30D4 PUSH1 0x27 DUP4 PUSH2 0x2BA0 JUMP JUMPDEST SWAP2 POP PUSH2 0x30DF DUP3 PUSH2 0x307A JUMP JUMPDEST PUSH1 0x40 DUP3 ADD SWAP1 POP SWAP2 SWAP1 POP JUMP JUMPDEST PUSH0 PUSH1 0x20 DUP3 ADD SWAP1 POP DUP2 DUP2 SUB PUSH0 DUP4 ADD MSTORE PUSH2 0x3101 DUP2 PUSH2 0x30C8 JUMP JUMPDEST SWAP1 POP SWAP2 SWAP1 POP JUMP JUMPDEST PUSH0 PUSH2 0x3112 DUP3 PUSH2 0x2751 JUMP JUMPDEST SWAP2 POP PUSH4 0xFFFFFFFF DUP3 SUB PUSH2 0x3128 JUMPI PUSH2 0x3127 PUSH2 0x2100 JUMP JUMPDEST JUMPDEST PUSH1 0x1 DUP3 ADD SWAP1 POP SWAP2 SWAP1 POP JUMP JUMPDEST PUSH32 0x436F6E74726163742063616E206E6F74206265207365616C6564000000000000 PUSH0 DUP3 ADD MSTORE POP JUMP JUMPDEST PUSH0 PUSH2 0x3167 PUSH1 0x1A DUP4 PUSH2 0x2BA0 JUMP JUMPDEST SWAP2 POP PUSH2 0x3172 DUP3 PUSH2 0x3133 JUMP JUMPDEST PUSH1 0x20 DUP3 ADD SWAP1 POP SWAP2 SWAP1 POP JUMP JUMPDEST PUSH0 PUSH1 0x20 DUP3 ADD SWAP1 POP DUP2 DUP2 SUB PUSH0 DUP4 ADD MSTORE PUSH2 0x3194 DUP2 PUSH2 0x315B JUMP JUMPDEST SWAP1 POP SWAP2 SWAP1 POP JUMP JUMPDEST PUSH32 0x436F6E747261637420686173206E6F7420706169642E2049742063616E206E6F PUSH0 DUP3 ADD MSTORE PUSH32 0x74206265207365616C6564000000000000000000000000000000000000000000 PUSH1 0x20 DUP3 ADD MSTORE POP JUMP JUMPDEST PUSH0 PUSH2 0x31F5 PUSH1 0x2B DUP4 PUSH2 0x2BA0 JUMP JUMPDEST SWAP2 POP PUSH2 0x3200 DUP3 PUSH2 0x319B JUMP JUMPDEST PUSH1 0x40 DUP3 ADD SWAP1 POP SWAP2 SWAP1 POP JUMP JUMPDEST PUSH0 PUSH1 0x20 DUP3 ADD SWAP1 POP DUP2 DUP2 SUB PUSH0 DUP4 ADD MSTORE PUSH2 0x3222 DUP2 PUSH2 0x31E9 JUMP JUMPDEST SWAP1 POP SWAP2 SWAP1 POP JUMP JUMPDEST PUSH32 0x6669727374000000000000000000000000000000000000000000000000000000 PUSH0 DUP3 ADD MSTORE POP JUMP JUMPDEST PUSH0 PUSH2 0x325D PUSH1 0x5 DUP4 PUSH2 0x2BA0 JUMP JUMPDEST SWAP2 POP PUSH2 0x3268 DUP3 PUSH2 0x3229 JUMP JUMPDEST PUSH1 0x20 DUP3 ADD SWAP1 POP SWAP2 SWAP1 POP JUMP JUMPDEST PUSH0 PUSH1 0x20 DUP3 ADD SWAP1 POP DUP2 DUP2 SUB PUSH0 DUP4 ADD MSTORE PUSH2 0x328A DUP2 PUSH2 0x3251 JUMP JUMPDEST SWAP1 POP SWAP2 SWAP1 POP JUMP JUMPDEST PUSH32 0x7365636F6E640000000000000000000000000000000000000000000000000000 PUSH0 DUP3 ADD MSTORE POP JUMP JUMPDEST PUSH0 PUSH2 0x32C5 PUSH1 0x6 DUP4 PUSH2 0x2BA0 JUMP JUMPDEST SWAP2 POP PUSH2 0x32D0 DUP3 PUSH2 0x3291 JUMP JUMPDEST PUSH1 0x20 DUP3 ADD SWAP1 POP SWAP2 SWAP1 POP JUMP JUMPDEST PUSH0 PUSH1 0x20 DUP3 ADD SWAP1 POP DUP2 DUP2 SUB PUSH0 DUP4 ADD MSTORE PUSH2 0x32F2 DUP2 PUSH2 0x32B9 JUMP JUMPDEST SWAP1 POP SWAP2 SWAP1 POP JUMP JUMPDEST PUSH0 DUP2 MLOAD SWAP1 POP SWAP2 SWAP1 POP JUMP JUMPDEST PUSH0 DUP2 SWAP1 POP SWAP3 SWAP2 POP POP JUMP JUMPDEST PUSH0 PUSH2 0x3317 DUP3 PUSH2 0x32F9 JUMP JUMPDEST PUSH2 0x3321 DUP2 DUP6 PUSH2 0x3303 JUMP JUMPDEST SWAP4 POP PUSH2 0x3331 DUP2 DUP6 PUSH1 0x20 DUP7 ADD PUSH2 0x2638 JUMP JUMPDEST DUP1 DUP5 ADD SWAP2 POP POP SWAP3 SWAP2 POP POP JUMP JUMPDEST PUSH0 PUSH2 0x3348 DUP3 DUP5 PUSH2 0x330D JUMP JUMPDEST SWAP2 POP DUP2 SWAP1 POP SWAP3 SWAP2 POP POP JUMP JUMPDEST PUSH32 0x5061796D656E74206973206E6F7420636F6D706C657465640000000000000000 PUSH0 DUP3 ADD MSTORE POP JUMP JUMPDEST PUSH0 PUSH2 0x3387 PUSH1 0x18 DUP4 PUSH2 0x2BA0 JUMP JUMPDEST SWAP2 POP PUSH2 0x3392 DUP3 PUSH2 0x3353 JUMP JUMPDEST PUSH1 0x20 DUP3 ADD SWAP1 POP SWAP2 SWAP1 POP JUMP JUMPDEST PUSH0 PUSH1 0x20 DUP3 ADD SWAP1 POP DUP2 DUP2 SUB PUSH0 DUP4 ADD MSTORE PUSH2 0x33B4 DUP2 PUSH2 0x337B JUMP JUMPDEST SWAP1 POP SWAP2 SWAP1 POP JUMP JUMPDEST PUSH32 0x496E76616C696420726563697069656E74206164647265737300000000000000 PUSH0 DUP3 ADD MSTORE POP JUMP JUMPDEST PUSH0 PUSH2 0x33EF PUSH1 0x19 DUP4 PUSH2 0x2BA0 JUMP JUMPDEST SWAP2 POP PUSH2 0x33FA DUP3 PUSH2 0x33BB JUMP JUMPDEST PUSH1 0x20 DUP3 ADD SWAP1 POP SWAP2 SWAP1 POP JUMP JUMPDEST PUSH0 PUSH1 0x20 DUP3 ADD SWAP1 POP DUP2 DUP2 SUB PUSH0 DUP4 ADD MSTORE PUSH2 0x341C DUP2 PUSH2 0x33E3 JUMP JUMPDEST SWAP1 POP SWAP2 SWAP1 POP JUMP JUMPDEST PUSH32 0x416D6F756E74206D7573742062652067726561746572207468616E207A65726F PUSH0 DUP3 ADD MSTORE POP JUMP JUMPDEST PUSH0 PUSH2 0x3457 PUSH1 0x20 DUP4 PUSH2 0x2BA0 JUMP JUMPDEST SWAP2 POP PUSH2 0x3462 DUP3 PUSH2 0x3423 JUMP JUMPDEST PUSH1 0x20 DUP3 ADD SWAP1 POP SWAP2 SWAP1 POP JUMP JUMPDEST PUSH0 PUSH1 0x20 DUP3 ADD SWAP1 POP DUP2 DUP2 SUB PUSH0 DUP4 ADD MSTORE PUSH2 0x3484 DUP2 PUSH2 0x344B JUMP JUMPDEST SWAP1 POP SWAP2 SWAP1 POP JUMP JUMPDEST POP JUMP JUMPDEST PUSH0 PUSH2 0x3499 PUSH0 DUP4 PUSH2 0x3303 JUMP JUMPDEST SWAP2 POP PUSH2 0x34A4 DUP3 PUSH2 0x348B JUMP JUMPDEST PUSH0 DUP3 ADD SWAP1 POP SWAP2 SWAP1 POP JUMP JUMPDEST PUSH0 PUSH2 0x34B8 DUP3 PUSH2 0x348E JUMP JUMPDEST SWAP2 POP DUP2 SWAP1 POP SWAP2 SWAP1 POP JUMP JUMPDEST PUSH32 0x5472616E73666572206661696C65640000000000000000000000000000000000 PUSH0 DUP3 ADD MSTORE POP JUMP JUMPDEST PUSH0 PUSH2 0x34F6 PUSH1 0xF DUP4 PUSH2 0x2BA0 JUMP JUMPDEST SWAP2 POP PUSH2 0x3501 DUP3 PUSH2 0x34C2 JUMP JUMPDEST PUSH1 0x20 DUP3 ADD SWAP1 POP SWAP2 SWAP1 POP JUMP JUMPDEST PUSH0 PUSH1 0x20 DUP3 ADD SWAP1 POP DUP2 DUP2 SUB PUSH0 DUP4 ADD MSTORE PUSH2 0x3523 DUP2 PUSH2 0x34EA JUMP JUMPDEST SWAP1 POP SWAP2 SWAP1 POP JUMP JUMPDEST PUSH0 PUSH2 0x3534 DUP3 PUSH2 0x2751 JUMP JUMPDEST SWAP2 POP PUSH2 0x353F DUP4 PUSH2 0x2751 JUMP JUMPDEST SWAP3 POP DUP3 PUSH2 0x354F JUMPI PUSH2 0x354E PUSH2 0x2B43 JUMP JUMPDEST JUMPDEST DUP3 DUP3 DIV SWAP1 POP SWAP3 SWAP2 POP POP JUMP JUMPDEST PUSH0 PUSH1 0x40 DUP3 ADD SWAP1 POP PUSH2 0x356D PUSH0 DUP4 ADD DUP6 PUSH2 0x2AB2 JUMP JUMPDEST PUSH2 0x357A PUSH1 0x20 DUP4 ADD DUP5 PUSH2 0x2160 JUMP JUMPDEST SWAP4 SWAP3 POP POP POP JUMP INVALID LOG2 PUSH5 0x6970667358 0x22 SLT KECCAK256 0xC3 CREATE PUSH26 0x4C43D0014D0A44B1FAFCA4A92B52D263353D600BF3367BD88393 PUSH30 0x536864736F6C634300081600330000000000000000000000000000000000 "
				},
				"gasEstimates": {
					"creation": {
						"codeDepositCost": "2750200",
						"executionCost": "infinite",
						"totalCost": "infinite"
					},
					"external": {
						"castVote(uint256,uint8)": "infinite",
						"createContract(string,string,address,address[],string,uint8,uint256)": "infinite",
						"getContract(uint256)": "infinite",
						"getMyAssignedContracts()": "infinite",
						"getMyOrgContracts(string)": "infinite",
						"getTotalAmount()": "infinite",
						"makePayment(address,uint256)": "infinite",
						"owner()": "2582",
						"payToContractAdmin(address,uint256)": "infinite",
						"renounceOwnership()": "infinite",
						"sealContract(uint256)": "29589",
						"transferOwnership(address)": "infinite",
						"updateContractStatus(uint256)": "24996"
					},
					"internal": {
						"executeContract(struct Contracts.Contract memory,uint256)": "infinite"
					}
				},
				"methodIdentifiers": {
					"castVote(uint256,uint8)": "56781388",
					"createContract(string,string,address,address[],string,uint8,uint256)": "2f144bcd",
					"getContract(uint256)": "6ebc8c86",
					"getMyAssignedContracts()": "6d3fff27",
					"getMyOrgContracts(string)": "67c7b5d6",
					"getTotalAmount()": "65ac4341",
					"makePayment(address,uint256)": "f98cf07c",
					"owner()": "8da5cb5b",
					"payToContractAdmin(address,uint256)": "cbfa1a70",
					"renounceOwnership()": "715018a6",
					"sealContract(uint256)": "8b50d8c6",
					"transferOwnership(address)": "f2fde38b",
					"updateContractStatus(uint256)": "998aa465"
				}
			},
			"storageLayout": {
				"storage": [
					{
						"astId": 8,
						"contract": "contracts/contract-management.sol:ContractManagment",
						"label": "_owner",
						"offset": 0,
						"slot": "0",
						"type": "t_address"
					},
					{
						"astId": 693,
						"contract": "contracts/contract-management.sol:ContractManagment",
						"label": "ownerAddress",
						"offset": 0,
						"slot": "1",
						"type": "t_address_payable"
					},
					{
						"astId": 696,
						"contract": "contracts/contract-management.sol:ContractManagment",
						"label": "totalAmount",
						"offset": 0,
						"slot": "2",
						"type": "t_uint256"
					},
					{
						"astId": 744,
						"contract": "contracts/contract-management.sol:ContractManagment",
						"label": "ContractMgt",
						"offset": 0,
						"slot": "3",
						"type": "t_mapping(t_uint256,t_struct(Contract)739_storage)"
					},
					{
						"astId": 749,
						"contract": "contracts/contract-management.sol:ContractManagment",
						"label": "OrgContracts",
						"offset": 0,
						"slot": "4",
						"type": "t_mapping(t_string_memory_ptr,t_array(t_uint256)dyn_storage)"
					},
					{
						"astId": 754,
						"contract": "contracts/contract-management.sol:ContractManagment",
						"label": "ContractingParties",
						"offset": 0,
						"slot": "5",
						"type": "t_mapping(t_address,t_array(t_uint256)dyn_storage)"
					}
				],
				"types": {
					"t_address": {
						"encoding": "inplace",
						"label": "address",
						"numberOfBytes": "20"
					},
					"t_address_payable": {
						"encoding": "inplace",
						"label": "address payable",
						"numberOfBytes": "20"
					},
					"t_array(t_uint256)dyn_storage": {
						"base": "t_uint256",
						"encoding": "dynamic_array",
						"label": "uint256[]",
						"numberOfBytes": "32"
					},
					"t_bool": {
						"encoding": "inplace",
						"label": "bool",
						"numberOfBytes": "1"
					},
					"t_enum(ContractState)711": {
						"encoding": "inplace",
						"label": "enum Contracts.ContractState",
						"numberOfBytes": "1"
					},
					"t_enum(ContractType)714": {
						"encoding": "inplace",
						"label": "enum Contracts.ContractType",
						"numberOfBytes": "1"
					},
					"t_mapping(t_address,t_array(t_uint256)dyn_storage)": {
						"encoding": "mapping",
						"key": "t_address",
						"label": "mapping(address => uint256[])",
						"numberOfBytes": "32",
						"value": "t_array(t_uint256)dyn_storage"
					},
					"t_mapping(t_string_memory_ptr,t_array(t_uint256)dyn_storage)": {
						"encoding": "mapping",
						"key": "t_string_memory_ptr",
						"label": "mapping(string => uint256[])",
						"numberOfBytes": "32",
						"value": "t_array(t_uint256)dyn_storage"
					},
					"t_mapping(t_uint256,t_struct(Contract)739_storage)": {
						"encoding": "mapping",
						"key": "t_uint256",
						"label": "mapping(uint256 => struct Contracts.Contract)",
						"numberOfBytes": "32",
						"value": "t_struct(Contract)739_storage"
					},
					"t_string_memory_ptr": {
						"encoding": "bytes",
						"label": "string",
						"numberOfBytes": "32"
					},
					"t_string_storage": {
						"encoding": "bytes",
						"label": "string",
						"numberOfBytes": "32"
					},
					"t_struct(Contract)739_storage": {
						"encoding": "inplace",
						"label": "struct Contracts.Contract",
						"members": [
							{
								"astId": 716,
								"contract": "contracts/contract-management.sol:ContractManagment",
								"label": "name",
								"offset": 0,
								"slot": "0",
								"type": "t_string_storage"
							},
							{
								"astId": 718,
								"contract": "contracts/contract-management.sol:ContractManagment",
								"label": "terms",
								"offset": 0,
								"slot": "1",
								"type": "t_string_storage"
							},
							{
								"astId": 721,
								"contract": "contracts/contract-management.sol:ContractManagment",
								"label": "contractState",
								"offset": 0,
								"slot": "2",
								"type": "t_enum(ContractState)711"
							},
							{
								"astId": 724,
								"contract": "contracts/contract-management.sol:ContractManagment",
								"label": "contractType",
								"offset": 1,
								"slot": "2",
								"type": "t_enum(ContractType)714"
							},
							{
								"astId": 726,
								"contract": "contracts/contract-management.sol:ContractManagment",
								"label": "numberOfParticipants",
								"offset": 2,
								"slot": "2",
								"type": "t_uint32"
							},
							{
								"astId": 728,
								"contract": "contracts/contract-management.sol:ContractManagment",
								"label": "forVotes",
								"offset": 6,
								"slot": "2",
								"type": "t_uint32"
							},
							{
								"astId": 730,
								"contract": "contracts/contract-management.sol:ContractManagment",
								"label": "againstVotes",
								"offset": 10,
								"slot": "2",
								"type": "t_uint32"
							},
							{
								"astId": 732,
								"contract": "contracts/contract-management.sol:ContractManagment",
								"label": "amount",
								"offset": 0,
								"slot": "3",
								"type": "t_uint256"
							},
							{
								"astId": 734,
								"contract": "contracts/contract-management.sol:ContractManagment",
								"label": "payableUserAddress",
								"offset": 0,
								"slot": "4",
								"type": "t_address"
							},
							{
								"astId": 736,
								"contract": "contracts/contract-management.sol:ContractManagment",
								"label": "payeeAddress",
								"offset": 0,
								"slot": "5",
								"type": "t_address"
							},
							{
								"astId": 738,
								"contract": "contracts/contract-management.sol:ContractManagment",
								"label": "hasPaidToContractAdmin",
								"offset": 20,
								"slot": "5",
								"type": "t_bool"
							}
						],
						"numberOfBytes": "192"
					},
					"t_uint256": {
						"encoding": "inplace",
						"label": "uint256",
						"numberOfBytes": "32"
					},
					"t_uint32": {
						"encoding": "inplace",
						"label": "uint32",
						"numberOfBytes": "4"
					}
				}
			},
			"userdoc": {
				"kind": "user",
				"methods": {},
				"version": 1
			}
		}
	}
}