{
	"contracts/contracts.sol": {
		"Contracts": {
			"abi": [
				{
					"inputs": [
						{
							"internalType": "address",
							"name": "_ownerAddress",
							"type": "address"
						}
					],
					"stateMutability": "nonpayable",
					"type": "constructor"
				},
				{
					"inputs": [
						{
							"internalType": "address",
							"name": "owner",
							"type": "address"
						}
					],
					"name": "OwnableInvalidOwner",
					"type": "error"
				},
				{
					"inputs": [
						{
							"internalType": "address",
							"name": "account",
							"type": "address"
						}
					],
					"name": "OwnableUnauthorizedAccount",
					"type": "error"
				},
				{
					"anonymous": false,
					"inputs": [
						{
							"indexed": false,
							"internalType": "string",
							"name": "logger",
							"type": "string"
						}
					],
					"name": "Logger",
					"type": "event"
				},
				{
					"anonymous": false,
					"inputs": [
						{
							"indexed": true,
							"internalType": "address",
							"name": "previousOwner",
							"type": "address"
						},
						{
							"indexed": true,
							"internalType": "address",
							"name": "newOwner",
							"type": "address"
						}
					],
					"name": "OwnershipTransferred",
					"type": "event"
				},
				{
					"anonymous": false,
					"inputs": [
						{
							"indexed": true,
							"internalType": "address",
							"name": "sender",
							"type": "address"
						},
						{
							"indexed": false,
							"internalType": "uint256",
							"name": "amount",
							"type": "uint256"
						}
					],
					"name": "Received",
					"type": "event"
				},
				{
					"inputs": [],
					"name": "getTotalAmount",
					"outputs": [
						{
							"internalType": "uint256",
							"name": "",
							"type": "uint256"
						}
					],
					"stateMutability": "view",
					"type": "function"
				},
				{
					"inputs": [],
					"name": "owner",
					"outputs": [
						{
							"internalType": "address",
							"name": "",
							"type": "address"
						}
					],
					"stateMutability": "view",
					"type": "function"
				},
				{
					"inputs": [
						{
							"internalType": "address",
							"name": "_payeeAddress",
							"type": "address"
						},
						{
							"internalType": "uint256",
							"name": "_contractId",
							"type": "uint256"
						}
					],
					"name": "payToContractAdmin",
					"outputs": [],
					"stateMutability": "payable",
					"type": "function"
				},
				{
					"inputs": [],
					"name": "renounceOwnership",
					"outputs": [],
					"stateMutability": "nonpayable",
					"type": "function"
				},
				{
					"inputs": [
						{
							"internalType": "address",
							"name": "newOwner",
							"type": "address"
						}
					],
					"name": "transferOwnership",
					"outputs": [],
					"stateMutability": "nonpayable",
					"type": "function"
				},
				{
					"inputs": [
						{
							"internalType": "uint256",
							"name": "_contractId",
							"type": "uint256"
						}
					],
					"name": "updateContractStatus",
					"outputs": [
						{
							"internalType": "bool",
							"name": "",
							"type": "bool"
						}
					],
					"stateMutability": "payable",
					"type": "function"
				},
				{
					"stateMutability": "payable",
					"type": "receive"
				}
			],
			"devdoc": {
				"errors": {
					"OwnableInvalidOwner(address)": [
						{
							"details": "The owner is not a valid owner account. (eg. `address(0)`)"
						}
					],
					"OwnableUnauthorizedAccount(address)": [
						{
							"details": "The caller account is not authorized to perform an operation."
						}
					]
				},
				"kind": "dev",
				"methods": {
					"owner()": {
						"details": "Returns the address of the current owner."
					},
					"renounceOwnership()": {
						"details": "Leaves the contract without owner. It will not be possible to call `onlyOwner` functions. Can only be called by the current owner. NOTE: Renouncing ownership will leave the contract without an owner, thereby disabling any functionality that is only available to the owner."
					},
					"transferOwnership(address)": {
						"details": "Transfers ownership of the contract to a new account (`newOwner`). Can only be called by the current owner."
					}
				},
				"version": 1
			},
			"evm": {
				"assembly": "    /* \"contracts/contracts.sol\":125:2039  contract Contracts is Ownable {... */\n  mstore(0x40, 0x80)\n    /* \"contracts/contracts.sol\":216:217  0 */\n  0x00\n    /* \"contracts/contracts.sol\":197:217  uint totalAmount = 0 */\n  0x02\n  sstore\n    /* \"contracts/contracts.sol\":1037:1148  constructor(address _ownerAddress) Ownable(_ownerAddress) {... */\n  callvalue\n  dup1\n  iszero\n  tag_1\n  jumpi\n  0x00\n  dup1\n  revert\ntag_1:\n  pop\n  mload(0x40)\n  sub(codesize, bytecodeSize)\n  dup1\n  bytecodeSize\n  dup4\n  codecopy\n  dup2\n  dup2\n  add\n  0x40\n  mstore\n  dup2\n  add\n  swap1\n  tag_2\n  swap2\n  swap1\n  tag_3\n  jump\t// in\ntag_2:\n    /* \"contracts/contracts.sol\":1080:1093  _ownerAddress */\n  dup1\n    /* \"@openzeppelin/contracts/access/Ownable.sol\":1297:1298  0 */\n  0x00\n    /* \"@openzeppelin/contracts/access/Ownable.sol\":1273:1299  initialOwner == address(0) */\n  0xffffffffffffffffffffffffffffffffffffffff\n  and\n    /* \"@openzeppelin/contracts/access/Ownable.sol\":1273:1285  initialOwner */\n  dup2\n    /* \"@openzeppelin/contracts/access/Ownable.sol\":1273:1299  initialOwner == address(0) */\n  0xffffffffffffffffffffffffffffffffffffffff\n  and\n  sub\n    /* \"@openzeppelin/contracts/access/Ownable.sol\":1269:1364  if (initialOwner == address(0)) {... */\n  tag_7\n  jumpi\n    /* \"@openzeppelin/contracts/access/Ownable.sol\":1350:1351  0 */\n  0x00\n    /* \"@openzeppelin/contracts/access/Ownable.sol\":1322:1353  OwnableInvalidOwner(address(0)) */\n  mload(0x40)\n  0x1e4fbdf700000000000000000000000000000000000000000000000000000000\n  dup2\n  mstore\n  0x04\n  add\n  tag_8\n  swap2\n  swap1\n  tag_9\n  jump\t// in\ntag_8:\n  mload(0x40)\n  dup1\n  swap2\n  sub\n  swap1\n  revert\n    /* \"@openzeppelin/contracts/access/Ownable.sol\":1269:1364  if (initialOwner == address(0)) {... */\ntag_7:\n    /* \"@openzeppelin/contracts/access/Ownable.sol\":1373:1405  _transferOwnership(initialOwner) */\n  tag_10\n    /* \"@openzeppelin/contracts/access/Ownable.sol\":1392:1404  initialOwner */\n  dup2\n    /* \"@openzeppelin/contracts/access/Ownable.sol\":1373:1391  _transferOwnership */\n  shl(0x20, tag_11)\n    /* \"@openzeppelin/contracts/access/Ownable.sol\":1373:1405  _transferOwnership(initialOwner) */\n  0x20\n  shr\n  jump\t// in\ntag_10:\n    /* \"@openzeppelin/contracts/access/Ownable.sol\":1225:1412  constructor(address initialOwner) {... */\n  pop\n    /* \"contracts/contracts.sol\":1129:1139  msg.sender */\n  caller\n    /* \"contracts/contracts.sol\":1106:1118  ownerAddress */\n  0x01\n  0x00\n    /* \"contracts/contracts.sol\":1106:1140  ownerAddress = payable(msg.sender) */\n  0x0100\n  exp\n  dup2\n  sload\n  dup2\n  0xffffffffffffffffffffffffffffffffffffffff\n  mul\n  not\n  and\n  swap1\n  dup4\n  0xffffffffffffffffffffffffffffffffffffffff\n  and\n  mul\n  or\n  swap1\n  sstore\n  pop\n    /* \"contracts/contracts.sol\":1037:1148  constructor(address _ownerAddress) Ownable(_ownerAddress) {... */\n  pop\n    /* \"contracts/contracts.sol\":125:2039  contract Contracts is Ownable {... */\n  jump(tag_13)\n    /* \"@openzeppelin/contracts/access/Ownable.sol\":2912:3099  function _transferOwnership(address newOwner) internal virtual {... */\ntag_11:\n    /* \"@openzeppelin/contracts/access/Ownable.sol\":2985:3001  address oldOwner */\n  0x00\n    /* \"@openzeppelin/contracts/access/Ownable.sol\":3004:3010  _owner */\n  dup1\n  0x00\n  swap1\n  sload\n  swap1\n  0x0100\n  exp\n  swap1\n  div\n  0xffffffffffffffffffffffffffffffffffffffff\n  and\n    /* \"@openzeppelin/contracts/access/Ownable.sol\":2985:3010  address oldOwner = _owner */\n  swap1\n  pop\n    /* \"@openzeppelin/contracts/access/Ownable.sol\":3029:3037  newOwner */\n  dup2\n    /* \"@openzeppelin/contracts/access/Ownable.sol\":3020:3026  _owner */\n  0x00\n  dup1\n    /* \"@openzeppelin/contracts/access/Ownable.sol\":3020:3037  _owner = newOwner */\n  0x0100\n  exp\n  dup2\n  sload\n  dup2\n  0xffffffffffffffffffffffffffffffffffffffff\n  mul\n  not\n  and\n  swap1\n  dup4\n  0xffffffffffffffffffffffffffffffffffffffff\n  and\n  mul\n  or\n  swap1\n  sstore\n  pop\n    /* \"@openzeppelin/contracts/access/Ownable.sol\":3083:3091  newOwner */\n  dup2\n    /* \"@openzeppelin/contracts/access/Ownable.sol\":3052:3092  OwnershipTransferred(oldOwner, newOwner) */\n  0xffffffffffffffffffffffffffffffffffffffff\n  and\n    /* \"@openzeppelin/contracts/access/Ownable.sol\":3073:3081  oldOwner */\n  dup2\n    /* \"@openzeppelin/contracts/access/Ownable.sol\":3052:3092  OwnershipTransferred(oldOwner, newOwner) */\n  0xffffffffffffffffffffffffffffffffffffffff\n  and\n  0x8be0079c531659141344cd1fd0a4f28419497f9722a3daafe3b4186f6b6457e0\n  mload(0x40)\n  mload(0x40)\n  dup1\n  swap2\n  sub\n  swap1\n  log3\n    /* \"@openzeppelin/contracts/access/Ownable.sol\":2975:3099  {... */\n  pop\n    /* \"@openzeppelin/contracts/access/Ownable.sol\":2912:3099  function _transferOwnership(address newOwner) internal virtual {... */\n  pop\n  jump\t// out\n    /* \"#utility.yul\":88:205   */\ntag_16:\n    /* \"#utility.yul\":197:198   */\n  0x00\n    /* \"#utility.yul\":194:195   */\n  dup1\n    /* \"#utility.yul\":187:199   */\n  revert\n    /* \"#utility.yul\":334:460   */\ntag_18:\n    /* \"#utility.yul\":371:378   */\n  0x00\n    /* \"#utility.yul\":411:453   */\n  0xffffffffffffffffffffffffffffffffffffffff\n    /* \"#utility.yul\":404:409   */\n  dup3\n    /* \"#utility.yul\":400:454   */\n  and\n    /* \"#utility.yul\":389:454   */\n  swap1\n  pop\n    /* \"#utility.yul\":334:460   */\n  swap2\n  swap1\n  pop\n  jump\t// out\n    /* \"#utility.yul\":466:562   */\ntag_19:\n    /* \"#utility.yul\":503:510   */\n  0x00\n    /* \"#utility.yul\":532:556   */\n  tag_29\n    /* \"#utility.yul\":550:555   */\n  dup3\n    /* \"#utility.yul\":532:556   */\n  tag_18\n  jump\t// in\ntag_29:\n    /* \"#utility.yul\":521:556   */\n  swap1\n  pop\n    /* \"#utility.yul\":466:562   */\n  swap2\n  swap1\n  pop\n  jump\t// out\n    /* \"#utility.yul\":568:690   */\ntag_20:\n    /* \"#utility.yul\":641:665   */\n  tag_31\n    /* \"#utility.yul\":659:664   */\n  dup2\n    /* \"#utility.yul\":641:665   */\n  tag_19\n  jump\t// in\ntag_31:\n    /* \"#utility.yul\":634:639   */\n  dup2\n    /* \"#utility.yul\":631:666   */\n  eq\n    /* \"#utility.yul\":621:684   */\n  tag_32\n  jumpi\n    /* \"#utility.yul\":680:681   */\n  0x00\n    /* \"#utility.yul\":677:678   */\n  dup1\n    /* \"#utility.yul\":670:682   */\n  revert\n    /* \"#utility.yul\":621:684   */\ntag_32:\n    /* \"#utility.yul\":568:690   */\n  pop\n  jump\t// out\n    /* \"#utility.yul\":696:839   */\ntag_21:\n    /* \"#utility.yul\":753:758   */\n  0x00\n    /* \"#utility.yul\":784:790   */\n  dup2\n    /* \"#utility.yul\":778:791   */\n  mload\n    /* \"#utility.yul\":769:791   */\n  swap1\n  pop\n    /* \"#utility.yul\":800:833   */\n  tag_34\n    /* \"#utility.yul\":827:832   */\n  dup2\n    /* \"#utility.yul\":800:833   */\n  tag_20\n  jump\t// in\ntag_34:\n    /* \"#utility.yul\":696:839   */\n  swap3\n  swap2\n  pop\n  pop\n  jump\t// out\n    /* \"#utility.yul\":845:1196   */\ntag_3:\n    /* \"#utility.yul\":915:921   */\n  0x00\n    /* \"#utility.yul\":964:966   */\n  0x20\n    /* \"#utility.yul\":952:961   */\n  dup3\n    /* \"#utility.yul\":943:950   */\n  dup5\n    /* \"#utility.yul\":939:962   */\n  sub\n    /* \"#utility.yul\":935:967   */\n  slt\n    /* \"#utility.yul\":932:1051   */\n  iszero\n  tag_36\n  jumpi\n    /* \"#utility.yul\":970:1049   */\n  tag_37\n  tag_16\n  jump\t// in\ntag_37:\n    /* \"#utility.yul\":932:1051   */\ntag_36:\n    /* \"#utility.yul\":1090:1091   */\n  0x00\n    /* \"#utility.yul\":1115:1179   */\n  tag_38\n    /* \"#utility.yul\":1171:1178   */\n  dup5\n    /* \"#utility.yul\":1162:1168   */\n  dup3\n    /* \"#utility.yul\":1151:1160   */\n  dup6\n    /* \"#utility.yul\":1147:1169   */\n  add\n    /* \"#utility.yul\":1115:1179   */\n  tag_21\n  jump\t// in\ntag_38:\n    /* \"#utility.yul\":1105:1179   */\n  swap2\n  pop\n    /* \"#utility.yul\":1061:1189   */\n  pop\n    /* \"#utility.yul\":845:1196   */\n  swap3\n  swap2\n  pop\n  pop\n  jump\t// out\n    /* \"#utility.yul\":1202:1320   */\ntag_22:\n    /* \"#utility.yul\":1289:1313   */\n  tag_40\n    /* \"#utility.yul\":1307:1312   */\n  dup2\n    /* \"#utility.yul\":1289:1313   */\n  tag_19\n  jump\t// in\ntag_40:\n    /* \"#utility.yul\":1284:1287   */\n  dup3\n    /* \"#utility.yul\":1277:1314   */\n  mstore\n    /* \"#utility.yul\":1202:1320   */\n  pop\n  pop\n  jump\t// out\n    /* \"#utility.yul\":1326:1548   */\ntag_9:\n    /* \"#utility.yul\":1419:1423   */\n  0x00\n    /* \"#utility.yul\":1457:1459   */\n  0x20\n    /* \"#utility.yul\":1446:1455   */\n  dup3\n    /* \"#utility.yul\":1442:1460   */\n  add\n    /* \"#utility.yul\":1434:1460   */\n  swap1\n  pop\n    /* \"#utility.yul\":1470:1541   */\n  tag_42\n    /* \"#utility.yul\":1538:1539   */\n  0x00\n    /* \"#utility.yul\":1527:1536   */\n  dup4\n    /* \"#utility.yul\":1523:1540   */\n  add\n    /* \"#utility.yul\":1514:1520   */\n  dup5\n    /* \"#utility.yul\":1470:1541   */\n  tag_22\n  jump\t// in\ntag_42:\n    /* \"#utility.yul\":1326:1548   */\n  swap3\n  swap2\n  pop\n  pop\n  jump\t// out\n    /* \"contracts/contracts.sol\":125:2039  contract Contracts is Ownable {... */\ntag_13:\n  dataSize(sub_0)\n  dup1\n  dataOffset(sub_0)\n  0x00\n  codecopy\n  0x00\n  return\nstop\n\nsub_0: assembly {\n        /* \"contracts/contracts.sol\":125:2039  contract Contracts is Ownable {... */\n      mstore(0x40, 0x80)\n      jumpi(tag_1, lt(calldatasize, 0x04))\n      shr(0xe0, calldataload(0x00))\n      dup1\n      0x65ac4341\n      eq\n      tag_3\n      jumpi\n      dup1\n      0x715018a6\n      eq\n      tag_4\n      jumpi\n      dup1\n      0x8da5cb5b\n      eq\n      tag_5\n      jumpi\n      dup1\n      0x998aa465\n      eq\n      tag_6\n      jumpi\n      dup1\n      0xcbfa1a70\n      eq\n      tag_7\n      jumpi\n      dup1\n      0xf2fde38b\n      eq\n      tag_8\n      jumpi\n      jump(tag_2)\n    tag_1:\n      jumpi(tag_2, calldatasize)\n        /* \"contracts/contracts.sol\":1318:1327  msg.value */\n      callvalue\n        /* \"contracts/contracts.sol\":1303:1314  totalAmount */\n      0x02\n      0x00\n        /* \"contracts/contracts.sol\":1303:1327  totalAmount += msg.value */\n      dup3\n      dup3\n      sload\n      tag_11\n      swap2\n      swap1\n      tag_12\n      jump\t// in\n    tag_11:\n      swap3\n      pop\n      pop\n      dup2\n      swap1\n      sstore\n      pop\n        /* \"contracts/contracts.sol\":1352:1362  msg.sender */\n      caller\n        /* \"contracts/contracts.sol\":1343:1374  Received(msg.sender, msg.value) */\n      0xffffffffffffffffffffffffffffffffffffffff\n      and\n      0x88a5966d370b9919b20f3e2c13ff65706f196a4e32cc2c12bf57088f88525874\n        /* \"contracts/contracts.sol\":1364:1373  msg.value */\n      callvalue\n        /* \"contracts/contracts.sol\":1343:1374  Received(msg.sender, msg.value) */\n      mload(0x40)\n      tag_13\n      swap2\n      swap1\n      tag_14\n      jump\t// in\n    tag_13:\n      mload(0x40)\n      dup1\n      swap2\n      sub\n      swap1\n      log2\n        /* \"contracts/contracts.sol\":125:2039  contract Contracts is Ownable {... */\n      stop\n    tag_2:\n      0x00\n      dup1\n      revert\n        /* \"contracts/contracts.sol\":1156:1257  function getTotalAmount() external view onlyOwner returns (uint){... */\n    tag_3:\n      callvalue\n      dup1\n      iszero\n      tag_15\n      jumpi\n      0x00\n      dup1\n      revert\n    tag_15:\n      pop\n      tag_16\n      tag_17\n      jump\t// in\n    tag_16:\n      mload(0x40)\n      tag_18\n      swap2\n      swap1\n      tag_14\n      jump\t// in\n    tag_18:\n      mload(0x40)\n      dup1\n      swap2\n      sub\n      swap1\n      return\n        /* \"@openzeppelin/contracts/access/Ownable.sol\":2293:2394  function renounceOwnership() public virtual onlyOwner {... */\n    tag_4:\n      callvalue\n      dup1\n      iszero\n      tag_19\n      jumpi\n      0x00\n      dup1\n      revert\n    tag_19:\n      pop\n      tag_20\n      tag_21\n      jump\t// in\n    tag_20:\n      stop\n        /* \"@openzeppelin/contracts/access/Ownable.sol\":1638:1723  function owner() public view virtual returns (address) {... */\n    tag_5:\n      callvalue\n      dup1\n      iszero\n      tag_22\n      jumpi\n      0x00\n      dup1\n      revert\n    tag_22:\n      pop\n      tag_23\n      tag_24\n      jump\t// in\n    tag_23:\n      mload(0x40)\n      tag_25\n      swap2\n      swap1\n      tag_26\n      jump\t// in\n    tag_25:\n      mload(0x40)\n      dup1\n      swap2\n      sub\n      swap1\n      return\n        /* \"contracts/contracts.sol\":1858:2034  function updateContractStatus(uint256 _contractId) public payable returns (bool){ ... */\n    tag_6:\n      tag_27\n      0x04\n      dup1\n      calldatasize\n      sub\n      dup2\n      add\n      swap1\n      tag_28\n      swap2\n      swap1\n      tag_29\n      jump\t// in\n    tag_28:\n      tag_30\n      jump\t// in\n    tag_27:\n      mload(0x40)\n      tag_31\n      swap2\n      swap1\n      tag_32\n      jump\t// in\n    tag_31:\n      mload(0x40)\n      dup1\n      swap2\n      sub\n      swap1\n      return\n        /* \"contracts/contracts.sol\":1390:1850  function payToContractAdmin(address _payeeAddress, uint256 _contractId) external payable {... */\n    tag_7:\n      tag_33\n      0x04\n      dup1\n      calldatasize\n      sub\n      dup2\n      add\n      swap1\n      tag_34\n      swap2\n      swap1\n      tag_35\n      jump\t// in\n    tag_34:\n      tag_36\n      jump\t// in\n    tag_33:\n      stop\n        /* \"@openzeppelin/contracts/access/Ownable.sol\":2543:2758  function transferOwnership(address newOwner) public virtual onlyOwner {... */\n    tag_8:\n      callvalue\n      dup1\n      iszero\n      tag_37\n      jumpi\n      0x00\n      dup1\n      revert\n    tag_37:\n      pop\n      tag_38\n      0x04\n      dup1\n      calldatasize\n      sub\n      dup2\n      add\n      swap1\n      tag_39\n      swap2\n      swap1\n      tag_40\n      jump\t// in\n    tag_39:\n      tag_41\n      jump\t// in\n    tag_38:\n      stop\n        /* \"contracts/contracts.sol\":1156:1257  function getTotalAmount() external view onlyOwner returns (uint){... */\n    tag_17:\n        /* \"contracts/contracts.sol\":1215:1219  uint */\n      0x00\n        /* \"@openzeppelin/contracts/access/Ownable.sol\":1531:1544  _checkOwner() */\n      tag_43\n        /* \"@openzeppelin/contracts/access/Ownable.sol\":1531:1542  _checkOwner */\n      tag_44\n        /* \"@openzeppelin/contracts/access/Ownable.sol\":1531:1544  _checkOwner() */\n      jump\t// in\n    tag_43:\n        /* \"contracts/contracts.sol\":1238:1249  totalAmount */\n      sload(0x02)\n        /* \"contracts/contracts.sol\":1231:1249  return totalAmount */\n      swap1\n      pop\n        /* \"contracts/contracts.sol\":1156:1257  function getTotalAmount() external view onlyOwner returns (uint){... */\n      swap1\n      jump\t// out\n        /* \"@openzeppelin/contracts/access/Ownable.sol\":2293:2394  function renounceOwnership() public virtual onlyOwner {... */\n    tag_21:\n        /* \"@openzeppelin/contracts/access/Ownable.sol\":1531:1544  _checkOwner() */\n      tag_47\n        /* \"@openzeppelin/contracts/access/Ownable.sol\":1531:1542  _checkOwner */\n      tag_44\n        /* \"@openzeppelin/contracts/access/Ownable.sol\":1531:1544  _checkOwner() */\n      jump\t// in\n    tag_47:\n        /* \"@openzeppelin/contracts/access/Ownable.sol\":2357:2387  _transferOwnership(address(0)) */\n      tag_49\n        /* \"@openzeppelin/contracts/access/Ownable.sol\":2384:2385  0 */\n      0x00\n        /* \"@openzeppelin/contracts/access/Ownable.sol\":2357:2375  _transferOwnership */\n      tag_50\n        /* \"@openzeppelin/contracts/access/Ownable.sol\":2357:2387  _transferOwnership(address(0)) */\n      jump\t// in\n    tag_49:\n        /* \"@openzeppelin/contracts/access/Ownable.sol\":2293:2394  function renounceOwnership() public virtual onlyOwner {... */\n      jump\t// out\n        /* \"@openzeppelin/contracts/access/Ownable.sol\":1638:1723  function owner() public view virtual returns (address) {... */\n    tag_24:\n        /* \"@openzeppelin/contracts/access/Ownable.sol\":1684:1691  address */\n      0x00\n        /* \"@openzeppelin/contracts/access/Ownable.sol\":1710:1716  _owner */\n      dup1\n      0x00\n      swap1\n      sload\n      swap1\n      0x0100\n      exp\n      swap1\n      div\n      0xffffffffffffffffffffffffffffffffffffffff\n      and\n        /* \"@openzeppelin/contracts/access/Ownable.sol\":1703:1716  return _owner */\n      swap1\n      pop\n        /* \"@openzeppelin/contracts/access/Ownable.sol\":1638:1723  function owner() public view virtual returns (address) {... */\n      swap1\n      jump\t// out\n        /* \"contracts/contracts.sol\":1858:2034  function updateContractStatus(uint256 _contractId) public payable returns (bool){ ... */\n    tag_30:\n        /* \"contracts/contracts.sol\":1933:1937  bool */\n      0x00\n        /* \"contracts/contracts.sol\":2000:2004  true */\n      0x01\n        /* \"contracts/contracts.sol\":1950:1961  ContractMgt */\n      0x03\n        /* \"contracts/contracts.sol\":1950:1974  ContractMgt[_contractId] */\n      0x00\n        /* \"contracts/contracts.sol\":1962:1973  _contractId */\n      dup5\n        /* \"contracts/contracts.sol\":1950:1974  ContractMgt[_contractId] */\n      dup2\n      mstore\n      0x20\n      add\n      swap1\n      dup2\n      mstore\n      0x20\n      add\n      0x00\n      keccak256\n        /* \"contracts/contracts.sol\":1950:1997  ContractMgt[_contractId].hasPaidToContractAdmin */\n      0x05\n      add\n      0x14\n        /* \"contracts/contracts.sol\":1950:2004  ContractMgt[_contractId].hasPaidToContractAdmin = true */\n      0x0100\n      exp\n      dup2\n      sload\n      dup2\n      0xff\n      mul\n      not\n      and\n      swap1\n      dup4\n      iszero\n      iszero\n      mul\n      or\n      swap1\n      sstore\n      pop\n        /* \"contracts/contracts.sol\":2022:2026  true */\n      0x01\n        /* \"contracts/contracts.sol\":2015:2026  return true */\n      swap1\n      pop\n        /* \"contracts/contracts.sol\":1858:2034  function updateContractStatus(uint256 _contractId) public payable returns (bool){ ... */\n      swap2\n      swap1\n      pop\n      jump\t// out\n        /* \"contracts/contracts.sol\":1390:1850  function payToContractAdmin(address _payeeAddress, uint256 _contractId) external payable {... */\n    tag_36:\n        /* \"contracts/contracts.sol\":1495:1510  Logger(\"first\") */\n      0x65e06b3884a88e13243953e5160aec7a836e4cc7abc0762f84c66d6b918efe7f\n      mload(0x40)\n      tag_54\n      swap1\n      tag_55\n      jump\t// in\n    tag_54:\n      mload(0x40)\n      dup1\n      swap2\n      sub\n      swap1\n      log1\n        /* \"contracts/contracts.sol\":1521:1552  Contract memory currentContract */\n      0x00\n        /* \"contracts/contracts.sol\":1556:1567  ContractMgt */\n      0x03\n        /* \"contracts/contracts.sol\":1556:1580  ContractMgt[_contractId] */\n      0x00\n        /* \"contracts/contracts.sol\":1568:1579  _contractId */\n      dup4\n        /* \"contracts/contracts.sol\":1556:1580  ContractMgt[_contractId] */\n      dup2\n      mstore\n      0x20\n      add\n      swap1\n      dup2\n      mstore\n      0x20\n      add\n      0x00\n      keccak256\n        /* \"contracts/contracts.sol\":1521:1580  Contract memory currentContract  = ContractMgt[_contractId] */\n      mload(0x40)\n      dup1\n      0x0160\n      add\n      0x40\n      mstore\n      swap1\n      dup2\n      0x00\n      dup3\n      add\n      dup1\n      sload\n      tag_56\n      swap1\n      tag_57\n      jump\t// in\n    tag_56:\n      dup1\n      0x1f\n      add\n      0x20\n      dup1\n      swap2\n      div\n      mul\n      0x20\n      add\n      mload(0x40)\n      swap1\n      dup2\n      add\n      0x40\n      mstore\n      dup1\n      swap3\n      swap2\n      swap1\n      dup2\n      dup2\n      mstore\n      0x20\n      add\n      dup3\n      dup1\n      sload\n      tag_58\n      swap1\n      tag_57\n      jump\t// in\n    tag_58:\n      dup1\n      iszero\n      tag_59\n      jumpi\n      dup1\n      0x1f\n      lt\n      tag_60\n      jumpi\n      0x0100\n      dup1\n      dup4\n      sload\n      div\n      mul\n      dup4\n      mstore\n      swap2\n      0x20\n      add\n      swap2\n      jump(tag_59)\n    tag_60:\n      dup3\n      add\n      swap2\n      swap1\n      0x00\n      mstore\n      keccak256(0x00, 0x20)\n      swap1\n    tag_61:\n      dup2\n      sload\n      dup2\n      mstore\n      swap1\n      0x01\n      add\n      swap1\n      0x20\n      add\n      dup1\n      dup4\n      gt\n      tag_61\n      jumpi\n      dup3\n      swap1\n      sub\n      0x1f\n      and\n      dup3\n      add\n      swap2\n    tag_59:\n      pop\n      pop\n      pop\n      pop\n      pop\n      dup2\n      mstore\n      0x20\n      add\n      0x01\n      dup3\n      add\n      dup1\n      sload\n      tag_62\n      swap1\n      tag_57\n      jump\t// in\n    tag_62:\n      dup1\n      0x1f\n      add\n      0x20\n      dup1\n      swap2\n      div\n      mul\n      0x20\n      add\n      mload(0x40)\n      swap1\n      dup2\n      add\n      0x40\n      mstore\n      dup1\n      swap3\n      swap2\n      swap1\n      dup2\n      dup2\n      mstore\n      0x20\n      add\n      dup3\n      dup1\n      sload\n      tag_63\n      swap1\n      tag_57\n      jump\t// in\n    tag_63:\n      dup1\n      iszero\n      tag_64\n      jumpi\n      dup1\n      0x1f\n      lt\n      tag_65\n      jumpi\n      0x0100\n      dup1\n      dup4\n      sload\n      div\n      mul\n      dup4\n      mstore\n      swap2\n      0x20\n      add\n      swap2\n      jump(tag_64)\n    tag_65:\n      dup3\n      add\n      swap2\n      swap1\n      0x00\n      mstore\n      keccak256(0x00, 0x20)\n      swap1\n    tag_66:\n      dup2\n      sload\n      dup2\n      mstore\n      swap1\n      0x01\n      add\n      swap1\n      0x20\n      add\n      dup1\n      dup4\n      gt\n      tag_66\n      jumpi\n      dup3\n      swap1\n      sub\n      0x1f\n      and\n      dup3\n      add\n      swap2\n    tag_64:\n      pop\n      pop\n      pop\n      pop\n      pop\n      dup2\n      mstore\n      0x20\n      add\n      0x02\n      dup3\n      add\n      0x00\n      swap1\n      sload\n      swap1\n      0x0100\n      exp\n      swap1\n      div\n      0xff\n      and\n      0x03\n      dup2\n      gt\n      iszero\n      tag_67\n      jumpi\n      tag_68\n      tag_69\n      jump\t// in\n    tag_68:\n    tag_67:\n      0x03\n      dup2\n      gt\n      iszero\n      tag_70\n      jumpi\n      tag_71\n      tag_69\n      jump\t// in\n    tag_71:\n    tag_70:\n      dup2\n      mstore\n      0x20\n      add\n      0x02\n      dup3\n      add\n      0x01\n      swap1\n      sload\n      swap1\n      0x0100\n      exp\n      swap1\n      div\n      0xff\n      and\n      0x01\n      dup2\n      gt\n      iszero\n      tag_72\n      jumpi\n      tag_73\n      tag_69\n      jump\t// in\n    tag_73:\n    tag_72:\n      0x01\n      dup2\n      gt\n      iszero\n      tag_74\n      jumpi\n      tag_75\n      tag_69\n      jump\t// in\n    tag_75:\n    tag_74:\n      dup2\n      mstore\n      0x20\n      add\n      0x02\n      dup3\n      add\n      0x02\n      swap1\n      sload\n      swap1\n      0x0100\n      exp\n      swap1\n      div\n      0xffffffff\n      and\n      0xffffffff\n      and\n      0xffffffff\n      and\n      dup2\n      mstore\n      0x20\n      add\n      0x02\n      dup3\n      add\n      0x06\n      swap1\n      sload\n      swap1\n      0x0100\n      exp\n      swap1\n      div\n      0xffffffff\n      and\n      0xffffffff\n      and\n      0xffffffff\n      and\n      dup2\n      mstore\n      0x20\n      add\n      0x02\n      dup3\n      add\n      0x0a\n      swap1\n      sload\n      swap1\n      0x0100\n      exp\n      swap1\n      div\n      0xffffffff\n      and\n      0xffffffff\n      and\n      0xffffffff\n      and\n      dup2\n      mstore\n      0x20\n      add\n      0x03\n      dup3\n      add\n      sload\n      dup2\n      mstore\n      0x20\n      add\n      0x04\n      dup3\n      add\n      0x00\n      swap1\n      sload\n      swap1\n      0x0100\n      exp\n      swap1\n      div\n      0xffffffffffffffffffffffffffffffffffffffff\n      and\n      0xffffffffffffffffffffffffffffffffffffffff\n      and\n      0xffffffffffffffffffffffffffffffffffffffff\n      and\n      dup2\n      mstore\n      0x20\n      add\n      0x05\n      dup3\n      add\n      0x00\n      swap1\n      sload\n      swap1\n      0x0100\n      exp\n      swap1\n      div\n      0xffffffffffffffffffffffffffffffffffffffff\n      and\n      0xffffffffffffffffffffffffffffffffffffffff\n      and\n      0xffffffffffffffffffffffffffffffffffffffff\n      and\n      dup2\n      mstore\n      0x20\n      add\n      0x05\n      dup3\n      add\n      0x14\n      swap1\n      sload\n      swap1\n      0x0100\n      exp\n      swap1\n      div\n      0xff\n      and\n      iszero\n      iszero\n      iszero\n      iszero\n      dup2\n      mstore\n      pop\n      pop\n      swap1\n      pop\n        /* \"contracts/contracts.sol\":1596:1612  Logger(\"second\") */\n      0x65e06b3884a88e13243953e5160aec7a836e4cc7abc0762f84c66d6b918efe7f\n      mload(0x40)\n      tag_76\n      swap1\n      tag_77\n      jump\t// in\n    tag_76:\n      mload(0x40)\n      dup1\n      swap2\n      sub\n      swap1\n      log1\n        /* \"contracts/contracts.sol\":1624:1636  bool success */\n      0x00\n        /* \"contracts/contracts.sol\":1642:1655  _payeeAddress */\n      dup4\n        /* \"contracts/contracts.sol\":1642:1660  _payeeAddress.call */\n      0xffffffffffffffffffffffffffffffffffffffff\n      and\n        /* \"contracts/contracts.sol\":1668:1683  currentContract */\n      dup3\n        /* \"contracts/contracts.sol\":1668:1690  currentContract.amount */\n      0xe0\n      add\n      mload\n        /* \"contracts/contracts.sol\":1763:1774  _contractId */\n      dup5\n        /* \"contracts/contracts.sol\":1706:1775  abi.encodeWithSignature(\"updateContractStatus(uint256)\", _contractId) */\n      add(0x24, mload(0x40))\n      tag_78\n      swap2\n      swap1\n      tag_14\n      jump\t// in\n    tag_78:\n      mload(0x40)\n      0x20\n      dup2\n      dup4\n      sub\n      sub\n      dup2\n      mstore\n      swap1\n      0x40\n      mstore\n      and(not(0xffffffffffffffffffffffffffffffffffffffffffffffffffffffff), 0x998aa46500000000000000000000000000000000000000000000000000000000)\n      0x20\n      dup3\n      add\n      dup1\n      mload\n      0xffffffffffffffffffffffffffffffffffffffffffffffffffffffff\n      dup4\n      dup2\n      dup4\n      and\n      or\n      dup4\n      mstore\n      pop\n      pop\n      pop\n      pop\n        /* \"contracts/contracts.sol\":1642:1786  _payeeAddress.call{value: currentContract.amount}(... */\n      mload(0x40)\n      tag_79\n      swap2\n      swap1\n      tag_80\n      jump\t// in\n    tag_79:\n      0x00\n      mload(0x40)\n      dup1\n      dup4\n      sub\n      dup2\n      dup6\n      dup8\n      gas\n      call\n      swap3\n      pop\n      pop\n      pop\n      returndatasize\n      dup1\n      0x00\n      dup2\n      eq\n      tag_83\n      jumpi\n      mload(0x40)\n      swap2\n      pop\n      and(add(returndatasize, 0x3f), not(0x1f))\n      dup3\n      add\n      0x40\n      mstore\n      returndatasize\n      dup3\n      mstore\n      returndatasize\n      0x00\n      0x20\n      dup5\n      add\n      returndatacopy\n      jump(tag_82)\n    tag_83:\n      0x60\n      swap2\n      pop\n    tag_82:\n      pop\n        /* \"contracts/contracts.sol\":1623:1786  (bool success,) =  _payeeAddress.call{value: currentContract.amount}(... */\n      pop\n      swap1\n      pop\n        /* \"contracts/contracts.sol\":1805:1812  success */\n      dup1\n        /* \"contracts/contracts.sol\":1797:1841  require(success, \"Payment is not completed\") */\n      tag_84\n      jumpi\n      mload(0x40)\n      0x08c379a000000000000000000000000000000000000000000000000000000000\n      dup2\n      mstore\n      0x04\n      add\n      tag_85\n      swap1\n      tag_86\n      jump\t// in\n    tag_85:\n      mload(0x40)\n      dup1\n      swap2\n      sub\n      swap1\n      revert\n    tag_84:\n        /* \"contracts/contracts.sol\":1479:1850  {... */\n      pop\n      pop\n        /* \"contracts/contracts.sol\":1390:1850  function payToContractAdmin(address _payeeAddress, uint256 _contractId) external payable {... */\n      pop\n      pop\n      jump\t// out\n        /* \"@openzeppelin/contracts/access/Ownable.sol\":2543:2758  function transferOwnership(address newOwner) public virtual onlyOwner {... */\n    tag_41:\n        /* \"@openzeppelin/contracts/access/Ownable.sol\":1531:1544  _checkOwner() */\n      tag_88\n        /* \"@openzeppelin/contracts/access/Ownable.sol\":1531:1542  _checkOwner */\n      tag_44\n        /* \"@openzeppelin/contracts/access/Ownable.sol\":1531:1544  _checkOwner() */\n      jump\t// in\n    tag_88:\n        /* \"@openzeppelin/contracts/access/Ownable.sol\":2647:2648  0 */\n      0x00\n        /* \"@openzeppelin/contracts/access/Ownable.sol\":2627:2649  newOwner == address(0) */\n      0xffffffffffffffffffffffffffffffffffffffff\n      and\n        /* \"@openzeppelin/contracts/access/Ownable.sol\":2627:2635  newOwner */\n      dup2\n        /* \"@openzeppelin/contracts/access/Ownable.sol\":2627:2649  newOwner == address(0) */\n      0xffffffffffffffffffffffffffffffffffffffff\n      and\n      sub\n        /* \"@openzeppelin/contracts/access/Ownable.sol\":2623:2714  if (newOwner == address(0)) {... */\n      tag_90\n      jumpi\n        /* \"@openzeppelin/contracts/access/Ownable.sol\":2700:2701  0 */\n      0x00\n        /* \"@openzeppelin/contracts/access/Ownable.sol\":2672:2703  OwnableInvalidOwner(address(0)) */\n      mload(0x40)\n      0x1e4fbdf700000000000000000000000000000000000000000000000000000000\n      dup2\n      mstore\n      0x04\n      add\n      tag_91\n      swap2\n      swap1\n      tag_26\n      jump\t// in\n    tag_91:\n      mload(0x40)\n      dup1\n      swap2\n      sub\n      swap1\n      revert\n        /* \"@openzeppelin/contracts/access/Ownable.sol\":2623:2714  if (newOwner == address(0)) {... */\n    tag_90:\n        /* \"@openzeppelin/contracts/access/Ownable.sol\":2723:2751  _transferOwnership(newOwner) */\n      tag_92\n        /* \"@openzeppelin/contracts/access/Ownable.sol\":2742:2750  newOwner */\n      dup2\n        /* \"@openzeppelin/contracts/access/Ownable.sol\":2723:2741  _transferOwnership */\n      tag_50\n        /* \"@openzeppelin/contracts/access/Ownable.sol\":2723:2751  _transferOwnership(newOwner) */\n      jump\t// in\n    tag_92:\n        /* \"@openzeppelin/contracts/access/Ownable.sol\":2543:2758  function transferOwnership(address newOwner) public virtual onlyOwner {... */\n      pop\n      jump\t// out\n        /* \"@openzeppelin/contracts/access/Ownable.sol\":1796:1958  function _checkOwner() internal view virtual {... */\n    tag_44:\n        /* \"@openzeppelin/contracts/access/Ownable.sol\":1866:1878  _msgSender() */\n      tag_94\n        /* \"@openzeppelin/contracts/access/Ownable.sol\":1866:1876  _msgSender */\n      tag_95\n        /* \"@openzeppelin/contracts/access/Ownable.sol\":1866:1878  _msgSender() */\n      jump\t// in\n    tag_94:\n        /* \"@openzeppelin/contracts/access/Ownable.sol\":1855:1878  owner() != _msgSender() */\n      0xffffffffffffffffffffffffffffffffffffffff\n      and\n        /* \"@openzeppelin/contracts/access/Ownable.sol\":1855:1862  owner() */\n      tag_96\n        /* \"@openzeppelin/contracts/access/Ownable.sol\":1855:1860  owner */\n      tag_24\n        /* \"@openzeppelin/contracts/access/Ownable.sol\":1855:1862  owner() */\n      jump\t// in\n    tag_96:\n        /* \"@openzeppelin/contracts/access/Ownable.sol\":1855:1878  owner() != _msgSender() */\n      0xffffffffffffffffffffffffffffffffffffffff\n      and\n      eq\n        /* \"@openzeppelin/contracts/access/Ownable.sol\":1851:1952  if (owner() != _msgSender()) {... */\n      tag_97\n      jumpi\n        /* \"@openzeppelin/contracts/access/Ownable.sol\":1928:1940  _msgSender() */\n      tag_98\n        /* \"@openzeppelin/contracts/access/Ownable.sol\":1928:1938  _msgSender */\n      tag_95\n        /* \"@openzeppelin/contracts/access/Ownable.sol\":1928:1940  _msgSender() */\n      jump\t// in\n    tag_98:\n        /* \"@openzeppelin/contracts/access/Ownable.sol\":1901:1941  OwnableUnauthorizedAccount(_msgSender()) */\n      mload(0x40)\n      0x118cdaa700000000000000000000000000000000000000000000000000000000\n      dup2\n      mstore\n      0x04\n      add\n      tag_99\n      swap2\n      swap1\n      tag_26\n      jump\t// in\n    tag_99:\n      mload(0x40)\n      dup1\n      swap2\n      sub\n      swap1\n      revert\n        /* \"@openzeppelin/contracts/access/Ownable.sol\":1851:1952  if (owner() != _msgSender()) {... */\n    tag_97:\n        /* \"@openzeppelin/contracts/access/Ownable.sol\":1796:1958  function _checkOwner() internal view virtual {... */\n      jump\t// out\n        /* \"@openzeppelin/contracts/access/Ownable.sol\":2912:3099  function _transferOwnership(address newOwner) internal virtual {... */\n    tag_50:\n        /* \"@openzeppelin/contracts/access/Ownable.sol\":2985:3001  address oldOwner */\n      0x00\n        /* \"@openzeppelin/contracts/access/Ownable.sol\":3004:3010  _owner */\n      dup1\n      0x00\n      swap1\n      sload\n      swap1\n      0x0100\n      exp\n      swap1\n      div\n      0xffffffffffffffffffffffffffffffffffffffff\n      and\n        /* \"@openzeppelin/contracts/access/Ownable.sol\":2985:3010  address oldOwner = _owner */\n      swap1\n      pop\n        /* \"@openzeppelin/contracts/access/Ownable.sol\":3029:3037  newOwner */\n      dup2\n        /* \"@openzeppelin/contracts/access/Ownable.sol\":3020:3026  _owner */\n      0x00\n      dup1\n        /* \"@openzeppelin/contracts/access/Ownable.sol\":3020:3037  _owner = newOwner */\n      0x0100\n      exp\n      dup2\n      sload\n      dup2\n      0xffffffffffffffffffffffffffffffffffffffff\n      mul\n      not\n      and\n      swap1\n      dup4\n      0xffffffffffffffffffffffffffffffffffffffff\n      and\n      mul\n      or\n      swap1\n      sstore\n      pop\n        /* \"@openzeppelin/contracts/access/Ownable.sol\":3083:3091  newOwner */\n      dup2\n        /* \"@openzeppelin/contracts/access/Ownable.sol\":3052:3092  OwnershipTransferred(oldOwner, newOwner) */\n      0xffffffffffffffffffffffffffffffffffffffff\n      and\n        /* \"@openzeppelin/contracts/access/Ownable.sol\":3073:3081  oldOwner */\n      dup2\n        /* \"@openzeppelin/contracts/access/Ownable.sol\":3052:3092  OwnershipTransferred(oldOwner, newOwner) */\n      0xffffffffffffffffffffffffffffffffffffffff\n      and\n      0x8be0079c531659141344cd1fd0a4f28419497f9722a3daafe3b4186f6b6457e0\n      mload(0x40)\n      mload(0x40)\n      dup1\n      swap2\n      sub\n      swap1\n      log3\n        /* \"@openzeppelin/contracts/access/Ownable.sol\":2975:3099  {... */\n      pop\n        /* \"@openzeppelin/contracts/access/Ownable.sol\":2912:3099  function _transferOwnership(address newOwner) internal virtual {... */\n      pop\n      jump\t// out\n        /* \"@openzeppelin/contracts/utils/Context.sol\":656:752  function _msgSender() internal view virtual returns (address) {... */\n    tag_95:\n        /* \"@openzeppelin/contracts/utils/Context.sol\":709:716  address */\n      0x00\n        /* \"@openzeppelin/contracts/utils/Context.sol\":735:745  msg.sender */\n      caller\n        /* \"@openzeppelin/contracts/utils/Context.sol\":728:745  return msg.sender */\n      swap1\n      pop\n        /* \"@openzeppelin/contracts/utils/Context.sol\":656:752  function _msgSender() internal view virtual returns (address) {... */\n      swap1\n      jump\t// out\n        /* \"#utility.yul\":7:84   */\n    tag_102:\n        /* \"#utility.yul\":44:51   */\n      0x00\n        /* \"#utility.yul\":73:78   */\n      dup2\n        /* \"#utility.yul\":62:78   */\n      swap1\n      pop\n        /* \"#utility.yul\":7:84   */\n      swap2\n      swap1\n      pop\n      jump\t// out\n        /* \"#utility.yul\":90:270   */\n    tag_103:\n        /* \"#utility.yul\":138:215   */\n      0x4e487b7100000000000000000000000000000000000000000000000000000000\n        /* \"#utility.yul\":135:136   */\n      0x00\n        /* \"#utility.yul\":128:216   */\n      mstore\n        /* \"#utility.yul\":235:239   */\n      0x11\n        /* \"#utility.yul\":232:233   */\n      0x04\n        /* \"#utility.yul\":225:240   */\n      mstore\n        /* \"#utility.yul\":259:263   */\n      0x24\n        /* \"#utility.yul\":256:257   */\n      0x00\n        /* \"#utility.yul\":249:264   */\n      revert\n        /* \"#utility.yul\":276:467   */\n    tag_12:\n        /* \"#utility.yul\":316:319   */\n      0x00\n        /* \"#utility.yul\":335:355   */\n      tag_133\n        /* \"#utility.yul\":353:354   */\n      dup3\n        /* \"#utility.yul\":335:355   */\n      tag_102\n      jump\t// in\n    tag_133:\n        /* \"#utility.yul\":330:355   */\n      swap2\n      pop\n        /* \"#utility.yul\":369:389   */\n      tag_134\n        /* \"#utility.yul\":387:388   */\n      dup4\n        /* \"#utility.yul\":369:389   */\n      tag_102\n      jump\t// in\n    tag_134:\n        /* \"#utility.yul\":364:389   */\n      swap3\n      pop\n        /* \"#utility.yul\":412:413   */\n      dup3\n        /* \"#utility.yul\":409:410   */\n      dup3\n        /* \"#utility.yul\":405:414   */\n      add\n        /* \"#utility.yul\":398:414   */\n      swap1\n      pop\n        /* \"#utility.yul\":433:436   */\n      dup1\n        /* \"#utility.yul\":430:431   */\n      dup3\n        /* \"#utility.yul\":427:437   */\n      gt\n        /* \"#utility.yul\":424:460   */\n      iszero\n      tag_135\n      jumpi\n        /* \"#utility.yul\":440:458   */\n      tag_136\n      tag_103\n      jump\t// in\n    tag_136:\n        /* \"#utility.yul\":424:460   */\n    tag_135:\n        /* \"#utility.yul\":276:467   */\n      swap3\n      swap2\n      pop\n      pop\n      jump\t// out\n        /* \"#utility.yul\":473:591   */\n    tag_104:\n        /* \"#utility.yul\":560:584   */\n      tag_138\n        /* \"#utility.yul\":578:583   */\n      dup2\n        /* \"#utility.yul\":560:584   */\n      tag_102\n      jump\t// in\n    tag_138:\n        /* \"#utility.yul\":555:558   */\n      dup3\n        /* \"#utility.yul\":548:585   */\n      mstore\n        /* \"#utility.yul\":473:591   */\n      pop\n      pop\n      jump\t// out\n        /* \"#utility.yul\":597:819   */\n    tag_14:\n        /* \"#utility.yul\":690:694   */\n      0x00\n        /* \"#utility.yul\":728:730   */\n      0x20\n        /* \"#utility.yul\":717:726   */\n      dup3\n        /* \"#utility.yul\":713:731   */\n      add\n        /* \"#utility.yul\":705:731   */\n      swap1\n      pop\n        /* \"#utility.yul\":741:812   */\n      tag_140\n        /* \"#utility.yul\":809:810   */\n      0x00\n        /* \"#utility.yul\":798:807   */\n      dup4\n        /* \"#utility.yul\":794:811   */\n      add\n        /* \"#utility.yul\":785:791   */\n      dup5\n        /* \"#utility.yul\":741:812   */\n      tag_104\n      jump\t// in\n    tag_140:\n        /* \"#utility.yul\":597:819   */\n      swap3\n      swap2\n      pop\n      pop\n      jump\t// out\n        /* \"#utility.yul\":825:951   */\n    tag_105:\n        /* \"#utility.yul\":862:869   */\n      0x00\n        /* \"#utility.yul\":902:944   */\n      0xffffffffffffffffffffffffffffffffffffffff\n        /* \"#utility.yul\":895:900   */\n      dup3\n        /* \"#utility.yul\":891:945   */\n      and\n        /* \"#utility.yul\":880:945   */\n      swap1\n      pop\n        /* \"#utility.yul\":825:951   */\n      swap2\n      swap1\n      pop\n      jump\t// out\n        /* \"#utility.yul\":957:1053   */\n    tag_106:\n        /* \"#utility.yul\":994:1001   */\n      0x00\n        /* \"#utility.yul\":1023:1047   */\n      tag_143\n        /* \"#utility.yul\":1041:1046   */\n      dup3\n        /* \"#utility.yul\":1023:1047   */\n      tag_105\n      jump\t// in\n    tag_143:\n        /* \"#utility.yul\":1012:1047   */\n      swap1\n      pop\n        /* \"#utility.yul\":957:1053   */\n      swap2\n      swap1\n      pop\n      jump\t// out\n        /* \"#utility.yul\":1059:1177   */\n    tag_107:\n        /* \"#utility.yul\":1146:1170   */\n      tag_145\n        /* \"#utility.yul\":1164:1169   */\n      dup2\n        /* \"#utility.yul\":1146:1170   */\n      tag_106\n      jump\t// in\n    tag_145:\n        /* \"#utility.yul\":1141:1144   */\n      dup3\n        /* \"#utility.yul\":1134:1171   */\n      mstore\n        /* \"#utility.yul\":1059:1177   */\n      pop\n      pop\n      jump\t// out\n        /* \"#utility.yul\":1183:1405   */\n    tag_26:\n        /* \"#utility.yul\":1276:1280   */\n      0x00\n        /* \"#utility.yul\":1314:1316   */\n      0x20\n        /* \"#utility.yul\":1303:1312   */\n      dup3\n        /* \"#utility.yul\":1299:1317   */\n      add\n        /* \"#utility.yul\":1291:1317   */\n      swap1\n      pop\n        /* \"#utility.yul\":1327:1398   */\n      tag_147\n        /* \"#utility.yul\":1395:1396   */\n      0x00\n        /* \"#utility.yul\":1384:1393   */\n      dup4\n        /* \"#utility.yul\":1380:1397   */\n      add\n        /* \"#utility.yul\":1371:1377   */\n      dup5\n        /* \"#utility.yul\":1327:1398   */\n      tag_107\n      jump\t// in\n    tag_147:\n        /* \"#utility.yul\":1183:1405   */\n      swap3\n      swap2\n      pop\n      pop\n      jump\t// out\n        /* \"#utility.yul\":1492:1609   */\n    tag_109:\n        /* \"#utility.yul\":1601:1602   */\n      0x00\n        /* \"#utility.yul\":1598:1599   */\n      dup1\n        /* \"#utility.yul\":1591:1603   */\n      revert\n        /* \"#utility.yul\":1738:1860   */\n    tag_111:\n        /* \"#utility.yul\":1811:1835   */\n      tag_152\n        /* \"#utility.yul\":1829:1834   */\n      dup2\n        /* \"#utility.yul\":1811:1835   */\n      tag_102\n      jump\t// in\n    tag_152:\n        /* \"#utility.yul\":1804:1809   */\n      dup2\n        /* \"#utility.yul\":1801:1836   */\n      eq\n        /* \"#utility.yul\":1791:1854   */\n      tag_153\n      jumpi\n        /* \"#utility.yul\":1850:1851   */\n      0x00\n        /* \"#utility.yul\":1847:1848   */\n      dup1\n        /* \"#utility.yul\":1840:1852   */\n      revert\n        /* \"#utility.yul\":1791:1854   */\n    tag_153:\n        /* \"#utility.yul\":1738:1860   */\n      pop\n      jump\t// out\n        /* \"#utility.yul\":1866:2005   */\n    tag_112:\n        /* \"#utility.yul\":1912:1917   */\n      0x00\n        /* \"#utility.yul\":1950:1956   */\n      dup2\n        /* \"#utility.yul\":1937:1957   */\n      calldataload\n        /* \"#utility.yul\":1928:1957   */\n      swap1\n      pop\n        /* \"#utility.yul\":1966:1999   */\n      tag_155\n        /* \"#utility.yul\":1993:1998   */\n      dup2\n        /* \"#utility.yul\":1966:1999   */\n      tag_111\n      jump\t// in\n    tag_155:\n        /* \"#utility.yul\":1866:2005   */\n      swap3\n      swap2\n      pop\n      pop\n      jump\t// out\n        /* \"#utility.yul\":2011:2340   */\n    tag_29:\n        /* \"#utility.yul\":2070:2076   */\n      0x00\n        /* \"#utility.yul\":2119:2121   */\n      0x20\n        /* \"#utility.yul\":2107:2116   */\n      dup3\n        /* \"#utility.yul\":2098:2105   */\n      dup5\n        /* \"#utility.yul\":2094:2117   */\n      sub\n        /* \"#utility.yul\":2090:2122   */\n      slt\n        /* \"#utility.yul\":2087:2206   */\n      iszero\n      tag_157\n      jumpi\n        /* \"#utility.yul\":2125:2204   */\n      tag_158\n      tag_109\n      jump\t// in\n    tag_158:\n        /* \"#utility.yul\":2087:2206   */\n    tag_157:\n        /* \"#utility.yul\":2245:2246   */\n      0x00\n        /* \"#utility.yul\":2270:2323   */\n      tag_159\n        /* \"#utility.yul\":2315:2322   */\n      dup5\n        /* \"#utility.yul\":2306:2312   */\n      dup3\n        /* \"#utility.yul\":2295:2304   */\n      dup6\n        /* \"#utility.yul\":2291:2313   */\n      add\n        /* \"#utility.yul\":2270:2323   */\n      tag_112\n      jump\t// in\n    tag_159:\n        /* \"#utility.yul\":2260:2323   */\n      swap2\n      pop\n        /* \"#utility.yul\":2216:2333   */\n      pop\n        /* \"#utility.yul\":2011:2340   */\n      swap3\n      swap2\n      pop\n      pop\n      jump\t// out\n        /* \"#utility.yul\":2346:2436   */\n    tag_113:\n        /* \"#utility.yul\":2380:2387   */\n      0x00\n        /* \"#utility.yul\":2423:2428   */\n      dup2\n        /* \"#utility.yul\":2416:2429   */\n      iszero\n        /* \"#utility.yul\":2409:2430   */\n      iszero\n        /* \"#utility.yul\":2398:2430   */\n      swap1\n      pop\n        /* \"#utility.yul\":2346:2436   */\n      swap2\n      swap1\n      pop\n      jump\t// out\n        /* \"#utility.yul\":2442:2551   */\n    tag_114:\n        /* \"#utility.yul\":2523:2544   */\n      tag_162\n        /* \"#utility.yul\":2538:2543   */\n      dup2\n        /* \"#utility.yul\":2523:2544   */\n      tag_113\n      jump\t// in\n    tag_162:\n        /* \"#utility.yul\":2518:2521   */\n      dup3\n        /* \"#utility.yul\":2511:2545   */\n      mstore\n        /* \"#utility.yul\":2442:2551   */\n      pop\n      pop\n      jump\t// out\n        /* \"#utility.yul\":2557:2767   */\n    tag_32:\n        /* \"#utility.yul\":2644:2648   */\n      0x00\n        /* \"#utility.yul\":2682:2684   */\n      0x20\n        /* \"#utility.yul\":2671:2680   */\n      dup3\n        /* \"#utility.yul\":2667:2685   */\n      add\n        /* \"#utility.yul\":2659:2685   */\n      swap1\n      pop\n        /* \"#utility.yul\":2695:2760   */\n      tag_164\n        /* \"#utility.yul\":2757:2758   */\n      0x00\n        /* \"#utility.yul\":2746:2755   */\n      dup4\n        /* \"#utility.yul\":2742:2759   */\n      add\n        /* \"#utility.yul\":2733:2739   */\n      dup5\n        /* \"#utility.yul\":2695:2760   */\n      tag_114\n      jump\t// in\n    tag_164:\n        /* \"#utility.yul\":2557:2767   */\n      swap3\n      swap2\n      pop\n      pop\n      jump\t// out\n        /* \"#utility.yul\":2773:2895   */\n    tag_115:\n        /* \"#utility.yul\":2846:2870   */\n      tag_166\n        /* \"#utility.yul\":2864:2869   */\n      dup2\n        /* \"#utility.yul\":2846:2870   */\n      tag_106\n      jump\t// in\n    tag_166:\n        /* \"#utility.yul\":2839:2844   */\n      dup2\n        /* \"#utility.yul\":2836:2871   */\n      eq\n        /* \"#utility.yul\":2826:2889   */\n      tag_167\n      jumpi\n        /* \"#utility.yul\":2885:2886   */\n      0x00\n        /* \"#utility.yul\":2882:2883   */\n      dup1\n        /* \"#utility.yul\":2875:2887   */\n      revert\n        /* \"#utility.yul\":2826:2889   */\n    tag_167:\n        /* \"#utility.yul\":2773:2895   */\n      pop\n      jump\t// out\n        /* \"#utility.yul\":2901:3040   */\n    tag_116:\n        /* \"#utility.yul\":2947:2952   */\n      0x00\n        /* \"#utility.yul\":2985:2991   */\n      dup2\n        /* \"#utility.yul\":2972:2992   */\n      calldataload\n        /* \"#utility.yul\":2963:2992   */\n      swap1\n      pop\n        /* \"#utility.yul\":3001:3034   */\n      tag_169\n        /* \"#utility.yul\":3028:3033   */\n      dup2\n        /* \"#utility.yul\":3001:3034   */\n      tag_115\n      jump\t// in\n    tag_169:\n        /* \"#utility.yul\":2901:3040   */\n      swap3\n      swap2\n      pop\n      pop\n      jump\t// out\n        /* \"#utility.yul\":3046:3520   */\n    tag_35:\n        /* \"#utility.yul\":3114:3120   */\n      0x00\n        /* \"#utility.yul\":3122:3128   */\n      dup1\n        /* \"#utility.yul\":3171:3173   */\n      0x40\n        /* \"#utility.yul\":3159:3168   */\n      dup4\n        /* \"#utility.yul\":3150:3157   */\n      dup6\n        /* \"#utility.yul\":3146:3169   */\n      sub\n        /* \"#utility.yul\":3142:3174   */\n      slt\n        /* \"#utility.yul\":3139:3258   */\n      iszero\n      tag_171\n      jumpi\n        /* \"#utility.yul\":3177:3256   */\n      tag_172\n      tag_109\n      jump\t// in\n    tag_172:\n        /* \"#utility.yul\":3139:3258   */\n    tag_171:\n        /* \"#utility.yul\":3297:3298   */\n      0x00\n        /* \"#utility.yul\":3322:3375   */\n      tag_173\n        /* \"#utility.yul\":3367:3374   */\n      dup6\n        /* \"#utility.yul\":3358:3364   */\n      dup3\n        /* \"#utility.yul\":3347:3356   */\n      dup7\n        /* \"#utility.yul\":3343:3365   */\n      add\n        /* \"#utility.yul\":3322:3375   */\n      tag_116\n      jump\t// in\n    tag_173:\n        /* \"#utility.yul\":3312:3375   */\n      swap3\n      pop\n        /* \"#utility.yul\":3268:3385   */\n      pop\n        /* \"#utility.yul\":3424:3426   */\n      0x20\n        /* \"#utility.yul\":3450:3503   */\n      tag_174\n        /* \"#utility.yul\":3495:3502   */\n      dup6\n        /* \"#utility.yul\":3486:3492   */\n      dup3\n        /* \"#utility.yul\":3475:3484   */\n      dup7\n        /* \"#utility.yul\":3471:3493   */\n      add\n        /* \"#utility.yul\":3450:3503   */\n      tag_112\n      jump\t// in\n    tag_174:\n        /* \"#utility.yul\":3440:3503   */\n      swap2\n      pop\n        /* \"#utility.yul\":3395:3513   */\n      pop\n        /* \"#utility.yul\":3046:3520   */\n      swap3\n      pop\n      swap3\n      swap1\n      pop\n      jump\t// out\n        /* \"#utility.yul\":3526:3855   */\n    tag_40:\n        /* \"#utility.yul\":3585:3591   */\n      0x00\n        /* \"#utility.yul\":3634:3636   */\n      0x20\n        /* \"#utility.yul\":3622:3631   */\n      dup3\n        /* \"#utility.yul\":3613:3620   */\n      dup5\n        /* \"#utility.yul\":3609:3632   */\n      sub\n        /* \"#utility.yul\":3605:3637   */\n      slt\n        /* \"#utility.yul\":3602:3721   */\n      iszero\n      tag_176\n      jumpi\n        /* \"#utility.yul\":3640:3719   */\n      tag_177\n      tag_109\n      jump\t// in\n    tag_177:\n        /* \"#utility.yul\":3602:3721   */\n    tag_176:\n        /* \"#utility.yul\":3760:3761   */\n      0x00\n        /* \"#utility.yul\":3785:3838   */\n      tag_178\n        /* \"#utility.yul\":3830:3837   */\n      dup5\n        /* \"#utility.yul\":3821:3827   */\n      dup3\n        /* \"#utility.yul\":3810:3819   */\n      dup6\n        /* \"#utility.yul\":3806:3828   */\n      add\n        /* \"#utility.yul\":3785:3838   */\n      tag_116\n      jump\t// in\n    tag_178:\n        /* \"#utility.yul\":3775:3838   */\n      swap2\n      pop\n        /* \"#utility.yul\":3731:3848   */\n      pop\n        /* \"#utility.yul\":3526:3855   */\n      swap3\n      swap2\n      pop\n      pop\n      jump\t// out\n        /* \"#utility.yul\":3861:4030   */\n    tag_117:\n        /* \"#utility.yul\":3945:3956   */\n      0x00\n        /* \"#utility.yul\":3979:3985   */\n      dup3\n        /* \"#utility.yul\":3974:3977   */\n      dup3\n        /* \"#utility.yul\":3967:3986   */\n      mstore\n        /* \"#utility.yul\":4019:4023   */\n      0x20\n        /* \"#utility.yul\":4014:4017   */\n      dup3\n        /* \"#utility.yul\":4010:4024   */\n      add\n        /* \"#utility.yul\":3995:4024   */\n      swap1\n      pop\n        /* \"#utility.yul\":3861:4030   */\n      swap3\n      swap2\n      pop\n      pop\n      jump\t// out\n        /* \"#utility.yul\":4036:4191   */\n    tag_118:\n        /* \"#utility.yul\":4176:4183   */\n      0x6669727374000000000000000000000000000000000000000000000000000000\n        /* \"#utility.yul\":4172:4173   */\n      0x00\n        /* \"#utility.yul\":4164:4170   */\n      dup3\n        /* \"#utility.yul\":4160:4174   */\n      add\n        /* \"#utility.yul\":4153:4184   */\n      mstore\n        /* \"#utility.yul\":4036:4191   */\n      pop\n      jump\t// out\n        /* \"#utility.yul\":4197:4562   */\n    tag_119:\n        /* \"#utility.yul\":4339:4342   */\n      0x00\n        /* \"#utility.yul\":4360:4426   */\n      tag_182\n        /* \"#utility.yul\":4424:4425   */\n      0x05\n        /* \"#utility.yul\":4419:4422   */\n      dup4\n        /* \"#utility.yul\":4360:4426   */\n      tag_117\n      jump\t// in\n    tag_182:\n        /* \"#utility.yul\":4353:4426   */\n      swap2\n      pop\n        /* \"#utility.yul\":4435:4528   */\n      tag_183\n        /* \"#utility.yul\":4524:4527   */\n      dup3\n        /* \"#utility.yul\":4435:4528   */\n      tag_118\n      jump\t// in\n    tag_183:\n        /* \"#utility.yul\":4553:4555   */\n      0x20\n        /* \"#utility.yul\":4548:4551   */\n      dup3\n        /* \"#utility.yul\":4544:4556   */\n      add\n        /* \"#utility.yul\":4537:4556   */\n      swap1\n      pop\n        /* \"#utility.yul\":4197:4562   */\n      swap2\n      swap1\n      pop\n      jump\t// out\n        /* \"#utility.yul\":4568:4987   */\n    tag_55:\n        /* \"#utility.yul\":4734:4738   */\n      0x00\n        /* \"#utility.yul\":4772:4774   */\n      0x20\n        /* \"#utility.yul\":4761:4770   */\n      dup3\n        /* \"#utility.yul\":4757:4775   */\n      add\n        /* \"#utility.yul\":4749:4775   */\n      swap1\n      pop\n        /* \"#utility.yul\":4821:4830   */\n      dup2\n        /* \"#utility.yul\":4815:4819   */\n      dup2\n        /* \"#utility.yul\":4811:4831   */\n      sub\n        /* \"#utility.yul\":4807:4808   */\n      0x00\n        /* \"#utility.yul\":4796:4805   */\n      dup4\n        /* \"#utility.yul\":4792:4809   */\n      add\n        /* \"#utility.yul\":4785:4832   */\n      mstore\n        /* \"#utility.yul\":4849:4980   */\n      tag_185\n        /* \"#utility.yul\":4975:4979   */\n      dup2\n        /* \"#utility.yul\":4849:4980   */\n      tag_119\n      jump\t// in\n    tag_185:\n        /* \"#utility.yul\":4841:4980   */\n      swap1\n      pop\n        /* \"#utility.yul\":4568:4987   */\n      swap2\n      swap1\n      pop\n      jump\t// out\n        /* \"#utility.yul\":4993:5173   */\n    tag_120:\n        /* \"#utility.yul\":5041:5118   */\n      0x4e487b7100000000000000000000000000000000000000000000000000000000\n        /* \"#utility.yul\":5038:5039   */\n      0x00\n        /* \"#utility.yul\":5031:5119   */\n      mstore\n        /* \"#utility.yul\":5138:5142   */\n      0x22\n        /* \"#utility.yul\":5135:5136   */\n      0x04\n        /* \"#utility.yul\":5128:5143   */\n      mstore\n        /* \"#utility.yul\":5162:5166   */\n      0x24\n        /* \"#utility.yul\":5159:5160   */\n      0x00\n        /* \"#utility.yul\":5152:5167   */\n      revert\n        /* \"#utility.yul\":5179:5499   */\n    tag_57:\n        /* \"#utility.yul\":5223:5229   */\n      0x00\n        /* \"#utility.yul\":5260:5261   */\n      0x02\n        /* \"#utility.yul\":5254:5258   */\n      dup3\n        /* \"#utility.yul\":5250:5262   */\n      div\n        /* \"#utility.yul\":5240:5262   */\n      swap1\n      pop\n        /* \"#utility.yul\":5307:5308   */\n      0x01\n        /* \"#utility.yul\":5301:5305   */\n      dup3\n        /* \"#utility.yul\":5297:5309   */\n      and\n        /* \"#utility.yul\":5328:5346   */\n      dup1\n        /* \"#utility.yul\":5318:5399   */\n      tag_188\n      jumpi\n        /* \"#utility.yul\":5384:5388   */\n      0x7f\n        /* \"#utility.yul\":5376:5382   */\n      dup3\n        /* \"#utility.yul\":5372:5389   */\n      and\n        /* \"#utility.yul\":5362:5389   */\n      swap2\n      pop\n        /* \"#utility.yul\":5318:5399   */\n    tag_188:\n        /* \"#utility.yul\":5446:5448   */\n      0x20\n        /* \"#utility.yul\":5438:5444   */\n      dup3\n        /* \"#utility.yul\":5435:5449   */\n      lt\n        /* \"#utility.yul\":5415:5433   */\n      dup2\n        /* \"#utility.yul\":5412:5450   */\n      sub\n        /* \"#utility.yul\":5409:5493   */\n      tag_189\n      jumpi\n        /* \"#utility.yul\":5465:5483   */\n      tag_190\n      tag_120\n      jump\t// in\n    tag_190:\n        /* \"#utility.yul\":5409:5493   */\n    tag_189:\n        /* \"#utility.yul\":5230:5499   */\n      pop\n        /* \"#utility.yul\":5179:5499   */\n      swap2\n      swap1\n      pop\n      jump\t// out\n        /* \"#utility.yul\":5505:5685   */\n    tag_69:\n        /* \"#utility.yul\":5553:5630   */\n      0x4e487b7100000000000000000000000000000000000000000000000000000000\n        /* \"#utility.yul\":5550:5551   */\n      0x00\n        /* \"#utility.yul\":5543:5631   */\n      mstore\n        /* \"#utility.yul\":5650:5654   */\n      0x21\n        /* \"#utility.yul\":5647:5648   */\n      0x04\n        /* \"#utility.yul\":5640:5655   */\n      mstore\n        /* \"#utility.yul\":5674:5678   */\n      0x24\n        /* \"#utility.yul\":5671:5672   */\n      0x00\n        /* \"#utility.yul\":5664:5679   */\n      revert\n        /* \"#utility.yul\":5691:5847   */\n    tag_121:\n        /* \"#utility.yul\":5831:5839   */\n      0x7365636f6e640000000000000000000000000000000000000000000000000000\n        /* \"#utility.yul\":5827:5828   */\n      0x00\n        /* \"#utility.yul\":5819:5825   */\n      dup3\n        /* \"#utility.yul\":5815:5829   */\n      add\n        /* \"#utility.yul\":5808:5840   */\n      mstore\n        /* \"#utility.yul\":5691:5847   */\n      pop\n      jump\t// out\n        /* \"#utility.yul\":5853:6218   */\n    tag_122:\n        /* \"#utility.yul\":5995:5998   */\n      0x00\n        /* \"#utility.yul\":6016:6082   */\n      tag_194\n        /* \"#utility.yul\":6080:6081   */\n      0x06\n        /* \"#utility.yul\":6075:6078   */\n      dup4\n        /* \"#utility.yul\":6016:6082   */\n      tag_117\n      jump\t// in\n    tag_194:\n        /* \"#utility.yul\":6009:6082   */\n      swap2\n      pop\n        /* \"#utility.yul\":6091:6184   */\n      tag_195\n        /* \"#utility.yul\":6180:6183   */\n      dup3\n        /* \"#utility.yul\":6091:6184   */\n      tag_121\n      jump\t// in\n    tag_195:\n        /* \"#utility.yul\":6209:6211   */\n      0x20\n        /* \"#utility.yul\":6204:6207   */\n      dup3\n        /* \"#utility.yul\":6200:6212   */\n      add\n        /* \"#utility.yul\":6193:6212   */\n      swap1\n      pop\n        /* \"#utility.yul\":5853:6218   */\n      swap2\n      swap1\n      pop\n      jump\t// out\n        /* \"#utility.yul\":6224:6643   */\n    tag_77:\n        /* \"#utility.yul\":6390:6394   */\n      0x00\n        /* \"#utility.yul\":6428:6430   */\n      0x20\n        /* \"#utility.yul\":6417:6426   */\n      dup3\n        /* \"#utility.yul\":6413:6431   */\n      add\n        /* \"#utility.yul\":6405:6431   */\n      swap1\n      pop\n        /* \"#utility.yul\":6477:6486   */\n      dup2\n        /* \"#utility.yul\":6471:6475   */\n      dup2\n        /* \"#utility.yul\":6467:6487   */\n      sub\n        /* \"#utility.yul\":6463:6464   */\n      0x00\n        /* \"#utility.yul\":6452:6461   */\n      dup4\n        /* \"#utility.yul\":6448:6465   */\n      add\n        /* \"#utility.yul\":6441:6488   */\n      mstore\n        /* \"#utility.yul\":6505:6636   */\n      tag_197\n        /* \"#utility.yul\":6631:6635   */\n      dup2\n        /* \"#utility.yul\":6505:6636   */\n      tag_122\n      jump\t// in\n    tag_197:\n        /* \"#utility.yul\":6497:6636   */\n      swap1\n      pop\n        /* \"#utility.yul\":6224:6643   */\n      swap2\n      swap1\n      pop\n      jump\t// out\n        /* \"#utility.yul\":6649:6747   */\n    tag_123:\n        /* \"#utility.yul\":6700:6706   */\n      0x00\n        /* \"#utility.yul\":6734:6739   */\n      dup2\n        /* \"#utility.yul\":6728:6740   */\n      mload\n        /* \"#utility.yul\":6718:6740   */\n      swap1\n      pop\n        /* \"#utility.yul\":6649:6747   */\n      swap2\n      swap1\n      pop\n      jump\t// out\n        /* \"#utility.yul\":6753:6900   */\n    tag_124:\n        /* \"#utility.yul\":6854:6865   */\n      0x00\n        /* \"#utility.yul\":6891:6894   */\n      dup2\n        /* \"#utility.yul\":6876:6894   */\n      swap1\n      pop\n        /* \"#utility.yul\":6753:6900   */\n      swap3\n      swap2\n      pop\n      pop\n      jump\t// out\n        /* \"#utility.yul\":6906:7152   */\n    tag_125:\n        /* \"#utility.yul\":6987:6988   */\n      0x00\n        /* \"#utility.yul\":6997:7110   */\n    tag_201:\n        /* \"#utility.yul\":7011:7017   */\n      dup4\n        /* \"#utility.yul\":7008:7009   */\n      dup2\n        /* \"#utility.yul\":7005:7018   */\n      lt\n        /* \"#utility.yul\":6997:7110   */\n      iszero\n      tag_203\n      jumpi\n        /* \"#utility.yul\":7096:7097   */\n      dup1\n        /* \"#utility.yul\":7091:7094   */\n      dup3\n        /* \"#utility.yul\":7087:7098   */\n      add\n        /* \"#utility.yul\":7081:7099   */\n      mload\n        /* \"#utility.yul\":7077:7078   */\n      dup2\n        /* \"#utility.yul\":7072:7075   */\n      dup5\n        /* \"#utility.yul\":7068:7079   */\n      add\n        /* \"#utility.yul\":7061:7100   */\n      mstore\n        /* \"#utility.yul\":7033:7035   */\n      0x20\n        /* \"#utility.yul\":7030:7031   */\n      dup2\n        /* \"#utility.yul\":7026:7036   */\n      add\n        /* \"#utility.yul\":7021:7036   */\n      swap1\n      pop\n        /* \"#utility.yul\":6997:7110   */\n      jump(tag_201)\n    tag_203:\n        /* \"#utility.yul\":7144:7145   */\n      0x00\n        /* \"#utility.yul\":7135:7141   */\n      dup5\n        /* \"#utility.yul\":7130:7133   */\n      dup5\n        /* \"#utility.yul\":7126:7142   */\n      add\n        /* \"#utility.yul\":7119:7146   */\n      mstore\n        /* \"#utility.yul\":6968:7152   */\n      pop\n        /* \"#utility.yul\":6906:7152   */\n      pop\n      pop\n      pop\n      jump\t// out\n        /* \"#utility.yul\":7158:7544   */\n    tag_126:\n        /* \"#utility.yul\":7262:7265   */\n      0x00\n        /* \"#utility.yul\":7290:7328   */\n      tag_205\n        /* \"#utility.yul\":7322:7327   */\n      dup3\n        /* \"#utility.yul\":7290:7328   */\n      tag_123\n      jump\t// in\n    tag_205:\n        /* \"#utility.yul\":7344:7432   */\n      tag_206\n        /* \"#utility.yul\":7425:7431   */\n      dup2\n        /* \"#utility.yul\":7420:7423   */\n      dup6\n        /* \"#utility.yul\":7344:7432   */\n      tag_124\n      jump\t// in\n    tag_206:\n        /* \"#utility.yul\":7337:7432   */\n      swap4\n      pop\n        /* \"#utility.yul\":7441:7506   */\n      tag_207\n        /* \"#utility.yul\":7499:7505   */\n      dup2\n        /* \"#utility.yul\":7494:7497   */\n      dup6\n        /* \"#utility.yul\":7487:7491   */\n      0x20\n        /* \"#utility.yul\":7480:7485   */\n      dup7\n        /* \"#utility.yul\":7476:7492   */\n      add\n        /* \"#utility.yul\":7441:7506   */\n      tag_125\n      jump\t// in\n    tag_207:\n        /* \"#utility.yul\":7531:7537   */\n      dup1\n        /* \"#utility.yul\":7526:7529   */\n      dup5\n        /* \"#utility.yul\":7522:7538   */\n      add\n        /* \"#utility.yul\":7515:7538   */\n      swap2\n      pop\n        /* \"#utility.yul\":7266:7544   */\n      pop\n        /* \"#utility.yul\":7158:7544   */\n      swap3\n      swap2\n      pop\n      pop\n      jump\t// out\n        /* \"#utility.yul\":7550:7821   */\n    tag_80:\n        /* \"#utility.yul\":7680:7683   */\n      0x00\n        /* \"#utility.yul\":7702:7795   */\n      tag_209\n        /* \"#utility.yul\":7791:7794   */\n      dup3\n        /* \"#utility.yul\":7782:7788   */\n      dup5\n        /* \"#utility.yul\":7702:7795   */\n      tag_126\n      jump\t// in\n    tag_209:\n        /* \"#utility.yul\":7695:7795   */\n      swap2\n      pop\n        /* \"#utility.yul\":7812:7815   */\n      dup2\n        /* \"#utility.yul\":7805:7815   */\n      swap1\n      pop\n        /* \"#utility.yul\":7550:7821   */\n      swap3\n      swap2\n      pop\n      pop\n      jump\t// out\n        /* \"#utility.yul\":7827:8001   */\n    tag_127:\n        /* \"#utility.yul\":7967:7993   */\n      0x5061796d656e74206973206e6f7420636f6d706c657465640000000000000000\n        /* \"#utility.yul\":7963:7964   */\n      0x00\n        /* \"#utility.yul\":7955:7961   */\n      dup3\n        /* \"#utility.yul\":7951:7965   */\n      add\n        /* \"#utility.yul\":7944:7994   */\n      mstore\n        /* \"#utility.yul\":7827:8001   */\n      pop\n      jump\t// out\n        /* \"#utility.yul\":8007:8373   */\n    tag_128:\n        /* \"#utility.yul\":8149:8152   */\n      0x00\n        /* \"#utility.yul\":8170:8237   */\n      tag_212\n        /* \"#utility.yul\":8234:8236   */\n      0x18\n        /* \"#utility.yul\":8229:8232   */\n      dup4\n        /* \"#utility.yul\":8170:8237   */\n      tag_117\n      jump\t// in\n    tag_212:\n        /* \"#utility.yul\":8163:8237   */\n      swap2\n      pop\n        /* \"#utility.yul\":8246:8339   */\n      tag_213\n        /* \"#utility.yul\":8335:8338   */\n      dup3\n        /* \"#utility.yul\":8246:8339   */\n      tag_127\n      jump\t// in\n    tag_213:\n        /* \"#utility.yul\":8364:8366   */\n      0x20\n        /* \"#utility.yul\":8359:8362   */\n      dup3\n        /* \"#utility.yul\":8355:8367   */\n      add\n        /* \"#utility.yul\":8348:8367   */\n      swap1\n      pop\n        /* \"#utility.yul\":8007:8373   */\n      swap2\n      swap1\n      pop\n      jump\t// out\n        /* \"#utility.yul\":8379:8798   */\n    tag_86:\n        /* \"#utility.yul\":8545:8549   */\n      0x00\n        /* \"#utility.yul\":8583:8585   */\n      0x20\n        /* \"#utility.yul\":8572:8581   */\n      dup3\n        /* \"#utility.yul\":8568:8586   */\n      add\n        /* \"#utility.yul\":8560:8586   */\n      swap1\n      pop\n        /* \"#utility.yul\":8632:8641   */\n      dup2\n        /* \"#utility.yul\":8626:8630   */\n      dup2\n        /* \"#utility.yul\":8622:8642   */\n      sub\n        /* \"#utility.yul\":8618:8619   */\n      0x00\n        /* \"#utility.yul\":8607:8616   */\n      dup4\n        /* \"#utility.yul\":8603:8620   */\n      add\n        /* \"#utility.yul\":8596:8643   */\n      mstore\n        /* \"#utility.yul\":8660:8791   */\n      tag_215\n        /* \"#utility.yul\":8786:8790   */\n      dup2\n        /* \"#utility.yul\":8660:8791   */\n      tag_128\n      jump\t// in\n    tag_215:\n        /* \"#utility.yul\":8652:8791   */\n      swap1\n      pop\n        /* \"#utility.yul\":8379:8798   */\n      swap2\n      swap1\n      pop\n      jump\t// out\n\n    auxdata: 0xa264697066735822122016cb939da213ce0396c2edfa0797737ae43d13874cb3bd0ce017b4c30dea575b64736f6c63430008160033\n}\n",
				"bytecode": {
					"linkReferences": {},
					"object": "60806040525f60025534801562000014575f80fd5b5060405162000fc538038062000fc583398181016040528101906200003a91906200022d565b805f73ffffffffffffffffffffffffffffffffffffffff168173ffffffffffffffffffffffffffffffffffffffff1603620000ae575f6040517f1e4fbdf7000000000000000000000000000000000000000000000000000000008152600401620000a591906200026e565b60405180910390fd5b620000bf816200010760201b60201c565b503360015f6101000a81548173ffffffffffffffffffffffffffffffffffffffff021916908373ffffffffffffffffffffffffffffffffffffffff1602179055505062000289565b5f805f9054906101000a900473ffffffffffffffffffffffffffffffffffffffff169050815f806101000a81548173ffffffffffffffffffffffffffffffffffffffff021916908373ffffffffffffffffffffffffffffffffffffffff1602179055508173ffffffffffffffffffffffffffffffffffffffff168173ffffffffffffffffffffffffffffffffffffffff167f8be0079c531659141344cd1fd0a4f28419497f9722a3daafe3b4186f6b6457e060405160405180910390a35050565b5f80fd5b5f73ffffffffffffffffffffffffffffffffffffffff82169050919050565b5f620001f782620001cc565b9050919050565b6200020981620001eb565b811462000214575f80fd5b50565b5f815190506200022781620001fe565b92915050565b5f60208284031215620002455762000244620001c8565b5b5f620002548482850162000217565b91505092915050565b6200026881620001eb565b82525050565b5f602082019050620002835f8301846200025d565b92915050565b610d2e80620002975f395ff3fe608060405260043610610058575f3560e01c806365ac4341146100c9578063715018a6146100f35780638da5cb5b14610109578063998aa46514610133578063cbfa1a7014610163578063f2fde38b1461017f576100c5565b366100c5573460025f82825461006e91906108d2565b925050819055503373ffffffffffffffffffffffffffffffffffffffff167f88a5966d370b9919b20f3e2c13ff65706f196a4e32cc2c12bf57088f88525874346040516100bb9190610914565b60405180910390a2005b5f80fd5b3480156100d4575f80fd5b506100dd6101a7565b6040516100ea9190610914565b60405180910390f35b3480156100fe575f80fd5b506101076101b8565b005b348015610114575f80fd5b5061011d6101cb565b60405161012a919061096c565b60405180910390f35b61014d600480360381019061014891906109b3565b6101f2565b60405161015a91906109f8565b60405180910390f35b61017d60048036038101906101789190610a3b565b610229565b005b34801561018a575f80fd5b506101a560048036038101906101a09190610a79565b6106c9565b005b5f6101b061074d565b600254905090565b6101c061074d565b6101c95f6107d4565b565b5f805f9054906101000a900473ffffffffffffffffffffffffffffffffffffffff16905090565b5f600160035f8481526020019081526020015f2060050160146101000a81548160ff02191690831515021790555060019050919050565b7f65e06b3884a88e13243953e5160aec7a836e4cc7abc0762f84c66d6b918efe7f60405161025690610afe565b60405180910390a15f60035f8381526020019081526020015f20604051806101600160405290815f8201805461028b90610b49565b80601f01602080910402602001604051908101604052809291908181526020018280546102b790610b49565b80156103025780601f106102d957610100808354040283529160200191610302565b820191905f5260205f20905b8154815290600101906020018083116102e557829003601f168201915b5050505050815260200160018201805461031b90610b49565b80601f016020809104026020016040519081016040528092919081815260200182805461034790610b49565b80156103925780601f1061036957610100808354040283529160200191610392565b820191905f5260205f20905b81548152906001019060200180831161037557829003601f168201915b50505050508152602001600282015f9054906101000a900460ff1660038111156103bf576103be610b79565b5b60038111156103d1576103d0610b79565b5b81526020016002820160019054906101000a900460ff1660018111156103fa576103f9610b79565b5b600181111561040c5761040b610b79565b5b81526020016002820160029054906101000a900463ffffffff1663ffffffff1663ffffffff1681526020016002820160069054906101000a900463ffffffff1663ffffffff1663ffffffff16815260200160028201600a9054906101000a900463ffffffff1663ffffffff1663ffffffff16815260200160038201548152602001600482015f9054906101000a900473ffffffffffffffffffffffffffffffffffffffff1673ffffffffffffffffffffffffffffffffffffffff1673ffffffffffffffffffffffffffffffffffffffff168152602001600582015f9054906101000a900473ffffffffffffffffffffffffffffffffffffffff1673ffffffffffffffffffffffffffffffffffffffff1673ffffffffffffffffffffffffffffffffffffffff1681526020016005820160149054906101000a900460ff16151515158152505090507f65e06b3884a88e13243953e5160aec7a836e4cc7abc0762f84c66d6b918efe7f60405161058090610bf0565b60405180910390a15f8373ffffffffffffffffffffffffffffffffffffffff168260e00151846040516024016105b69190610914565b6040516020818303038152906040527f998aa465000000000000000000000000000000000000000000000000000000007bffffffffffffffffffffffffffffffffffffffffffffffffffffffff19166020820180517bffffffffffffffffffffffffffffffffffffffffffffffffffffffff83818316178352505050506040516106409190610c7a565b5f6040518083038185875af1925050503d805f811461067a576040519150601f19603f3d011682016040523d82523d5f602084013e61067f565b606091505b50509050806106c3576040517f08c379a00000000000000000000000000000000000000000000000000000000081526004016106ba90610cda565b60405180910390fd5b50505050565b6106d161074d565b5f73ffffffffffffffffffffffffffffffffffffffff168173ffffffffffffffffffffffffffffffffffffffff1603610741575f6040517f1e4fbdf7000000000000000000000000000000000000000000000000000000008152600401610738919061096c565b60405180910390fd5b61074a816107d4565b50565b610755610895565b73ffffffffffffffffffffffffffffffffffffffff166107736101cb565b73ffffffffffffffffffffffffffffffffffffffff16146107d257610796610895565b6040517f118cdaa70000000000000000000000000000000000000000000000000000000081526004016107c9919061096c565b60405180910390fd5b565b5f805f9054906101000a900473ffffffffffffffffffffffffffffffffffffffff169050815f806101000a81548173ffffffffffffffffffffffffffffffffffffffff021916908373ffffffffffffffffffffffffffffffffffffffff1602179055508173ffffffffffffffffffffffffffffffffffffffff168173ffffffffffffffffffffffffffffffffffffffff167f8be0079c531659141344cd1fd0a4f28419497f9722a3daafe3b4186f6b6457e060405160405180910390a35050565b5f33905090565b5f819050919050565b7f4e487b71000000000000000000000000000000000000000000000000000000005f52601160045260245ffd5b5f6108dc8261089c565b91506108e78361089c565b92508282019050808211156108ff576108fe6108a5565b5b92915050565b61090e8161089c565b82525050565b5f6020820190506109275f830184610905565b92915050565b5f73ffffffffffffffffffffffffffffffffffffffff82169050919050565b5f6109568261092d565b9050919050565b6109668161094c565b82525050565b5f60208201905061097f5f83018461095d565b92915050565b5f80fd5b6109928161089c565b811461099c575f80fd5b50565b5f813590506109ad81610989565b92915050565b5f602082840312156109c8576109c7610985565b5b5f6109d58482850161099f565b91505092915050565b5f8115159050919050565b6109f2816109de565b82525050565b5f602082019050610a0b5f8301846109e9565b92915050565b610a1a8161094c565b8114610a24575f80fd5b50565b5f81359050610a3581610a11565b92915050565b5f8060408385031215610a5157610a50610985565b5b5f610a5e85828601610a27565b9250506020610a6f8582860161099f565b9150509250929050565b5f60208284031215610a8e57610a8d610985565b5b5f610a9b84828501610a27565b91505092915050565b5f82825260208201905092915050565b7f66697273740000000000000000000000000000000000000000000000000000005f82015250565b5f610ae8600583610aa4565b9150610af382610ab4565b602082019050919050565b5f6020820190508181035f830152610b1581610adc565b9050919050565b7f4e487b71000000000000000000000000000000000000000000000000000000005f52602260045260245ffd5b5f6002820490506001821680610b6057607f821691505b602082108103610b7357610b72610b1c565b5b50919050565b7f4e487b71000000000000000000000000000000000000000000000000000000005f52602160045260245ffd5b7f7365636f6e6400000000000000000000000000000000000000000000000000005f82015250565b5f610bda600683610aa4565b9150610be582610ba6565b602082019050919050565b5f6020820190508181035f830152610c0781610bce565b9050919050565b5f81519050919050565b5f81905092915050565b5f5b83811015610c3f578082015181840152602081019050610c24565b5f8484015250505050565b5f610c5482610c0e565b610c5e8185610c18565b9350610c6e818560208601610c22565b80840191505092915050565b5f610c858284610c4a565b915081905092915050565b7f5061796d656e74206973206e6f7420636f6d706c6574656400000000000000005f82015250565b5f610cc4601883610aa4565b9150610ccf82610c90565b602082019050919050565b5f6020820190508181035f830152610cf181610cb8565b905091905056fea264697066735822122016cb939da213ce0396c2edfa0797737ae43d13874cb3bd0ce017b4c30dea575b64736f6c63430008160033",
					"opcodes": "PUSH1 0x80 PUSH1 0x40 MSTORE PUSH0 PUSH1 0x2 SSTORE CALLVALUE DUP1 ISZERO PUSH3 0x14 JUMPI PUSH0 DUP1 REVERT JUMPDEST POP PUSH1 0x40 MLOAD PUSH3 0xFC5 CODESIZE SUB DUP1 PUSH3 0xFC5 DUP4 CODECOPY DUP2 DUP2 ADD PUSH1 0x40 MSTORE DUP2 ADD SWAP1 PUSH3 0x3A SWAP2 SWAP1 PUSH3 0x22D JUMP JUMPDEST DUP1 PUSH0 PUSH20 0xFFFFFFFFFFFFFFFFFFFFFFFFFFFFFFFFFFFFFFFF AND DUP2 PUSH20 0xFFFFFFFFFFFFFFFFFFFFFFFFFFFFFFFFFFFFFFFF AND SUB PUSH3 0xAE JUMPI PUSH0 PUSH1 0x40 MLOAD PUSH32 0x1E4FBDF700000000000000000000000000000000000000000000000000000000 DUP2 MSTORE PUSH1 0x4 ADD PUSH3 0xA5 SWAP2 SWAP1 PUSH3 0x26E JUMP JUMPDEST PUSH1 0x40 MLOAD DUP1 SWAP2 SUB SWAP1 REVERT JUMPDEST PUSH3 0xBF DUP2 PUSH3 0x107 PUSH1 0x20 SHL PUSH1 0x20 SHR JUMP JUMPDEST POP CALLER PUSH1 0x1 PUSH0 PUSH2 0x100 EXP DUP2 SLOAD DUP2 PUSH20 0xFFFFFFFFFFFFFFFFFFFFFFFFFFFFFFFFFFFFFFFF MUL NOT AND SWAP1 DUP4 PUSH20 0xFFFFFFFFFFFFFFFFFFFFFFFFFFFFFFFFFFFFFFFF AND MUL OR SWAP1 SSTORE POP POP PUSH3 0x289 JUMP JUMPDEST PUSH0 DUP1 PUSH0 SWAP1 SLOAD SWAP1 PUSH2 0x100 EXP SWAP1 DIV PUSH20 0xFFFFFFFFFFFFFFFFFFFFFFFFFFFFFFFFFFFFFFFF AND SWAP1 POP DUP2 PUSH0 DUP1 PUSH2 0x100 EXP DUP2 SLOAD DUP2 PUSH20 0xFFFFFFFFFFFFFFFFFFFFFFFFFFFFFFFFFFFFFFFF MUL NOT AND SWAP1 DUP4 PUSH20 0xFFFFFFFFFFFFFFFFFFFFFFFFFFFFFFFFFFFFFFFF AND MUL OR SWAP1 SSTORE POP DUP2 PUSH20 0xFFFFFFFFFFFFFFFFFFFFFFFFFFFFFFFFFFFFFFFF AND DUP2 PUSH20 0xFFFFFFFFFFFFFFFFFFFFFFFFFFFFFFFFFFFFFFFF AND PUSH32 0x8BE0079C531659141344CD1FD0A4F28419497F9722A3DAAFE3B4186F6B6457E0 PUSH1 0x40 MLOAD PUSH1 0x40 MLOAD DUP1 SWAP2 SUB SWAP1 LOG3 POP POP JUMP JUMPDEST PUSH0 DUP1 REVERT JUMPDEST PUSH0 PUSH20 0xFFFFFFFFFFFFFFFFFFFFFFFFFFFFFFFFFFFFFFFF DUP3 AND SWAP1 POP SWAP2 SWAP1 POP JUMP JUMPDEST PUSH0 PUSH3 0x1F7 DUP3 PUSH3 0x1CC JUMP JUMPDEST SWAP1 POP SWAP2 SWAP1 POP JUMP JUMPDEST PUSH3 0x209 DUP2 PUSH3 0x1EB JUMP JUMPDEST DUP2 EQ PUSH3 0x214 JUMPI PUSH0 DUP1 REVERT JUMPDEST POP JUMP JUMPDEST PUSH0 DUP2 MLOAD SWAP1 POP PUSH3 0x227 DUP2 PUSH3 0x1FE JUMP JUMPDEST SWAP3 SWAP2 POP POP JUMP JUMPDEST PUSH0 PUSH1 0x20 DUP3 DUP5 SUB SLT ISZERO PUSH3 0x245 JUMPI PUSH3 0x244 PUSH3 0x1C8 JUMP JUMPDEST JUMPDEST PUSH0 PUSH3 0x254 DUP5 DUP3 DUP6 ADD PUSH3 0x217 JUMP JUMPDEST SWAP2 POP POP SWAP3 SWAP2 POP POP JUMP JUMPDEST PUSH3 0x268 DUP2 PUSH3 0x1EB JUMP JUMPDEST DUP3 MSTORE POP POP JUMP JUMPDEST PUSH0 PUSH1 0x20 DUP3 ADD SWAP1 POP PUSH3 0x283 PUSH0 DUP4 ADD DUP5 PUSH3 0x25D JUMP JUMPDEST SWAP3 SWAP2 POP POP JUMP JUMPDEST PUSH2 0xD2E DUP1 PUSH3 0x297 PUSH0 CODECOPY PUSH0 RETURN INVALID PUSH1 0x80 PUSH1 0x40 MSTORE PUSH1 0x4 CALLDATASIZE LT PUSH2 0x58 JUMPI PUSH0 CALLDATALOAD PUSH1 0xE0 SHR DUP1 PUSH4 0x65AC4341 EQ PUSH2 0xC9 JUMPI DUP1 PUSH4 0x715018A6 EQ PUSH2 0xF3 JUMPI DUP1 PUSH4 0x8DA5CB5B EQ PUSH2 0x109 JUMPI DUP1 PUSH4 0x998AA465 EQ PUSH2 0x133 JUMPI DUP1 PUSH4 0xCBFA1A70 EQ PUSH2 0x163 JUMPI DUP1 PUSH4 0xF2FDE38B EQ PUSH2 0x17F JUMPI PUSH2 0xC5 JUMP JUMPDEST CALLDATASIZE PUSH2 0xC5 JUMPI CALLVALUE PUSH1 0x2 PUSH0 DUP3 DUP3 SLOAD PUSH2 0x6E SWAP2 SWAP1 PUSH2 0x8D2 JUMP JUMPDEST SWAP3 POP POP DUP2 SWAP1 SSTORE POP CALLER PUSH20 0xFFFFFFFFFFFFFFFFFFFFFFFFFFFFFFFFFFFFFFFF AND PUSH32 0x88A5966D370B9919B20F3E2C13FF65706F196A4E32CC2C12BF57088F88525874 CALLVALUE PUSH1 0x40 MLOAD PUSH2 0xBB SWAP2 SWAP1 PUSH2 0x914 JUMP JUMPDEST PUSH1 0x40 MLOAD DUP1 SWAP2 SUB SWAP1 LOG2 STOP JUMPDEST PUSH0 DUP1 REVERT JUMPDEST CALLVALUE DUP1 ISZERO PUSH2 0xD4 JUMPI PUSH0 DUP1 REVERT JUMPDEST POP PUSH2 0xDD PUSH2 0x1A7 JUMP JUMPDEST PUSH1 0x40 MLOAD PUSH2 0xEA SWAP2 SWAP1 PUSH2 0x914 JUMP JUMPDEST PUSH1 0x40 MLOAD DUP1 SWAP2 SUB SWAP1 RETURN JUMPDEST CALLVALUE DUP1 ISZERO PUSH2 0xFE JUMPI PUSH0 DUP1 REVERT JUMPDEST POP PUSH2 0x107 PUSH2 0x1B8 JUMP JUMPDEST STOP JUMPDEST CALLVALUE DUP1 ISZERO PUSH2 0x114 JUMPI PUSH0 DUP1 REVERT JUMPDEST POP PUSH2 0x11D PUSH2 0x1CB JUMP JUMPDEST PUSH1 0x40 MLOAD PUSH2 0x12A SWAP2 SWAP1 PUSH2 0x96C JUMP JUMPDEST PUSH1 0x40 MLOAD DUP1 SWAP2 SUB SWAP1 RETURN JUMPDEST PUSH2 0x14D PUSH1 0x4 DUP1 CALLDATASIZE SUB DUP2 ADD SWAP1 PUSH2 0x148 SWAP2 SWAP1 PUSH2 0x9B3 JUMP JUMPDEST PUSH2 0x1F2 JUMP JUMPDEST PUSH1 0x40 MLOAD PUSH2 0x15A SWAP2 SWAP1 PUSH2 0x9F8 JUMP JUMPDEST PUSH1 0x40 MLOAD DUP1 SWAP2 SUB SWAP1 RETURN JUMPDEST PUSH2 0x17D PUSH1 0x4 DUP1 CALLDATASIZE SUB DUP2 ADD SWAP1 PUSH2 0x178 SWAP2 SWAP1 PUSH2 0xA3B JUMP JUMPDEST PUSH2 0x229 JUMP JUMPDEST STOP JUMPDEST CALLVALUE DUP1 ISZERO PUSH2 0x18A JUMPI PUSH0 DUP1 REVERT JUMPDEST POP PUSH2 0x1A5 PUSH1 0x4 DUP1 CALLDATASIZE SUB DUP2 ADD SWAP1 PUSH2 0x1A0 SWAP2 SWAP1 PUSH2 0xA79 JUMP JUMPDEST PUSH2 0x6C9 JUMP JUMPDEST STOP JUMPDEST PUSH0 PUSH2 0x1B0 PUSH2 0x74D JUMP JUMPDEST PUSH1 0x2 SLOAD SWAP1 POP SWAP1 JUMP JUMPDEST PUSH2 0x1C0 PUSH2 0x74D JUMP JUMPDEST PUSH2 0x1C9 PUSH0 PUSH2 0x7D4 JUMP JUMPDEST JUMP JUMPDEST PUSH0 DUP1 PUSH0 SWAP1 SLOAD SWAP1 PUSH2 0x100 EXP SWAP1 DIV PUSH20 0xFFFFFFFFFFFFFFFFFFFFFFFFFFFFFFFFFFFFFFFF AND SWAP1 POP SWAP1 JUMP JUMPDEST PUSH0 PUSH1 0x1 PUSH1 0x3 PUSH0 DUP5 DUP2 MSTORE PUSH1 0x20 ADD SWAP1 DUP2 MSTORE PUSH1 0x20 ADD PUSH0 KECCAK256 PUSH1 0x5 ADD PUSH1 0x14 PUSH2 0x100 EXP DUP2 SLOAD DUP2 PUSH1 0xFF MUL NOT AND SWAP1 DUP4 ISZERO ISZERO MUL OR SWAP1 SSTORE POP PUSH1 0x1 SWAP1 POP SWAP2 SWAP1 POP JUMP JUMPDEST PUSH32 0x65E06B3884A88E13243953E5160AEC7A836E4CC7ABC0762F84C66D6B918EFE7F PUSH1 0x40 MLOAD PUSH2 0x256 SWAP1 PUSH2 0xAFE JUMP JUMPDEST PUSH1 0x40 MLOAD DUP1 SWAP2 SUB SWAP1 LOG1 PUSH0 PUSH1 0x3 PUSH0 DUP4 DUP2 MSTORE PUSH1 0x20 ADD SWAP1 DUP2 MSTORE PUSH1 0x20 ADD PUSH0 KECCAK256 PUSH1 0x40 MLOAD DUP1 PUSH2 0x160 ADD PUSH1 0x40 MSTORE SWAP1 DUP2 PUSH0 DUP3 ADD DUP1 SLOAD PUSH2 0x28B SWAP1 PUSH2 0xB49 JUMP JUMPDEST DUP1 PUSH1 0x1F ADD PUSH1 0x20 DUP1 SWAP2 DIV MUL PUSH1 0x20 ADD PUSH1 0x40 MLOAD SWAP1 DUP2 ADD PUSH1 0x40 MSTORE DUP1 SWAP3 SWAP2 SWAP1 DUP2 DUP2 MSTORE PUSH1 0x20 ADD DUP3 DUP1 SLOAD PUSH2 0x2B7 SWAP1 PUSH2 0xB49 JUMP JUMPDEST DUP1 ISZERO PUSH2 0x302 JUMPI DUP1 PUSH1 0x1F LT PUSH2 0x2D9 JUMPI PUSH2 0x100 DUP1 DUP4 SLOAD DIV MUL DUP4 MSTORE SWAP2 PUSH1 0x20 ADD SWAP2 PUSH2 0x302 JUMP JUMPDEST DUP3 ADD SWAP2 SWAP1 PUSH0 MSTORE PUSH1 0x20 PUSH0 KECCAK256 SWAP1 JUMPDEST DUP2 SLOAD DUP2 MSTORE SWAP1 PUSH1 0x1 ADD SWAP1 PUSH1 0x20 ADD DUP1 DUP4 GT PUSH2 0x2E5 JUMPI DUP3 SWAP1 SUB PUSH1 0x1F AND DUP3 ADD SWAP2 JUMPDEST POP POP POP POP POP DUP2 MSTORE PUSH1 0x20 ADD PUSH1 0x1 DUP3 ADD DUP1 SLOAD PUSH2 0x31B SWAP1 PUSH2 0xB49 JUMP JUMPDEST DUP1 PUSH1 0x1F ADD PUSH1 0x20 DUP1 SWAP2 DIV MUL PUSH1 0x20 ADD PUSH1 0x40 MLOAD SWAP1 DUP2 ADD PUSH1 0x40 MSTORE DUP1 SWAP3 SWAP2 SWAP1 DUP2 DUP2 MSTORE PUSH1 0x20 ADD DUP3 DUP1 SLOAD PUSH2 0x347 SWAP1 PUSH2 0xB49 JUMP JUMPDEST DUP1 ISZERO PUSH2 0x392 JUMPI DUP1 PUSH1 0x1F LT PUSH2 0x369 JUMPI PUSH2 0x100 DUP1 DUP4 SLOAD DIV MUL DUP4 MSTORE SWAP2 PUSH1 0x20 ADD SWAP2 PUSH2 0x392 JUMP JUMPDEST DUP3 ADD SWAP2 SWAP1 PUSH0 MSTORE PUSH1 0x20 PUSH0 KECCAK256 SWAP1 JUMPDEST DUP2 SLOAD DUP2 MSTORE SWAP1 PUSH1 0x1 ADD SWAP1 PUSH1 0x20 ADD DUP1 DUP4 GT PUSH2 0x375 JUMPI DUP3 SWAP1 SUB PUSH1 0x1F AND DUP3 ADD SWAP2 JUMPDEST POP POP POP POP POP DUP2 MSTORE PUSH1 0x20 ADD PUSH1 0x2 DUP3 ADD PUSH0 SWAP1 SLOAD SWAP1 PUSH2 0x100 EXP SWAP1 DIV PUSH1 0xFF AND PUSH1 0x3 DUP2 GT ISZERO PUSH2 0x3BF JUMPI PUSH2 0x3BE PUSH2 0xB79 JUMP JUMPDEST JUMPDEST PUSH1 0x3 DUP2 GT ISZERO PUSH2 0x3D1 JUMPI PUSH2 0x3D0 PUSH2 0xB79 JUMP JUMPDEST JUMPDEST DUP2 MSTORE PUSH1 0x20 ADD PUSH1 0x2 DUP3 ADD PUSH1 0x1 SWAP1 SLOAD SWAP1 PUSH2 0x100 EXP SWAP1 DIV PUSH1 0xFF AND PUSH1 0x1 DUP2 GT ISZERO PUSH2 0x3FA JUMPI PUSH2 0x3F9 PUSH2 0xB79 JUMP JUMPDEST JUMPDEST PUSH1 0x1 DUP2 GT ISZERO PUSH2 0x40C JUMPI PUSH2 0x40B PUSH2 0xB79 JUMP JUMPDEST JUMPDEST DUP2 MSTORE PUSH1 0x20 ADD PUSH1 0x2 DUP3 ADD PUSH1 0x2 SWAP1 SLOAD SWAP1 PUSH2 0x100 EXP SWAP1 DIV PUSH4 0xFFFFFFFF AND PUSH4 0xFFFFFFFF AND PUSH4 0xFFFFFFFF AND DUP2 MSTORE PUSH1 0x20 ADD PUSH1 0x2 DUP3 ADD PUSH1 0x6 SWAP1 SLOAD SWAP1 PUSH2 0x100 EXP SWAP1 DIV PUSH4 0xFFFFFFFF AND PUSH4 0xFFFFFFFF AND PUSH4 0xFFFFFFFF AND DUP2 MSTORE PUSH1 0x20 ADD PUSH1 0x2 DUP3 ADD PUSH1 0xA SWAP1 SLOAD SWAP1 PUSH2 0x100 EXP SWAP1 DIV PUSH4 0xFFFFFFFF AND PUSH4 0xFFFFFFFF AND PUSH4 0xFFFFFFFF AND DUP2 MSTORE PUSH1 0x20 ADD PUSH1 0x3 DUP3 ADD SLOAD DUP2 MSTORE PUSH1 0x20 ADD PUSH1 0x4 DUP3 ADD PUSH0 SWAP1 SLOAD SWAP1 PUSH2 0x100 EXP SWAP1 DIV PUSH20 0xFFFFFFFFFFFFFFFFFFFFFFFFFFFFFFFFFFFFFFFF AND PUSH20 0xFFFFFFFFFFFFFFFFFFFFFFFFFFFFFFFFFFFFFFFF AND PUSH20 0xFFFFFFFFFFFFFFFFFFFFFFFFFFFFFFFFFFFFFFFF AND DUP2 MSTORE PUSH1 0x20 ADD PUSH1 0x5 DUP3 ADD PUSH0 SWAP1 SLOAD SWAP1 PUSH2 0x100 EXP SWAP1 DIV PUSH20 0xFFFFFFFFFFFFFFFFFFFFFFFFFFFFFFFFFFFFFFFF AND PUSH20 0xFFFFFFFFFFFFFFFFFFFFFFFFFFFFFFFFFFFFFFFF AND PUSH20 0xFFFFFFFFFFFFFFFFFFFFFFFFFFFFFFFFFFFFFFFF AND DUP2 MSTORE PUSH1 0x20 ADD PUSH1 0x5 DUP3 ADD PUSH1 0x14 SWAP1 SLOAD SWAP1 PUSH2 0x100 EXP SWAP1 DIV PUSH1 0xFF AND ISZERO ISZERO ISZERO ISZERO DUP2 MSTORE POP POP SWAP1 POP PUSH32 0x65E06B3884A88E13243953E5160AEC7A836E4CC7ABC0762F84C66D6B918EFE7F PUSH1 0x40 MLOAD PUSH2 0x580 SWAP1 PUSH2 0xBF0 JUMP JUMPDEST PUSH1 0x40 MLOAD DUP1 SWAP2 SUB SWAP1 LOG1 PUSH0 DUP4 PUSH20 0xFFFFFFFFFFFFFFFFFFFFFFFFFFFFFFFFFFFFFFFF AND DUP3 PUSH1 0xE0 ADD MLOAD DUP5 PUSH1 0x40 MLOAD PUSH1 0x24 ADD PUSH2 0x5B6 SWAP2 SWAP1 PUSH2 0x914 JUMP JUMPDEST PUSH1 0x40 MLOAD PUSH1 0x20 DUP2 DUP4 SUB SUB DUP2 MSTORE SWAP1 PUSH1 0x40 MSTORE PUSH32 0x998AA46500000000000000000000000000000000000000000000000000000000 PUSH28 0xFFFFFFFFFFFFFFFFFFFFFFFFFFFFFFFFFFFFFFFFFFFFFFFFFFFFFFFF NOT AND PUSH1 0x20 DUP3 ADD DUP1 MLOAD PUSH28 0xFFFFFFFFFFFFFFFFFFFFFFFFFFFFFFFFFFFFFFFFFFFFFFFFFFFFFFFF DUP4 DUP2 DUP4 AND OR DUP4 MSTORE POP POP POP POP PUSH1 0x40 MLOAD PUSH2 0x640 SWAP2 SWAP1 PUSH2 0xC7A JUMP JUMPDEST PUSH0 PUSH1 0x40 MLOAD DUP1 DUP4 SUB DUP2 DUP6 DUP8 GAS CALL SWAP3 POP POP POP RETURNDATASIZE DUP1 PUSH0 DUP2 EQ PUSH2 0x67A JUMPI PUSH1 0x40 MLOAD SWAP2 POP PUSH1 0x1F NOT PUSH1 0x3F RETURNDATASIZE ADD AND DUP3 ADD PUSH1 0x40 MSTORE RETURNDATASIZE DUP3 MSTORE RETURNDATASIZE PUSH0 PUSH1 0x20 DUP5 ADD RETURNDATACOPY PUSH2 0x67F JUMP JUMPDEST PUSH1 0x60 SWAP2 POP JUMPDEST POP POP SWAP1 POP DUP1 PUSH2 0x6C3 JUMPI PUSH1 0x40 MLOAD PUSH32 0x8C379A000000000000000000000000000000000000000000000000000000000 DUP2 MSTORE PUSH1 0x4 ADD PUSH2 0x6BA SWAP1 PUSH2 0xCDA JUMP JUMPDEST PUSH1 0x40 MLOAD DUP1 SWAP2 SUB SWAP1 REVERT JUMPDEST POP POP POP POP JUMP JUMPDEST PUSH2 0x6D1 PUSH2 0x74D JUMP JUMPDEST PUSH0 PUSH20 0xFFFFFFFFFFFFFFFFFFFFFFFFFFFFFFFFFFFFFFFF AND DUP2 PUSH20 0xFFFFFFFFFFFFFFFFFFFFFFFFFFFFFFFFFFFFFFFF AND SUB PUSH2 0x741 JUMPI PUSH0 PUSH1 0x40 MLOAD PUSH32 0x1E4FBDF700000000000000000000000000000000000000000000000000000000 DUP2 MSTORE PUSH1 0x4 ADD PUSH2 0x738 SWAP2 SWAP1 PUSH2 0x96C JUMP JUMPDEST PUSH1 0x40 MLOAD DUP1 SWAP2 SUB SWAP1 REVERT JUMPDEST PUSH2 0x74A DUP2 PUSH2 0x7D4 JUMP JUMPDEST POP JUMP JUMPDEST PUSH2 0x755 PUSH2 0x895 JUMP JUMPDEST PUSH20 0xFFFFFFFFFFFFFFFFFFFFFFFFFFFFFFFFFFFFFFFF AND PUSH2 0x773 PUSH2 0x1CB JUMP JUMPDEST PUSH20 0xFFFFFFFFFFFFFFFFFFFFFFFFFFFFFFFFFFFFFFFF AND EQ PUSH2 0x7D2 JUMPI PUSH2 0x796 PUSH2 0x895 JUMP JUMPDEST PUSH1 0x40 MLOAD PUSH32 0x118CDAA700000000000000000000000000000000000000000000000000000000 DUP2 MSTORE PUSH1 0x4 ADD PUSH2 0x7C9 SWAP2 SWAP1 PUSH2 0x96C JUMP JUMPDEST PUSH1 0x40 MLOAD DUP1 SWAP2 SUB SWAP1 REVERT JUMPDEST JUMP JUMPDEST PUSH0 DUP1 PUSH0 SWAP1 SLOAD SWAP1 PUSH2 0x100 EXP SWAP1 DIV PUSH20 0xFFFFFFFFFFFFFFFFFFFFFFFFFFFFFFFFFFFFFFFF AND SWAP1 POP DUP2 PUSH0 DUP1 PUSH2 0x100 EXP DUP2 SLOAD DUP2 PUSH20 0xFFFFFFFFFFFFFFFFFFFFFFFFFFFFFFFFFFFFFFFF MUL NOT AND SWAP1 DUP4 PUSH20 0xFFFFFFFFFFFFFFFFFFFFFFFFFFFFFFFFFFFFFFFF AND MUL OR SWAP1 SSTORE POP DUP2 PUSH20 0xFFFFFFFFFFFFFFFFFFFFFFFFFFFFFFFFFFFFFFFF AND DUP2 PUSH20 0xFFFFFFFFFFFFFFFFFFFFFFFFFFFFFFFFFFFFFFFF AND PUSH32 0x8BE0079C531659141344CD1FD0A4F28419497F9722A3DAAFE3B4186F6B6457E0 PUSH1 0x40 MLOAD PUSH1 0x40 MLOAD DUP1 SWAP2 SUB SWAP1 LOG3 POP POP JUMP JUMPDEST PUSH0 CALLER SWAP1 POP SWAP1 JUMP JUMPDEST PUSH0 DUP2 SWAP1 POP SWAP2 SWAP1 POP JUMP JUMPDEST PUSH32 0x4E487B7100000000000000000000000000000000000000000000000000000000 PUSH0 MSTORE PUSH1 0x11 PUSH1 0x4 MSTORE PUSH1 0x24 PUSH0 REVERT JUMPDEST PUSH0 PUSH2 0x8DC DUP3 PUSH2 0x89C JUMP JUMPDEST SWAP2 POP PUSH2 0x8E7 DUP4 PUSH2 0x89C JUMP JUMPDEST SWAP3 POP DUP3 DUP3 ADD SWAP1 POP DUP1 DUP3 GT ISZERO PUSH2 0x8FF JUMPI PUSH2 0x8FE PUSH2 0x8A5 JUMP JUMPDEST JUMPDEST SWAP3 SWAP2 POP POP JUMP JUMPDEST PUSH2 0x90E DUP2 PUSH2 0x89C JUMP JUMPDEST DUP3 MSTORE POP POP JUMP JUMPDEST PUSH0 PUSH1 0x20 DUP3 ADD SWAP1 POP PUSH2 0x927 PUSH0 DUP4 ADD DUP5 PUSH2 0x905 JUMP JUMPDEST SWAP3 SWAP2 POP POP JUMP JUMPDEST PUSH0 PUSH20 0xFFFFFFFFFFFFFFFFFFFFFFFFFFFFFFFFFFFFFFFF DUP3 AND SWAP1 POP SWAP2 SWAP1 POP JUMP JUMPDEST PUSH0 PUSH2 0x956 DUP3 PUSH2 0x92D JUMP JUMPDEST SWAP1 POP SWAP2 SWAP1 POP JUMP JUMPDEST PUSH2 0x966 DUP2 PUSH2 0x94C JUMP JUMPDEST DUP3 MSTORE POP POP JUMP JUMPDEST PUSH0 PUSH1 0x20 DUP3 ADD SWAP1 POP PUSH2 0x97F PUSH0 DUP4 ADD DUP5 PUSH2 0x95D JUMP JUMPDEST SWAP3 SWAP2 POP POP JUMP JUMPDEST PUSH0 DUP1 REVERT JUMPDEST PUSH2 0x992 DUP2 PUSH2 0x89C JUMP JUMPDEST DUP2 EQ PUSH2 0x99C JUMPI PUSH0 DUP1 REVERT JUMPDEST POP JUMP JUMPDEST PUSH0 DUP2 CALLDATALOAD SWAP1 POP PUSH2 0x9AD DUP2 PUSH2 0x989 JUMP JUMPDEST SWAP3 SWAP2 POP POP JUMP JUMPDEST PUSH0 PUSH1 0x20 DUP3 DUP5 SUB SLT ISZERO PUSH2 0x9C8 JUMPI PUSH2 0x9C7 PUSH2 0x985 JUMP JUMPDEST JUMPDEST PUSH0 PUSH2 0x9D5 DUP5 DUP3 DUP6 ADD PUSH2 0x99F JUMP JUMPDEST SWAP2 POP POP SWAP3 SWAP2 POP POP JUMP JUMPDEST PUSH0 DUP2 ISZERO ISZERO SWAP1 POP SWAP2 SWAP1 POP JUMP JUMPDEST PUSH2 0x9F2 DUP2 PUSH2 0x9DE JUMP JUMPDEST DUP3 MSTORE POP POP JUMP JUMPDEST PUSH0 PUSH1 0x20 DUP3 ADD SWAP1 POP PUSH2 0xA0B PUSH0 DUP4 ADD DUP5 PUSH2 0x9E9 JUMP JUMPDEST SWAP3 SWAP2 POP POP JUMP JUMPDEST PUSH2 0xA1A DUP2 PUSH2 0x94C JUMP JUMPDEST DUP2 EQ PUSH2 0xA24 JUMPI PUSH0 DUP1 REVERT JUMPDEST POP JUMP JUMPDEST PUSH0 DUP2 CALLDATALOAD SWAP1 POP PUSH2 0xA35 DUP2 PUSH2 0xA11 JUMP JUMPDEST SWAP3 SWAP2 POP POP JUMP JUMPDEST PUSH0 DUP1 PUSH1 0x40 DUP4 DUP6 SUB SLT ISZERO PUSH2 0xA51 JUMPI PUSH2 0xA50 PUSH2 0x985 JUMP JUMPDEST JUMPDEST PUSH0 PUSH2 0xA5E DUP6 DUP3 DUP7 ADD PUSH2 0xA27 JUMP JUMPDEST SWAP3 POP POP PUSH1 0x20 PUSH2 0xA6F DUP6 DUP3 DUP7 ADD PUSH2 0x99F JUMP JUMPDEST SWAP2 POP POP SWAP3 POP SWAP3 SWAP1 POP JUMP JUMPDEST PUSH0 PUSH1 0x20 DUP3 DUP5 SUB SLT ISZERO PUSH2 0xA8E JUMPI PUSH2 0xA8D PUSH2 0x985 JUMP JUMPDEST JUMPDEST PUSH0 PUSH2 0xA9B DUP5 DUP3 DUP6 ADD PUSH2 0xA27 JUMP JUMPDEST SWAP2 POP POP SWAP3 SWAP2 POP POP JUMP JUMPDEST PUSH0 DUP3 DUP3 MSTORE PUSH1 0x20 DUP3 ADD SWAP1 POP SWAP3 SWAP2 POP POP JUMP JUMPDEST PUSH32 0x6669727374000000000000000000000000000000000000000000000000000000 PUSH0 DUP3 ADD MSTORE POP JUMP JUMPDEST PUSH0 PUSH2 0xAE8 PUSH1 0x5 DUP4 PUSH2 0xAA4 JUMP JUMPDEST SWAP2 POP PUSH2 0xAF3 DUP3 PUSH2 0xAB4 JUMP JUMPDEST PUSH1 0x20 DUP3 ADD SWAP1 POP SWAP2 SWAP1 POP JUMP JUMPDEST PUSH0 PUSH1 0x20 DUP3 ADD SWAP1 POP DUP2 DUP2 SUB PUSH0 DUP4 ADD MSTORE PUSH2 0xB15 DUP2 PUSH2 0xADC JUMP JUMPDEST SWAP1 POP SWAP2 SWAP1 POP JUMP JUMPDEST PUSH32 0x4E487B7100000000000000000000000000000000000000000000000000000000 PUSH0 MSTORE PUSH1 0x22 PUSH1 0x4 MSTORE PUSH1 0x24 PUSH0 REVERT JUMPDEST PUSH0 PUSH1 0x2 DUP3 DIV SWAP1 POP PUSH1 0x1 DUP3 AND DUP1 PUSH2 0xB60 JUMPI PUSH1 0x7F DUP3 AND SWAP2 POP JUMPDEST PUSH1 0x20 DUP3 LT DUP2 SUB PUSH2 0xB73 JUMPI PUSH2 0xB72 PUSH2 0xB1C JUMP JUMPDEST JUMPDEST POP SWAP2 SWAP1 POP JUMP JUMPDEST PUSH32 0x4E487B7100000000000000000000000000000000000000000000000000000000 PUSH0 MSTORE PUSH1 0x21 PUSH1 0x4 MSTORE PUSH1 0x24 PUSH0 REVERT JUMPDEST PUSH32 0x7365636F6E640000000000000000000000000000000000000000000000000000 PUSH0 DUP3 ADD MSTORE POP JUMP JUMPDEST PUSH0 PUSH2 0xBDA PUSH1 0x6 DUP4 PUSH2 0xAA4 JUMP JUMPDEST SWAP2 POP PUSH2 0xBE5 DUP3 PUSH2 0xBA6 JUMP JUMPDEST PUSH1 0x20 DUP3 ADD SWAP1 POP SWAP2 SWAP1 POP JUMP JUMPDEST PUSH0 PUSH1 0x20 DUP3 ADD SWAP1 POP DUP2 DUP2 SUB PUSH0 DUP4 ADD MSTORE PUSH2 0xC07 DUP2 PUSH2 0xBCE JUMP JUMPDEST SWAP1 POP SWAP2 SWAP1 POP JUMP JUMPDEST PUSH0 DUP2 MLOAD SWAP1 POP SWAP2 SWAP1 POP JUMP JUMPDEST PUSH0 DUP2 SWAP1 POP SWAP3 SWAP2 POP POP JUMP JUMPDEST PUSH0 JUMPDEST DUP4 DUP2 LT ISZERO PUSH2 0xC3F JUMPI DUP1 DUP3 ADD MLOAD DUP2 DUP5 ADD MSTORE PUSH1 0x20 DUP2 ADD SWAP1 POP PUSH2 0xC24 JUMP JUMPDEST PUSH0 DUP5 DUP5 ADD MSTORE POP POP POP POP JUMP JUMPDEST PUSH0 PUSH2 0xC54 DUP3 PUSH2 0xC0E JUMP JUMPDEST PUSH2 0xC5E DUP2 DUP6 PUSH2 0xC18 JUMP JUMPDEST SWAP4 POP PUSH2 0xC6E DUP2 DUP6 PUSH1 0x20 DUP7 ADD PUSH2 0xC22 JUMP JUMPDEST DUP1 DUP5 ADD SWAP2 POP POP SWAP3 SWAP2 POP POP JUMP JUMPDEST PUSH0 PUSH2 0xC85 DUP3 DUP5 PUSH2 0xC4A JUMP JUMPDEST SWAP2 POP DUP2 SWAP1 POP SWAP3 SWAP2 POP POP JUMP JUMPDEST PUSH32 0x5061796D656E74206973206E6F7420636F6D706C657465640000000000000000 PUSH0 DUP3 ADD MSTORE POP JUMP JUMPDEST PUSH0 PUSH2 0xCC4 PUSH1 0x18 DUP4 PUSH2 0xAA4 JUMP JUMPDEST SWAP2 POP PUSH2 0xCCF DUP3 PUSH2 0xC90 JUMP JUMPDEST PUSH1 0x20 DUP3 ADD SWAP1 POP SWAP2 SWAP1 POP JUMP JUMPDEST PUSH0 PUSH1 0x20 DUP3 ADD SWAP1 POP DUP2 DUP2 SUB PUSH0 DUP4 ADD MSTORE PUSH2 0xCF1 DUP2 PUSH2 0xCB8 JUMP JUMPDEST SWAP1 POP SWAP2 SWAP1 POP JUMP INVALID LOG2 PUSH5 0x6970667358 0x22 SLT KECCAK256 AND 0xCB SWAP4 SWAP14 LOG2 SGT 0xCE SUB SWAP7 0xC2 0xED STATICCALL SMOD SWAP8 PUSH20 0x7AE43D13874CB3BD0CE017B4C30DEA575B64736F PUSH13 0x63430008160033000000000000 "
				},
				"gasEstimates": {
					"creation": {
						"codeDepositCost": "674800",
						"executionCost": "infinite",
						"totalCost": "infinite"
					},
					"external": {
						"getTotalAmount()": "infinite",
						"owner()": "2537",
						"payToContractAdmin(address,uint256)": "infinite",
						"renounceOwnership()": "infinite",
						"transferOwnership(address)": "infinite",
						"updateContractStatus(uint256)": "25018"
					}
				},
				"methodIdentifiers": {
					"getTotalAmount()": "65ac4341",
					"owner()": "8da5cb5b",
					"payToContractAdmin(address,uint256)": "cbfa1a70",
					"renounceOwnership()": "715018a6",
					"transferOwnership(address)": "f2fde38b",
					"updateContractStatus(uint256)": "998aa465"
				}
			},
			"storageLayout": {
				"storage": [
					{
						"astId": 8,
						"contract": "contracts/contracts.sol:Contracts",
						"label": "_owner",
						"offset": 0,
						"slot": "0",
						"type": "t_address"
					},
					{
						"astId": 693,
						"contract": "contracts/contracts.sol:Contracts",
						"label": "ownerAddress",
						"offset": 0,
						"slot": "1",
						"type": "t_address_payable"
					},
					{
						"astId": 696,
						"contract": "contracts/contracts.sol:Contracts",
						"label": "totalAmount",
						"offset": 0,
						"slot": "2",
						"type": "t_uint256"
					},
					{
						"astId": 744,
						"contract": "contracts/contracts.sol:Contracts",
						"label": "ContractMgt",
						"offset": 0,
						"slot": "3",
						"type": "t_mapping(t_uint256,t_struct(Contract)739_storage)"
					},
					{
						"astId": 749,
						"contract": "contracts/contracts.sol:Contracts",
						"label": "OrgContracts",
						"offset": 0,
						"slot": "4",
						"type": "t_mapping(t_string_memory_ptr,t_array(t_uint256)dyn_storage)"
					},
					{
						"astId": 754,
						"contract": "contracts/contracts.sol:Contracts",
						"label": "ContractingParties",
						"offset": 0,
						"slot": "5",
						"type": "t_mapping(t_address,t_array(t_uint256)dyn_storage)"
					}
				],
				"types": {
					"t_address": {
						"encoding": "inplace",
						"label": "address",
						"numberOfBytes": "20"
					},
					"t_address_payable": {
						"encoding": "inplace",
						"label": "address payable",
						"numberOfBytes": "20"
					},
					"t_array(t_uint256)dyn_storage": {
						"base": "t_uint256",
						"encoding": "dynamic_array",
						"label": "uint256[]",
						"numberOfBytes": "32"
					},
					"t_bool": {
						"encoding": "inplace",
						"label": "bool",
						"numberOfBytes": "1"
					},
					"t_enum(ContractState)711": {
						"encoding": "inplace",
						"label": "enum Contracts.ContractState",
						"numberOfBytes": "1"
					},
					"t_enum(ContractType)714": {
						"encoding": "inplace",
						"label": "enum Contracts.ContractType",
						"numberOfBytes": "1"
					},
					"t_mapping(t_address,t_array(t_uint256)dyn_storage)": {
						"encoding": "mapping",
						"key": "t_address",
						"label": "mapping(address => uint256[])",
						"numberOfBytes": "32",
						"value": "t_array(t_uint256)dyn_storage"
					},
					"t_mapping(t_string_memory_ptr,t_array(t_uint256)dyn_storage)": {
						"encoding": "mapping",
						"key": "t_string_memory_ptr",
						"label": "mapping(string => uint256[])",
						"numberOfBytes": "32",
						"value": "t_array(t_uint256)dyn_storage"
					},
					"t_mapping(t_uint256,t_struct(Contract)739_storage)": {
						"encoding": "mapping",
						"key": "t_uint256",
						"label": "mapping(uint256 => struct Contracts.Contract)",
						"numberOfBytes": "32",
						"value": "t_struct(Contract)739_storage"
					},
					"t_string_memory_ptr": {
						"encoding": "bytes",
						"label": "string",
						"numberOfBytes": "32"
					},
					"t_string_storage": {
						"encoding": "bytes",
						"label": "string",
						"numberOfBytes": "32"
					},
					"t_struct(Contract)739_storage": {
						"encoding": "inplace",
						"label": "struct Contracts.Contract",
						"members": [
							{
								"astId": 716,
								"contract": "contracts/contracts.sol:Contracts",
								"label": "name",
								"offset": 0,
								"slot": "0",
								"type": "t_string_storage"
							},
							{
								"astId": 718,
								"contract": "contracts/contracts.sol:Contracts",
								"label": "terms",
								"offset": 0,
								"slot": "1",
								"type": "t_string_storage"
							},
							{
								"astId": 721,
								"contract": "contracts/contracts.sol:Contracts",
								"label": "contractState",
								"offset": 0,
								"slot": "2",
								"type": "t_enum(ContractState)711"
							},
							{
								"astId": 724,
								"contract": "contracts/contracts.sol:Contracts",
								"label": "contractType",
								"offset": 1,
								"slot": "2",
								"type": "t_enum(ContractType)714"
							},
							{
								"astId": 726,
								"contract": "contracts/contracts.sol:Contracts",
								"label": "numberOfParticipants",
								"offset": 2,
								"slot": "2",
								"type": "t_uint32"
							},
							{
								"astId": 728,
								"contract": "contracts/contracts.sol:Contracts",
								"label": "forVotes",
								"offset": 6,
								"slot": "2",
								"type": "t_uint32"
							},
							{
								"astId": 730,
								"contract": "contracts/contracts.sol:Contracts",
								"label": "againstVotes",
								"offset": 10,
								"slot": "2",
								"type": "t_uint32"
							},
							{
								"astId": 732,
								"contract": "contracts/contracts.sol:Contracts",
								"label": "amount",
								"offset": 0,
								"slot": "3",
								"type": "t_uint256"
							},
							{
								"astId": 734,
								"contract": "contracts/contracts.sol:Contracts",
								"label": "payableUserAddress",
								"offset": 0,
								"slot": "4",
								"type": "t_address"
							},
							{
								"astId": 736,
								"contract": "contracts/contracts.sol:Contracts",
								"label": "payeeAddress",
								"offset": 0,
								"slot": "5",
								"type": "t_address"
							},
							{
								"astId": 738,
								"contract": "contracts/contracts.sol:Contracts",
								"label": "hasPaidToContractAdmin",
								"offset": 20,
								"slot": "5",
								"type": "t_bool"
							}
						],
						"numberOfBytes": "192"
					},
					"t_uint256": {
						"encoding": "inplace",
						"label": "uint256",
						"numberOfBytes": "32"
					},
					"t_uint32": {
						"encoding": "inplace",
						"label": "uint32",
						"numberOfBytes": "4"
					}
				}
			},
			"userdoc": {
				"kind": "user",
				"methods": {},
				"version": 1
			}
		}
	}
}