{
	"contracts/contract-management.sol": {
		"ContractManagment": {
			"abi": [
				{
					"inputs": [
						{
							"internalType": "address",
							"name": "userAddress",
							"type": "address"
						}
					],
					"stateMutability": "nonpayable",
					"type": "constructor"
				},
				{
					"inputs": [
						{
							"internalType": "address",
							"name": "owner",
							"type": "address"
						}
					],
					"name": "OwnableInvalidOwner",
					"type": "error"
				},
				{
					"inputs": [
						{
							"internalType": "address",
							"name": "account",
							"type": "address"
						}
					],
					"name": "OwnableUnauthorizedAccount",
					"type": "error"
				},
				{
					"anonymous": false,
					"inputs": [
						{
							"indexed": true,
							"internalType": "address",
							"name": "previousOwner",
							"type": "address"
						},
						{
							"indexed": true,
							"internalType": "address",
							"name": "newOwner",
							"type": "address"
						}
					],
					"name": "OwnershipTransferred",
					"type": "event"
				},
				{
					"anonymous": false,
					"inputs": [
						{
							"indexed": false,
							"internalType": "address",
							"name": "userAddress",
							"type": "address"
						},
						{
							"indexed": false,
							"internalType": "uint256",
							"name": "contractId",
							"type": "uint256"
						}
					],
					"name": "contractExecuted",
					"type": "event"
				},
				{
					"anonymous": false,
					"inputs": [
						{
							"indexed": false,
							"internalType": "address",
							"name": "userAddress",
							"type": "address"
						},
						{
							"indexed": false,
							"internalType": "uint256",
							"name": "contractId",
							"type": "uint256"
						}
					],
					"name": "contractorAdded",
					"type": "event"
				},
				{
					"anonymous": false,
					"inputs": [
						{
							"indexed": false,
							"internalType": "address",
							"name": "userAddress",
							"type": "address"
						}
					],
					"name": "contractorClosed",
					"type": "event"
				},
				{
					"anonymous": false,
					"inputs": [
						{
							"indexed": false,
							"internalType": "address",
							"name": "userAddress",
							"type": "address"
						},
						{
							"indexed": false,
							"internalType": "uint256",
							"name": "contractId",
							"type": "uint256"
						}
					],
					"name": "contractorRegistered",
					"type": "event"
				},
				{
					"anonymous": false,
					"inputs": [
						{
							"indexed": false,
							"internalType": "address",
							"name": "userAddress",
							"type": "address"
						}
					],
					"name": "contractorSealed",
					"type": "event"
				},
				{
					"anonymous": false,
					"inputs": [
						{
							"indexed": false,
							"internalType": "string",
							"name": "name",
							"type": "string"
						}
					],
					"name": "newContractCreated",
					"type": "event"
				},
				{
					"inputs": [],
					"name": "getMyAssignedContracts",
					"outputs": [
						{
							"components": [
								{
									"internalType": "string",
									"name": "name",
									"type": "string"
								},
								{
									"internalType": "string",
									"name": "terms",
									"type": "string"
								},
								{
									"internalType": "enum ContractManagment.ContractState",
									"name": "contractState",
									"type": "uint8"
								},
								{
									"internalType": "enum ContractManagment.ContractType",
									"name": "contractType",
									"type": "uint8"
								},
								{
									"internalType": "uint32",
									"name": "numberOfParticipants",
									"type": "uint32"
								},
								{
									"internalType": "uint32",
									"name": "forVotes",
									"type": "uint32"
								},
								{
									"internalType": "uint32",
									"name": "againstVotes",
									"type": "uint32"
								},
								{
									"internalType": "uint256",
									"name": "amount",
									"type": "uint256"
								},
								{
									"internalType": "address",
									"name": "payableUserAddress",
									"type": "address"
								},
								{
									"internalType": "address",
									"name": "payeeAddress",
									"type": "address"
								}
							],
							"internalType": "struct ContractManagment.Contract[]",
							"name": "",
							"type": "tuple[]"
						}
					],
					"stateMutability": "view",
					"type": "function"
				},
				{
					"inputs": [
						{
							"internalType": "string",
							"name": "_orgId",
							"type": "string"
						}
					],
					"name": "getMyOrgContracts",
					"outputs": [
						{
							"components": [
								{
									"internalType": "string",
									"name": "name",
									"type": "string"
								},
								{
									"internalType": "string",
									"name": "terms",
									"type": "string"
								},
								{
									"internalType": "enum ContractManagment.ContractState",
									"name": "contractState",
									"type": "uint8"
								},
								{
									"internalType": "enum ContractManagment.ContractType",
									"name": "contractType",
									"type": "uint8"
								},
								{
									"internalType": "uint32",
									"name": "numberOfParticipants",
									"type": "uint32"
								},
								{
									"internalType": "uint32",
									"name": "forVotes",
									"type": "uint32"
								},
								{
									"internalType": "uint32",
									"name": "againstVotes",
									"type": "uint32"
								},
								{
									"internalType": "uint256",
									"name": "amount",
									"type": "uint256"
								},
								{
									"internalType": "address",
									"name": "payableUserAddress",
									"type": "address"
								},
								{
									"internalType": "address",
									"name": "payeeAddress",
									"type": "address"
								}
							],
							"internalType": "struct ContractManagment.Contract[]",
							"name": "",
							"type": "tuple[]"
						}
					],
					"stateMutability": "view",
					"type": "function"
				},
				{
					"inputs": [
						{
							"internalType": "address",
							"name": "_to",
							"type": "address"
						},
						{
							"internalType": "uint256",
							"name": "_amount",
							"type": "uint256"
						}
					],
					"name": "makePayment",
					"outputs": [],
					"stateMutability": "payable",
					"type": "function"
				},
				{
					"inputs": [],
					"name": "owner",
					"outputs": [
						{
							"internalType": "address",
							"name": "",
							"type": "address"
						}
					],
					"stateMutability": "view",
					"type": "function"
				},
				{
					"inputs": [],
					"name": "renounceOwnership",
					"outputs": [],
					"stateMutability": "nonpayable",
					"type": "function"
				},
				{
					"inputs": [
						{
							"internalType": "address",
							"name": "newOwner",
							"type": "address"
						}
					],
					"name": "transferOwnership",
					"outputs": [],
					"stateMutability": "nonpayable",
					"type": "function"
				}
			],
			"devdoc": {
				"errors": {
					"OwnableInvalidOwner(address)": [
						{
							"details": "The owner is not a valid owner account. (eg. `address(0)`)"
						}
					],
					"OwnableUnauthorizedAccount(address)": [
						{
							"details": "The caller account is not authorized to perform an operation."
						}
					]
				},
				"kind": "dev",
				"methods": {
					"owner()": {
						"details": "Returns the address of the current owner."
					},
					"renounceOwnership()": {
						"details": "Leaves the contract without owner. It will not be possible to call `onlyOwner` functions. Can only be called by the current owner. NOTE: Renouncing ownership will leave the contract without an owner, thereby disabling any functionality that is only available to the owner."
					},
					"transferOwnership(address)": {
						"details": "Transfers ownership of the contract to a new account (`newOwner`). Can only be called by the current owner."
					}
				},
				"version": 1
			},
			"evm": {
				"assembly": "    /* \"contracts/contract-management.sol\":93:5074  contract ContractManagment is Organization {... */\n  mstore(0x40, 0x80)\n    /* \"contracts/contract-management.sol\":142:203  constructor(address userAddress) Organization(userAddress) {} */\n  callvalue\n  dup1\n  iszero\n  tag_1\n  jumpi\n  0x00\n  dup1\n  revert\ntag_1:\n  pop\n  mload(0x40)\n  sub(codesize, bytecodeSize)\n  dup1\n  bytecodeSize\n  dup4\n  codecopy\n  dup2\n  dup2\n  add\n  0x40\n  mstore\n  dup2\n  add\n  swap1\n  tag_2\n  swap2\n  swap1\n  tag_3\n  jump\t// in\ntag_2:\n    /* \"contracts/contract-management.sol\":188:199  userAddress */\n  dup1\n    /* \"contracts/delegates.sol\":208:221  _ownerAddress */\n  dup1\n    /* \"@openzeppelin/contracts/access/Ownable.sol\":1297:1298  0 */\n  0x00\n    /* \"@openzeppelin/contracts/access/Ownable.sol\":1273:1299  initialOwner == address(0) */\n  0xffffffffffffffffffffffffffffffffffffffff\n  and\n    /* \"@openzeppelin/contracts/access/Ownable.sol\":1273:1285  initialOwner */\n  dup2\n    /* \"@openzeppelin/contracts/access/Ownable.sol\":1273:1299  initialOwner == address(0) */\n  0xffffffffffffffffffffffffffffffffffffffff\n  and\n  sub\n    /* \"@openzeppelin/contracts/access/Ownable.sol\":1269:1364  if (initialOwner == address(0)) {... */\n  tag_8\n  jumpi\n    /* \"@openzeppelin/contracts/access/Ownable.sol\":1350:1351  0 */\n  0x00\n    /* \"@openzeppelin/contracts/access/Ownable.sol\":1322:1353  OwnableInvalidOwner(address(0)) */\n  mload(0x40)\n  0x1e4fbdf700000000000000000000000000000000000000000000000000000000\n  dup2\n  mstore\n  0x04\n  add\n  tag_9\n  swap2\n  swap1\n  tag_10\n  jump\t// in\ntag_9:\n  mload(0x40)\n  dup1\n  swap2\n  sub\n  swap1\n  revert\n    /* \"@openzeppelin/contracts/access/Ownable.sol\":1269:1364  if (initialOwner == address(0)) {... */\ntag_8:\n    /* \"@openzeppelin/contracts/access/Ownable.sol\":1373:1405  _transferOwnership(initialOwner) */\n  tag_11\n    /* \"@openzeppelin/contracts/access/Ownable.sol\":1392:1404  initialOwner */\n  dup2\n    /* \"@openzeppelin/contracts/access/Ownable.sol\":1373:1391  _transferOwnership */\n  shl(0x20, tag_12)\n    /* \"@openzeppelin/contracts/access/Ownable.sol\":1373:1405  _transferOwnership(initialOwner) */\n  0x20\n  shr\n  jump\t// in\ntag_11:\n    /* \"@openzeppelin/contracts/access/Ownable.sol\":1225:1412  constructor(address initialOwner) {... */\n  pop\n    /* \"contracts/delegates.sol\":165:225  constructor(address _ownerAddress) Ownable(_ownerAddress) {} */\n  pop\n    /* \"contracts/contract-management.sol\":142:203  constructor(address userAddress) Organization(userAddress) {} */\n  pop\n    /* \"contracts/contract-management.sol\":93:5074  contract ContractManagment is Organization {... */\n  jump(tag_15)\n    /* \"@openzeppelin/contracts/access/Ownable.sol\":2912:3099  function _transferOwnership(address newOwner) internal virtual {... */\ntag_12:\n    /* \"@openzeppelin/contracts/access/Ownable.sol\":2985:3001  address oldOwner */\n  0x00\n    /* \"@openzeppelin/contracts/access/Ownable.sol\":3004:3010  _owner */\n  dup1\n  0x00\n  swap1\n  sload\n  swap1\n  0x0100\n  exp\n  swap1\n  div\n  0xffffffffffffffffffffffffffffffffffffffff\n  and\n    /* \"@openzeppelin/contracts/access/Ownable.sol\":2985:3010  address oldOwner = _owner */\n  swap1\n  pop\n    /* \"@openzeppelin/contracts/access/Ownable.sol\":3029:3037  newOwner */\n  dup2\n    /* \"@openzeppelin/contracts/access/Ownable.sol\":3020:3026  _owner */\n  0x00\n  dup1\n    /* \"@openzeppelin/contracts/access/Ownable.sol\":3020:3037  _owner = newOwner */\n  0x0100\n  exp\n  dup2\n  sload\n  dup2\n  0xffffffffffffffffffffffffffffffffffffffff\n  mul\n  not\n  and\n  swap1\n  dup4\n  0xffffffffffffffffffffffffffffffffffffffff\n  and\n  mul\n  or\n  swap1\n  sstore\n  pop\n    /* \"@openzeppelin/contracts/access/Ownable.sol\":3083:3091  newOwner */\n  dup2\n    /* \"@openzeppelin/contracts/access/Ownable.sol\":3052:3092  OwnershipTransferred(oldOwner, newOwner) */\n  0xffffffffffffffffffffffffffffffffffffffff\n  and\n    /* \"@openzeppelin/contracts/access/Ownable.sol\":3073:3081  oldOwner */\n  dup2\n    /* \"@openzeppelin/contracts/access/Ownable.sol\":3052:3092  OwnershipTransferred(oldOwner, newOwner) */\n  0xffffffffffffffffffffffffffffffffffffffff\n  and\n  0x8be0079c531659141344cd1fd0a4f28419497f9722a3daafe3b4186f6b6457e0\n  mload(0x40)\n  mload(0x40)\n  dup1\n  swap2\n  sub\n  swap1\n  log3\n    /* \"@openzeppelin/contracts/access/Ownable.sol\":2975:3099  {... */\n  pop\n    /* \"@openzeppelin/contracts/access/Ownable.sol\":2912:3099  function _transferOwnership(address newOwner) internal virtual {... */\n  pop\n  jump\t// out\n    /* \"#utility.yul\":88:205   */\ntag_18:\n    /* \"#utility.yul\":197:198   */\n  0x00\n    /* \"#utility.yul\":194:195   */\n  dup1\n    /* \"#utility.yul\":187:199   */\n  revert\n    /* \"#utility.yul\":334:460   */\ntag_20:\n    /* \"#utility.yul\":371:378   */\n  0x00\n    /* \"#utility.yul\":411:453   */\n  0xffffffffffffffffffffffffffffffffffffffff\n    /* \"#utility.yul\":404:409   */\n  dup3\n    /* \"#utility.yul\":400:454   */\n  and\n    /* \"#utility.yul\":389:454   */\n  swap1\n  pop\n    /* \"#utility.yul\":334:460   */\n  swap2\n  swap1\n  pop\n  jump\t// out\n    /* \"#utility.yul\":466:562   */\ntag_21:\n    /* \"#utility.yul\":503:510   */\n  0x00\n    /* \"#utility.yul\":532:556   */\n  tag_31\n    /* \"#utility.yul\":550:555   */\n  dup3\n    /* \"#utility.yul\":532:556   */\n  tag_20\n  jump\t// in\ntag_31:\n    /* \"#utility.yul\":521:556   */\n  swap1\n  pop\n    /* \"#utility.yul\":466:562   */\n  swap2\n  swap1\n  pop\n  jump\t// out\n    /* \"#utility.yul\":568:690   */\ntag_22:\n    /* \"#utility.yul\":641:665   */\n  tag_33\n    /* \"#utility.yul\":659:664   */\n  dup2\n    /* \"#utility.yul\":641:665   */\n  tag_21\n  jump\t// in\ntag_33:\n    /* \"#utility.yul\":634:639   */\n  dup2\n    /* \"#utility.yul\":631:666   */\n  eq\n    /* \"#utility.yul\":621:684   */\n  tag_34\n  jumpi\n    /* \"#utility.yul\":680:681   */\n  0x00\n    /* \"#utility.yul\":677:678   */\n  dup1\n    /* \"#utility.yul\":670:682   */\n  revert\n    /* \"#utility.yul\":621:684   */\ntag_34:\n    /* \"#utility.yul\":568:690   */\n  pop\n  jump\t// out\n    /* \"#utility.yul\":696:839   */\ntag_23:\n    /* \"#utility.yul\":753:758   */\n  0x00\n    /* \"#utility.yul\":784:790   */\n  dup2\n    /* \"#utility.yul\":778:791   */\n  mload\n    /* \"#utility.yul\":769:791   */\n  swap1\n  pop\n    /* \"#utility.yul\":800:833   */\n  tag_36\n    /* \"#utility.yul\":827:832   */\n  dup2\n    /* \"#utility.yul\":800:833   */\n  tag_22\n  jump\t// in\ntag_36:\n    /* \"#utility.yul\":696:839   */\n  swap3\n  swap2\n  pop\n  pop\n  jump\t// out\n    /* \"#utility.yul\":845:1196   */\ntag_3:\n    /* \"#utility.yul\":915:921   */\n  0x00\n    /* \"#utility.yul\":964:966   */\n  0x20\n    /* \"#utility.yul\":952:961   */\n  dup3\n    /* \"#utility.yul\":943:950   */\n  dup5\n    /* \"#utility.yul\":939:962   */\n  sub\n    /* \"#utility.yul\":935:967   */\n  slt\n    /* \"#utility.yul\":932:1051   */\n  iszero\n  tag_38\n  jumpi\n    /* \"#utility.yul\":970:1049   */\n  tag_39\n  tag_18\n  jump\t// in\ntag_39:\n    /* \"#utility.yul\":932:1051   */\ntag_38:\n    /* \"#utility.yul\":1090:1091   */\n  0x00\n    /* \"#utility.yul\":1115:1179   */\n  tag_40\n    /* \"#utility.yul\":1171:1178   */\n  dup5\n    /* \"#utility.yul\":1162:1168   */\n  dup3\n    /* \"#utility.yul\":1151:1160   */\n  dup6\n    /* \"#utility.yul\":1147:1169   */\n  add\n    /* \"#utility.yul\":1115:1179   */\n  tag_23\n  jump\t// in\ntag_40:\n    /* \"#utility.yul\":1105:1179   */\n  swap2\n  pop\n    /* \"#utility.yul\":1061:1189   */\n  pop\n    /* \"#utility.yul\":845:1196   */\n  swap3\n  swap2\n  pop\n  pop\n  jump\t// out\n    /* \"#utility.yul\":1202:1320   */\ntag_24:\n    /* \"#utility.yul\":1289:1313   */\n  tag_42\n    /* \"#utility.yul\":1307:1312   */\n  dup2\n    /* \"#utility.yul\":1289:1313   */\n  tag_21\n  jump\t// in\ntag_42:\n    /* \"#utility.yul\":1284:1287   */\n  dup3\n    /* \"#utility.yul\":1277:1314   */\n  mstore\n    /* \"#utility.yul\":1202:1320   */\n  pop\n  pop\n  jump\t// out\n    /* \"#utility.yul\":1326:1548   */\ntag_10:\n    /* \"#utility.yul\":1419:1423   */\n  0x00\n    /* \"#utility.yul\":1457:1459   */\n  0x20\n    /* \"#utility.yul\":1446:1455   */\n  dup3\n    /* \"#utility.yul\":1442:1460   */\n  add\n    /* \"#utility.yul\":1434:1460   */\n  swap1\n  pop\n    /* \"#utility.yul\":1470:1541   */\n  tag_44\n    /* \"#utility.yul\":1538:1539   */\n  0x00\n    /* \"#utility.yul\":1527:1536   */\n  dup4\n    /* \"#utility.yul\":1523:1540   */\n  add\n    /* \"#utility.yul\":1514:1520   */\n  dup5\n    /* \"#utility.yul\":1470:1541   */\n  tag_24\n  jump\t// in\ntag_44:\n    /* \"#utility.yul\":1326:1548   */\n  swap3\n  swap2\n  pop\n  pop\n  jump\t// out\n    /* \"contracts/contract-management.sol\":93:5074  contract ContractManagment is Organization {... */\ntag_15:\n  dataSize(sub_0)\n  dup1\n  dataOffset(sub_0)\n  0x00\n  codecopy\n  0x00\n  return\nstop\n\nsub_0: assembly {\n        /* \"contracts/contract-management.sol\":93:5074  contract ContractManagment is Organization {... */\n      mstore(0x40, 0x80)\n      jumpi(tag_1, lt(calldatasize, 0x04))\n      shr(0xe0, calldataload(0x00))\n      dup1\n      0x67c7b5d6\n      eq\n      tag_2\n      jumpi\n      dup1\n      0x6d3fff27\n      eq\n      tag_3\n      jumpi\n      dup1\n      0x715018a6\n      eq\n      tag_4\n      jumpi\n      dup1\n      0x8da5cb5b\n      eq\n      tag_5\n      jumpi\n      dup1\n      0xf2fde38b\n      eq\n      tag_6\n      jumpi\n      dup1\n      0xf98cf07c\n      eq\n      tag_7\n      jumpi\n    tag_1:\n      0x00\n      dup1\n      revert\n        /* \"contracts/contract-management.sol\":2817:3232  function getMyOrgContracts(string memory _orgId)... */\n    tag_2:\n      callvalue\n      dup1\n      iszero\n      tag_8\n      jumpi\n      0x00\n      dup1\n      revert\n    tag_8:\n      pop\n      tag_9\n      0x04\n      dup1\n      calldatasize\n      sub\n      dup2\n      add\n      swap1\n      tag_10\n      swap2\n      swap1\n      tag_11\n      jump\t// in\n    tag_10:\n      tag_12\n      jump\t// in\n    tag_9:\n      mload(0x40)\n      tag_13\n      swap2\n      swap1\n      tag_14\n      jump\t// in\n    tag_13:\n      mload(0x40)\n      dup1\n      swap2\n      sub\n      swap1\n      return\n        /* \"contracts/contract-management.sol\":3238:3648  function getMyAssignedContracts()... */\n    tag_3:\n      callvalue\n      dup1\n      iszero\n      tag_15\n      jumpi\n      0x00\n      dup1\n      revert\n    tag_15:\n      pop\n      tag_16\n      tag_17\n      jump\t// in\n    tag_16:\n      mload(0x40)\n      tag_18\n      swap2\n      swap1\n      tag_14\n      jump\t// in\n    tag_18:\n      mload(0x40)\n      dup1\n      swap2\n      sub\n      swap1\n      return\n        /* \"@openzeppelin/contracts/access/Ownable.sol\":2293:2394  function renounceOwnership() public virtual onlyOwner {... */\n    tag_4:\n      callvalue\n      dup1\n      iszero\n      tag_19\n      jumpi\n      0x00\n      dup1\n      revert\n    tag_19:\n      pop\n      tag_20\n      tag_21\n      jump\t// in\n    tag_20:\n      stop\n        /* \"@openzeppelin/contracts/access/Ownable.sol\":1638:1723  function owner() public view virtual returns (address) {... */\n    tag_5:\n      callvalue\n      dup1\n      iszero\n      tag_22\n      jumpi\n      0x00\n      dup1\n      revert\n    tag_22:\n      pop\n      tag_23\n      tag_24\n      jump\t// in\n    tag_23:\n      mload(0x40)\n      tag_25\n      swap2\n      swap1\n      tag_26\n      jump\t// in\n    tag_25:\n      mload(0x40)\n      dup1\n      swap2\n      sub\n      swap1\n      return\n        /* \"@openzeppelin/contracts/access/Ownable.sol\":2543:2758  function transferOwnership(address newOwner) public virtual onlyOwner {... */\n    tag_6:\n      callvalue\n      dup1\n      iszero\n      tag_27\n      jumpi\n      0x00\n      dup1\n      revert\n    tag_27:\n      pop\n      tag_28\n      0x04\n      dup1\n      calldatasize\n      sub\n      dup2\n      add\n      swap1\n      tag_29\n      swap2\n      swap1\n      tag_30\n      jump\t// in\n    tag_29:\n      tag_31\n      jump\t// in\n    tag_28:\n      stop\n        /* \"contracts/contract-management.sol\":4765:5072  function makePayment(address _to, uint256 _amount) public payable {... */\n    tag_7:\n      tag_32\n      0x04\n      dup1\n      calldatasize\n      sub\n      dup2\n      add\n      swap1\n      tag_33\n      swap2\n      swap1\n      tag_34\n      jump\t// in\n    tag_33:\n      tag_35\n      jump\t// in\n    tag_32:\n      stop\n        /* \"contracts/contract-management.sol\":2817:3232  function getMyOrgContracts(string memory _orgId)... */\n    tag_12:\n        /* \"contracts/contract-management.sol\":2913:2930  Contract[] memory */\n      0x60\n        /* \"contracts/contract-management.sol\":2946:2974  uint256[] memory contractIds */\n      0x00\n        /* \"contracts/contract-management.sol\":2977:2989  OrgContracts */\n      0x03\n        /* \"contracts/contract-management.sol\":2990:2996  _orgId */\n      dup4\n        /* \"contracts/contract-management.sol\":2977:2997  OrgContracts[_orgId] */\n      mload(0x40)\n      tag_37\n      swap2\n      swap1\n      tag_38\n      jump\t// in\n    tag_37:\n      swap1\n      dup2\n      mstore\n      0x20\n      add\n      mload(0x40)\n      dup1\n      swap2\n      sub\n      swap1\n      keccak256\n        /* \"contracts/contract-management.sol\":2946:2997  uint256[] memory contractIds = OrgContracts[_orgId] */\n      dup1\n      sload\n      dup1\n      0x20\n      mul\n      0x20\n      add\n      mload(0x40)\n      swap1\n      dup2\n      add\n      0x40\n      mstore\n      dup1\n      swap3\n      swap2\n      swap1\n      dup2\n      dup2\n      mstore\n      0x20\n      add\n      dup3\n      dup1\n      sload\n      dup1\n      iszero\n      tag_39\n      jumpi\n      0x20\n      mul\n      dup3\n      add\n      swap2\n      swap1\n      0x00\n      mstore\n      keccak256(0x00, 0x20)\n      swap1\n    tag_40:\n      dup2\n      sload\n      dup2\n      mstore\n      0x20\n      add\n      swap1\n      0x01\n      add\n      swap1\n      dup1\n      dup4\n      gt\n      tag_40\n      jumpi\n    tag_39:\n      pop\n      pop\n      pop\n      pop\n      pop\n      swap1\n      pop\n        /* \"contracts/contract-management.sol\":3008:3035  Contract[] memory contracts */\n      0x00\n        /* \"contracts/contract-management.sol\":3053:3064  contractIds */\n      dup2\n        /* \"contracts/contract-management.sol\":3053:3071  contractIds.length */\n      mload\n        /* \"contracts/contract-management.sol\":3038:3072  new Contract[](contractIds.length) */\n      0xffffffffffffffff\n      dup2\n      gt\n      iszero\n      tag_41\n      jumpi\n      tag_42\n      tag_43\n      jump\t// in\n    tag_42:\n    tag_41:\n      mload(0x40)\n      swap1\n      dup1\n      dup3\n      mstore\n      dup1\n      0x20\n      mul\n      0x20\n      add\n      dup3\n      add\n      0x40\n      mstore\n      dup1\n      iszero\n      tag_44\n      jumpi\n      dup2\n      0x20\n      add\n    tag_45:\n      tag_46\n      tag_47\n      jump\t// in\n    tag_46:\n      dup2\n      mstore\n      0x20\n      add\n      swap1\n      0x01\n      swap1\n      sub\n      swap1\n      dup2\n      tag_45\n      jumpi\n      swap1\n      pop\n    tag_44:\n      pop\n        /* \"contracts/contract-management.sol\":3008:3072  Contract[] memory contracts = new Contract[](contractIds.length) */\n      swap1\n      pop\n        /* \"contracts/contract-management.sol\":3088:3097  uint256 i */\n      0x00\n        /* \"contracts/contract-management.sol\":3083:3199  for (uint256 i = 0; i < contractIds.length; i++) {... */\n    tag_48:\n        /* \"contracts/contract-management.sol\":3107:3118  contractIds */\n      dup3\n        /* \"contracts/contract-management.sol\":3107:3125  contractIds.length */\n      mload\n        /* \"contracts/contract-management.sol\":3103:3104  i */\n      dup2\n        /* \"contracts/contract-management.sol\":3103:3125  i < contractIds.length */\n      lt\n        /* \"contracts/contract-management.sol\":3083:3199  for (uint256 i = 0; i < contractIds.length; i++) {... */\n      iszero\n      tag_49\n      jumpi\n        /* \"contracts/contract-management.sol\":3161:3172  ContractMgt */\n      0x02\n        /* \"contracts/contract-management.sol\":3161:3188  ContractMgt[contractIds[i]] */\n      0x00\n        /* \"contracts/contract-management.sol\":3173:3184  contractIds */\n      dup5\n        /* \"contracts/contract-management.sol\":3185:3186  i */\n      dup4\n        /* \"contracts/contract-management.sol\":3173:3187  contractIds[i] */\n      dup2\n      mload\n      dup2\n      lt\n      tag_51\n      jumpi\n      tag_52\n      tag_53\n      jump\t// in\n    tag_52:\n    tag_51:\n      0x20\n      mul\n      0x20\n      add\n      add\n      mload\n        /* \"contracts/contract-management.sol\":3161:3188  ContractMgt[contractIds[i]] */\n      dup2\n      mstore\n      0x20\n      add\n      swap1\n      dup2\n      mstore\n      0x20\n      add\n      0x00\n      keccak256\n        /* \"contracts/contract-management.sol\":3146:3188  contracts[i] = ContractMgt[contractIds[i]] */\n      mload(0x40)\n      dup1\n      0x0140\n      add\n      0x40\n      mstore\n      swap1\n      dup2\n      0x00\n      dup3\n      add\n      dup1\n      sload\n      tag_54\n      swap1\n      tag_55\n      jump\t// in\n    tag_54:\n      dup1\n      0x1f\n      add\n      0x20\n      dup1\n      swap2\n      div\n      mul\n      0x20\n      add\n      mload(0x40)\n      swap1\n      dup2\n      add\n      0x40\n      mstore\n      dup1\n      swap3\n      swap2\n      swap1\n      dup2\n      dup2\n      mstore\n      0x20\n      add\n      dup3\n      dup1\n      sload\n      tag_56\n      swap1\n      tag_55\n      jump\t// in\n    tag_56:\n      dup1\n      iszero\n      tag_57\n      jumpi\n      dup1\n      0x1f\n      lt\n      tag_58\n      jumpi\n      0x0100\n      dup1\n      dup4\n      sload\n      div\n      mul\n      dup4\n      mstore\n      swap2\n      0x20\n      add\n      swap2\n      jump(tag_57)\n    tag_58:\n      dup3\n      add\n      swap2\n      swap1\n      0x00\n      mstore\n      keccak256(0x00, 0x20)\n      swap1\n    tag_59:\n      dup2\n      sload\n      dup2\n      mstore\n      swap1\n      0x01\n      add\n      swap1\n      0x20\n      add\n      dup1\n      dup4\n      gt\n      tag_59\n      jumpi\n      dup3\n      swap1\n      sub\n      0x1f\n      and\n      dup3\n      add\n      swap2\n    tag_57:\n      pop\n      pop\n      pop\n      pop\n      pop\n      dup2\n      mstore\n      0x20\n      add\n      0x01\n      dup3\n      add\n      dup1\n      sload\n      tag_60\n      swap1\n      tag_55\n      jump\t// in\n    tag_60:\n      dup1\n      0x1f\n      add\n      0x20\n      dup1\n      swap2\n      div\n      mul\n      0x20\n      add\n      mload(0x40)\n      swap1\n      dup2\n      add\n      0x40\n      mstore\n      dup1\n      swap3\n      swap2\n      swap1\n      dup2\n      dup2\n      mstore\n      0x20\n      add\n      dup3\n      dup1\n      sload\n      tag_61\n      swap1\n      tag_55\n      jump\t// in\n    tag_61:\n      dup1\n      iszero\n      tag_62\n      jumpi\n      dup1\n      0x1f\n      lt\n      tag_63\n      jumpi\n      0x0100\n      dup1\n      dup4\n      sload\n      div\n      mul\n      dup4\n      mstore\n      swap2\n      0x20\n      add\n      swap2\n      jump(tag_62)\n    tag_63:\n      dup3\n      add\n      swap2\n      swap1\n      0x00\n      mstore\n      keccak256(0x00, 0x20)\n      swap1\n    tag_64:\n      dup2\n      sload\n      dup2\n      mstore\n      swap1\n      0x01\n      add\n      swap1\n      0x20\n      add\n      dup1\n      dup4\n      gt\n      tag_64\n      jumpi\n      dup3\n      swap1\n      sub\n      0x1f\n      and\n      dup3\n      add\n      swap2\n    tag_62:\n      pop\n      pop\n      pop\n      pop\n      pop\n      dup2\n      mstore\n      0x20\n      add\n      0x02\n      dup3\n      add\n      0x00\n      swap1\n      sload\n      swap1\n      0x0100\n      exp\n      swap1\n      div\n      0xff\n      and\n      0x03\n      dup2\n      gt\n      iszero\n      tag_65\n      jumpi\n      tag_66\n      tag_67\n      jump\t// in\n    tag_66:\n    tag_65:\n      0x03\n      dup2\n      gt\n      iszero\n      tag_68\n      jumpi\n      tag_69\n      tag_67\n      jump\t// in\n    tag_69:\n    tag_68:\n      dup2\n      mstore\n      0x20\n      add\n      0x02\n      dup3\n      add\n      0x01\n      swap1\n      sload\n      swap1\n      0x0100\n      exp\n      swap1\n      div\n      0xff\n      and\n      0x01\n      dup2\n      gt\n      iszero\n      tag_70\n      jumpi\n      tag_71\n      tag_67\n      jump\t// in\n    tag_71:\n    tag_70:\n      0x01\n      dup2\n      gt\n      iszero\n      tag_72\n      jumpi\n      tag_73\n      tag_67\n      jump\t// in\n    tag_73:\n    tag_72:\n      dup2\n      mstore\n      0x20\n      add\n      0x02\n      dup3\n      add\n      0x02\n      swap1\n      sload\n      swap1\n      0x0100\n      exp\n      swap1\n      div\n      0xffffffff\n      and\n      0xffffffff\n      and\n      0xffffffff\n      and\n      dup2\n      mstore\n      0x20\n      add\n      0x02\n      dup3\n      add\n      0x06\n      swap1\n      sload\n      swap1\n      0x0100\n      exp\n      swap1\n      div\n      0xffffffff\n      and\n      0xffffffff\n      and\n      0xffffffff\n      and\n      dup2\n      mstore\n      0x20\n      add\n      0x02\n      dup3\n      add\n      0x0a\n      swap1\n      sload\n      swap1\n      0x0100\n      exp\n      swap1\n      div\n      0xffffffff\n      and\n      0xffffffff\n      and\n      0xffffffff\n      and\n      dup2\n      mstore\n      0x20\n      add\n      0x03\n      dup3\n      add\n      sload\n      dup2\n      mstore\n      0x20\n      add\n      0x04\n      dup3\n      add\n      0x00\n      swap1\n      sload\n      swap1\n      0x0100\n      exp\n      swap1\n      div\n      0xffffffffffffffffffffffffffffffffffffffff\n      and\n      0xffffffffffffffffffffffffffffffffffffffff\n      and\n      0xffffffffffffffffffffffffffffffffffffffff\n      and\n      dup2\n      mstore\n      0x20\n      add\n      0x05\n      dup3\n      add\n      0x00\n      swap1\n      sload\n      swap1\n      0x0100\n      exp\n      swap1\n      div\n      0xffffffffffffffffffffffffffffffffffffffff\n      and\n      0xffffffffffffffffffffffffffffffffffffffff\n      and\n      0xffffffffffffffffffffffffffffffffffffffff\n      and\n      dup2\n      mstore\n      pop\n      pop\n        /* \"contracts/contract-management.sol\":3146:3155  contracts */\n      dup3\n        /* \"contracts/contract-management.sol\":3156:3157  i */\n      dup3\n        /* \"contracts/contract-management.sol\":3146:3158  contracts[i] */\n      dup2\n      mload\n      dup2\n      lt\n      tag_74\n      jumpi\n      tag_75\n      tag_53\n      jump\t// in\n    tag_75:\n    tag_74:\n      0x20\n      mul\n      0x20\n      add\n      add\n        /* \"contracts/contract-management.sol\":3146:3188  contracts[i] = ContractMgt[contractIds[i]] */\n      dup2\n      swap1\n      mstore\n      pop\n        /* \"contracts/contract-management.sol\":3127:3130  i++ */\n      dup1\n      dup1\n      0x01\n      add\n      swap2\n      pop\n      pop\n        /* \"contracts/contract-management.sol\":3083:3199  for (uint256 i = 0; i < contractIds.length; i++) {... */\n      jump(tag_48)\n    tag_49:\n      pop\n        /* \"contracts/contract-management.sol\":3216:3225  contracts */\n      dup1\n        /* \"contracts/contract-management.sol\":3209:3225  return contracts */\n      swap3\n      pop\n      pop\n      pop\n        /* \"contracts/contract-management.sol\":2817:3232  function getMyOrgContracts(string memory _orgId)... */\n      swap2\n      swap1\n      pop\n      jump\t// out\n        /* \"contracts/contract-management.sol\":3238:3648  function getMyAssignedContracts()... */\n    tag_17:\n        /* \"contracts/contract-management.sol\":3319:3336  Contract[] memory */\n      0x60\n        /* \"contracts/contract-management.sol\":3352:3380  uint256[] memory contractIds */\n      0x00\n        /* \"contracts/contract-management.sol\":3383:3401  ContractingParties */\n      0x04\n        /* \"contracts/contract-management.sol\":3383:3413  ContractingParties[msg.sender] */\n      0x00\n        /* \"contracts/contract-management.sol\":3402:3412  msg.sender */\n      caller\n        /* \"contracts/contract-management.sol\":3383:3413  ContractingParties[msg.sender] */\n      0xffffffffffffffffffffffffffffffffffffffff\n      and\n      0xffffffffffffffffffffffffffffffffffffffff\n      and\n      dup2\n      mstore\n      0x20\n      add\n      swap1\n      dup2\n      mstore\n      0x20\n      add\n      0x00\n      keccak256\n        /* \"contracts/contract-management.sol\":3352:3413  uint256[] memory contractIds = ContractingParties[msg.sender] */\n      dup1\n      sload\n      dup1\n      0x20\n      mul\n      0x20\n      add\n      mload(0x40)\n      swap1\n      dup2\n      add\n      0x40\n      mstore\n      dup1\n      swap3\n      swap2\n      swap1\n      dup2\n      dup2\n      mstore\n      0x20\n      add\n      dup3\n      dup1\n      sload\n      dup1\n      iszero\n      tag_77\n      jumpi\n      0x20\n      mul\n      dup3\n      add\n      swap2\n      swap1\n      0x00\n      mstore\n      keccak256(0x00, 0x20)\n      swap1\n    tag_78:\n      dup2\n      sload\n      dup2\n      mstore\n      0x20\n      add\n      swap1\n      0x01\n      add\n      swap1\n      dup1\n      dup4\n      gt\n      tag_78\n      jumpi\n    tag_77:\n      pop\n      pop\n      pop\n      pop\n      pop\n      swap1\n      pop\n        /* \"contracts/contract-management.sol\":3424:3451  Contract[] memory contracts */\n      0x00\n        /* \"contracts/contract-management.sol\":3469:3480  contractIds */\n      dup2\n        /* \"contracts/contract-management.sol\":3469:3487  contractIds.length */\n      mload\n        /* \"contracts/contract-management.sol\":3454:3488  new Contract[](contractIds.length) */\n      0xffffffffffffffff\n      dup2\n      gt\n      iszero\n      tag_79\n      jumpi\n      tag_80\n      tag_43\n      jump\t// in\n    tag_80:\n    tag_79:\n      mload(0x40)\n      swap1\n      dup1\n      dup3\n      mstore\n      dup1\n      0x20\n      mul\n      0x20\n      add\n      dup3\n      add\n      0x40\n      mstore\n      dup1\n      iszero\n      tag_81\n      jumpi\n      dup2\n      0x20\n      add\n    tag_82:\n      tag_83\n      tag_47\n      jump\t// in\n    tag_83:\n      dup2\n      mstore\n      0x20\n      add\n      swap1\n      0x01\n      swap1\n      sub\n      swap1\n      dup2\n      tag_82\n      jumpi\n      swap1\n      pop\n    tag_81:\n      pop\n        /* \"contracts/contract-management.sol\":3424:3488  Contract[] memory contracts = new Contract[](contractIds.length) */\n      swap1\n      pop\n        /* \"contracts/contract-management.sol\":3504:3513  uint256 i */\n      0x00\n        /* \"contracts/contract-management.sol\":3499:3615  for (uint256 i = 0; i < contractIds.length; i++) {... */\n    tag_84:\n        /* \"contracts/contract-management.sol\":3523:3534  contractIds */\n      dup3\n        /* \"contracts/contract-management.sol\":3523:3541  contractIds.length */\n      mload\n        /* \"contracts/contract-management.sol\":3519:3520  i */\n      dup2\n        /* \"contracts/contract-management.sol\":3519:3541  i < contractIds.length */\n      lt\n        /* \"contracts/contract-management.sol\":3499:3615  for (uint256 i = 0; i < contractIds.length; i++) {... */\n      iszero\n      tag_85\n      jumpi\n        /* \"contracts/contract-management.sol\":3577:3588  ContractMgt */\n      0x02\n        /* \"contracts/contract-management.sol\":3577:3604  ContractMgt[contractIds[i]] */\n      0x00\n        /* \"contracts/contract-management.sol\":3589:3600  contractIds */\n      dup5\n        /* \"contracts/contract-management.sol\":3601:3602  i */\n      dup4\n        /* \"contracts/contract-management.sol\":3589:3603  contractIds[i] */\n      dup2\n      mload\n      dup2\n      lt\n      tag_87\n      jumpi\n      tag_88\n      tag_53\n      jump\t// in\n    tag_88:\n    tag_87:\n      0x20\n      mul\n      0x20\n      add\n      add\n      mload\n        /* \"contracts/contract-management.sol\":3577:3604  ContractMgt[contractIds[i]] */\n      dup2\n      mstore\n      0x20\n      add\n      swap1\n      dup2\n      mstore\n      0x20\n      add\n      0x00\n      keccak256\n        /* \"contracts/contract-management.sol\":3562:3604  contracts[i] = ContractMgt[contractIds[i]] */\n      mload(0x40)\n      dup1\n      0x0140\n      add\n      0x40\n      mstore\n      swap1\n      dup2\n      0x00\n      dup3\n      add\n      dup1\n      sload\n      tag_89\n      swap1\n      tag_55\n      jump\t// in\n    tag_89:\n      dup1\n      0x1f\n      add\n      0x20\n      dup1\n      swap2\n      div\n      mul\n      0x20\n      add\n      mload(0x40)\n      swap1\n      dup2\n      add\n      0x40\n      mstore\n      dup1\n      swap3\n      swap2\n      swap1\n      dup2\n      dup2\n      mstore\n      0x20\n      add\n      dup3\n      dup1\n      sload\n      tag_90\n      swap1\n      tag_55\n      jump\t// in\n    tag_90:\n      dup1\n      iszero\n      tag_91\n      jumpi\n      dup1\n      0x1f\n      lt\n      tag_92\n      jumpi\n      0x0100\n      dup1\n      dup4\n      sload\n      div\n      mul\n      dup4\n      mstore\n      swap2\n      0x20\n      add\n      swap2\n      jump(tag_91)\n    tag_92:\n      dup3\n      add\n      swap2\n      swap1\n      0x00\n      mstore\n      keccak256(0x00, 0x20)\n      swap1\n    tag_93:\n      dup2\n      sload\n      dup2\n      mstore\n      swap1\n      0x01\n      add\n      swap1\n      0x20\n      add\n      dup1\n      dup4\n      gt\n      tag_93\n      jumpi\n      dup3\n      swap1\n      sub\n      0x1f\n      and\n      dup3\n      add\n      swap2\n    tag_91:\n      pop\n      pop\n      pop\n      pop\n      pop\n      dup2\n      mstore\n      0x20\n      add\n      0x01\n      dup3\n      add\n      dup1\n      sload\n      tag_94\n      swap1\n      tag_55\n      jump\t// in\n    tag_94:\n      dup1\n      0x1f\n      add\n      0x20\n      dup1\n      swap2\n      div\n      mul\n      0x20\n      add\n      mload(0x40)\n      swap1\n      dup2\n      add\n      0x40\n      mstore\n      dup1\n      swap3\n      swap2\n      swap1\n      dup2\n      dup2\n      mstore\n      0x20\n      add\n      dup3\n      dup1\n      sload\n      tag_95\n      swap1\n      tag_55\n      jump\t// in\n    tag_95:\n      dup1\n      iszero\n      tag_96\n      jumpi\n      dup1\n      0x1f\n      lt\n      tag_97\n      jumpi\n      0x0100\n      dup1\n      dup4\n      sload\n      div\n      mul\n      dup4\n      mstore\n      swap2\n      0x20\n      add\n      swap2\n      jump(tag_96)\n    tag_97:\n      dup3\n      add\n      swap2\n      swap1\n      0x00\n      mstore\n      keccak256(0x00, 0x20)\n      swap1\n    tag_98:\n      dup2\n      sload\n      dup2\n      mstore\n      swap1\n      0x01\n      add\n      swap1\n      0x20\n      add\n      dup1\n      dup4\n      gt\n      tag_98\n      jumpi\n      dup3\n      swap1\n      sub\n      0x1f\n      and\n      dup3\n      add\n      swap2\n    tag_96:\n      pop\n      pop\n      pop\n      pop\n      pop\n      dup2\n      mstore\n      0x20\n      add\n      0x02\n      dup3\n      add\n      0x00\n      swap1\n      sload\n      swap1\n      0x0100\n      exp\n      swap1\n      div\n      0xff\n      and\n      0x03\n      dup2\n      gt\n      iszero\n      tag_99\n      jumpi\n      tag_100\n      tag_67\n      jump\t// in\n    tag_100:\n    tag_99:\n      0x03\n      dup2\n      gt\n      iszero\n      tag_101\n      jumpi\n      tag_102\n      tag_67\n      jump\t// in\n    tag_102:\n    tag_101:\n      dup2\n      mstore\n      0x20\n      add\n      0x02\n      dup3\n      add\n      0x01\n      swap1\n      sload\n      swap1\n      0x0100\n      exp\n      swap1\n      div\n      0xff\n      and\n      0x01\n      dup2\n      gt\n      iszero\n      tag_103\n      jumpi\n      tag_104\n      tag_67\n      jump\t// in\n    tag_104:\n    tag_103:\n      0x01\n      dup2\n      gt\n      iszero\n      tag_105\n      jumpi\n      tag_106\n      tag_67\n      jump\t// in\n    tag_106:\n    tag_105:\n      dup2\n      mstore\n      0x20\n      add\n      0x02\n      dup3\n      add\n      0x02\n      swap1\n      sload\n      swap1\n      0x0100\n      exp\n      swap1\n      div\n      0xffffffff\n      and\n      0xffffffff\n      and\n      0xffffffff\n      and\n      dup2\n      mstore\n      0x20\n      add\n      0x02\n      dup3\n      add\n      0x06\n      swap1\n      sload\n      swap1\n      0x0100\n      exp\n      swap1\n      div\n      0xffffffff\n      and\n      0xffffffff\n      and\n      0xffffffff\n      and\n      dup2\n      mstore\n      0x20\n      add\n      0x02\n      dup3\n      add\n      0x0a\n      swap1\n      sload\n      swap1\n      0x0100\n      exp\n      swap1\n      div\n      0xffffffff\n      and\n      0xffffffff\n      and\n      0xffffffff\n      and\n      dup2\n      mstore\n      0x20\n      add\n      0x03\n      dup3\n      add\n      sload\n      dup2\n      mstore\n      0x20\n      add\n      0x04\n      dup3\n      add\n      0x00\n      swap1\n      sload\n      swap1\n      0x0100\n      exp\n      swap1\n      div\n      0xffffffffffffffffffffffffffffffffffffffff\n      and\n      0xffffffffffffffffffffffffffffffffffffffff\n      and\n      0xffffffffffffffffffffffffffffffffffffffff\n      and\n      dup2\n      mstore\n      0x20\n      add\n      0x05\n      dup3\n      add\n      0x00\n      swap1\n      sload\n      swap1\n      0x0100\n      exp\n      swap1\n      div\n      0xffffffffffffffffffffffffffffffffffffffff\n      and\n      0xffffffffffffffffffffffffffffffffffffffff\n      and\n      0xffffffffffffffffffffffffffffffffffffffff\n      and\n      dup2\n      mstore\n      pop\n      pop\n        /* \"contracts/contract-management.sol\":3562:3571  contracts */\n      dup3\n        /* \"contracts/contract-management.sol\":3572:3573  i */\n      dup3\n        /* \"contracts/contract-management.sol\":3562:3574  contracts[i] */\n      dup2\n      mload\n      dup2\n      lt\n      tag_107\n      jumpi\n      tag_108\n      tag_53\n      jump\t// in\n    tag_108:\n    tag_107:\n      0x20\n      mul\n      0x20\n      add\n      add\n        /* \"contracts/contract-management.sol\":3562:3604  contracts[i] = ContractMgt[contractIds[i]] */\n      dup2\n      swap1\n      mstore\n      pop\n        /* \"contracts/contract-management.sol\":3543:3546  i++ */\n      dup1\n      dup1\n      0x01\n      add\n      swap2\n      pop\n      pop\n        /* \"contracts/contract-management.sol\":3499:3615  for (uint256 i = 0; i < contractIds.length; i++) {... */\n      jump(tag_84)\n    tag_85:\n      pop\n        /* \"contracts/contract-management.sol\":3632:3641  contracts */\n      dup1\n        /* \"contracts/contract-management.sol\":3625:3641  return contracts */\n      swap3\n      pop\n      pop\n      pop\n        /* \"contracts/contract-management.sol\":3238:3648  function getMyAssignedContracts()... */\n      swap1\n      jump\t// out\n        /* \"@openzeppelin/contracts/access/Ownable.sol\":2293:2394  function renounceOwnership() public virtual onlyOwner {... */\n    tag_21:\n        /* \"@openzeppelin/contracts/access/Ownable.sol\":1531:1544  _checkOwner() */\n      tag_110\n        /* \"@openzeppelin/contracts/access/Ownable.sol\":1531:1542  _checkOwner */\n      tag_111\n        /* \"@openzeppelin/contracts/access/Ownable.sol\":1531:1544  _checkOwner() */\n      jump\t// in\n    tag_110:\n        /* \"@openzeppelin/contracts/access/Ownable.sol\":2357:2387  _transferOwnership(address(0)) */\n      tag_113\n        /* \"@openzeppelin/contracts/access/Ownable.sol\":2384:2385  0 */\n      0x00\n        /* \"@openzeppelin/contracts/access/Ownable.sol\":2357:2375  _transferOwnership */\n      tag_114\n        /* \"@openzeppelin/contracts/access/Ownable.sol\":2357:2387  _transferOwnership(address(0)) */\n      jump\t// in\n    tag_113:\n        /* \"@openzeppelin/contracts/access/Ownable.sol\":2293:2394  function renounceOwnership() public virtual onlyOwner {... */\n      jump\t// out\n        /* \"@openzeppelin/contracts/access/Ownable.sol\":1638:1723  function owner() public view virtual returns (address) {... */\n    tag_24:\n        /* \"@openzeppelin/contracts/access/Ownable.sol\":1684:1691  address */\n      0x00\n        /* \"@openzeppelin/contracts/access/Ownable.sol\":1710:1716  _owner */\n      dup1\n      0x00\n      swap1\n      sload\n      swap1\n      0x0100\n      exp\n      swap1\n      div\n      0xffffffffffffffffffffffffffffffffffffffff\n      and\n        /* \"@openzeppelin/contracts/access/Ownable.sol\":1703:1716  return _owner */\n      swap1\n      pop\n        /* \"@openzeppelin/contracts/access/Ownable.sol\":1638:1723  function owner() public view virtual returns (address) {... */\n      swap1\n      jump\t// out\n        /* \"@openzeppelin/contracts/access/Ownable.sol\":2543:2758  function transferOwnership(address newOwner) public virtual onlyOwner {... */\n    tag_31:\n        /* \"@openzeppelin/contracts/access/Ownable.sol\":1531:1544  _checkOwner() */\n      tag_117\n        /* \"@openzeppelin/contracts/access/Ownable.sol\":1531:1542  _checkOwner */\n      tag_111\n        /* \"@openzeppelin/contracts/access/Ownable.sol\":1531:1544  _checkOwner() */\n      jump\t// in\n    tag_117:\n        /* \"@openzeppelin/contracts/access/Ownable.sol\":2647:2648  0 */\n      0x00\n        /* \"@openzeppelin/contracts/access/Ownable.sol\":2627:2649  newOwner == address(0) */\n      0xffffffffffffffffffffffffffffffffffffffff\n      and\n        /* \"@openzeppelin/contracts/access/Ownable.sol\":2627:2635  newOwner */\n      dup2\n        /* \"@openzeppelin/contracts/access/Ownable.sol\":2627:2649  newOwner == address(0) */\n      0xffffffffffffffffffffffffffffffffffffffff\n      and\n      sub\n        /* \"@openzeppelin/contracts/access/Ownable.sol\":2623:2714  if (newOwner == address(0)) {... */\n      tag_119\n      jumpi\n        /* \"@openzeppelin/contracts/access/Ownable.sol\":2700:2701  0 */\n      0x00\n        /* \"@openzeppelin/contracts/access/Ownable.sol\":2672:2703  OwnableInvalidOwner(address(0)) */\n      mload(0x40)\n      0x1e4fbdf700000000000000000000000000000000000000000000000000000000\n      dup2\n      mstore\n      0x04\n      add\n      tag_120\n      swap2\n      swap1\n      tag_26\n      jump\t// in\n    tag_120:\n      mload(0x40)\n      dup1\n      swap2\n      sub\n      swap1\n      revert\n        /* \"@openzeppelin/contracts/access/Ownable.sol\":2623:2714  if (newOwner == address(0)) {... */\n    tag_119:\n        /* \"@openzeppelin/contracts/access/Ownable.sol\":2723:2751  _transferOwnership(newOwner) */\n      tag_121\n        /* \"@openzeppelin/contracts/access/Ownable.sol\":2742:2750  newOwner */\n      dup2\n        /* \"@openzeppelin/contracts/access/Ownable.sol\":2723:2741  _transferOwnership */\n      tag_114\n        /* \"@openzeppelin/contracts/access/Ownable.sol\":2723:2751  _transferOwnership(newOwner) */\n      jump\t// in\n    tag_121:\n        /* \"@openzeppelin/contracts/access/Ownable.sol\":2543:2758  function transferOwnership(address newOwner) public virtual onlyOwner {... */\n      pop\n      jump\t// out\n        /* \"contracts/contract-management.sol\":4765:5072  function makePayment(address _to, uint256 _amount) public payable {... */\n    tag_35:\n        /* \"contracts/contract-management.sol\":4864:4865  0 */\n      0x00\n        /* \"contracts/contract-management.sol\":4849:4866  _to != address(0) */\n      0xffffffffffffffffffffffffffffffffffffffff\n      and\n        /* \"contracts/contract-management.sol\":4849:4852  _to */\n      dup3\n        /* \"contracts/contract-management.sol\":4849:4866  _to != address(0) */\n      0xffffffffffffffffffffffffffffffffffffffff\n      and\n      sub\n        /* \"contracts/contract-management.sol\":4841:4896  require(_to != address(0), \"Invalid recipient address\") */\n      tag_123\n      jumpi\n      mload(0x40)\n      0x08c379a000000000000000000000000000000000000000000000000000000000\n      dup2\n      mstore\n      0x04\n      add\n      tag_124\n      swap1\n      tag_125\n      jump\t// in\n    tag_124:\n      mload(0x40)\n      dup1\n      swap2\n      sub\n      swap1\n      revert\n    tag_123:\n        /* \"contracts/contract-management.sol\":4924:4925  0 */\n      0x00\n        /* \"contracts/contract-management.sol\":4914:4921  _amount */\n      dup2\n        /* \"contracts/contract-management.sol\":4914:4925  _amount > 0 */\n      gt\n        /* \"contracts/contract-management.sol\":4906:4962  require(_amount > 0, \"Amount must be greater than zero\") */\n      tag_126\n      jumpi\n      mload(0x40)\n      0x08c379a000000000000000000000000000000000000000000000000000000000\n      dup2\n      mstore\n      0x04\n      add\n      tag_127\n      swap1\n      tag_128\n      jump\t// in\n    tag_127:\n      mload(0x40)\n      dup1\n      swap2\n      sub\n      swap1\n      revert\n    tag_126:\n        /* \"contracts/contract-management.sol\":4974:4986  bool success */\n      0x00\n        /* \"contracts/contract-management.sol\":4992:4995  _to */\n      dup3\n        /* \"contracts/contract-management.sol\":4992:5000  _to.call */\n      0xffffffffffffffffffffffffffffffffffffffff\n      and\n        /* \"contracts/contract-management.sol\":5008:5015  _amount */\n      dup3\n        /* \"contracts/contract-management.sol\":4992:5020  _to.call{value: _amount}(\"\") */\n      mload(0x40)\n      tag_129\n      swap1\n      tag_130\n      jump\t// in\n    tag_129:\n      0x00\n      mload(0x40)\n      dup1\n      dup4\n      sub\n      dup2\n      dup6\n      dup8\n      gas\n      call\n      swap3\n      pop\n      pop\n      pop\n      returndatasize\n      dup1\n      0x00\n      dup2\n      eq\n      tag_133\n      jumpi\n      mload(0x40)\n      swap2\n      pop\n      and(add(returndatasize, 0x3f), not(0x1f))\n      dup3\n      add\n      0x40\n      mstore\n      returndatasize\n      dup3\n      mstore\n      returndatasize\n      0x00\n      0x20\n      dup5\n      add\n      returndatacopy\n      jump(tag_132)\n    tag_133:\n      0x60\n      swap2\n      pop\n    tag_132:\n      pop\n        /* \"contracts/contract-management.sol\":4973:5020  (bool success, ) = _to.call{value: _amount}(\"\") */\n      pop\n      swap1\n      pop\n        /* \"contracts/contract-management.sol\":5038:5045  success */\n      dup1\n        /* \"contracts/contract-management.sol\":5030:5065  require(success, \"Transfer failed\") */\n      tag_134\n      jumpi\n      mload(0x40)\n      0x08c379a000000000000000000000000000000000000000000000000000000000\n      dup2\n      mstore\n      0x04\n      add\n      tag_135\n      swap1\n      tag_136\n      jump\t// in\n    tag_135:\n      mload(0x40)\n      dup1\n      swap2\n      sub\n      swap1\n      revert\n    tag_134:\n        /* \"contracts/contract-management.sol\":4831:5072  {... */\n      pop\n        /* \"contracts/contract-management.sol\":4765:5072  function makePayment(address _to, uint256 _amount) public payable {... */\n      pop\n      pop\n      jump\t// out\n        /* \"@openzeppelin/contracts/access/Ownable.sol\":1796:1958  function _checkOwner() internal view virtual {... */\n    tag_111:\n        /* \"@openzeppelin/contracts/access/Ownable.sol\":1866:1878  _msgSender() */\n      tag_138\n        /* \"@openzeppelin/contracts/access/Ownable.sol\":1866:1876  _msgSender */\n      tag_139\n        /* \"@openzeppelin/contracts/access/Ownable.sol\":1866:1878  _msgSender() */\n      jump\t// in\n    tag_138:\n        /* \"@openzeppelin/contracts/access/Ownable.sol\":1855:1878  owner() != _msgSender() */\n      0xffffffffffffffffffffffffffffffffffffffff\n      and\n        /* \"@openzeppelin/contracts/access/Ownable.sol\":1855:1862  owner() */\n      tag_140\n        /* \"@openzeppelin/contracts/access/Ownable.sol\":1855:1860  owner */\n      tag_24\n        /* \"@openzeppelin/contracts/access/Ownable.sol\":1855:1862  owner() */\n      jump\t// in\n    tag_140:\n        /* \"@openzeppelin/contracts/access/Ownable.sol\":1855:1878  owner() != _msgSender() */\n      0xffffffffffffffffffffffffffffffffffffffff\n      and\n      eq\n        /* \"@openzeppelin/contracts/access/Ownable.sol\":1851:1952  if (owner() != _msgSender()) {... */\n      tag_141\n      jumpi\n        /* \"@openzeppelin/contracts/access/Ownable.sol\":1928:1940  _msgSender() */\n      tag_142\n        /* \"@openzeppelin/contracts/access/Ownable.sol\":1928:1938  _msgSender */\n      tag_139\n        /* \"@openzeppelin/contracts/access/Ownable.sol\":1928:1940  _msgSender() */\n      jump\t// in\n    tag_142:\n        /* \"@openzeppelin/contracts/access/Ownable.sol\":1901:1941  OwnableUnauthorizedAccount(_msgSender()) */\n      mload(0x40)\n      0x118cdaa700000000000000000000000000000000000000000000000000000000\n      dup2\n      mstore\n      0x04\n      add\n      tag_143\n      swap2\n      swap1\n      tag_26\n      jump\t// in\n    tag_143:\n      mload(0x40)\n      dup1\n      swap2\n      sub\n      swap1\n      revert\n        /* \"@openzeppelin/contracts/access/Ownable.sol\":1851:1952  if (owner() != _msgSender()) {... */\n    tag_141:\n        /* \"@openzeppelin/contracts/access/Ownable.sol\":1796:1958  function _checkOwner() internal view virtual {... */\n      jump\t// out\n        /* \"@openzeppelin/contracts/access/Ownable.sol\":2912:3099  function _transferOwnership(address newOwner) internal virtual {... */\n    tag_114:\n        /* \"@openzeppelin/contracts/access/Ownable.sol\":2985:3001  address oldOwner */\n      0x00\n        /* \"@openzeppelin/contracts/access/Ownable.sol\":3004:3010  _owner */\n      dup1\n      0x00\n      swap1\n      sload\n      swap1\n      0x0100\n      exp\n      swap1\n      div\n      0xffffffffffffffffffffffffffffffffffffffff\n      and\n        /* \"@openzeppelin/contracts/access/Ownable.sol\":2985:3010  address oldOwner = _owner */\n      swap1\n      pop\n        /* \"@openzeppelin/contracts/access/Ownable.sol\":3029:3037  newOwner */\n      dup2\n        /* \"@openzeppelin/contracts/access/Ownable.sol\":3020:3026  _owner */\n      0x00\n      dup1\n        /* \"@openzeppelin/contracts/access/Ownable.sol\":3020:3037  _owner = newOwner */\n      0x0100\n      exp\n      dup2\n      sload\n      dup2\n      0xffffffffffffffffffffffffffffffffffffffff\n      mul\n      not\n      and\n      swap1\n      dup4\n      0xffffffffffffffffffffffffffffffffffffffff\n      and\n      mul\n      or\n      swap1\n      sstore\n      pop\n        /* \"@openzeppelin/contracts/access/Ownable.sol\":3083:3091  newOwner */\n      dup2\n        /* \"@openzeppelin/contracts/access/Ownable.sol\":3052:3092  OwnershipTransferred(oldOwner, newOwner) */\n      0xffffffffffffffffffffffffffffffffffffffff\n      and\n        /* \"@openzeppelin/contracts/access/Ownable.sol\":3073:3081  oldOwner */\n      dup2\n        /* \"@openzeppelin/contracts/access/Ownable.sol\":3052:3092  OwnershipTransferred(oldOwner, newOwner) */\n      0xffffffffffffffffffffffffffffffffffffffff\n      and\n      0x8be0079c531659141344cd1fd0a4f28419497f9722a3daafe3b4186f6b6457e0\n      mload(0x40)\n      mload(0x40)\n      dup1\n      swap2\n      sub\n      swap1\n      log3\n        /* \"@openzeppelin/contracts/access/Ownable.sol\":2975:3099  {... */\n      pop\n        /* \"@openzeppelin/contracts/access/Ownable.sol\":2912:3099  function _transferOwnership(address newOwner) internal virtual {... */\n      pop\n      jump\t// out\n        /* \"@openzeppelin/contracts/utils/Context.sol\":656:752  function _msgSender() internal view virtual returns (address) {... */\n    tag_139:\n        /* \"@openzeppelin/contracts/utils/Context.sol\":709:716  address */\n      0x00\n        /* \"@openzeppelin/contracts/utils/Context.sol\":735:745  msg.sender */\n      caller\n        /* \"@openzeppelin/contracts/utils/Context.sol\":728:745  return msg.sender */\n      swap1\n      pop\n        /* \"@openzeppelin/contracts/utils/Context.sol\":656:752  function _msgSender() internal view virtual returns (address) {... */\n      swap1\n      jump\t// out\n    tag_47:\n      mload(0x40)\n      dup1\n      0x0140\n      add\n      0x40\n      mstore\n      dup1\n      0x60\n      dup2\n      mstore\n      0x20\n      add\n      0x60\n      dup2\n      mstore\n      0x20\n      add\n      0x00\n      0x03\n      dup2\n      gt\n      iszero\n      tag_146\n      jumpi\n      tag_147\n      tag_67\n      jump\t// in\n    tag_147:\n    tag_146:\n      dup2\n      mstore\n      0x20\n      add\n      0x00\n      0x01\n      dup2\n      gt\n      iszero\n      tag_148\n      jumpi\n      tag_149\n      tag_67\n      jump\t// in\n    tag_149:\n    tag_148:\n      dup2\n      mstore\n      0x20\n      add\n      and(0xffffffff, 0x00)\n      dup2\n      mstore\n      0x20\n      add\n      and(0xffffffff, 0x00)\n      dup2\n      mstore\n      0x20\n      add\n      and(0xffffffff, 0x00)\n      dup2\n      mstore\n      0x20\n      add\n      0x00\n      dup2\n      mstore\n      0x20\n      add\n      and(0xffffffffffffffffffffffffffffffffffffffff, 0x00)\n      dup2\n      mstore\n      0x20\n      add\n      and(0xffffffffffffffffffffffffffffffffffffffff, 0x00)\n      dup2\n      mstore\n      pop\n      swap1\n      jump\t// out\n        /* \"#utility.yul\":7:82   */\n    tag_150:\n        /* \"#utility.yul\":40:46   */\n      0x00\n        /* \"#utility.yul\":73:75   */\n      0x40\n        /* \"#utility.yul\":67:76   */\n      mload\n        /* \"#utility.yul\":57:76   */\n      swap1\n      pop\n        /* \"#utility.yul\":7:82   */\n      swap1\n      jump\t// out\n        /* \"#utility.yul\":88:205   */\n    tag_151:\n        /* \"#utility.yul\":197:198   */\n      0x00\n        /* \"#utility.yul\":194:195   */\n      dup1\n        /* \"#utility.yul\":187:199   */\n      revert\n        /* \"#utility.yul\":211:328   */\n    tag_152:\n        /* \"#utility.yul\":320:321   */\n      0x00\n        /* \"#utility.yul\":317:318   */\n      dup1\n        /* \"#utility.yul\":310:322   */\n      revert\n        /* \"#utility.yul\":334:451   */\n    tag_153:\n        /* \"#utility.yul\":443:444   */\n      0x00\n        /* \"#utility.yul\":440:441   */\n      dup1\n        /* \"#utility.yul\":433:445   */\n      revert\n        /* \"#utility.yul\":457:574   */\n    tag_154:\n        /* \"#utility.yul\":566:567   */\n      0x00\n        /* \"#utility.yul\":563:564   */\n      dup1\n        /* \"#utility.yul\":556:568   */\n      revert\n        /* \"#utility.yul\":580:682   */\n    tag_155:\n        /* \"#utility.yul\":621:627   */\n      0x00\n        /* \"#utility.yul\":672:674   */\n      0x1f\n        /* \"#utility.yul\":668:675   */\n      not\n        /* \"#utility.yul\":663:665   */\n      0x1f\n        /* \"#utility.yul\":656:661   */\n      dup4\n        /* \"#utility.yul\":652:666   */\n      add\n        /* \"#utility.yul\":648:676   */\n      and\n        /* \"#utility.yul\":638:676   */\n      swap1\n      pop\n        /* \"#utility.yul\":580:682   */\n      swap2\n      swap1\n      pop\n      jump\t// out\n        /* \"#utility.yul\":688:868   */\n    tag_43:\n        /* \"#utility.yul\":736:813   */\n      0x4e487b7100000000000000000000000000000000000000000000000000000000\n        /* \"#utility.yul\":733:734   */\n      0x00\n        /* \"#utility.yul\":726:814   */\n      mstore\n        /* \"#utility.yul\":833:837   */\n      0x41\n        /* \"#utility.yul\":830:831   */\n      0x04\n        /* \"#utility.yul\":823:838   */\n      mstore\n        /* \"#utility.yul\":857:861   */\n      0x24\n        /* \"#utility.yul\":854:855   */\n      0x00\n        /* \"#utility.yul\":847:862   */\n      revert\n        /* \"#utility.yul\":874:1155   */\n    tag_156:\n        /* \"#utility.yul\":957:984   */\n      tag_215\n        /* \"#utility.yul\":979:983   */\n      dup3\n        /* \"#utility.yul\":957:984   */\n      tag_155\n      jump\t// in\n    tag_215:\n        /* \"#utility.yul\":949:955   */\n      dup2\n        /* \"#utility.yul\":945:985   */\n      add\n        /* \"#utility.yul\":1087:1093   */\n      dup2\n        /* \"#utility.yul\":1075:1085   */\n      dup2\n        /* \"#utility.yul\":1072:1094   */\n      lt\n        /* \"#utility.yul\":1051:1069   */\n      0xffffffffffffffff\n        /* \"#utility.yul\":1039:1049   */\n      dup3\n        /* \"#utility.yul\":1036:1070   */\n      gt\n        /* \"#utility.yul\":1033:1095   */\n      or\n        /* \"#utility.yul\":1030:1118   */\n      iszero\n      tag_216\n      jumpi\n        /* \"#utility.yul\":1098:1116   */\n      tag_217\n      tag_43\n      jump\t// in\n    tag_217:\n        /* \"#utility.yul\":1030:1118   */\n    tag_216:\n        /* \"#utility.yul\":1138:1148   */\n      dup1\n        /* \"#utility.yul\":1134:1136   */\n      0x40\n        /* \"#utility.yul\":1127:1149   */\n      mstore\n        /* \"#utility.yul\":917:1155   */\n      pop\n        /* \"#utility.yul\":874:1155   */\n      pop\n      pop\n      jump\t// out\n        /* \"#utility.yul\":1161:1290   */\n    tag_157:\n        /* \"#utility.yul\":1195:1201   */\n      0x00\n        /* \"#utility.yul\":1222:1242   */\n      tag_219\n      tag_150\n      jump\t// in\n    tag_219:\n        /* \"#utility.yul\":1212:1242   */\n      swap1\n      pop\n        /* \"#utility.yul\":1251:1284   */\n      tag_220\n        /* \"#utility.yul\":1279:1283   */\n      dup3\n        /* \"#utility.yul\":1271:1277   */\n      dup3\n        /* \"#utility.yul\":1251:1284   */\n      tag_156\n      jump\t// in\n    tag_220:\n        /* \"#utility.yul\":1161:1290   */\n      swap2\n      swap1\n      pop\n      jump\t// out\n        /* \"#utility.yul\":1296:1604   */\n    tag_158:\n        /* \"#utility.yul\":1358:1362   */\n      0x00\n        /* \"#utility.yul\":1448:1466   */\n      0xffffffffffffffff\n        /* \"#utility.yul\":1440:1446   */\n      dup3\n        /* \"#utility.yul\":1437:1467   */\n      gt\n        /* \"#utility.yul\":1434:1490   */\n      iszero\n      tag_222\n      jumpi\n        /* \"#utility.yul\":1470:1488   */\n      tag_223\n      tag_43\n      jump\t// in\n    tag_223:\n        /* \"#utility.yul\":1434:1490   */\n    tag_222:\n        /* \"#utility.yul\":1508:1537   */\n      tag_224\n        /* \"#utility.yul\":1530:1536   */\n      dup3\n        /* \"#utility.yul\":1508:1537   */\n      tag_155\n      jump\t// in\n    tag_224:\n        /* \"#utility.yul\":1500:1537   */\n      swap1\n      pop\n        /* \"#utility.yul\":1592:1596   */\n      0x20\n        /* \"#utility.yul\":1586:1590   */\n      dup2\n        /* \"#utility.yul\":1582:1597   */\n      add\n        /* \"#utility.yul\":1574:1597   */\n      swap1\n      pop\n        /* \"#utility.yul\":1296:1604   */\n      swap2\n      swap1\n      pop\n      jump\t// out\n        /* \"#utility.yul\":1610:1758   */\n    tag_159:\n        /* \"#utility.yul\":1708:1714   */\n      dup3\n        /* \"#utility.yul\":1703:1706   */\n      dup2\n        /* \"#utility.yul\":1698:1701   */\n      dup4\n        /* \"#utility.yul\":1685:1715   */\n      calldatacopy\n        /* \"#utility.yul\":1749:1750   */\n      0x00\n        /* \"#utility.yul\":1740:1746   */\n      dup4\n        /* \"#utility.yul\":1735:1738   */\n      dup4\n        /* \"#utility.yul\":1731:1747   */\n      add\n        /* \"#utility.yul\":1724:1751   */\n      mstore\n        /* \"#utility.yul\":1610:1758   */\n      pop\n      pop\n      pop\n      jump\t// out\n        /* \"#utility.yul\":1764:2189   */\n    tag_160:\n        /* \"#utility.yul\":1842:1847   */\n      0x00\n        /* \"#utility.yul\":1867:1933   */\n      tag_227\n        /* \"#utility.yul\":1883:1932   */\n      tag_228\n        /* \"#utility.yul\":1925:1931   */\n      dup5\n        /* \"#utility.yul\":1883:1932   */\n      tag_158\n      jump\t// in\n    tag_228:\n        /* \"#utility.yul\":1867:1933   */\n      tag_157\n      jump\t// in\n    tag_227:\n        /* \"#utility.yul\":1858:1933   */\n      swap1\n      pop\n        /* \"#utility.yul\":1956:1962   */\n      dup3\n        /* \"#utility.yul\":1949:1954   */\n      dup2\n        /* \"#utility.yul\":1942:1963   */\n      mstore\n        /* \"#utility.yul\":1994:1998   */\n      0x20\n        /* \"#utility.yul\":1987:1992   */\n      dup2\n        /* \"#utility.yul\":1983:1999   */\n      add\n        /* \"#utility.yul\":2032:2035   */\n      dup5\n        /* \"#utility.yul\":2023:2029   */\n      dup5\n        /* \"#utility.yul\":2018:2021   */\n      dup5\n        /* \"#utility.yul\":2014:2030   */\n      add\n        /* \"#utility.yul\":2011:2036   */\n      gt\n        /* \"#utility.yul\":2008:2120   */\n      iszero\n      tag_229\n      jumpi\n        /* \"#utility.yul\":2039:2118   */\n      tag_230\n      tag_154\n      jump\t// in\n    tag_230:\n        /* \"#utility.yul\":2008:2120   */\n    tag_229:\n        /* \"#utility.yul\":2129:2183   */\n      tag_231\n        /* \"#utility.yul\":2176:2182   */\n      dup5\n        /* \"#utility.yul\":2171:2174   */\n      dup3\n        /* \"#utility.yul\":2166:2169   */\n      dup6\n        /* \"#utility.yul\":2129:2183   */\n      tag_159\n      jump\t// in\n    tag_231:\n        /* \"#utility.yul\":1848:2189   */\n      pop\n        /* \"#utility.yul\":1764:2189   */\n      swap4\n      swap3\n      pop\n      pop\n      pop\n      jump\t// out\n        /* \"#utility.yul\":2209:2549   */\n    tag_161:\n        /* \"#utility.yul\":2265:2270   */\n      0x00\n        /* \"#utility.yul\":2314:2317   */\n      dup3\n        /* \"#utility.yul\":2307:2311   */\n      0x1f\n        /* \"#utility.yul\":2299:2305   */\n      dup4\n        /* \"#utility.yul\":2295:2312   */\n      add\n        /* \"#utility.yul\":2291:2318   */\n      slt\n        /* \"#utility.yul\":2281:2403   */\n      tag_233\n      jumpi\n        /* \"#utility.yul\":2322:2401   */\n      tag_234\n      tag_153\n      jump\t// in\n    tag_234:\n        /* \"#utility.yul\":2281:2403   */\n    tag_233:\n        /* \"#utility.yul\":2439:2445   */\n      dup2\n        /* \"#utility.yul\":2426:2446   */\n      calldataload\n        /* \"#utility.yul\":2464:2543   */\n      tag_235\n        /* \"#utility.yul\":2539:2542   */\n      dup5\n        /* \"#utility.yul\":2531:2537   */\n      dup3\n        /* \"#utility.yul\":2524:2528   */\n      0x20\n        /* \"#utility.yul\":2516:2522   */\n      dup7\n        /* \"#utility.yul\":2512:2529   */\n      add\n        /* \"#utility.yul\":2464:2543   */\n      tag_160\n      jump\t// in\n    tag_235:\n        /* \"#utility.yul\":2455:2543   */\n      swap2\n      pop\n        /* \"#utility.yul\":2271:2549   */\n      pop\n        /* \"#utility.yul\":2209:2549   */\n      swap3\n      swap2\n      pop\n      pop\n      jump\t// out\n        /* \"#utility.yul\":2555:3064   */\n    tag_11:\n        /* \"#utility.yul\":2624:2630   */\n      0x00\n        /* \"#utility.yul\":2673:2675   */\n      0x20\n        /* \"#utility.yul\":2661:2670   */\n      dup3\n        /* \"#utility.yul\":2652:2659   */\n      dup5\n        /* \"#utility.yul\":2648:2671   */\n      sub\n        /* \"#utility.yul\":2644:2676   */\n      slt\n        /* \"#utility.yul\":2641:2760   */\n      iszero\n      tag_237\n      jumpi\n        /* \"#utility.yul\":2679:2758   */\n      tag_238\n      tag_151\n      jump\t// in\n    tag_238:\n        /* \"#utility.yul\":2641:2760   */\n    tag_237:\n        /* \"#utility.yul\":2827:2828   */\n      0x00\n        /* \"#utility.yul\":2816:2825   */\n      dup3\n        /* \"#utility.yul\":2812:2829   */\n      add\n        /* \"#utility.yul\":2799:2830   */\n      calldataload\n        /* \"#utility.yul\":2857:2875   */\n      0xffffffffffffffff\n        /* \"#utility.yul\":2849:2855   */\n      dup2\n        /* \"#utility.yul\":2846:2876   */\n      gt\n        /* \"#utility.yul\":2843:2960   */\n      iszero\n      tag_239\n      jumpi\n        /* \"#utility.yul\":2879:2958   */\n      tag_240\n      tag_152\n      jump\t// in\n    tag_240:\n        /* \"#utility.yul\":2843:2960   */\n    tag_239:\n        /* \"#utility.yul\":2984:3047   */\n      tag_241\n        /* \"#utility.yul\":3039:3046   */\n      dup5\n        /* \"#utility.yul\":3030:3036   */\n      dup3\n        /* \"#utility.yul\":3019:3028   */\n      dup6\n        /* \"#utility.yul\":3015:3037   */\n      add\n        /* \"#utility.yul\":2984:3047   */\n      tag_161\n      jump\t// in\n    tag_241:\n        /* \"#utility.yul\":2974:3047   */\n      swap2\n      pop\n        /* \"#utility.yul\":2770:3057   */\n      pop\n        /* \"#utility.yul\":2555:3064   */\n      swap3\n      swap2\n      pop\n      pop\n      jump\t// out\n        /* \"#utility.yul\":3070:3209   */\n    tag_162:\n        /* \"#utility.yul\":3162:3168   */\n      0x00\n        /* \"#utility.yul\":3196:3201   */\n      dup2\n        /* \"#utility.yul\":3190:3202   */\n      mload\n        /* \"#utility.yul\":3180:3202   */\n      swap1\n      pop\n        /* \"#utility.yul\":3070:3209   */\n      swap2\n      swap1\n      pop\n      jump\t// out\n        /* \"#utility.yul\":3215:3424   */\n    tag_163:\n        /* \"#utility.yul\":3339:3350   */\n      0x00\n        /* \"#utility.yul\":3373:3379   */\n      dup3\n        /* \"#utility.yul\":3368:3371   */\n      dup3\n        /* \"#utility.yul\":3361:3380   */\n      mstore\n        /* \"#utility.yul\":3413:3417   */\n      0x20\n        /* \"#utility.yul\":3408:3411   */\n      dup3\n        /* \"#utility.yul\":3404:3418   */\n      add\n        /* \"#utility.yul\":3389:3418   */\n      swap1\n      pop\n        /* \"#utility.yul\":3215:3424   */\n      swap3\n      swap2\n      pop\n      pop\n      jump\t// out\n        /* \"#utility.yul\":3430:3587   */\n    tag_164:\n        /* \"#utility.yul\":3522:3526   */\n      0x00\n        /* \"#utility.yul\":3545:3548   */\n      dup2\n        /* \"#utility.yul\":3537:3548   */\n      swap1\n      pop\n        /* \"#utility.yul\":3575:3579   */\n      0x20\n        /* \"#utility.yul\":3570:3573   */\n      dup3\n        /* \"#utility.yul\":3566:3580   */\n      add\n        /* \"#utility.yul\":3558:3580   */\n      swap1\n      pop\n        /* \"#utility.yul\":3430:3587   */\n      swap2\n      swap1\n      pop\n      jump\t// out\n        /* \"#utility.yul\":3593:3692   */\n    tag_165:\n        /* \"#utility.yul\":3645:3651   */\n      0x00\n        /* \"#utility.yul\":3679:3684   */\n      dup2\n        /* \"#utility.yul\":3673:3685   */\n      mload\n        /* \"#utility.yul\":3663:3685   */\n      swap1\n      pop\n        /* \"#utility.yul\":3593:3692   */\n      swap2\n      swap1\n      pop\n      jump\t// out\n        /* \"#utility.yul\":3698:3857   */\n    tag_166:\n        /* \"#utility.yul\":3772:3783   */\n      0x00\n        /* \"#utility.yul\":3806:3812   */\n      dup3\n        /* \"#utility.yul\":3801:3804   */\n      dup3\n        /* \"#utility.yul\":3794:3813   */\n      mstore\n        /* \"#utility.yul\":3846:3850   */\n      0x20\n        /* \"#utility.yul\":3841:3844   */\n      dup3\n        /* \"#utility.yul\":3837:3851   */\n      add\n        /* \"#utility.yul\":3822:3851   */\n      swap1\n      pop\n        /* \"#utility.yul\":3698:3857   */\n      swap3\n      swap2\n      pop\n      pop\n      jump\t// out\n        /* \"#utility.yul\":3863:4002   */\n    tag_167:\n        /* \"#utility.yul\":3952:3958   */\n      dup3\n        /* \"#utility.yul\":3947:3950   */\n      dup2\n        /* \"#utility.yul\":3942:3945   */\n      dup4\n        /* \"#utility.yul\":3936:3959   */\n      mcopy\n        /* \"#utility.yul\":3993:3994   */\n      0x00\n        /* \"#utility.yul\":3984:3990   */\n      dup4\n        /* \"#utility.yul\":3979:3982   */\n      dup4\n        /* \"#utility.yul\":3975:3991   */\n      add\n        /* \"#utility.yul\":3968:3995   */\n      mstore\n        /* \"#utility.yul\":3863:4002   */\n      pop\n      pop\n      pop\n      jump\t// out\n        /* \"#utility.yul\":4008:4365   */\n    tag_168:\n        /* \"#utility.yul\":4086:4089   */\n      0x00\n        /* \"#utility.yul\":4114:4153   */\n      tag_249\n        /* \"#utility.yul\":4147:4152   */\n      dup3\n        /* \"#utility.yul\":4114:4153   */\n      tag_165\n      jump\t// in\n    tag_249:\n        /* \"#utility.yul\":4169:4230   */\n      tag_250\n        /* \"#utility.yul\":4223:4229   */\n      dup2\n        /* \"#utility.yul\":4218:4221   */\n      dup6\n        /* \"#utility.yul\":4169:4230   */\n      tag_166\n      jump\t// in\n    tag_250:\n        /* \"#utility.yul\":4162:4230   */\n      swap4\n      pop\n        /* \"#utility.yul\":4239:4304   */\n      tag_251\n        /* \"#utility.yul\":4297:4303   */\n      dup2\n        /* \"#utility.yul\":4292:4295   */\n      dup6\n        /* \"#utility.yul\":4285:4289   */\n      0x20\n        /* \"#utility.yul\":4278:4283   */\n      dup7\n        /* \"#utility.yul\":4274:4290   */\n      add\n        /* \"#utility.yul\":4239:4304   */\n      tag_167\n      jump\t// in\n    tag_251:\n        /* \"#utility.yul\":4329:4358   */\n      tag_252\n        /* \"#utility.yul\":4351:4357   */\n      dup2\n        /* \"#utility.yul\":4329:4358   */\n      tag_155\n      jump\t// in\n    tag_252:\n        /* \"#utility.yul\":4324:4327   */\n      dup5\n        /* \"#utility.yul\":4320:4359   */\n      add\n        /* \"#utility.yul\":4313:4359   */\n      swap2\n      pop\n        /* \"#utility.yul\":4090:4365   */\n      pop\n        /* \"#utility.yul\":4008:4365   */\n      swap3\n      swap2\n      pop\n      pop\n      jump\t// out\n        /* \"#utility.yul\":4371:4551   */\n    tag_67:\n        /* \"#utility.yul\":4419:4496   */\n      0x4e487b7100000000000000000000000000000000000000000000000000000000\n        /* \"#utility.yul\":4416:4417   */\n      0x00\n        /* \"#utility.yul\":4409:4497   */\n      mstore\n        /* \"#utility.yul\":4516:4520   */\n      0x21\n        /* \"#utility.yul\":4513:4514   */\n      0x04\n        /* \"#utility.yul\":4506:4521   */\n      mstore\n        /* \"#utility.yul\":4540:4544   */\n      0x24\n        /* \"#utility.yul\":4537:4538   */\n      0x00\n        /* \"#utility.yul\":4530:4545   */\n      revert\n        /* \"#utility.yul\":4557:4679   */\n    tag_169:\n        /* \"#utility.yul\":4647:4648   */\n      0x04\n        /* \"#utility.yul\":4640:4645   */\n      dup2\n        /* \"#utility.yul\":4637:4649   */\n      lt\n        /* \"#utility.yul\":4627:4673   */\n      tag_255\n      jumpi\n        /* \"#utility.yul\":4653:4671   */\n      tag_256\n      tag_67\n      jump\t// in\n    tag_256:\n        /* \"#utility.yul\":4627:4673   */\n    tag_255:\n        /* \"#utility.yul\":4557:4679   */\n      pop\n      jump\t// out\n        /* \"#utility.yul\":4685:4830   */\n    tag_170:\n        /* \"#utility.yul\":4739:4746   */\n      0x00\n        /* \"#utility.yul\":4768:4773   */\n      dup2\n        /* \"#utility.yul\":4757:4773   */\n      swap1\n      pop\n        /* \"#utility.yul\":4774:4824   */\n      tag_258\n        /* \"#utility.yul\":4818:4823   */\n      dup3\n        /* \"#utility.yul\":4774:4824   */\n      tag_169\n      jump\t// in\n    tag_258:\n        /* \"#utility.yul\":4685:4830   */\n      swap2\n      swap1\n      pop\n      jump\t// out\n        /* \"#utility.yul\":4836:4981   */\n    tag_171:\n        /* \"#utility.yul\":4901:4910   */\n      0x00\n        /* \"#utility.yul\":4934:4975   */\n      tag_260\n        /* \"#utility.yul\":4969:4974   */\n      dup3\n        /* \"#utility.yul\":4934:4975   */\n      tag_170\n      jump\t// in\n    tag_260:\n        /* \"#utility.yul\":4921:4975   */\n      swap1\n      pop\n        /* \"#utility.yul\":4836:4981   */\n      swap2\n      swap1\n      pop\n      jump\t// out\n        /* \"#utility.yul\":4987:5138   */\n    tag_172:\n        /* \"#utility.yul\":5079:5131   */\n      tag_262\n        /* \"#utility.yul\":5125:5130   */\n      dup2\n        /* \"#utility.yul\":5079:5131   */\n      tag_171\n      jump\t// in\n    tag_262:\n        /* \"#utility.yul\":5074:5077   */\n      dup3\n        /* \"#utility.yul\":5067:5132   */\n      mstore\n        /* \"#utility.yul\":4987:5138   */\n      pop\n      pop\n      jump\t// out\n        /* \"#utility.yul\":5144:5265   */\n    tag_173:\n        /* \"#utility.yul\":5233:5234   */\n      0x02\n        /* \"#utility.yul\":5226:5231   */\n      dup2\n        /* \"#utility.yul\":5223:5235   */\n      lt\n        /* \"#utility.yul\":5213:5259   */\n      tag_264\n      jumpi\n        /* \"#utility.yul\":5239:5257   */\n      tag_265\n      tag_67\n      jump\t// in\n    tag_265:\n        /* \"#utility.yul\":5213:5259   */\n    tag_264:\n        /* \"#utility.yul\":5144:5265   */\n      pop\n      jump\t// out\n        /* \"#utility.yul\":5271:5414   */\n    tag_174:\n        /* \"#utility.yul\":5324:5331   */\n      0x00\n        /* \"#utility.yul\":5353:5358   */\n      dup2\n        /* \"#utility.yul\":5342:5358   */\n      swap1\n      pop\n        /* \"#utility.yul\":5359:5408   */\n      tag_267\n        /* \"#utility.yul\":5402:5407   */\n      dup3\n        /* \"#utility.yul\":5359:5408   */\n      tag_173\n      jump\t// in\n    tag_267:\n        /* \"#utility.yul\":5271:5414   */\n      swap2\n      swap1\n      pop\n      jump\t// out\n        /* \"#utility.yul\":5420:5563   */\n    tag_175:\n        /* \"#utility.yul\":5484:5493   */\n      0x00\n        /* \"#utility.yul\":5517:5557   */\n      tag_269\n        /* \"#utility.yul\":5551:5556   */\n      dup3\n        /* \"#utility.yul\":5517:5557   */\n      tag_174\n      jump\t// in\n    tag_269:\n        /* \"#utility.yul\":5504:5557   */\n      swap1\n      pop\n        /* \"#utility.yul\":5420:5563   */\n      swap2\n      swap1\n      pop\n      jump\t// out\n        /* \"#utility.yul\":5569:5718   */\n    tag_176:\n        /* \"#utility.yul\":5660:5711   */\n      tag_271\n        /* \"#utility.yul\":5705:5710   */\n      dup2\n        /* \"#utility.yul\":5660:5711   */\n      tag_175\n      jump\t// in\n    tag_271:\n        /* \"#utility.yul\":5655:5658   */\n      dup3\n        /* \"#utility.yul\":5648:5712   */\n      mstore\n        /* \"#utility.yul\":5569:5718   */\n      pop\n      pop\n      jump\t// out\n        /* \"#utility.yul\":5724:5817   */\n    tag_177:\n        /* \"#utility.yul\":5760:5767   */\n      0x00\n        /* \"#utility.yul\":5800:5810   */\n      0xffffffff\n        /* \"#utility.yul\":5793:5798   */\n      dup3\n        /* \"#utility.yul\":5789:5811   */\n      and\n        /* \"#utility.yul\":5778:5811   */\n      swap1\n      pop\n        /* \"#utility.yul\":5724:5817   */\n      swap2\n      swap1\n      pop\n      jump\t// out\n        /* \"#utility.yul\":5823:5928   */\n    tag_178:\n        /* \"#utility.yul\":5898:5921   */\n      tag_274\n        /* \"#utility.yul\":5915:5920   */\n      dup2\n        /* \"#utility.yul\":5898:5921   */\n      tag_177\n      jump\t// in\n    tag_274:\n        /* \"#utility.yul\":5893:5896   */\n      dup3\n        /* \"#utility.yul\":5886:5922   */\n      mstore\n        /* \"#utility.yul\":5823:5928   */\n      pop\n      pop\n      jump\t// out\n        /* \"#utility.yul\":5934:6011   */\n    tag_179:\n        /* \"#utility.yul\":5971:5978   */\n      0x00\n        /* \"#utility.yul\":6000:6005   */\n      dup2\n        /* \"#utility.yul\":5989:6005   */\n      swap1\n      pop\n        /* \"#utility.yul\":5934:6011   */\n      swap2\n      swap1\n      pop\n      jump\t// out\n        /* \"#utility.yul\":6017:6125   */\n    tag_180:\n        /* \"#utility.yul\":6094:6118   */\n      tag_277\n        /* \"#utility.yul\":6112:6117   */\n      dup2\n        /* \"#utility.yul\":6094:6118   */\n      tag_179\n      jump\t// in\n    tag_277:\n        /* \"#utility.yul\":6089:6092   */\n      dup3\n        /* \"#utility.yul\":6082:6119   */\n      mstore\n        /* \"#utility.yul\":6017:6125   */\n      pop\n      pop\n      jump\t// out\n        /* \"#utility.yul\":6131:6257   */\n    tag_181:\n        /* \"#utility.yul\":6168:6175   */\n      0x00\n        /* \"#utility.yul\":6208:6250   */\n      0xffffffffffffffffffffffffffffffffffffffff\n        /* \"#utility.yul\":6201:6206   */\n      dup3\n        /* \"#utility.yul\":6197:6251   */\n      and\n        /* \"#utility.yul\":6186:6251   */\n      swap1\n      pop\n        /* \"#utility.yul\":6131:6257   */\n      swap2\n      swap1\n      pop\n      jump\t// out\n        /* \"#utility.yul\":6263:6359   */\n    tag_182:\n        /* \"#utility.yul\":6300:6307   */\n      0x00\n        /* \"#utility.yul\":6329:6353   */\n      tag_280\n        /* \"#utility.yul\":6347:6352   */\n      dup3\n        /* \"#utility.yul\":6329:6353   */\n      tag_181\n      jump\t// in\n    tag_280:\n        /* \"#utility.yul\":6318:6353   */\n      swap1\n      pop\n        /* \"#utility.yul\":6263:6359   */\n      swap2\n      swap1\n      pop\n      jump\t// out\n        /* \"#utility.yul\":6365:6473   */\n    tag_183:\n        /* \"#utility.yul\":6442:6466   */\n      tag_282\n        /* \"#utility.yul\":6460:6465   */\n      dup2\n        /* \"#utility.yul\":6442:6466   */\n      tag_182\n      jump\t// in\n    tag_282:\n        /* \"#utility.yul\":6437:6440   */\n      dup3\n        /* \"#utility.yul\":6430:6467   */\n      mstore\n        /* \"#utility.yul\":6365:6473   */\n      pop\n      pop\n      jump\t// out\n        /* \"#utility.yul\":6557:8719   */\n    tag_184:\n        /* \"#utility.yul\":6666:6669   */\n      0x00\n        /* \"#utility.yul\":6702:6708   */\n      0x0140\n        /* \"#utility.yul\":6697:6700   */\n      dup4\n        /* \"#utility.yul\":6693:6709   */\n      add\n        /* \"#utility.yul\":6791:6795   */\n      0x00\n        /* \"#utility.yul\":6784:6789   */\n      dup4\n        /* \"#utility.yul\":6780:6796   */\n      add\n        /* \"#utility.yul\":6774:6797   */\n      mload\n        /* \"#utility.yul\":6844:6847   */\n      dup5\n        /* \"#utility.yul\":6838:6842   */\n      dup3\n        /* \"#utility.yul\":6834:6848   */\n      sub\n        /* \"#utility.yul\":6827:6831   */\n      0x00\n        /* \"#utility.yul\":6822:6825   */\n      dup7\n        /* \"#utility.yul\":6818:6832   */\n      add\n        /* \"#utility.yul\":6811:6849   */\n      mstore\n        /* \"#utility.yul\":6870:6943   */\n      tag_284\n        /* \"#utility.yul\":6938:6942   */\n      dup3\n        /* \"#utility.yul\":6924:6936   */\n      dup3\n        /* \"#utility.yul\":6870:6943   */\n      tag_168\n      jump\t// in\n    tag_284:\n        /* \"#utility.yul\":6862:6943   */\n      swap2\n      pop\n        /* \"#utility.yul\":6719:6954   */\n      pop\n        /* \"#utility.yul\":7037:7041   */\n      0x20\n        /* \"#utility.yul\":7030:7035   */\n      dup4\n        /* \"#utility.yul\":7026:7042   */\n      add\n        /* \"#utility.yul\":7020:7043   */\n      mload\n        /* \"#utility.yul\":7090:7093   */\n      dup5\n        /* \"#utility.yul\":7084:7088   */\n      dup3\n        /* \"#utility.yul\":7080:7094   */\n      sub\n        /* \"#utility.yul\":7073:7077   */\n      0x20\n        /* \"#utility.yul\":7068:7071   */\n      dup7\n        /* \"#utility.yul\":7064:7078   */\n      add\n        /* \"#utility.yul\":7057:7095   */\n      mstore\n        /* \"#utility.yul\":7116:7189   */\n      tag_285\n        /* \"#utility.yul\":7184:7188   */\n      dup3\n        /* \"#utility.yul\":7170:7182   */\n      dup3\n        /* \"#utility.yul\":7116:7189   */\n      tag_168\n      jump\t// in\n    tag_285:\n        /* \"#utility.yul\":7108:7189   */\n      swap2\n      pop\n        /* \"#utility.yul\":6964:7200   */\n      pop\n        /* \"#utility.yul\":7291:7295   */\n      0x40\n        /* \"#utility.yul\":7284:7289   */\n      dup4\n        /* \"#utility.yul\":7280:7296   */\n      add\n        /* \"#utility.yul\":7274:7297   */\n      mload\n        /* \"#utility.yul\":7310:7388   */\n      tag_286\n        /* \"#utility.yul\":7382:7386   */\n      0x40\n        /* \"#utility.yul\":7377:7380   */\n      dup7\n        /* \"#utility.yul\":7373:7387   */\n      add\n        /* \"#utility.yul\":7359:7371   */\n      dup3\n        /* \"#utility.yul\":7310:7388   */\n      tag_172\n      jump\t// in\n    tag_286:\n        /* \"#utility.yul\":7210:7398   */\n      pop\n        /* \"#utility.yul\":7488:7492   */\n      0x60\n        /* \"#utility.yul\":7481:7486   */\n      dup4\n        /* \"#utility.yul\":7477:7493   */\n      add\n        /* \"#utility.yul\":7471:7494   */\n      mload\n        /* \"#utility.yul\":7507:7584   */\n      tag_287\n        /* \"#utility.yul\":7578:7582   */\n      0x60\n        /* \"#utility.yul\":7573:7576   */\n      dup7\n        /* \"#utility.yul\":7569:7583   */\n      add\n        /* \"#utility.yul\":7555:7567   */\n      dup3\n        /* \"#utility.yul\":7507:7584   */\n      tag_176\n      jump\t// in\n    tag_287:\n        /* \"#utility.yul\":7408:7594   */\n      pop\n        /* \"#utility.yul\":7692:7696   */\n      0x80\n        /* \"#utility.yul\":7685:7690   */\n      dup4\n        /* \"#utility.yul\":7681:7697   */\n      add\n        /* \"#utility.yul\":7675:7698   */\n      mload\n        /* \"#utility.yul\":7711:7772   */\n      tag_288\n        /* \"#utility.yul\":7766:7770   */\n      0x80\n        /* \"#utility.yul\":7761:7764   */\n      dup7\n        /* \"#utility.yul\":7757:7771   */\n      add\n        /* \"#utility.yul\":7743:7755   */\n      dup3\n        /* \"#utility.yul\":7711:7772   */\n      tag_178\n      jump\t// in\n    tag_288:\n        /* \"#utility.yul\":7604:7782   */\n      pop\n        /* \"#utility.yul\":7868:7872   */\n      0xa0\n        /* \"#utility.yul\":7861:7866   */\n      dup4\n        /* \"#utility.yul\":7857:7873   */\n      add\n        /* \"#utility.yul\":7851:7874   */\n      mload\n        /* \"#utility.yul\":7887:7948   */\n      tag_289\n        /* \"#utility.yul\":7942:7946   */\n      0xa0\n        /* \"#utility.yul\":7937:7940   */\n      dup7\n        /* \"#utility.yul\":7933:7947   */\n      add\n        /* \"#utility.yul\":7919:7931   */\n      dup3\n        /* \"#utility.yul\":7887:7948   */\n      tag_178\n      jump\t// in\n    tag_289:\n        /* \"#utility.yul\":7792:7958   */\n      pop\n        /* \"#utility.yul\":8048:8052   */\n      0xc0\n        /* \"#utility.yul\":8041:8046   */\n      dup4\n        /* \"#utility.yul\":8037:8053   */\n      add\n        /* \"#utility.yul\":8031:8054   */\n      mload\n        /* \"#utility.yul\":8067:8128   */\n      tag_290\n        /* \"#utility.yul\":8122:8126   */\n      0xc0\n        /* \"#utility.yul\":8117:8120   */\n      dup7\n        /* \"#utility.yul\":8113:8127   */\n      add\n        /* \"#utility.yul\":8099:8111   */\n      dup3\n        /* \"#utility.yul\":8067:8128   */\n      tag_178\n      jump\t// in\n    tag_290:\n        /* \"#utility.yul\":7968:8138   */\n      pop\n        /* \"#utility.yul\":8222:8226   */\n      0xe0\n        /* \"#utility.yul\":8215:8220   */\n      dup4\n        /* \"#utility.yul\":8211:8227   */\n      add\n        /* \"#utility.yul\":8205:8228   */\n      mload\n        /* \"#utility.yul\":8241:8304   */\n      tag_291\n        /* \"#utility.yul\":8298:8302   */\n      0xe0\n        /* \"#utility.yul\":8293:8296   */\n      dup7\n        /* \"#utility.yul\":8289:8303   */\n      add\n        /* \"#utility.yul\":8275:8287   */\n      dup3\n        /* \"#utility.yul\":8241:8304   */\n      tag_180\n      jump\t// in\n    tag_291:\n        /* \"#utility.yul\":8148:8314   */\n      pop\n        /* \"#utility.yul\":8410:8416   */\n      0x0100\n        /* \"#utility.yul\":8403:8408   */\n      dup4\n        /* \"#utility.yul\":8399:8417   */\n      add\n        /* \"#utility.yul\":8393:8418   */\n      mload\n        /* \"#utility.yul\":8431:8496   */\n      tag_292\n        /* \"#utility.yul\":8488:8494   */\n      0x0100\n        /* \"#utility.yul\":8483:8486   */\n      dup7\n        /* \"#utility.yul\":8479:8495   */\n      add\n        /* \"#utility.yul\":8465:8477   */\n      dup3\n        /* \"#utility.yul\":8431:8496   */\n      tag_183\n      jump\t// in\n    tag_292:\n        /* \"#utility.yul\":8324:8506   */\n      pop\n        /* \"#utility.yul\":8596:8602   */\n      0x0120\n        /* \"#utility.yul\":8589:8594   */\n      dup4\n        /* \"#utility.yul\":8585:8603   */\n      add\n        /* \"#utility.yul\":8579:8604   */\n      mload\n        /* \"#utility.yul\":8617:8682   */\n      tag_293\n        /* \"#utility.yul\":8674:8680   */\n      0x0120\n        /* \"#utility.yul\":8669:8672   */\n      dup7\n        /* \"#utility.yul\":8665:8681   */\n      add\n        /* \"#utility.yul\":8651:8663   */\n      dup3\n        /* \"#utility.yul\":8617:8682   */\n      tag_183\n      jump\t// in\n    tag_293:\n        /* \"#utility.yul\":8516:8692   */\n      pop\n        /* \"#utility.yul\":8709:8713   */\n      dup1\n        /* \"#utility.yul\":8702:8713   */\n      swap2\n      pop\n        /* \"#utility.yul\":6671:8719   */\n      pop\n        /* \"#utility.yul\":6557:8719   */\n      swap3\n      swap2\n      pop\n      pop\n      jump\t// out\n        /* \"#utility.yul\":8725:8981   */\n    tag_185:\n        /* \"#utility.yul\":8844:8854   */\n      0x00\n        /* \"#utility.yul\":8879:8975   */\n      tag_295\n        /* \"#utility.yul\":8971:8974   */\n      dup4\n        /* \"#utility.yul\":8963:8969   */\n      dup4\n        /* \"#utility.yul\":8879:8975   */\n      tag_184\n      jump\t// in\n    tag_295:\n        /* \"#utility.yul\":8865:8975   */\n      swap1\n      pop\n        /* \"#utility.yul\":8725:8981   */\n      swap3\n      swap2\n      pop\n      pop\n      jump\t// out\n        /* \"#utility.yul\":8987:9125   */\n    tag_186:\n        /* \"#utility.yul\":9082:9086   */\n      0x00\n        /* \"#utility.yul\":9114:9118   */\n      0x20\n        /* \"#utility.yul\":9109:9112   */\n      dup3\n        /* \"#utility.yul\":9105:9119   */\n      add\n        /* \"#utility.yul\":9097:9119   */\n      swap1\n      pop\n        /* \"#utility.yul\":8987:9125   */\n      swap2\n      swap1\n      pop\n      jump\t// out\n        /* \"#utility.yul\":9213:10324   */\n    tag_187:\n        /* \"#utility.yul\":9382:9385   */\n      0x00\n        /* \"#utility.yul\":9411:9490   */\n      tag_298\n        /* \"#utility.yul\":9484:9489   */\n      dup3\n        /* \"#utility.yul\":9411:9490   */\n      tag_162\n      jump\t// in\n    tag_298:\n        /* \"#utility.yul\":9506:9617   */\n      tag_299\n        /* \"#utility.yul\":9610:9616   */\n      dup2\n        /* \"#utility.yul\":9605:9608   */\n      dup6\n        /* \"#utility.yul\":9506:9617   */\n      tag_163\n      jump\t// in\n    tag_299:\n        /* \"#utility.yul\":9499:9617   */\n      swap4\n      pop\n        /* \"#utility.yul\":9643:9646   */\n      dup4\n        /* \"#utility.yul\":9688:9692   */\n      0x20\n        /* \"#utility.yul\":9680:9686   */\n      dup3\n        /* \"#utility.yul\":9676:9693   */\n      mul\n        /* \"#utility.yul\":9671:9674   */\n      dup6\n        /* \"#utility.yul\":9667:9694   */\n      add\n        /* \"#utility.yul\":9718:9799   */\n      tag_300\n        /* \"#utility.yul\":9793:9798   */\n      dup6\n        /* \"#utility.yul\":9718:9799   */\n      tag_164\n      jump\t// in\n    tag_300:\n        /* \"#utility.yul\":9822:9829   */\n      dup1\n        /* \"#utility.yul\":9853:9854   */\n      0x00\n        /* \"#utility.yul\":9838:10279   */\n    tag_301:\n        /* \"#utility.yul\":9863:9869   */\n      dup6\n        /* \"#utility.yul\":9860:9861   */\n      dup2\n        /* \"#utility.yul\":9857:9870   */\n      lt\n        /* \"#utility.yul\":9838:10279   */\n      iszero\n      tag_303\n      jumpi\n        /* \"#utility.yul\":9934:9943   */\n      dup5\n        /* \"#utility.yul\":9928:9932   */\n      dup5\n        /* \"#utility.yul\":9924:9944   */\n      sub\n        /* \"#utility.yul\":9919:9922   */\n      dup10\n        /* \"#utility.yul\":9912:9945   */\n      mstore\n        /* \"#utility.yul\":9985:9991   */\n      dup2\n        /* \"#utility.yul\":9979:9992   */\n      mload\n        /* \"#utility.yul\":10013:10127   */\n      tag_304\n        /* \"#utility.yul\":10122:10126   */\n      dup6\n        /* \"#utility.yul\":10107:10120   */\n      dup3\n        /* \"#utility.yul\":10013:10127   */\n      tag_185\n      jump\t// in\n    tag_304:\n        /* \"#utility.yul\":10005:10127   */\n      swap5\n      pop\n        /* \"#utility.yul\":10150:10235   */\n      tag_305\n        /* \"#utility.yul\":10228:10234   */\n      dup4\n        /* \"#utility.yul\":10150:10235   */\n      tag_186\n      jump\t// in\n    tag_305:\n        /* \"#utility.yul\":10140:10235   */\n      swap3\n      pop\n        /* \"#utility.yul\":10264:10268   */\n      0x20\n        /* \"#utility.yul\":10259:10262   */\n      dup11\n        /* \"#utility.yul\":10255:10269   */\n      add\n        /* \"#utility.yul\":10248:10269   */\n      swap10\n      pop\n        /* \"#utility.yul\":9898:10279   */\n      pop\n        /* \"#utility.yul\":9885:9886   */\n      0x01\n        /* \"#utility.yul\":9882:9883   */\n      dup2\n        /* \"#utility.yul\":9878:9887   */\n      add\n        /* \"#utility.yul\":9873:9887   */\n      swap1\n      pop\n        /* \"#utility.yul\":9838:10279   */\n      jump(tag_301)\n    tag_303:\n        /* \"#utility.yul\":9842:9856   */\n      pop\n        /* \"#utility.yul\":10295:10299   */\n      dup3\n        /* \"#utility.yul\":10288:10299   */\n      swap8\n      pop\n        /* \"#utility.yul\":10315:10318   */\n      dup8\n        /* \"#utility.yul\":10308:10318   */\n      swap6\n      pop\n        /* \"#utility.yul\":9387:10324   */\n      pop\n      pop\n      pop\n      pop\n      pop\n        /* \"#utility.yul\":9213:10324   */\n      swap3\n      swap2\n      pop\n      pop\n      jump\t// out\n        /* \"#utility.yul\":10330:10803   */\n    tag_14:\n        /* \"#utility.yul\":10523:10527   */\n      0x00\n        /* \"#utility.yul\":10561:10563   */\n      0x20\n        /* \"#utility.yul\":10550:10559   */\n      dup3\n        /* \"#utility.yul\":10546:10564   */\n      add\n        /* \"#utility.yul\":10538:10564   */\n      swap1\n      pop\n        /* \"#utility.yul\":10610:10619   */\n      dup2\n        /* \"#utility.yul\":10604:10608   */\n      dup2\n        /* \"#utility.yul\":10600:10620   */\n      sub\n        /* \"#utility.yul\":10596:10597   */\n      0x00\n        /* \"#utility.yul\":10585:10594   */\n      dup4\n        /* \"#utility.yul\":10581:10598   */\n      add\n        /* \"#utility.yul\":10574:10621   */\n      mstore\n        /* \"#utility.yul\":10638:10796   */\n      tag_307\n        /* \"#utility.yul\":10791:10795   */\n      dup2\n        /* \"#utility.yul\":10782:10788   */\n      dup5\n        /* \"#utility.yul\":10638:10796   */\n      tag_187\n      jump\t// in\n    tag_307:\n        /* \"#utility.yul\":10630:10796   */\n      swap1\n      pop\n        /* \"#utility.yul\":10330:10803   */\n      swap3\n      swap2\n      pop\n      pop\n      jump\t// out\n        /* \"#utility.yul\":10809:10927   */\n    tag_188:\n        /* \"#utility.yul\":10896:10920   */\n      tag_309\n        /* \"#utility.yul\":10914:10919   */\n      dup2\n        /* \"#utility.yul\":10896:10920   */\n      tag_182\n      jump\t// in\n    tag_309:\n        /* \"#utility.yul\":10891:10894   */\n      dup3\n        /* \"#utility.yul\":10884:10921   */\n      mstore\n        /* \"#utility.yul\":10809:10927   */\n      pop\n      pop\n      jump\t// out\n        /* \"#utility.yul\":10933:11155   */\n    tag_26:\n        /* \"#utility.yul\":11026:11030   */\n      0x00\n        /* \"#utility.yul\":11064:11066   */\n      0x20\n        /* \"#utility.yul\":11053:11062   */\n      dup3\n        /* \"#utility.yul\":11049:11067   */\n      add\n        /* \"#utility.yul\":11041:11067   */\n      swap1\n      pop\n        /* \"#utility.yul\":11077:11148   */\n      tag_311\n        /* \"#utility.yul\":11145:11146   */\n      0x00\n        /* \"#utility.yul\":11134:11143   */\n      dup4\n        /* \"#utility.yul\":11130:11147   */\n      add\n        /* \"#utility.yul\":11121:11127   */\n      dup5\n        /* \"#utility.yul\":11077:11148   */\n      tag_188\n      jump\t// in\n    tag_311:\n        /* \"#utility.yul\":10933:11155   */\n      swap3\n      swap2\n      pop\n      pop\n      jump\t// out\n        /* \"#utility.yul\":11161:11283   */\n    tag_189:\n        /* \"#utility.yul\":11234:11258   */\n      tag_313\n        /* \"#utility.yul\":11252:11257   */\n      dup2\n        /* \"#utility.yul\":11234:11258   */\n      tag_182\n      jump\t// in\n    tag_313:\n        /* \"#utility.yul\":11227:11232   */\n      dup2\n        /* \"#utility.yul\":11224:11259   */\n      eq\n        /* \"#utility.yul\":11214:11277   */\n      tag_314\n      jumpi\n        /* \"#utility.yul\":11273:11274   */\n      0x00\n        /* \"#utility.yul\":11270:11271   */\n      dup1\n        /* \"#utility.yul\":11263:11275   */\n      revert\n        /* \"#utility.yul\":11214:11277   */\n    tag_314:\n        /* \"#utility.yul\":11161:11283   */\n      pop\n      jump\t// out\n        /* \"#utility.yul\":11289:11428   */\n    tag_190:\n        /* \"#utility.yul\":11335:11340   */\n      0x00\n        /* \"#utility.yul\":11373:11379   */\n      dup2\n        /* \"#utility.yul\":11360:11380   */\n      calldataload\n        /* \"#utility.yul\":11351:11380   */\n      swap1\n      pop\n        /* \"#utility.yul\":11389:11422   */\n      tag_316\n        /* \"#utility.yul\":11416:11421   */\n      dup2\n        /* \"#utility.yul\":11389:11422   */\n      tag_189\n      jump\t// in\n    tag_316:\n        /* \"#utility.yul\":11289:11428   */\n      swap3\n      swap2\n      pop\n      pop\n      jump\t// out\n        /* \"#utility.yul\":11434:11763   */\n    tag_30:\n        /* \"#utility.yul\":11493:11499   */\n      0x00\n        /* \"#utility.yul\":11542:11544   */\n      0x20\n        /* \"#utility.yul\":11530:11539   */\n      dup3\n        /* \"#utility.yul\":11521:11528   */\n      dup5\n        /* \"#utility.yul\":11517:11540   */\n      sub\n        /* \"#utility.yul\":11513:11545   */\n      slt\n        /* \"#utility.yul\":11510:11629   */\n      iszero\n      tag_318\n      jumpi\n        /* \"#utility.yul\":11548:11627   */\n      tag_319\n      tag_151\n      jump\t// in\n    tag_319:\n        /* \"#utility.yul\":11510:11629   */\n    tag_318:\n        /* \"#utility.yul\":11668:11669   */\n      0x00\n        /* \"#utility.yul\":11693:11746   */\n      tag_320\n        /* \"#utility.yul\":11738:11745   */\n      dup5\n        /* \"#utility.yul\":11729:11735   */\n      dup3\n        /* \"#utility.yul\":11718:11727   */\n      dup6\n        /* \"#utility.yul\":11714:11736   */\n      add\n        /* \"#utility.yul\":11693:11746   */\n      tag_190\n      jump\t// in\n    tag_320:\n        /* \"#utility.yul\":11683:11746   */\n      swap2\n      pop\n        /* \"#utility.yul\":11639:11756   */\n      pop\n        /* \"#utility.yul\":11434:11763   */\n      swap3\n      swap2\n      pop\n      pop\n      jump\t// out\n        /* \"#utility.yul\":11769:11891   */\n    tag_191:\n        /* \"#utility.yul\":11842:11866   */\n      tag_322\n        /* \"#utility.yul\":11860:11865   */\n      dup2\n        /* \"#utility.yul\":11842:11866   */\n      tag_179\n      jump\t// in\n    tag_322:\n        /* \"#utility.yul\":11835:11840   */\n      dup2\n        /* \"#utility.yul\":11832:11867   */\n      eq\n        /* \"#utility.yul\":11822:11885   */\n      tag_323\n      jumpi\n        /* \"#utility.yul\":11881:11882   */\n      0x00\n        /* \"#utility.yul\":11878:11879   */\n      dup1\n        /* \"#utility.yul\":11871:11883   */\n      revert\n        /* \"#utility.yul\":11822:11885   */\n    tag_323:\n        /* \"#utility.yul\":11769:11891   */\n      pop\n      jump\t// out\n        /* \"#utility.yul\":11897:12036   */\n    tag_192:\n        /* \"#utility.yul\":11943:11948   */\n      0x00\n        /* \"#utility.yul\":11981:11987   */\n      dup2\n        /* \"#utility.yul\":11968:11988   */\n      calldataload\n        /* \"#utility.yul\":11959:11988   */\n      swap1\n      pop\n        /* \"#utility.yul\":11997:12030   */\n      tag_325\n        /* \"#utility.yul\":12024:12029   */\n      dup2\n        /* \"#utility.yul\":11997:12030   */\n      tag_191\n      jump\t// in\n    tag_325:\n        /* \"#utility.yul\":11897:12036   */\n      swap3\n      swap2\n      pop\n      pop\n      jump\t// out\n        /* \"#utility.yul\":12042:12516   */\n    tag_34:\n        /* \"#utility.yul\":12110:12116   */\n      0x00\n        /* \"#utility.yul\":12118:12124   */\n      dup1\n        /* \"#utility.yul\":12167:12169   */\n      0x40\n        /* \"#utility.yul\":12155:12164   */\n      dup4\n        /* \"#utility.yul\":12146:12153   */\n      dup6\n        /* \"#utility.yul\":12142:12165   */\n      sub\n        /* \"#utility.yul\":12138:12170   */\n      slt\n        /* \"#utility.yul\":12135:12254   */\n      iszero\n      tag_327\n      jumpi\n        /* \"#utility.yul\":12173:12252   */\n      tag_328\n      tag_151\n      jump\t// in\n    tag_328:\n        /* \"#utility.yul\":12135:12254   */\n    tag_327:\n        /* \"#utility.yul\":12293:12294   */\n      0x00\n        /* \"#utility.yul\":12318:12371   */\n      tag_329\n        /* \"#utility.yul\":12363:12370   */\n      dup6\n        /* \"#utility.yul\":12354:12360   */\n      dup3\n        /* \"#utility.yul\":12343:12352   */\n      dup7\n        /* \"#utility.yul\":12339:12361   */\n      add\n        /* \"#utility.yul\":12318:12371   */\n      tag_190\n      jump\t// in\n    tag_329:\n        /* \"#utility.yul\":12308:12371   */\n      swap3\n      pop\n        /* \"#utility.yul\":12264:12381   */\n      pop\n        /* \"#utility.yul\":12420:12422   */\n      0x20\n        /* \"#utility.yul\":12446:12499   */\n      tag_330\n        /* \"#utility.yul\":12491:12498   */\n      dup6\n        /* \"#utility.yul\":12482:12488   */\n      dup3\n        /* \"#utility.yul\":12471:12480   */\n      dup7\n        /* \"#utility.yul\":12467:12489   */\n      add\n        /* \"#utility.yul\":12446:12499   */\n      tag_192\n      jump\t// in\n    tag_330:\n        /* \"#utility.yul\":12436:12499   */\n      swap2\n      pop\n        /* \"#utility.yul\":12391:12509   */\n      pop\n        /* \"#utility.yul\":12042:12516   */\n      swap3\n      pop\n      swap3\n      swap1\n      pop\n      jump\t// out\n        /* \"#utility.yul\":12522:12670   */\n    tag_193:\n        /* \"#utility.yul\":12624:12635   */\n      0x00\n        /* \"#utility.yul\":12661:12664   */\n      dup2\n        /* \"#utility.yul\":12646:12664   */\n      swap1\n      pop\n        /* \"#utility.yul\":12522:12670   */\n      swap3\n      swap2\n      pop\n      pop\n      jump\t// out\n        /* \"#utility.yul\":12676:13066   */\n    tag_194:\n        /* \"#utility.yul\":12782:12785   */\n      0x00\n        /* \"#utility.yul\":12810:12849   */\n      tag_333\n        /* \"#utility.yul\":12843:12848   */\n      dup3\n        /* \"#utility.yul\":12810:12849   */\n      tag_165\n      jump\t// in\n    tag_333:\n        /* \"#utility.yul\":12865:12954   */\n      tag_334\n        /* \"#utility.yul\":12947:12953   */\n      dup2\n        /* \"#utility.yul\":12942:12945   */\n      dup6\n        /* \"#utility.yul\":12865:12954   */\n      tag_193\n      jump\t// in\n    tag_334:\n        /* \"#utility.yul\":12858:12954   */\n      swap4\n      pop\n        /* \"#utility.yul\":12963:13028   */\n      tag_335\n        /* \"#utility.yul\":13021:13027   */\n      dup2\n        /* \"#utility.yul\":13016:13019   */\n      dup6\n        /* \"#utility.yul\":13009:13013   */\n      0x20\n        /* \"#utility.yul\":13002:13007   */\n      dup7\n        /* \"#utility.yul\":12998:13014   */\n      add\n        /* \"#utility.yul\":12963:13028   */\n      tag_167\n      jump\t// in\n    tag_335:\n        /* \"#utility.yul\":13053:13059   */\n      dup1\n        /* \"#utility.yul\":13048:13051   */\n      dup5\n        /* \"#utility.yul\":13044:13060   */\n      add\n        /* \"#utility.yul\":13037:13060   */\n      swap2\n      pop\n        /* \"#utility.yul\":12786:13066   */\n      pop\n        /* \"#utility.yul\":12676:13066   */\n      swap3\n      swap2\n      pop\n      pop\n      jump\t// out\n        /* \"#utility.yul\":13072:13347   */\n    tag_38:\n        /* \"#utility.yul\":13204:13207   */\n      0x00\n        /* \"#utility.yul\":13226:13321   */\n      tag_337\n        /* \"#utility.yul\":13317:13320   */\n      dup3\n        /* \"#utility.yul\":13308:13314   */\n      dup5\n        /* \"#utility.yul\":13226:13321   */\n      tag_194\n      jump\t// in\n    tag_337:\n        /* \"#utility.yul\":13219:13321   */\n      swap2\n      pop\n        /* \"#utility.yul\":13338:13341   */\n      dup2\n        /* \"#utility.yul\":13331:13341   */\n      swap1\n      pop\n        /* \"#utility.yul\":13072:13347   */\n      swap3\n      swap2\n      pop\n      pop\n      jump\t// out\n        /* \"#utility.yul\":13353:13533   */\n    tag_53:\n        /* \"#utility.yul\":13401:13478   */\n      0x4e487b7100000000000000000000000000000000000000000000000000000000\n        /* \"#utility.yul\":13398:13399   */\n      0x00\n        /* \"#utility.yul\":13391:13479   */\n      mstore\n        /* \"#utility.yul\":13498:13502   */\n      0x32\n        /* \"#utility.yul\":13495:13496   */\n      0x04\n        /* \"#utility.yul\":13488:13503   */\n      mstore\n        /* \"#utility.yul\":13522:13526   */\n      0x24\n        /* \"#utility.yul\":13519:13520   */\n      0x00\n        /* \"#utility.yul\":13512:13527   */\n      revert\n        /* \"#utility.yul\":13539:13719   */\n    tag_195:\n        /* \"#utility.yul\":13587:13664   */\n      0x4e487b7100000000000000000000000000000000000000000000000000000000\n        /* \"#utility.yul\":13584:13585   */\n      0x00\n        /* \"#utility.yul\":13577:13665   */\n      mstore\n        /* \"#utility.yul\":13684:13688   */\n      0x22\n        /* \"#utility.yul\":13681:13682   */\n      0x04\n        /* \"#utility.yul\":13674:13689   */\n      mstore\n        /* \"#utility.yul\":13708:13712   */\n      0x24\n        /* \"#utility.yul\":13705:13706   */\n      0x00\n        /* \"#utility.yul\":13698:13713   */\n      revert\n        /* \"#utility.yul\":13725:14045   */\n    tag_55:\n        /* \"#utility.yul\":13769:13775   */\n      0x00\n        /* \"#utility.yul\":13806:13807   */\n      0x02\n        /* \"#utility.yul\":13800:13804   */\n      dup3\n        /* \"#utility.yul\":13796:13808   */\n      div\n        /* \"#utility.yul\":13786:13808   */\n      swap1\n      pop\n        /* \"#utility.yul\":13853:13854   */\n      0x01\n        /* \"#utility.yul\":13847:13851   */\n      dup3\n        /* \"#utility.yul\":13843:13855   */\n      and\n        /* \"#utility.yul\":13874:13892   */\n      dup1\n        /* \"#utility.yul\":13864:13945   */\n      tag_341\n      jumpi\n        /* \"#utility.yul\":13930:13934   */\n      0x7f\n        /* \"#utility.yul\":13922:13928   */\n      dup3\n        /* \"#utility.yul\":13918:13935   */\n      and\n        /* \"#utility.yul\":13908:13935   */\n      swap2\n      pop\n        /* \"#utility.yul\":13864:13945   */\n    tag_341:\n        /* \"#utility.yul\":13992:13994   */\n      0x20\n        /* \"#utility.yul\":13984:13990   */\n      dup3\n        /* \"#utility.yul\":13981:13995   */\n      lt\n        /* \"#utility.yul\":13961:13979   */\n      dup2\n        /* \"#utility.yul\":13958:13996   */\n      sub\n        /* \"#utility.yul\":13955:14039   */\n      tag_342\n      jumpi\n        /* \"#utility.yul\":14011:14029   */\n      tag_343\n      tag_195\n      jump\t// in\n    tag_343:\n        /* \"#utility.yul\":13955:14039   */\n    tag_342:\n        /* \"#utility.yul\":13776:14045   */\n      pop\n        /* \"#utility.yul\":13725:14045   */\n      swap2\n      swap1\n      pop\n      jump\t// out\n        /* \"#utility.yul\":14051:14220   */\n    tag_196:\n        /* \"#utility.yul\":14135:14146   */\n      0x00\n        /* \"#utility.yul\":14169:14175   */\n      dup3\n        /* \"#utility.yul\":14164:14167   */\n      dup3\n        /* \"#utility.yul\":14157:14176   */\n      mstore\n        /* \"#utility.yul\":14209:14213   */\n      0x20\n        /* \"#utility.yul\":14204:14207   */\n      dup3\n        /* \"#utility.yul\":14200:14214   */\n      add\n        /* \"#utility.yul\":14185:14214   */\n      swap1\n      pop\n        /* \"#utility.yul\":14051:14220   */\n      swap3\n      swap2\n      pop\n      pop\n      jump\t// out\n        /* \"#utility.yul\":14226:14401   */\n    tag_197:\n        /* \"#utility.yul\":14366:14393   */\n      0x496e76616c696420726563697069656e74206164647265737300000000000000\n        /* \"#utility.yul\":14362:14363   */\n      0x00\n        /* \"#utility.yul\":14354:14360   */\n      dup3\n        /* \"#utility.yul\":14350:14364   */\n      add\n        /* \"#utility.yul\":14343:14394   */\n      mstore\n        /* \"#utility.yul\":14226:14401   */\n      pop\n      jump\t// out\n        /* \"#utility.yul\":14407:14773   */\n    tag_198:\n        /* \"#utility.yul\":14549:14552   */\n      0x00\n        /* \"#utility.yul\":14570:14637   */\n      tag_347\n        /* \"#utility.yul\":14634:14636   */\n      0x19\n        /* \"#utility.yul\":14629:14632   */\n      dup4\n        /* \"#utility.yul\":14570:14637   */\n      tag_196\n      jump\t// in\n    tag_347:\n        /* \"#utility.yul\":14563:14637   */\n      swap2\n      pop\n        /* \"#utility.yul\":14646:14739   */\n      tag_348\n        /* \"#utility.yul\":14735:14738   */\n      dup3\n        /* \"#utility.yul\":14646:14739   */\n      tag_197\n      jump\t// in\n    tag_348:\n        /* \"#utility.yul\":14764:14766   */\n      0x20\n        /* \"#utility.yul\":14759:14762   */\n      dup3\n        /* \"#utility.yul\":14755:14767   */\n      add\n        /* \"#utility.yul\":14748:14767   */\n      swap1\n      pop\n        /* \"#utility.yul\":14407:14773   */\n      swap2\n      swap1\n      pop\n      jump\t// out\n        /* \"#utility.yul\":14779:15198   */\n    tag_125:\n        /* \"#utility.yul\":14945:14949   */\n      0x00\n        /* \"#utility.yul\":14983:14985   */\n      0x20\n        /* \"#utility.yul\":14972:14981   */\n      dup3\n        /* \"#utility.yul\":14968:14986   */\n      add\n        /* \"#utility.yul\":14960:14986   */\n      swap1\n      pop\n        /* \"#utility.yul\":15032:15041   */\n      dup2\n        /* \"#utility.yul\":15026:15030   */\n      dup2\n        /* \"#utility.yul\":15022:15042   */\n      sub\n        /* \"#utility.yul\":15018:15019   */\n      0x00\n        /* \"#utility.yul\":15007:15016   */\n      dup4\n        /* \"#utility.yul\":15003:15020   */\n      add\n        /* \"#utility.yul\":14996:15043   */\n      mstore\n        /* \"#utility.yul\":15060:15191   */\n      tag_350\n        /* \"#utility.yul\":15186:15190   */\n      dup2\n        /* \"#utility.yul\":15060:15191   */\n      tag_198\n      jump\t// in\n    tag_350:\n        /* \"#utility.yul\":15052:15191   */\n      swap1\n      pop\n        /* \"#utility.yul\":14779:15198   */\n      swap2\n      swap1\n      pop\n      jump\t// out\n        /* \"#utility.yul\":15204:15386   */\n    tag_199:\n        /* \"#utility.yul\":15344:15378   */\n      0x416d6f756e74206d7573742062652067726561746572207468616e207a65726f\n        /* \"#utility.yul\":15340:15341   */\n      0x00\n        /* \"#utility.yul\":15332:15338   */\n      dup3\n        /* \"#utility.yul\":15328:15342   */\n      add\n        /* \"#utility.yul\":15321:15379   */\n      mstore\n        /* \"#utility.yul\":15204:15386   */\n      pop\n      jump\t// out\n        /* \"#utility.yul\":15392:15758   */\n    tag_200:\n        /* \"#utility.yul\":15534:15537   */\n      0x00\n        /* \"#utility.yul\":15555:15622   */\n      tag_353\n        /* \"#utility.yul\":15619:15621   */\n      0x20\n        /* \"#utility.yul\":15614:15617   */\n      dup4\n        /* \"#utility.yul\":15555:15622   */\n      tag_196\n      jump\t// in\n    tag_353:\n        /* \"#utility.yul\":15548:15622   */\n      swap2\n      pop\n        /* \"#utility.yul\":15631:15724   */\n      tag_354\n        /* \"#utility.yul\":15720:15723   */\n      dup3\n        /* \"#utility.yul\":15631:15724   */\n      tag_199\n      jump\t// in\n    tag_354:\n        /* \"#utility.yul\":15749:15751   */\n      0x20\n        /* \"#utility.yul\":15744:15747   */\n      dup3\n        /* \"#utility.yul\":15740:15752   */\n      add\n        /* \"#utility.yul\":15733:15752   */\n      swap1\n      pop\n        /* \"#utility.yul\":15392:15758   */\n      swap2\n      swap1\n      pop\n      jump\t// out\n        /* \"#utility.yul\":15764:16183   */\n    tag_128:\n        /* \"#utility.yul\":15930:15934   */\n      0x00\n        /* \"#utility.yul\":15968:15970   */\n      0x20\n        /* \"#utility.yul\":15957:15966   */\n      dup3\n        /* \"#utility.yul\":15953:15971   */\n      add\n        /* \"#utility.yul\":15945:15971   */\n      swap1\n      pop\n        /* \"#utility.yul\":16017:16026   */\n      dup2\n        /* \"#utility.yul\":16011:16015   */\n      dup2\n        /* \"#utility.yul\":16007:16027   */\n      sub\n        /* \"#utility.yul\":16003:16004   */\n      0x00\n        /* \"#utility.yul\":15992:16001   */\n      dup4\n        /* \"#utility.yul\":15988:16005   */\n      add\n        /* \"#utility.yul\":15981:16028   */\n      mstore\n        /* \"#utility.yul\":16045:16176   */\n      tag_356\n        /* \"#utility.yul\":16171:16175   */\n      dup2\n        /* \"#utility.yul\":16045:16176   */\n      tag_200\n      jump\t// in\n    tag_356:\n        /* \"#utility.yul\":16037:16176   */\n      swap1\n      pop\n        /* \"#utility.yul\":15764:16183   */\n      swap2\n      swap1\n      pop\n      jump\t// out\n        /* \"#utility.yul\":16189:16336   */\n    tag_201:\n        /* \"#utility.yul\":16290:16301   */\n      0x00\n        /* \"#utility.yul\":16327:16330   */\n      dup2\n        /* \"#utility.yul\":16312:16330   */\n      swap1\n      pop\n        /* \"#utility.yul\":16189:16336   */\n      swap3\n      swap2\n      pop\n      pop\n      jump\t// out\n        /* \"#utility.yul\":16342:16456   */\n    tag_202:\n      pop\n      jump\t// out\n        /* \"#utility.yul\":16462:16860   */\n    tag_203:\n        /* \"#utility.yul\":16621:16624   */\n      0x00\n        /* \"#utility.yul\":16642:16725   */\n      tag_360\n        /* \"#utility.yul\":16723:16724   */\n      0x00\n        /* \"#utility.yul\":16718:16721   */\n      dup4\n        /* \"#utility.yul\":16642:16725   */\n      tag_201\n      jump\t// in\n    tag_360:\n        /* \"#utility.yul\":16635:16725   */\n      swap2\n      pop\n        /* \"#utility.yul\":16734:16827   */\n      tag_361\n        /* \"#utility.yul\":16823:16826   */\n      dup3\n        /* \"#utility.yul\":16734:16827   */\n      tag_202\n      jump\t// in\n    tag_361:\n        /* \"#utility.yul\":16852:16853   */\n      0x00\n        /* \"#utility.yul\":16847:16850   */\n      dup3\n        /* \"#utility.yul\":16843:16854   */\n      add\n        /* \"#utility.yul\":16836:16854   */\n      swap1\n      pop\n        /* \"#utility.yul\":16462:16860   */\n      swap2\n      swap1\n      pop\n      jump\t// out\n        /* \"#utility.yul\":16866:17245   */\n    tag_130:\n        /* \"#utility.yul\":17050:17053   */\n      0x00\n        /* \"#utility.yul\":17072:17219   */\n      tag_363\n        /* \"#utility.yul\":17215:17218   */\n      dup3\n        /* \"#utility.yul\":17072:17219   */\n      tag_203\n      jump\t// in\n    tag_363:\n        /* \"#utility.yul\":17065:17219   */\n      swap2\n      pop\n        /* \"#utility.yul\":17236:17239   */\n      dup2\n        /* \"#utility.yul\":17229:17239   */\n      swap1\n      pop\n        /* \"#utility.yul\":16866:17245   */\n      swap2\n      swap1\n      pop\n      jump\t// out\n        /* \"#utility.yul\":17251:17416   */\n    tag_204:\n        /* \"#utility.yul\":17391:17408   */\n      0x5472616e73666572206661696c65640000000000000000000000000000000000\n        /* \"#utility.yul\":17387:17388   */\n      0x00\n        /* \"#utility.yul\":17379:17385   */\n      dup3\n        /* \"#utility.yul\":17375:17389   */\n      add\n        /* \"#utility.yul\":17368:17409   */\n      mstore\n        /* \"#utility.yul\":17251:17416   */\n      pop\n      jump\t// out\n        /* \"#utility.yul\":17422:17788   */\n    tag_205:\n        /* \"#utility.yul\":17564:17567   */\n      0x00\n        /* \"#utility.yul\":17585:17652   */\n      tag_366\n        /* \"#utility.yul\":17649:17651   */\n      0x0f\n        /* \"#utility.yul\":17644:17647   */\n      dup4\n        /* \"#utility.yul\":17585:17652   */\n      tag_196\n      jump\t// in\n    tag_366:\n        /* \"#utility.yul\":17578:17652   */\n      swap2\n      pop\n        /* \"#utility.yul\":17661:17754   */\n      tag_367\n        /* \"#utility.yul\":17750:17753   */\n      dup3\n        /* \"#utility.yul\":17661:17754   */\n      tag_204\n      jump\t// in\n    tag_367:\n        /* \"#utility.yul\":17779:17781   */\n      0x20\n        /* \"#utility.yul\":17774:17777   */\n      dup3\n        /* \"#utility.yul\":17770:17782   */\n      add\n        /* \"#utility.yul\":17763:17782   */\n      swap1\n      pop\n        /* \"#utility.yul\":17422:17788   */\n      swap2\n      swap1\n      pop\n      jump\t// out\n        /* \"#utility.yul\":17794:18213   */\n    tag_136:\n        /* \"#utility.yul\":17960:17964   */\n      0x00\n        /* \"#utility.yul\":17998:18000   */\n      0x20\n        /* \"#utility.yul\":17987:17996   */\n      dup3\n        /* \"#utility.yul\":17983:18001   */\n      add\n        /* \"#utility.yul\":17975:18001   */\n      swap1\n      pop\n        /* \"#utility.yul\":18047:18056   */\n      dup2\n        /* \"#utility.yul\":18041:18045   */\n      dup2\n        /* \"#utility.yul\":18037:18057   */\n      sub\n        /* \"#utility.yul\":18033:18034   */\n      0x00\n        /* \"#utility.yul\":18022:18031   */\n      dup4\n        /* \"#utility.yul\":18018:18035   */\n      add\n        /* \"#utility.yul\":18011:18058   */\n      mstore\n        /* \"#utility.yul\":18075:18206   */\n      tag_369\n        /* \"#utility.yul\":18201:18205   */\n      dup2\n        /* \"#utility.yul\":18075:18206   */\n      tag_205\n      jump\t// in\n    tag_369:\n        /* \"#utility.yul\":18067:18206   */\n      swap1\n      pop\n        /* \"#utility.yul\":17794:18213   */\n      swap2\n      swap1\n      pop\n      jump\t// out\n\n    auxdata: 0xa26469706673582212209000373d5a653e576e801926a503a01f039200c7b698dfc102c16eeaf57f86c664736f6c63430008190033\n}\n",
				"bytecode": {
					"linkReferences": {},
					"object": "608060405234801561000f575f80fd5b506040516117fc3803806117fc833981810160405281019061003191906101d9565b80805f73ffffffffffffffffffffffffffffffffffffffff168173ffffffffffffffffffffffffffffffffffffffff16036100a3575f6040517f1e4fbdf700000000000000000000000000000000000000000000000000000000815260040161009a9190610213565b60405180910390fd5b6100b2816100ba60201b60201c565b50505061022c565b5f805f9054906101000a900473ffffffffffffffffffffffffffffffffffffffff169050815f806101000a81548173ffffffffffffffffffffffffffffffffffffffff021916908373ffffffffffffffffffffffffffffffffffffffff1602179055508173ffffffffffffffffffffffffffffffffffffffff168173ffffffffffffffffffffffffffffffffffffffff167f8be0079c531659141344cd1fd0a4f28419497f9722a3daafe3b4186f6b6457e060405160405180910390a35050565b5f80fd5b5f73ffffffffffffffffffffffffffffffffffffffff82169050919050565b5f6101a88261017f565b9050919050565b6101b88161019e565b81146101c2575f80fd5b50565b5f815190506101d3816101af565b92915050565b5f602082840312156101ee576101ed61017b565b5b5f6101fb848285016101c5565b91505092915050565b61020d8161019e565b82525050565b5f6020820190506102265f830184610204565b92915050565b6115c3806102395f395ff3fe608060405260043610610054575f3560e01c806367c7b5d6146100585780636d3fff2714610094578063715018a6146100be5780638da5cb5b146100d4578063f2fde38b146100fe578063f98cf07c14610126575b5f80fd5b348015610063575f80fd5b5061007e60048036038101906100799190610eb7565b610142565b60405161008b9190611225565b60405180910390f35b34801561009f575f80fd5b506100a861053c565b6040516100b59190611225565b60405180910390f35b3480156100c9575f80fd5b506100d2610953565b005b3480156100df575f80fd5b506100e8610966565b6040516100f59190611254565b60405180910390f35b348015610109575f80fd5b50610124600480360381019061011f9190611297565b61098d565b005b610140600480360381019061013b91906112ec565b610a11565b005b60605f6003836040516101559190611364565b90815260200160405180910390208054806020026020016040519081016040528092919081815260200182805480156101ab57602002820191905f5260205f20905b815481526020019060010190808311610197575b505050505090505f815167ffffffffffffffff8111156101ce576101cd610d93565b5b60405190808252806020026020018201604052801561020757816020015b6101f4610cbd565b8152602001906001900390816101ec5790505b5090505f5b82518110156105315760025f84838151811061022b5761022a61137a565b5b602002602001015181526020019081526020015f20604051806101400160405290815f8201805461025b906113d4565b80601f0160208091040260200160405190810160405280929190818152602001828054610287906113d4565b80156102d25780601f106102a9576101008083540402835291602001916102d2565b820191905f5260205f20905b8154815290600101906020018083116102b557829003601f168201915b505050505081526020016001820180546102eb906113d4565b80601f0160208091040260200160405190810160405280929190818152602001828054610317906113d4565b80156103625780601f1061033957610100808354040283529160200191610362565b820191905f5260205f20905b81548152906001019060200180831161034557829003601f168201915b50505050508152602001600282015f9054906101000a900460ff16600381111561038f5761038e610f87565b5b60038111156103a1576103a0610f87565b5b81526020016002820160019054906101000a900460ff1660018111156103ca576103c9610f87565b5b60018111156103dc576103db610f87565b5b81526020016002820160029054906101000a900463ffffffff1663ffffffff1663ffffffff1681526020016002820160069054906101000a900463ffffffff1663ffffffff1663ffffffff16815260200160028201600a9054906101000a900463ffffffff1663ffffffff1663ffffffff16815260200160038201548152602001600482015f9054906101000a900473ffffffffffffffffffffffffffffffffffffffff1673ffffffffffffffffffffffffffffffffffffffff1673ffffffffffffffffffffffffffffffffffffffff168152602001600582015f9054906101000a900473ffffffffffffffffffffffffffffffffffffffff1673ffffffffffffffffffffffffffffffffffffffff1673ffffffffffffffffffffffffffffffffffffffff16815250508282815181106105195761051861137a565b5b6020026020010181905250808060010191505061020c565b508092505050919050565b60605f60045f3373ffffffffffffffffffffffffffffffffffffffff1673ffffffffffffffffffffffffffffffffffffffff1681526020019081526020015f208054806020026020016040519081016040528092919081815260200182805480156105c457602002820191905f5260205f20905b8154815260200190600101908083116105b0575b505050505090505f815167ffffffffffffffff8111156105e7576105e6610d93565b5b60405190808252806020026020018201604052801561062057816020015b61060d610cbd565b8152602001906001900390816106055790505b5090505f5b825181101561094a5760025f8483815181106106445761064361137a565b5b602002602001015181526020019081526020015f20604051806101400160405290815f82018054610674906113d4565b80601f01602080910402602001604051908101604052809291908181526020018280546106a0906113d4565b80156106eb5780601f106106c2576101008083540402835291602001916106eb565b820191905f5260205f20905b8154815290600101906020018083116106ce57829003601f168201915b50505050508152602001600182018054610704906113d4565b80601f0160208091040260200160405190810160405280929190818152602001828054610730906113d4565b801561077b5780601f106107525761010080835404028352916020019161077b565b820191905f5260205f20905b81548152906001019060200180831161075e57829003601f168201915b50505050508152602001600282015f9054906101000a900460ff1660038111156107a8576107a7610f87565b5b60038111156107ba576107b9610f87565b5b81526020016002820160019054906101000a900460ff1660018111156107e3576107e2610f87565b5b60018111156107f5576107f4610f87565b5b81526020016002820160029054906101000a900463ffffffff1663ffffffff1663ffffffff1681526020016002820160069054906101000a900463ffffffff1663ffffffff1663ffffffff16815260200160028201600a9054906101000a900463ffffffff1663ffffffff1663ffffffff16815260200160038201548152602001600482015f9054906101000a900473ffffffffffffffffffffffffffffffffffffffff1673ffffffffffffffffffffffffffffffffffffffff1673ffffffffffffffffffffffffffffffffffffffff168152602001600582015f9054906101000a900473ffffffffffffffffffffffffffffffffffffffff1673ffffffffffffffffffffffffffffffffffffffff1673ffffffffffffffffffffffffffffffffffffffff16815250508282815181106109325761093161137a565b5b60200260200101819052508080600101915050610625565b50809250505090565b61095b610b6e565b6109645f610bf5565b565b5f805f9054906101000a900473ffffffffffffffffffffffffffffffffffffffff16905090565b610995610b6e565b5f73ffffffffffffffffffffffffffffffffffffffff168173ffffffffffffffffffffffffffffffffffffffff1603610a05575f6040517f1e4fbdf70000000000000000000000000000000000000000000000000000000081526004016109fc9190611254565b60405180910390fd5b610a0e81610bf5565b50565b5f73ffffffffffffffffffffffffffffffffffffffff168273ffffffffffffffffffffffffffffffffffffffff1603610a7f576040517f08c379a0000000000000000000000000000000000000000000000000000000008152600401610a769061145e565b60405180910390fd5b5f8111610ac1576040517f08c379a0000000000000000000000000000000000000000000000000000000008152600401610ab8906114c6565b60405180910390fd5b5f8273ffffffffffffffffffffffffffffffffffffffff1682604051610ae690611511565b5f6040518083038185875af1925050503d805f8114610b20576040519150601f19603f3d011682016040523d82523d5f602084013e610b25565b606091505b5050905080610b69576040517f08c379a0000000000000000000000000000000000000000000000000000000008152600401610b609061156f565b60405180910390fd5b505050565b610b76610cb6565b73ffffffffffffffffffffffffffffffffffffffff16610b94610966565b73ffffffffffffffffffffffffffffffffffffffff1614610bf357610bb7610cb6565b6040517f118cdaa7000000000000000000000000000000000000000000000000000000008152600401610bea9190611254565b60405180910390fd5b565b5f805f9054906101000a900473ffffffffffffffffffffffffffffffffffffffff169050815f806101000a81548173ffffffffffffffffffffffffffffffffffffffff021916908373ffffffffffffffffffffffffffffffffffffffff1602179055508173ffffffffffffffffffffffffffffffffffffffff168173ffffffffffffffffffffffffffffffffffffffff167f8be0079c531659141344cd1fd0a4f28419497f9722a3daafe3b4186f6b6457e060405160405180910390a35050565b5f33905090565b60405180610140016040528060608152602001606081526020015f6003811115610cea57610ce9610f87565b5b81526020015f6001811115610d0257610d01610f87565b5b81526020015f63ffffffff1681526020015f63ffffffff1681526020015f63ffffffff1681526020015f81526020015f73ffffffffffffffffffffffffffffffffffffffff1681526020015f73ffffffffffffffffffffffffffffffffffffffff1681525090565b5f604051905090565b5f80fd5b5f80fd5b5f80fd5b5f80fd5b5f601f19601f8301169050919050565b7f4e487b71000000000000000000000000000000000000000000000000000000005f52604160045260245ffd5b610dc982610d83565b810181811067ffffffffffffffff82111715610de857610de7610d93565b5b80604052505050565b5f610dfa610d6a565b9050610e068282610dc0565b919050565b5f67ffffffffffffffff821115610e2557610e24610d93565b5b610e2e82610d83565b9050602081019050919050565b828183375f83830152505050565b5f610e5b610e5684610e0b565b610df1565b905082815260208101848484011115610e7757610e76610d7f565b5b610e82848285610e3b565b509392505050565b5f82601f830112610e9e57610e9d610d7b565b5b8135610eae848260208601610e49565b91505092915050565b5f60208284031215610ecc57610ecb610d73565b5b5f82013567ffffffffffffffff811115610ee957610ee8610d77565b5b610ef584828501610e8a565b91505092915050565b5f81519050919050565b5f82825260208201905092915050565b5f819050602082019050919050565b5f81519050919050565b5f82825260208201905092915050565b8281835e5f83830152505050565b5f610f5982610f27565b610f638185610f31565b9350610f73818560208601610f41565b610f7c81610d83565b840191505092915050565b7f4e487b71000000000000000000000000000000000000000000000000000000005f52602160045260245ffd5b60048110610fc557610fc4610f87565b5b50565b5f819050610fd582610fb4565b919050565b5f610fe482610fc8565b9050919050565b610ff481610fda565b82525050565b6002811061100b5761100a610f87565b5b50565b5f81905061101b82610ffa565b919050565b5f61102a8261100e565b9050919050565b61103a81611020565b82525050565b5f63ffffffff82169050919050565b61105881611040565b82525050565b5f819050919050565b6110708161105e565b82525050565b5f73ffffffffffffffffffffffffffffffffffffffff82169050919050565b5f61109f82611076565b9050919050565b6110af81611095565b82525050565b5f61014083015f8301518482035f8601526110d08282610f4f565b915050602083015184820360208601526110ea8282610f4f565b91505060408301516110ff6040860182610feb565b5060608301516111126060860182611031565b506080830151611125608086018261104f565b5060a083015161113860a086018261104f565b5060c083015161114b60c086018261104f565b5060e083015161115e60e0860182611067565b506101008301516111736101008601826110a6565b506101208301516111886101208601826110a6565b508091505092915050565b5f61119e83836110b5565b905092915050565b5f602082019050919050565b5f6111bc82610efe565b6111c68185610f08565b9350836020820285016111d885610f18565b805f5b8581101561121357848403895281516111f48582611193565b94506111ff836111a6565b925060208a019950506001810190506111db565b50829750879550505050505092915050565b5f6020820190508181035f83015261123d81846111b2565b905092915050565b61124e81611095565b82525050565b5f6020820190506112675f830184611245565b92915050565b61127681611095565b8114611280575f80fd5b50565b5f813590506112918161126d565b92915050565b5f602082840312156112ac576112ab610d73565b5b5f6112b984828501611283565b91505092915050565b6112cb8161105e565b81146112d5575f80fd5b50565b5f813590506112e6816112c2565b92915050565b5f806040838503121561130257611301610d73565b5b5f61130f85828601611283565b9250506020611320858286016112d8565b9150509250929050565b5f81905092915050565b5f61133e82610f27565b611348818561132a565b9350611358818560208601610f41565b80840191505092915050565b5f61136f8284611334565b915081905092915050565b7f4e487b71000000000000000000000000000000000000000000000000000000005f52603260045260245ffd5b7f4e487b71000000000000000000000000000000000000000000000000000000005f52602260045260245ffd5b5f60028204905060018216806113eb57607f821691505b6020821081036113fe576113fd6113a7565b5b50919050565b5f82825260208201905092915050565b7f496e76616c696420726563697069656e742061646472657373000000000000005f82015250565b5f611448601983611404565b915061145382611414565b602082019050919050565b5f6020820190508181035f8301526114758161143c565b9050919050565b7f416d6f756e74206d7573742062652067726561746572207468616e207a65726f5f82015250565b5f6114b0602083611404565b91506114bb8261147c565b602082019050919050565b5f6020820190508181035f8301526114dd816114a4565b9050919050565b5f81905092915050565b50565b5f6114fc5f836114e4565b9150611507826114ee565b5f82019050919050565b5f61151b826114f1565b9150819050919050565b7f5472616e73666572206661696c656400000000000000000000000000000000005f82015250565b5f611559600f83611404565b915061156482611525565b602082019050919050565b5f6020820190508181035f8301526115868161154d565b905091905056fea26469706673582212209000373d5a653e576e801926a503a01f039200c7b698dfc102c16eeaf57f86c664736f6c63430008190033",
					"opcodes": "PUSH1 0x80 PUSH1 0x40 MSTORE CALLVALUE DUP1 ISZERO PUSH2 0xF JUMPI PUSH0 DUP1 REVERT JUMPDEST POP PUSH1 0x40 MLOAD PUSH2 0x17FC CODESIZE SUB DUP1 PUSH2 0x17FC DUP4 CODECOPY DUP2 DUP2 ADD PUSH1 0x40 MSTORE DUP2 ADD SWAP1 PUSH2 0x31 SWAP2 SWAP1 PUSH2 0x1D9 JUMP JUMPDEST DUP1 DUP1 PUSH0 PUSH20 0xFFFFFFFFFFFFFFFFFFFFFFFFFFFFFFFFFFFFFFFF AND DUP2 PUSH20 0xFFFFFFFFFFFFFFFFFFFFFFFFFFFFFFFFFFFFFFFF AND SUB PUSH2 0xA3 JUMPI PUSH0 PUSH1 0x40 MLOAD PUSH32 0x1E4FBDF700000000000000000000000000000000000000000000000000000000 DUP2 MSTORE PUSH1 0x4 ADD PUSH2 0x9A SWAP2 SWAP1 PUSH2 0x213 JUMP JUMPDEST PUSH1 0x40 MLOAD DUP1 SWAP2 SUB SWAP1 REVERT JUMPDEST PUSH2 0xB2 DUP2 PUSH2 0xBA PUSH1 0x20 SHL PUSH1 0x20 SHR JUMP JUMPDEST POP POP POP PUSH2 0x22C JUMP JUMPDEST PUSH0 DUP1 PUSH0 SWAP1 SLOAD SWAP1 PUSH2 0x100 EXP SWAP1 DIV PUSH20 0xFFFFFFFFFFFFFFFFFFFFFFFFFFFFFFFFFFFFFFFF AND SWAP1 POP DUP2 PUSH0 DUP1 PUSH2 0x100 EXP DUP2 SLOAD DUP2 PUSH20 0xFFFFFFFFFFFFFFFFFFFFFFFFFFFFFFFFFFFFFFFF MUL NOT AND SWAP1 DUP4 PUSH20 0xFFFFFFFFFFFFFFFFFFFFFFFFFFFFFFFFFFFFFFFF AND MUL OR SWAP1 SSTORE POP DUP2 PUSH20 0xFFFFFFFFFFFFFFFFFFFFFFFFFFFFFFFFFFFFFFFF AND DUP2 PUSH20 0xFFFFFFFFFFFFFFFFFFFFFFFFFFFFFFFFFFFFFFFF AND PUSH32 0x8BE0079C531659141344CD1FD0A4F28419497F9722A3DAAFE3B4186F6B6457E0 PUSH1 0x40 MLOAD PUSH1 0x40 MLOAD DUP1 SWAP2 SUB SWAP1 LOG3 POP POP JUMP JUMPDEST PUSH0 DUP1 REVERT JUMPDEST PUSH0 PUSH20 0xFFFFFFFFFFFFFFFFFFFFFFFFFFFFFFFFFFFFFFFF DUP3 AND SWAP1 POP SWAP2 SWAP1 POP JUMP JUMPDEST PUSH0 PUSH2 0x1A8 DUP3 PUSH2 0x17F JUMP JUMPDEST SWAP1 POP SWAP2 SWAP1 POP JUMP JUMPDEST PUSH2 0x1B8 DUP2 PUSH2 0x19E JUMP JUMPDEST DUP2 EQ PUSH2 0x1C2 JUMPI PUSH0 DUP1 REVERT JUMPDEST POP JUMP JUMPDEST PUSH0 DUP2 MLOAD SWAP1 POP PUSH2 0x1D3 DUP2 PUSH2 0x1AF JUMP JUMPDEST SWAP3 SWAP2 POP POP JUMP JUMPDEST PUSH0 PUSH1 0x20 DUP3 DUP5 SUB SLT ISZERO PUSH2 0x1EE JUMPI PUSH2 0x1ED PUSH2 0x17B JUMP JUMPDEST JUMPDEST PUSH0 PUSH2 0x1FB DUP5 DUP3 DUP6 ADD PUSH2 0x1C5 JUMP JUMPDEST SWAP2 POP POP SWAP3 SWAP2 POP POP JUMP JUMPDEST PUSH2 0x20D DUP2 PUSH2 0x19E JUMP JUMPDEST DUP3 MSTORE POP POP JUMP JUMPDEST PUSH0 PUSH1 0x20 DUP3 ADD SWAP1 POP PUSH2 0x226 PUSH0 DUP4 ADD DUP5 PUSH2 0x204 JUMP JUMPDEST SWAP3 SWAP2 POP POP JUMP JUMPDEST PUSH2 0x15C3 DUP1 PUSH2 0x239 PUSH0 CODECOPY PUSH0 RETURN INVALID PUSH1 0x80 PUSH1 0x40 MSTORE PUSH1 0x4 CALLDATASIZE LT PUSH2 0x54 JUMPI PUSH0 CALLDATALOAD PUSH1 0xE0 SHR DUP1 PUSH4 0x67C7B5D6 EQ PUSH2 0x58 JUMPI DUP1 PUSH4 0x6D3FFF27 EQ PUSH2 0x94 JUMPI DUP1 PUSH4 0x715018A6 EQ PUSH2 0xBE JUMPI DUP1 PUSH4 0x8DA5CB5B EQ PUSH2 0xD4 JUMPI DUP1 PUSH4 0xF2FDE38B EQ PUSH2 0xFE JUMPI DUP1 PUSH4 0xF98CF07C EQ PUSH2 0x126 JUMPI JUMPDEST PUSH0 DUP1 REVERT JUMPDEST CALLVALUE DUP1 ISZERO PUSH2 0x63 JUMPI PUSH0 DUP1 REVERT JUMPDEST POP PUSH2 0x7E PUSH1 0x4 DUP1 CALLDATASIZE SUB DUP2 ADD SWAP1 PUSH2 0x79 SWAP2 SWAP1 PUSH2 0xEB7 JUMP JUMPDEST PUSH2 0x142 JUMP JUMPDEST PUSH1 0x40 MLOAD PUSH2 0x8B SWAP2 SWAP1 PUSH2 0x1225 JUMP JUMPDEST PUSH1 0x40 MLOAD DUP1 SWAP2 SUB SWAP1 RETURN JUMPDEST CALLVALUE DUP1 ISZERO PUSH2 0x9F JUMPI PUSH0 DUP1 REVERT JUMPDEST POP PUSH2 0xA8 PUSH2 0x53C JUMP JUMPDEST PUSH1 0x40 MLOAD PUSH2 0xB5 SWAP2 SWAP1 PUSH2 0x1225 JUMP JUMPDEST PUSH1 0x40 MLOAD DUP1 SWAP2 SUB SWAP1 RETURN JUMPDEST CALLVALUE DUP1 ISZERO PUSH2 0xC9 JUMPI PUSH0 DUP1 REVERT JUMPDEST POP PUSH2 0xD2 PUSH2 0x953 JUMP JUMPDEST STOP JUMPDEST CALLVALUE DUP1 ISZERO PUSH2 0xDF JUMPI PUSH0 DUP1 REVERT JUMPDEST POP PUSH2 0xE8 PUSH2 0x966 JUMP JUMPDEST PUSH1 0x40 MLOAD PUSH2 0xF5 SWAP2 SWAP1 PUSH2 0x1254 JUMP JUMPDEST PUSH1 0x40 MLOAD DUP1 SWAP2 SUB SWAP1 RETURN JUMPDEST CALLVALUE DUP1 ISZERO PUSH2 0x109 JUMPI PUSH0 DUP1 REVERT JUMPDEST POP PUSH2 0x124 PUSH1 0x4 DUP1 CALLDATASIZE SUB DUP2 ADD SWAP1 PUSH2 0x11F SWAP2 SWAP1 PUSH2 0x1297 JUMP JUMPDEST PUSH2 0x98D JUMP JUMPDEST STOP JUMPDEST PUSH2 0x140 PUSH1 0x4 DUP1 CALLDATASIZE SUB DUP2 ADD SWAP1 PUSH2 0x13B SWAP2 SWAP1 PUSH2 0x12EC JUMP JUMPDEST PUSH2 0xA11 JUMP JUMPDEST STOP JUMPDEST PUSH1 0x60 PUSH0 PUSH1 0x3 DUP4 PUSH1 0x40 MLOAD PUSH2 0x155 SWAP2 SWAP1 PUSH2 0x1364 JUMP JUMPDEST SWAP1 DUP2 MSTORE PUSH1 0x20 ADD PUSH1 0x40 MLOAD DUP1 SWAP2 SUB SWAP1 KECCAK256 DUP1 SLOAD DUP1 PUSH1 0x20 MUL PUSH1 0x20 ADD PUSH1 0x40 MLOAD SWAP1 DUP2 ADD PUSH1 0x40 MSTORE DUP1 SWAP3 SWAP2 SWAP1 DUP2 DUP2 MSTORE PUSH1 0x20 ADD DUP3 DUP1 SLOAD DUP1 ISZERO PUSH2 0x1AB JUMPI PUSH1 0x20 MUL DUP3 ADD SWAP2 SWAP1 PUSH0 MSTORE PUSH1 0x20 PUSH0 KECCAK256 SWAP1 JUMPDEST DUP2 SLOAD DUP2 MSTORE PUSH1 0x20 ADD SWAP1 PUSH1 0x1 ADD SWAP1 DUP1 DUP4 GT PUSH2 0x197 JUMPI JUMPDEST POP POP POP POP POP SWAP1 POP PUSH0 DUP2 MLOAD PUSH8 0xFFFFFFFFFFFFFFFF DUP2 GT ISZERO PUSH2 0x1CE JUMPI PUSH2 0x1CD PUSH2 0xD93 JUMP JUMPDEST JUMPDEST PUSH1 0x40 MLOAD SWAP1 DUP1 DUP3 MSTORE DUP1 PUSH1 0x20 MUL PUSH1 0x20 ADD DUP3 ADD PUSH1 0x40 MSTORE DUP1 ISZERO PUSH2 0x207 JUMPI DUP2 PUSH1 0x20 ADD JUMPDEST PUSH2 0x1F4 PUSH2 0xCBD JUMP JUMPDEST DUP2 MSTORE PUSH1 0x20 ADD SWAP1 PUSH1 0x1 SWAP1 SUB SWAP1 DUP2 PUSH2 0x1EC JUMPI SWAP1 POP JUMPDEST POP SWAP1 POP PUSH0 JUMPDEST DUP3 MLOAD DUP2 LT ISZERO PUSH2 0x531 JUMPI PUSH1 0x2 PUSH0 DUP5 DUP4 DUP2 MLOAD DUP2 LT PUSH2 0x22B JUMPI PUSH2 0x22A PUSH2 0x137A JUMP JUMPDEST JUMPDEST PUSH1 0x20 MUL PUSH1 0x20 ADD ADD MLOAD DUP2 MSTORE PUSH1 0x20 ADD SWAP1 DUP2 MSTORE PUSH1 0x20 ADD PUSH0 KECCAK256 PUSH1 0x40 MLOAD DUP1 PUSH2 0x140 ADD PUSH1 0x40 MSTORE SWAP1 DUP2 PUSH0 DUP3 ADD DUP1 SLOAD PUSH2 0x25B SWAP1 PUSH2 0x13D4 JUMP JUMPDEST DUP1 PUSH1 0x1F ADD PUSH1 0x20 DUP1 SWAP2 DIV MUL PUSH1 0x20 ADD PUSH1 0x40 MLOAD SWAP1 DUP2 ADD PUSH1 0x40 MSTORE DUP1 SWAP3 SWAP2 SWAP1 DUP2 DUP2 MSTORE PUSH1 0x20 ADD DUP3 DUP1 SLOAD PUSH2 0x287 SWAP1 PUSH2 0x13D4 JUMP JUMPDEST DUP1 ISZERO PUSH2 0x2D2 JUMPI DUP1 PUSH1 0x1F LT PUSH2 0x2A9 JUMPI PUSH2 0x100 DUP1 DUP4 SLOAD DIV MUL DUP4 MSTORE SWAP2 PUSH1 0x20 ADD SWAP2 PUSH2 0x2D2 JUMP JUMPDEST DUP3 ADD SWAP2 SWAP1 PUSH0 MSTORE PUSH1 0x20 PUSH0 KECCAK256 SWAP1 JUMPDEST DUP2 SLOAD DUP2 MSTORE SWAP1 PUSH1 0x1 ADD SWAP1 PUSH1 0x20 ADD DUP1 DUP4 GT PUSH2 0x2B5 JUMPI DUP3 SWAP1 SUB PUSH1 0x1F AND DUP3 ADD SWAP2 JUMPDEST POP POP POP POP POP DUP2 MSTORE PUSH1 0x20 ADD PUSH1 0x1 DUP3 ADD DUP1 SLOAD PUSH2 0x2EB SWAP1 PUSH2 0x13D4 JUMP JUMPDEST DUP1 PUSH1 0x1F ADD PUSH1 0x20 DUP1 SWAP2 DIV MUL PUSH1 0x20 ADD PUSH1 0x40 MLOAD SWAP1 DUP2 ADD PUSH1 0x40 MSTORE DUP1 SWAP3 SWAP2 SWAP1 DUP2 DUP2 MSTORE PUSH1 0x20 ADD DUP3 DUP1 SLOAD PUSH2 0x317 SWAP1 PUSH2 0x13D4 JUMP JUMPDEST DUP1 ISZERO PUSH2 0x362 JUMPI DUP1 PUSH1 0x1F LT PUSH2 0x339 JUMPI PUSH2 0x100 DUP1 DUP4 SLOAD DIV MUL DUP4 MSTORE SWAP2 PUSH1 0x20 ADD SWAP2 PUSH2 0x362 JUMP JUMPDEST DUP3 ADD SWAP2 SWAP1 PUSH0 MSTORE PUSH1 0x20 PUSH0 KECCAK256 SWAP1 JUMPDEST DUP2 SLOAD DUP2 MSTORE SWAP1 PUSH1 0x1 ADD SWAP1 PUSH1 0x20 ADD DUP1 DUP4 GT PUSH2 0x345 JUMPI DUP3 SWAP1 SUB PUSH1 0x1F AND DUP3 ADD SWAP2 JUMPDEST POP POP POP POP POP DUP2 MSTORE PUSH1 0x20 ADD PUSH1 0x2 DUP3 ADD PUSH0 SWAP1 SLOAD SWAP1 PUSH2 0x100 EXP SWAP1 DIV PUSH1 0xFF AND PUSH1 0x3 DUP2 GT ISZERO PUSH2 0x38F JUMPI PUSH2 0x38E PUSH2 0xF87 JUMP JUMPDEST JUMPDEST PUSH1 0x3 DUP2 GT ISZERO PUSH2 0x3A1 JUMPI PUSH2 0x3A0 PUSH2 0xF87 JUMP JUMPDEST JUMPDEST DUP2 MSTORE PUSH1 0x20 ADD PUSH1 0x2 DUP3 ADD PUSH1 0x1 SWAP1 SLOAD SWAP1 PUSH2 0x100 EXP SWAP1 DIV PUSH1 0xFF AND PUSH1 0x1 DUP2 GT ISZERO PUSH2 0x3CA JUMPI PUSH2 0x3C9 PUSH2 0xF87 JUMP JUMPDEST JUMPDEST PUSH1 0x1 DUP2 GT ISZERO PUSH2 0x3DC JUMPI PUSH2 0x3DB PUSH2 0xF87 JUMP JUMPDEST JUMPDEST DUP2 MSTORE PUSH1 0x20 ADD PUSH1 0x2 DUP3 ADD PUSH1 0x2 SWAP1 SLOAD SWAP1 PUSH2 0x100 EXP SWAP1 DIV PUSH4 0xFFFFFFFF AND PUSH4 0xFFFFFFFF AND PUSH4 0xFFFFFFFF AND DUP2 MSTORE PUSH1 0x20 ADD PUSH1 0x2 DUP3 ADD PUSH1 0x6 SWAP1 SLOAD SWAP1 PUSH2 0x100 EXP SWAP1 DIV PUSH4 0xFFFFFFFF AND PUSH4 0xFFFFFFFF AND PUSH4 0xFFFFFFFF AND DUP2 MSTORE PUSH1 0x20 ADD PUSH1 0x2 DUP3 ADD PUSH1 0xA SWAP1 SLOAD SWAP1 PUSH2 0x100 EXP SWAP1 DIV PUSH4 0xFFFFFFFF AND PUSH4 0xFFFFFFFF AND PUSH4 0xFFFFFFFF AND DUP2 MSTORE PUSH1 0x20 ADD PUSH1 0x3 DUP3 ADD SLOAD DUP2 MSTORE PUSH1 0x20 ADD PUSH1 0x4 DUP3 ADD PUSH0 SWAP1 SLOAD SWAP1 PUSH2 0x100 EXP SWAP1 DIV PUSH20 0xFFFFFFFFFFFFFFFFFFFFFFFFFFFFFFFFFFFFFFFF AND PUSH20 0xFFFFFFFFFFFFFFFFFFFFFFFFFFFFFFFFFFFFFFFF AND PUSH20 0xFFFFFFFFFFFFFFFFFFFFFFFFFFFFFFFFFFFFFFFF AND DUP2 MSTORE PUSH1 0x20 ADD PUSH1 0x5 DUP3 ADD PUSH0 SWAP1 SLOAD SWAP1 PUSH2 0x100 EXP SWAP1 DIV PUSH20 0xFFFFFFFFFFFFFFFFFFFFFFFFFFFFFFFFFFFFFFFF AND PUSH20 0xFFFFFFFFFFFFFFFFFFFFFFFFFFFFFFFFFFFFFFFF AND PUSH20 0xFFFFFFFFFFFFFFFFFFFFFFFFFFFFFFFFFFFFFFFF AND DUP2 MSTORE POP POP DUP3 DUP3 DUP2 MLOAD DUP2 LT PUSH2 0x519 JUMPI PUSH2 0x518 PUSH2 0x137A JUMP JUMPDEST JUMPDEST PUSH1 0x20 MUL PUSH1 0x20 ADD ADD DUP2 SWAP1 MSTORE POP DUP1 DUP1 PUSH1 0x1 ADD SWAP2 POP POP PUSH2 0x20C JUMP JUMPDEST POP DUP1 SWAP3 POP POP POP SWAP2 SWAP1 POP JUMP JUMPDEST PUSH1 0x60 PUSH0 PUSH1 0x4 PUSH0 CALLER PUSH20 0xFFFFFFFFFFFFFFFFFFFFFFFFFFFFFFFFFFFFFFFF AND PUSH20 0xFFFFFFFFFFFFFFFFFFFFFFFFFFFFFFFFFFFFFFFF AND DUP2 MSTORE PUSH1 0x20 ADD SWAP1 DUP2 MSTORE PUSH1 0x20 ADD PUSH0 KECCAK256 DUP1 SLOAD DUP1 PUSH1 0x20 MUL PUSH1 0x20 ADD PUSH1 0x40 MLOAD SWAP1 DUP2 ADD PUSH1 0x40 MSTORE DUP1 SWAP3 SWAP2 SWAP1 DUP2 DUP2 MSTORE PUSH1 0x20 ADD DUP3 DUP1 SLOAD DUP1 ISZERO PUSH2 0x5C4 JUMPI PUSH1 0x20 MUL DUP3 ADD SWAP2 SWAP1 PUSH0 MSTORE PUSH1 0x20 PUSH0 KECCAK256 SWAP1 JUMPDEST DUP2 SLOAD DUP2 MSTORE PUSH1 0x20 ADD SWAP1 PUSH1 0x1 ADD SWAP1 DUP1 DUP4 GT PUSH2 0x5B0 JUMPI JUMPDEST POP POP POP POP POP SWAP1 POP PUSH0 DUP2 MLOAD PUSH8 0xFFFFFFFFFFFFFFFF DUP2 GT ISZERO PUSH2 0x5E7 JUMPI PUSH2 0x5E6 PUSH2 0xD93 JUMP JUMPDEST JUMPDEST PUSH1 0x40 MLOAD SWAP1 DUP1 DUP3 MSTORE DUP1 PUSH1 0x20 MUL PUSH1 0x20 ADD DUP3 ADD PUSH1 0x40 MSTORE DUP1 ISZERO PUSH2 0x620 JUMPI DUP2 PUSH1 0x20 ADD JUMPDEST PUSH2 0x60D PUSH2 0xCBD JUMP JUMPDEST DUP2 MSTORE PUSH1 0x20 ADD SWAP1 PUSH1 0x1 SWAP1 SUB SWAP1 DUP2 PUSH2 0x605 JUMPI SWAP1 POP JUMPDEST POP SWAP1 POP PUSH0 JUMPDEST DUP3 MLOAD DUP2 LT ISZERO PUSH2 0x94A JUMPI PUSH1 0x2 PUSH0 DUP5 DUP4 DUP2 MLOAD DUP2 LT PUSH2 0x644 JUMPI PUSH2 0x643 PUSH2 0x137A JUMP JUMPDEST JUMPDEST PUSH1 0x20 MUL PUSH1 0x20 ADD ADD MLOAD DUP2 MSTORE PUSH1 0x20 ADD SWAP1 DUP2 MSTORE PUSH1 0x20 ADD PUSH0 KECCAK256 PUSH1 0x40 MLOAD DUP1 PUSH2 0x140 ADD PUSH1 0x40 MSTORE SWAP1 DUP2 PUSH0 DUP3 ADD DUP1 SLOAD PUSH2 0x674 SWAP1 PUSH2 0x13D4 JUMP JUMPDEST DUP1 PUSH1 0x1F ADD PUSH1 0x20 DUP1 SWAP2 DIV MUL PUSH1 0x20 ADD PUSH1 0x40 MLOAD SWAP1 DUP2 ADD PUSH1 0x40 MSTORE DUP1 SWAP3 SWAP2 SWAP1 DUP2 DUP2 MSTORE PUSH1 0x20 ADD DUP3 DUP1 SLOAD PUSH2 0x6A0 SWAP1 PUSH2 0x13D4 JUMP JUMPDEST DUP1 ISZERO PUSH2 0x6EB JUMPI DUP1 PUSH1 0x1F LT PUSH2 0x6C2 JUMPI PUSH2 0x100 DUP1 DUP4 SLOAD DIV MUL DUP4 MSTORE SWAP2 PUSH1 0x20 ADD SWAP2 PUSH2 0x6EB JUMP JUMPDEST DUP3 ADD SWAP2 SWAP1 PUSH0 MSTORE PUSH1 0x20 PUSH0 KECCAK256 SWAP1 JUMPDEST DUP2 SLOAD DUP2 MSTORE SWAP1 PUSH1 0x1 ADD SWAP1 PUSH1 0x20 ADD DUP1 DUP4 GT PUSH2 0x6CE JUMPI DUP3 SWAP1 SUB PUSH1 0x1F AND DUP3 ADD SWAP2 JUMPDEST POP POP POP POP POP DUP2 MSTORE PUSH1 0x20 ADD PUSH1 0x1 DUP3 ADD DUP1 SLOAD PUSH2 0x704 SWAP1 PUSH2 0x13D4 JUMP JUMPDEST DUP1 PUSH1 0x1F ADD PUSH1 0x20 DUP1 SWAP2 DIV MUL PUSH1 0x20 ADD PUSH1 0x40 MLOAD SWAP1 DUP2 ADD PUSH1 0x40 MSTORE DUP1 SWAP3 SWAP2 SWAP1 DUP2 DUP2 MSTORE PUSH1 0x20 ADD DUP3 DUP1 SLOAD PUSH2 0x730 SWAP1 PUSH2 0x13D4 JUMP JUMPDEST DUP1 ISZERO PUSH2 0x77B JUMPI DUP1 PUSH1 0x1F LT PUSH2 0x752 JUMPI PUSH2 0x100 DUP1 DUP4 SLOAD DIV MUL DUP4 MSTORE SWAP2 PUSH1 0x20 ADD SWAP2 PUSH2 0x77B JUMP JUMPDEST DUP3 ADD SWAP2 SWAP1 PUSH0 MSTORE PUSH1 0x20 PUSH0 KECCAK256 SWAP1 JUMPDEST DUP2 SLOAD DUP2 MSTORE SWAP1 PUSH1 0x1 ADD SWAP1 PUSH1 0x20 ADD DUP1 DUP4 GT PUSH2 0x75E JUMPI DUP3 SWAP1 SUB PUSH1 0x1F AND DUP3 ADD SWAP2 JUMPDEST POP POP POP POP POP DUP2 MSTORE PUSH1 0x20 ADD PUSH1 0x2 DUP3 ADD PUSH0 SWAP1 SLOAD SWAP1 PUSH2 0x100 EXP SWAP1 DIV PUSH1 0xFF AND PUSH1 0x3 DUP2 GT ISZERO PUSH2 0x7A8 JUMPI PUSH2 0x7A7 PUSH2 0xF87 JUMP JUMPDEST JUMPDEST PUSH1 0x3 DUP2 GT ISZERO PUSH2 0x7BA JUMPI PUSH2 0x7B9 PUSH2 0xF87 JUMP JUMPDEST JUMPDEST DUP2 MSTORE PUSH1 0x20 ADD PUSH1 0x2 DUP3 ADD PUSH1 0x1 SWAP1 SLOAD SWAP1 PUSH2 0x100 EXP SWAP1 DIV PUSH1 0xFF AND PUSH1 0x1 DUP2 GT ISZERO PUSH2 0x7E3 JUMPI PUSH2 0x7E2 PUSH2 0xF87 JUMP JUMPDEST JUMPDEST PUSH1 0x1 DUP2 GT ISZERO PUSH2 0x7F5 JUMPI PUSH2 0x7F4 PUSH2 0xF87 JUMP JUMPDEST JUMPDEST DUP2 MSTORE PUSH1 0x20 ADD PUSH1 0x2 DUP3 ADD PUSH1 0x2 SWAP1 SLOAD SWAP1 PUSH2 0x100 EXP SWAP1 DIV PUSH4 0xFFFFFFFF AND PUSH4 0xFFFFFFFF AND PUSH4 0xFFFFFFFF AND DUP2 MSTORE PUSH1 0x20 ADD PUSH1 0x2 DUP3 ADD PUSH1 0x6 SWAP1 SLOAD SWAP1 PUSH2 0x100 EXP SWAP1 DIV PUSH4 0xFFFFFFFF AND PUSH4 0xFFFFFFFF AND PUSH4 0xFFFFFFFF AND DUP2 MSTORE PUSH1 0x20 ADD PUSH1 0x2 DUP3 ADD PUSH1 0xA SWAP1 SLOAD SWAP1 PUSH2 0x100 EXP SWAP1 DIV PUSH4 0xFFFFFFFF AND PUSH4 0xFFFFFFFF AND PUSH4 0xFFFFFFFF AND DUP2 MSTORE PUSH1 0x20 ADD PUSH1 0x3 DUP3 ADD SLOAD DUP2 MSTORE PUSH1 0x20 ADD PUSH1 0x4 DUP3 ADD PUSH0 SWAP1 SLOAD SWAP1 PUSH2 0x100 EXP SWAP1 DIV PUSH20 0xFFFFFFFFFFFFFFFFFFFFFFFFFFFFFFFFFFFFFFFF AND PUSH20 0xFFFFFFFFFFFFFFFFFFFFFFFFFFFFFFFFFFFFFFFF AND PUSH20 0xFFFFFFFFFFFFFFFFFFFFFFFFFFFFFFFFFFFFFFFF AND DUP2 MSTORE PUSH1 0x20 ADD PUSH1 0x5 DUP3 ADD PUSH0 SWAP1 SLOAD SWAP1 PUSH2 0x100 EXP SWAP1 DIV PUSH20 0xFFFFFFFFFFFFFFFFFFFFFFFFFFFFFFFFFFFFFFFF AND PUSH20 0xFFFFFFFFFFFFFFFFFFFFFFFFFFFFFFFFFFFFFFFF AND PUSH20 0xFFFFFFFFFFFFFFFFFFFFFFFFFFFFFFFFFFFFFFFF AND DUP2 MSTORE POP POP DUP3 DUP3 DUP2 MLOAD DUP2 LT PUSH2 0x932 JUMPI PUSH2 0x931 PUSH2 0x137A JUMP JUMPDEST JUMPDEST PUSH1 0x20 MUL PUSH1 0x20 ADD ADD DUP2 SWAP1 MSTORE POP DUP1 DUP1 PUSH1 0x1 ADD SWAP2 POP POP PUSH2 0x625 JUMP JUMPDEST POP DUP1 SWAP3 POP POP POP SWAP1 JUMP JUMPDEST PUSH2 0x95B PUSH2 0xB6E JUMP JUMPDEST PUSH2 0x964 PUSH0 PUSH2 0xBF5 JUMP JUMPDEST JUMP JUMPDEST PUSH0 DUP1 PUSH0 SWAP1 SLOAD SWAP1 PUSH2 0x100 EXP SWAP1 DIV PUSH20 0xFFFFFFFFFFFFFFFFFFFFFFFFFFFFFFFFFFFFFFFF AND SWAP1 POP SWAP1 JUMP JUMPDEST PUSH2 0x995 PUSH2 0xB6E JUMP JUMPDEST PUSH0 PUSH20 0xFFFFFFFFFFFFFFFFFFFFFFFFFFFFFFFFFFFFFFFF AND DUP2 PUSH20 0xFFFFFFFFFFFFFFFFFFFFFFFFFFFFFFFFFFFFFFFF AND SUB PUSH2 0xA05 JUMPI PUSH0 PUSH1 0x40 MLOAD PUSH32 0x1E4FBDF700000000000000000000000000000000000000000000000000000000 DUP2 MSTORE PUSH1 0x4 ADD PUSH2 0x9FC SWAP2 SWAP1 PUSH2 0x1254 JUMP JUMPDEST PUSH1 0x40 MLOAD DUP1 SWAP2 SUB SWAP1 REVERT JUMPDEST PUSH2 0xA0E DUP2 PUSH2 0xBF5 JUMP JUMPDEST POP JUMP JUMPDEST PUSH0 PUSH20 0xFFFFFFFFFFFFFFFFFFFFFFFFFFFFFFFFFFFFFFFF AND DUP3 PUSH20 0xFFFFFFFFFFFFFFFFFFFFFFFFFFFFFFFFFFFFFFFF AND SUB PUSH2 0xA7F JUMPI PUSH1 0x40 MLOAD PUSH32 0x8C379A000000000000000000000000000000000000000000000000000000000 DUP2 MSTORE PUSH1 0x4 ADD PUSH2 0xA76 SWAP1 PUSH2 0x145E JUMP JUMPDEST PUSH1 0x40 MLOAD DUP1 SWAP2 SUB SWAP1 REVERT JUMPDEST PUSH0 DUP2 GT PUSH2 0xAC1 JUMPI PUSH1 0x40 MLOAD PUSH32 0x8C379A000000000000000000000000000000000000000000000000000000000 DUP2 MSTORE PUSH1 0x4 ADD PUSH2 0xAB8 SWAP1 PUSH2 0x14C6 JUMP JUMPDEST PUSH1 0x40 MLOAD DUP1 SWAP2 SUB SWAP1 REVERT JUMPDEST PUSH0 DUP3 PUSH20 0xFFFFFFFFFFFFFFFFFFFFFFFFFFFFFFFFFFFFFFFF AND DUP3 PUSH1 0x40 MLOAD PUSH2 0xAE6 SWAP1 PUSH2 0x1511 JUMP JUMPDEST PUSH0 PUSH1 0x40 MLOAD DUP1 DUP4 SUB DUP2 DUP6 DUP8 GAS CALL SWAP3 POP POP POP RETURNDATASIZE DUP1 PUSH0 DUP2 EQ PUSH2 0xB20 JUMPI PUSH1 0x40 MLOAD SWAP2 POP PUSH1 0x1F NOT PUSH1 0x3F RETURNDATASIZE ADD AND DUP3 ADD PUSH1 0x40 MSTORE RETURNDATASIZE DUP3 MSTORE RETURNDATASIZE PUSH0 PUSH1 0x20 DUP5 ADD RETURNDATACOPY PUSH2 0xB25 JUMP JUMPDEST PUSH1 0x60 SWAP2 POP JUMPDEST POP POP SWAP1 POP DUP1 PUSH2 0xB69 JUMPI PUSH1 0x40 MLOAD PUSH32 0x8C379A000000000000000000000000000000000000000000000000000000000 DUP2 MSTORE PUSH1 0x4 ADD PUSH2 0xB60 SWAP1 PUSH2 0x156F JUMP JUMPDEST PUSH1 0x40 MLOAD DUP1 SWAP2 SUB SWAP1 REVERT JUMPDEST POP POP POP JUMP JUMPDEST PUSH2 0xB76 PUSH2 0xCB6 JUMP JUMPDEST PUSH20 0xFFFFFFFFFFFFFFFFFFFFFFFFFFFFFFFFFFFFFFFF AND PUSH2 0xB94 PUSH2 0x966 JUMP JUMPDEST PUSH20 0xFFFFFFFFFFFFFFFFFFFFFFFFFFFFFFFFFFFFFFFF AND EQ PUSH2 0xBF3 JUMPI PUSH2 0xBB7 PUSH2 0xCB6 JUMP JUMPDEST PUSH1 0x40 MLOAD PUSH32 0x118CDAA700000000000000000000000000000000000000000000000000000000 DUP2 MSTORE PUSH1 0x4 ADD PUSH2 0xBEA SWAP2 SWAP1 PUSH2 0x1254 JUMP JUMPDEST PUSH1 0x40 MLOAD DUP1 SWAP2 SUB SWAP1 REVERT JUMPDEST JUMP JUMPDEST PUSH0 DUP1 PUSH0 SWAP1 SLOAD SWAP1 PUSH2 0x100 EXP SWAP1 DIV PUSH20 0xFFFFFFFFFFFFFFFFFFFFFFFFFFFFFFFFFFFFFFFF AND SWAP1 POP DUP2 PUSH0 DUP1 PUSH2 0x100 EXP DUP2 SLOAD DUP2 PUSH20 0xFFFFFFFFFFFFFFFFFFFFFFFFFFFFFFFFFFFFFFFF MUL NOT AND SWAP1 DUP4 PUSH20 0xFFFFFFFFFFFFFFFFFFFFFFFFFFFFFFFFFFFFFFFF AND MUL OR SWAP1 SSTORE POP DUP2 PUSH20 0xFFFFFFFFFFFFFFFFFFFFFFFFFFFFFFFFFFFFFFFF AND DUP2 PUSH20 0xFFFFFFFFFFFFFFFFFFFFFFFFFFFFFFFFFFFFFFFF AND PUSH32 0x8BE0079C531659141344CD1FD0A4F28419497F9722A3DAAFE3B4186F6B6457E0 PUSH1 0x40 MLOAD PUSH1 0x40 MLOAD DUP1 SWAP2 SUB SWAP1 LOG3 POP POP JUMP JUMPDEST PUSH0 CALLER SWAP1 POP SWAP1 JUMP JUMPDEST PUSH1 0x40 MLOAD DUP1 PUSH2 0x140 ADD PUSH1 0x40 MSTORE DUP1 PUSH1 0x60 DUP2 MSTORE PUSH1 0x20 ADD PUSH1 0x60 DUP2 MSTORE PUSH1 0x20 ADD PUSH0 PUSH1 0x3 DUP2 GT ISZERO PUSH2 0xCEA JUMPI PUSH2 0xCE9 PUSH2 0xF87 JUMP JUMPDEST JUMPDEST DUP2 MSTORE PUSH1 0x20 ADD PUSH0 PUSH1 0x1 DUP2 GT ISZERO PUSH2 0xD02 JUMPI PUSH2 0xD01 PUSH2 0xF87 JUMP JUMPDEST JUMPDEST DUP2 MSTORE PUSH1 0x20 ADD PUSH0 PUSH4 0xFFFFFFFF AND DUP2 MSTORE PUSH1 0x20 ADD PUSH0 PUSH4 0xFFFFFFFF AND DUP2 MSTORE PUSH1 0x20 ADD PUSH0 PUSH4 0xFFFFFFFF AND DUP2 MSTORE PUSH1 0x20 ADD PUSH0 DUP2 MSTORE PUSH1 0x20 ADD PUSH0 PUSH20 0xFFFFFFFFFFFFFFFFFFFFFFFFFFFFFFFFFFFFFFFF AND DUP2 MSTORE PUSH1 0x20 ADD PUSH0 PUSH20 0xFFFFFFFFFFFFFFFFFFFFFFFFFFFFFFFFFFFFFFFF AND DUP2 MSTORE POP SWAP1 JUMP JUMPDEST PUSH0 PUSH1 0x40 MLOAD SWAP1 POP SWAP1 JUMP JUMPDEST PUSH0 DUP1 REVERT JUMPDEST PUSH0 DUP1 REVERT JUMPDEST PUSH0 DUP1 REVERT JUMPDEST PUSH0 DUP1 REVERT JUMPDEST PUSH0 PUSH1 0x1F NOT PUSH1 0x1F DUP4 ADD AND SWAP1 POP SWAP2 SWAP1 POP JUMP JUMPDEST PUSH32 0x4E487B7100000000000000000000000000000000000000000000000000000000 PUSH0 MSTORE PUSH1 0x41 PUSH1 0x4 MSTORE PUSH1 0x24 PUSH0 REVERT JUMPDEST PUSH2 0xDC9 DUP3 PUSH2 0xD83 JUMP JUMPDEST DUP2 ADD DUP2 DUP2 LT PUSH8 0xFFFFFFFFFFFFFFFF DUP3 GT OR ISZERO PUSH2 0xDE8 JUMPI PUSH2 0xDE7 PUSH2 0xD93 JUMP JUMPDEST JUMPDEST DUP1 PUSH1 0x40 MSTORE POP POP POP JUMP JUMPDEST PUSH0 PUSH2 0xDFA PUSH2 0xD6A JUMP JUMPDEST SWAP1 POP PUSH2 0xE06 DUP3 DUP3 PUSH2 0xDC0 JUMP JUMPDEST SWAP2 SWAP1 POP JUMP JUMPDEST PUSH0 PUSH8 0xFFFFFFFFFFFFFFFF DUP3 GT ISZERO PUSH2 0xE25 JUMPI PUSH2 0xE24 PUSH2 0xD93 JUMP JUMPDEST JUMPDEST PUSH2 0xE2E DUP3 PUSH2 0xD83 JUMP JUMPDEST SWAP1 POP PUSH1 0x20 DUP2 ADD SWAP1 POP SWAP2 SWAP1 POP JUMP JUMPDEST DUP3 DUP2 DUP4 CALLDATACOPY PUSH0 DUP4 DUP4 ADD MSTORE POP POP POP JUMP JUMPDEST PUSH0 PUSH2 0xE5B PUSH2 0xE56 DUP5 PUSH2 0xE0B JUMP JUMPDEST PUSH2 0xDF1 JUMP JUMPDEST SWAP1 POP DUP3 DUP2 MSTORE PUSH1 0x20 DUP2 ADD DUP5 DUP5 DUP5 ADD GT ISZERO PUSH2 0xE77 JUMPI PUSH2 0xE76 PUSH2 0xD7F JUMP JUMPDEST JUMPDEST PUSH2 0xE82 DUP5 DUP3 DUP6 PUSH2 0xE3B JUMP JUMPDEST POP SWAP4 SWAP3 POP POP POP JUMP JUMPDEST PUSH0 DUP3 PUSH1 0x1F DUP4 ADD SLT PUSH2 0xE9E JUMPI PUSH2 0xE9D PUSH2 0xD7B JUMP JUMPDEST JUMPDEST DUP2 CALLDATALOAD PUSH2 0xEAE DUP5 DUP3 PUSH1 0x20 DUP7 ADD PUSH2 0xE49 JUMP JUMPDEST SWAP2 POP POP SWAP3 SWAP2 POP POP JUMP JUMPDEST PUSH0 PUSH1 0x20 DUP3 DUP5 SUB SLT ISZERO PUSH2 0xECC JUMPI PUSH2 0xECB PUSH2 0xD73 JUMP JUMPDEST JUMPDEST PUSH0 DUP3 ADD CALLDATALOAD PUSH8 0xFFFFFFFFFFFFFFFF DUP2 GT ISZERO PUSH2 0xEE9 JUMPI PUSH2 0xEE8 PUSH2 0xD77 JUMP JUMPDEST JUMPDEST PUSH2 0xEF5 DUP5 DUP3 DUP6 ADD PUSH2 0xE8A JUMP JUMPDEST SWAP2 POP POP SWAP3 SWAP2 POP POP JUMP JUMPDEST PUSH0 DUP2 MLOAD SWAP1 POP SWAP2 SWAP1 POP JUMP JUMPDEST PUSH0 DUP3 DUP3 MSTORE PUSH1 0x20 DUP3 ADD SWAP1 POP SWAP3 SWAP2 POP POP JUMP JUMPDEST PUSH0 DUP2 SWAP1 POP PUSH1 0x20 DUP3 ADD SWAP1 POP SWAP2 SWAP1 POP JUMP JUMPDEST PUSH0 DUP2 MLOAD SWAP1 POP SWAP2 SWAP1 POP JUMP JUMPDEST PUSH0 DUP3 DUP3 MSTORE PUSH1 0x20 DUP3 ADD SWAP1 POP SWAP3 SWAP2 POP POP JUMP JUMPDEST DUP3 DUP2 DUP4 MCOPY PUSH0 DUP4 DUP4 ADD MSTORE POP POP POP JUMP JUMPDEST PUSH0 PUSH2 0xF59 DUP3 PUSH2 0xF27 JUMP JUMPDEST PUSH2 0xF63 DUP2 DUP6 PUSH2 0xF31 JUMP JUMPDEST SWAP4 POP PUSH2 0xF73 DUP2 DUP6 PUSH1 0x20 DUP7 ADD PUSH2 0xF41 JUMP JUMPDEST PUSH2 0xF7C DUP2 PUSH2 0xD83 JUMP JUMPDEST DUP5 ADD SWAP2 POP POP SWAP3 SWAP2 POP POP JUMP JUMPDEST PUSH32 0x4E487B7100000000000000000000000000000000000000000000000000000000 PUSH0 MSTORE PUSH1 0x21 PUSH1 0x4 MSTORE PUSH1 0x24 PUSH0 REVERT JUMPDEST PUSH1 0x4 DUP2 LT PUSH2 0xFC5 JUMPI PUSH2 0xFC4 PUSH2 0xF87 JUMP JUMPDEST JUMPDEST POP JUMP JUMPDEST PUSH0 DUP2 SWAP1 POP PUSH2 0xFD5 DUP3 PUSH2 0xFB4 JUMP JUMPDEST SWAP2 SWAP1 POP JUMP JUMPDEST PUSH0 PUSH2 0xFE4 DUP3 PUSH2 0xFC8 JUMP JUMPDEST SWAP1 POP SWAP2 SWAP1 POP JUMP JUMPDEST PUSH2 0xFF4 DUP2 PUSH2 0xFDA JUMP JUMPDEST DUP3 MSTORE POP POP JUMP JUMPDEST PUSH1 0x2 DUP2 LT PUSH2 0x100B JUMPI PUSH2 0x100A PUSH2 0xF87 JUMP JUMPDEST JUMPDEST POP JUMP JUMPDEST PUSH0 DUP2 SWAP1 POP PUSH2 0x101B DUP3 PUSH2 0xFFA JUMP JUMPDEST SWAP2 SWAP1 POP JUMP JUMPDEST PUSH0 PUSH2 0x102A DUP3 PUSH2 0x100E JUMP JUMPDEST SWAP1 POP SWAP2 SWAP1 POP JUMP JUMPDEST PUSH2 0x103A DUP2 PUSH2 0x1020 JUMP JUMPDEST DUP3 MSTORE POP POP JUMP JUMPDEST PUSH0 PUSH4 0xFFFFFFFF DUP3 AND SWAP1 POP SWAP2 SWAP1 POP JUMP JUMPDEST PUSH2 0x1058 DUP2 PUSH2 0x1040 JUMP JUMPDEST DUP3 MSTORE POP POP JUMP JUMPDEST PUSH0 DUP2 SWAP1 POP SWAP2 SWAP1 POP JUMP JUMPDEST PUSH2 0x1070 DUP2 PUSH2 0x105E JUMP JUMPDEST DUP3 MSTORE POP POP JUMP JUMPDEST PUSH0 PUSH20 0xFFFFFFFFFFFFFFFFFFFFFFFFFFFFFFFFFFFFFFFF DUP3 AND SWAP1 POP SWAP2 SWAP1 POP JUMP JUMPDEST PUSH0 PUSH2 0x109F DUP3 PUSH2 0x1076 JUMP JUMPDEST SWAP1 POP SWAP2 SWAP1 POP JUMP JUMPDEST PUSH2 0x10AF DUP2 PUSH2 0x1095 JUMP JUMPDEST DUP3 MSTORE POP POP JUMP JUMPDEST PUSH0 PUSH2 0x140 DUP4 ADD PUSH0 DUP4 ADD MLOAD DUP5 DUP3 SUB PUSH0 DUP7 ADD MSTORE PUSH2 0x10D0 DUP3 DUP3 PUSH2 0xF4F JUMP JUMPDEST SWAP2 POP POP PUSH1 0x20 DUP4 ADD MLOAD DUP5 DUP3 SUB PUSH1 0x20 DUP7 ADD MSTORE PUSH2 0x10EA DUP3 DUP3 PUSH2 0xF4F JUMP JUMPDEST SWAP2 POP POP PUSH1 0x40 DUP4 ADD MLOAD PUSH2 0x10FF PUSH1 0x40 DUP7 ADD DUP3 PUSH2 0xFEB JUMP JUMPDEST POP PUSH1 0x60 DUP4 ADD MLOAD PUSH2 0x1112 PUSH1 0x60 DUP7 ADD DUP3 PUSH2 0x1031 JUMP JUMPDEST POP PUSH1 0x80 DUP4 ADD MLOAD PUSH2 0x1125 PUSH1 0x80 DUP7 ADD DUP3 PUSH2 0x104F JUMP JUMPDEST POP PUSH1 0xA0 DUP4 ADD MLOAD PUSH2 0x1138 PUSH1 0xA0 DUP7 ADD DUP3 PUSH2 0x104F JUMP JUMPDEST POP PUSH1 0xC0 DUP4 ADD MLOAD PUSH2 0x114B PUSH1 0xC0 DUP7 ADD DUP3 PUSH2 0x104F JUMP JUMPDEST POP PUSH1 0xE0 DUP4 ADD MLOAD PUSH2 0x115E PUSH1 0xE0 DUP7 ADD DUP3 PUSH2 0x1067 JUMP JUMPDEST POP PUSH2 0x100 DUP4 ADD MLOAD PUSH2 0x1173 PUSH2 0x100 DUP7 ADD DUP3 PUSH2 0x10A6 JUMP JUMPDEST POP PUSH2 0x120 DUP4 ADD MLOAD PUSH2 0x1188 PUSH2 0x120 DUP7 ADD DUP3 PUSH2 0x10A6 JUMP JUMPDEST POP DUP1 SWAP2 POP POP SWAP3 SWAP2 POP POP JUMP JUMPDEST PUSH0 PUSH2 0x119E DUP4 DUP4 PUSH2 0x10B5 JUMP JUMPDEST SWAP1 POP SWAP3 SWAP2 POP POP JUMP JUMPDEST PUSH0 PUSH1 0x20 DUP3 ADD SWAP1 POP SWAP2 SWAP1 POP JUMP JUMPDEST PUSH0 PUSH2 0x11BC DUP3 PUSH2 0xEFE JUMP JUMPDEST PUSH2 0x11C6 DUP2 DUP6 PUSH2 0xF08 JUMP JUMPDEST SWAP4 POP DUP4 PUSH1 0x20 DUP3 MUL DUP6 ADD PUSH2 0x11D8 DUP6 PUSH2 0xF18 JUMP JUMPDEST DUP1 PUSH0 JUMPDEST DUP6 DUP2 LT ISZERO PUSH2 0x1213 JUMPI DUP5 DUP5 SUB DUP10 MSTORE DUP2 MLOAD PUSH2 0x11F4 DUP6 DUP3 PUSH2 0x1193 JUMP JUMPDEST SWAP5 POP PUSH2 0x11FF DUP4 PUSH2 0x11A6 JUMP JUMPDEST SWAP3 POP PUSH1 0x20 DUP11 ADD SWAP10 POP POP PUSH1 0x1 DUP2 ADD SWAP1 POP PUSH2 0x11DB JUMP JUMPDEST POP DUP3 SWAP8 POP DUP8 SWAP6 POP POP POP POP POP POP SWAP3 SWAP2 POP POP JUMP JUMPDEST PUSH0 PUSH1 0x20 DUP3 ADD SWAP1 POP DUP2 DUP2 SUB PUSH0 DUP4 ADD MSTORE PUSH2 0x123D DUP2 DUP5 PUSH2 0x11B2 JUMP JUMPDEST SWAP1 POP SWAP3 SWAP2 POP POP JUMP JUMPDEST PUSH2 0x124E DUP2 PUSH2 0x1095 JUMP JUMPDEST DUP3 MSTORE POP POP JUMP JUMPDEST PUSH0 PUSH1 0x20 DUP3 ADD SWAP1 POP PUSH2 0x1267 PUSH0 DUP4 ADD DUP5 PUSH2 0x1245 JUMP JUMPDEST SWAP3 SWAP2 POP POP JUMP JUMPDEST PUSH2 0x1276 DUP2 PUSH2 0x1095 JUMP JUMPDEST DUP2 EQ PUSH2 0x1280 JUMPI PUSH0 DUP1 REVERT JUMPDEST POP JUMP JUMPDEST PUSH0 DUP2 CALLDATALOAD SWAP1 POP PUSH2 0x1291 DUP2 PUSH2 0x126D JUMP JUMPDEST SWAP3 SWAP2 POP POP JUMP JUMPDEST PUSH0 PUSH1 0x20 DUP3 DUP5 SUB SLT ISZERO PUSH2 0x12AC JUMPI PUSH2 0x12AB PUSH2 0xD73 JUMP JUMPDEST JUMPDEST PUSH0 PUSH2 0x12B9 DUP5 DUP3 DUP6 ADD PUSH2 0x1283 JUMP JUMPDEST SWAP2 POP POP SWAP3 SWAP2 POP POP JUMP JUMPDEST PUSH2 0x12CB DUP2 PUSH2 0x105E JUMP JUMPDEST DUP2 EQ PUSH2 0x12D5 JUMPI PUSH0 DUP1 REVERT JUMPDEST POP JUMP JUMPDEST PUSH0 DUP2 CALLDATALOAD SWAP1 POP PUSH2 0x12E6 DUP2 PUSH2 0x12C2 JUMP JUMPDEST SWAP3 SWAP2 POP POP JUMP JUMPDEST PUSH0 DUP1 PUSH1 0x40 DUP4 DUP6 SUB SLT ISZERO PUSH2 0x1302 JUMPI PUSH2 0x1301 PUSH2 0xD73 JUMP JUMPDEST JUMPDEST PUSH0 PUSH2 0x130F DUP6 DUP3 DUP7 ADD PUSH2 0x1283 JUMP JUMPDEST SWAP3 POP POP PUSH1 0x20 PUSH2 0x1320 DUP6 DUP3 DUP7 ADD PUSH2 0x12D8 JUMP JUMPDEST SWAP2 POP POP SWAP3 POP SWAP3 SWAP1 POP JUMP JUMPDEST PUSH0 DUP2 SWAP1 POP SWAP3 SWAP2 POP POP JUMP JUMPDEST PUSH0 PUSH2 0x133E DUP3 PUSH2 0xF27 JUMP JUMPDEST PUSH2 0x1348 DUP2 DUP6 PUSH2 0x132A JUMP JUMPDEST SWAP4 POP PUSH2 0x1358 DUP2 DUP6 PUSH1 0x20 DUP7 ADD PUSH2 0xF41 JUMP JUMPDEST DUP1 DUP5 ADD SWAP2 POP POP SWAP3 SWAP2 POP POP JUMP JUMPDEST PUSH0 PUSH2 0x136F DUP3 DUP5 PUSH2 0x1334 JUMP JUMPDEST SWAP2 POP DUP2 SWAP1 POP SWAP3 SWAP2 POP POP JUMP JUMPDEST PUSH32 0x4E487B7100000000000000000000000000000000000000000000000000000000 PUSH0 MSTORE PUSH1 0x32 PUSH1 0x4 MSTORE PUSH1 0x24 PUSH0 REVERT JUMPDEST PUSH32 0x4E487B7100000000000000000000000000000000000000000000000000000000 PUSH0 MSTORE PUSH1 0x22 PUSH1 0x4 MSTORE PUSH1 0x24 PUSH0 REVERT JUMPDEST PUSH0 PUSH1 0x2 DUP3 DIV SWAP1 POP PUSH1 0x1 DUP3 AND DUP1 PUSH2 0x13EB JUMPI PUSH1 0x7F DUP3 AND SWAP2 POP JUMPDEST PUSH1 0x20 DUP3 LT DUP2 SUB PUSH2 0x13FE JUMPI PUSH2 0x13FD PUSH2 0x13A7 JUMP JUMPDEST JUMPDEST POP SWAP2 SWAP1 POP JUMP JUMPDEST PUSH0 DUP3 DUP3 MSTORE PUSH1 0x20 DUP3 ADD SWAP1 POP SWAP3 SWAP2 POP POP JUMP JUMPDEST PUSH32 0x496E76616C696420726563697069656E74206164647265737300000000000000 PUSH0 DUP3 ADD MSTORE POP JUMP JUMPDEST PUSH0 PUSH2 0x1448 PUSH1 0x19 DUP4 PUSH2 0x1404 JUMP JUMPDEST SWAP2 POP PUSH2 0x1453 DUP3 PUSH2 0x1414 JUMP JUMPDEST PUSH1 0x20 DUP3 ADD SWAP1 POP SWAP2 SWAP1 POP JUMP JUMPDEST PUSH0 PUSH1 0x20 DUP3 ADD SWAP1 POP DUP2 DUP2 SUB PUSH0 DUP4 ADD MSTORE PUSH2 0x1475 DUP2 PUSH2 0x143C JUMP JUMPDEST SWAP1 POP SWAP2 SWAP1 POP JUMP JUMPDEST PUSH32 0x416D6F756E74206D7573742062652067726561746572207468616E207A65726F PUSH0 DUP3 ADD MSTORE POP JUMP JUMPDEST PUSH0 PUSH2 0x14B0 PUSH1 0x20 DUP4 PUSH2 0x1404 JUMP JUMPDEST SWAP2 POP PUSH2 0x14BB DUP3 PUSH2 0x147C JUMP JUMPDEST PUSH1 0x20 DUP3 ADD SWAP1 POP SWAP2 SWAP1 POP JUMP JUMPDEST PUSH0 PUSH1 0x20 DUP3 ADD SWAP1 POP DUP2 DUP2 SUB PUSH0 DUP4 ADD MSTORE PUSH2 0x14DD DUP2 PUSH2 0x14A4 JUMP JUMPDEST SWAP1 POP SWAP2 SWAP1 POP JUMP JUMPDEST PUSH0 DUP2 SWAP1 POP SWAP3 SWAP2 POP POP JUMP JUMPDEST POP JUMP JUMPDEST PUSH0 PUSH2 0x14FC PUSH0 DUP4 PUSH2 0x14E4 JUMP JUMPDEST SWAP2 POP PUSH2 0x1507 DUP3 PUSH2 0x14EE JUMP JUMPDEST PUSH0 DUP3 ADD SWAP1 POP SWAP2 SWAP1 POP JUMP JUMPDEST PUSH0 PUSH2 0x151B DUP3 PUSH2 0x14F1 JUMP JUMPDEST SWAP2 POP DUP2 SWAP1 POP SWAP2 SWAP1 POP JUMP JUMPDEST PUSH32 0x5472616E73666572206661696C65640000000000000000000000000000000000 PUSH0 DUP3 ADD MSTORE POP JUMP JUMPDEST PUSH0 PUSH2 0x1559 PUSH1 0xF DUP4 PUSH2 0x1404 JUMP JUMPDEST SWAP2 POP PUSH2 0x1564 DUP3 PUSH2 0x1525 JUMP JUMPDEST PUSH1 0x20 DUP3 ADD SWAP1 POP SWAP2 SWAP1 POP JUMP JUMPDEST PUSH0 PUSH1 0x20 DUP3 ADD SWAP1 POP DUP2 DUP2 SUB PUSH0 DUP4 ADD MSTORE PUSH2 0x1586 DUP2 PUSH2 0x154D JUMP JUMPDEST SWAP1 POP SWAP2 SWAP1 POP JUMP INVALID LOG2 PUSH5 0x6970667358 0x22 SLT KECCAK256 SWAP1 STOP CALLDATACOPY RETURNDATASIZE GAS PUSH6 0x3E576E801926 0xA5 SUB LOG0 0x1F SUB SWAP3 STOP 0xC7 0xB6 SWAP9 0xDF 0xC1 MUL 0xC1 PUSH15 0xEAF57F86C664736F6C634300081900 CALLER "
				},
				"gasEstimates": {
					"creation": {
						"codeDepositCost": "1114200",
						"executionCost": "infinite",
						"totalCost": "infinite"
					},
					"external": {
						"getMyAssignedContracts()": "infinite",
						"getMyOrgContracts(string)": "infinite",
						"makePayment(address,uint256)": "infinite",
						"owner()": "2559",
						"renounceOwnership()": "infinite",
						"transferOwnership(address)": "infinite"
					},
					"internal": {
						"castVote(uint256,enum ContractManagment.VoteType)": "infinite",
						"createContract(string memory,string memory,address,address[] memory,string memory,enum ContractManagment.ContractType,uint256)": "infinite",
						"executeContract(struct ContractManagment.Contract memory,uint256)": "infinite",
						"sealContract(uint256)": "infinite"
					}
				},
				"methodIdentifiers": {
					"getMyAssignedContracts()": "6d3fff27",
					"getMyOrgContracts(string)": "67c7b5d6",
					"makePayment(address,uint256)": "f98cf07c",
					"owner()": "8da5cb5b",
					"renounceOwnership()": "715018a6",
					"transferOwnership(address)": "f2fde38b"
				}
			},
			"storageLayout": {
				"storage": [
					{
						"astId": 8,
						"contract": "contracts/contract-management.sol:ContractManagment",
						"label": "_owner",
						"offset": 0,
						"slot": "0",
						"type": "t_address"
					},
					{
						"astId": 726,
						"contract": "contracts/contract-management.sol:ContractManagment",
						"label": "organizationIds",
						"offset": 0,
						"slot": "1",
						"type": "t_mapping(t_address,t_bool)"
					},
					{
						"astId": 230,
						"contract": "contracts/contract-management.sol:ContractManagment",
						"label": "ContractMgt",
						"offset": 0,
						"slot": "2",
						"type": "t_mapping(t_uint256,t_struct(Contract)225_storage)"
					},
					{
						"astId": 235,
						"contract": "contracts/contract-management.sol:ContractManagment",
						"label": "OrgContracts",
						"offset": 0,
						"slot": "3",
						"type": "t_mapping(t_string_memory_ptr,t_array(t_uint256)dyn_storage)"
					},
					{
						"astId": 240,
						"contract": "contracts/contract-management.sol:ContractManagment",
						"label": "ContractingParties",
						"offset": 0,
						"slot": "4",
						"type": "t_mapping(t_address,t_array(t_uint256)dyn_storage)"
					}
				],
				"types": {
					"t_address": {
						"encoding": "inplace",
						"label": "address",
						"numberOfBytes": "20"
					},
					"t_array(t_uint256)dyn_storage": {
						"base": "t_uint256",
						"encoding": "dynamic_array",
						"label": "uint256[]",
						"numberOfBytes": "32"
					},
					"t_bool": {
						"encoding": "inplace",
						"label": "bool",
						"numberOfBytes": "1"
					},
					"t_enum(ContractState)196": {
						"encoding": "inplace",
						"label": "enum ContractManagment.ContractState",
						"numberOfBytes": "1"
					},
					"t_enum(ContractType)199": {
						"encoding": "inplace",
						"label": "enum ContractManagment.ContractType",
						"numberOfBytes": "1"
					},
					"t_mapping(t_address,t_array(t_uint256)dyn_storage)": {
						"encoding": "mapping",
						"key": "t_address",
						"label": "mapping(address => uint256[])",
						"numberOfBytes": "32",
						"value": "t_array(t_uint256)dyn_storage"
					},
					"t_mapping(t_address,t_bool)": {
						"encoding": "mapping",
						"key": "t_address",
						"label": "mapping(address => bool)",
						"numberOfBytes": "32",
						"value": "t_bool"
					},
					"t_mapping(t_string_memory_ptr,t_array(t_uint256)dyn_storage)": {
						"encoding": "mapping",
						"key": "t_string_memory_ptr",
						"label": "mapping(string => uint256[])",
						"numberOfBytes": "32",
						"value": "t_array(t_uint256)dyn_storage"
					},
					"t_mapping(t_uint256,t_struct(Contract)225_storage)": {
						"encoding": "mapping",
						"key": "t_uint256",
						"label": "mapping(uint256 => struct ContractManagment.Contract)",
						"numberOfBytes": "32",
						"value": "t_struct(Contract)225_storage"
					},
					"t_string_memory_ptr": {
						"encoding": "bytes",
						"label": "string",
						"numberOfBytes": "32"
					},
					"t_string_storage": {
						"encoding": "bytes",
						"label": "string",
						"numberOfBytes": "32"
					},
					"t_struct(Contract)225_storage": {
						"encoding": "inplace",
						"label": "struct ContractManagment.Contract",
						"members": [
							{
								"astId": 204,
								"contract": "contracts/contract-management.sol:ContractManagment",
								"label": "name",
								"offset": 0,
								"slot": "0",
								"type": "t_string_storage"
							},
							{
								"astId": 206,
								"contract": "contracts/contract-management.sol:ContractManagment",
								"label": "terms",
								"offset": 0,
								"slot": "1",
								"type": "t_string_storage"
							},
							{
								"astId": 209,
								"contract": "contracts/contract-management.sol:ContractManagment",
								"label": "contractState",
								"offset": 0,
								"slot": "2",
								"type": "t_enum(ContractState)196"
							},
							{
								"astId": 212,
								"contract": "contracts/contract-management.sol:ContractManagment",
								"label": "contractType",
								"offset": 1,
								"slot": "2",
								"type": "t_enum(ContractType)199"
							},
							{
								"astId": 214,
								"contract": "contracts/contract-management.sol:ContractManagment",
								"label": "numberOfParticipants",
								"offset": 2,
								"slot": "2",
								"type": "t_uint32"
							},
							{
								"astId": 216,
								"contract": "contracts/contract-management.sol:ContractManagment",
								"label": "forVotes",
								"offset": 6,
								"slot": "2",
								"type": "t_uint32"
							},
							{
								"astId": 218,
								"contract": "contracts/contract-management.sol:ContractManagment",
								"label": "againstVotes",
								"offset": 10,
								"slot": "2",
								"type": "t_uint32"
							},
							{
								"astId": 220,
								"contract": "contracts/contract-management.sol:ContractManagment",
								"label": "amount",
								"offset": 0,
								"slot": "3",
								"type": "t_uint256"
							},
							{
								"astId": 222,
								"contract": "contracts/contract-management.sol:ContractManagment",
								"label": "payableUserAddress",
								"offset": 0,
								"slot": "4",
								"type": "t_address"
							},
							{
								"astId": 224,
								"contract": "contracts/contract-management.sol:ContractManagment",
								"label": "payeeAddress",
								"offset": 0,
								"slot": "5",
								"type": "t_address"
							}
						],
						"numberOfBytes": "192"
					},
					"t_uint256": {
						"encoding": "inplace",
						"label": "uint256",
						"numberOfBytes": "32"
					},
					"t_uint32": {
						"encoding": "inplace",
						"label": "uint32",
						"numberOfBytes": "4"
					}
				}
			},
			"userdoc": {
				"kind": "user",
				"methods": {},
				"version": 1
			}
		}
	}
}