{
	"data": {
		"bytecode": {
			"linkReferences": {},
			"object": "6080604052348015600e575f80fd5b5061068c8061001c5f395ff3fe608060405234801561000f575f80fd5b5060043610610029575f3560e01c8063e8f5ceb51461002d575b5f80fd5b61003561004b565b604051610042919061029f565b60405180910390f35b60605f4233446040516020016100639392919061035d565b6040516020818303038152906040528051906020012090506100848161008a565b91505090565b60605f80604067ffffffffffffffff8111156100a9576100a8610399565b5b6040519080825280601f01601f1916602001820160405280156100db5781602001600182028036833780820191505090505b5090505f91505b60208260ff16101561020b575f8260086100fc91906103ff565b6002610108919061056a565b855f1c61011591906105b4565b5f1b9050808260028561012891906103ff565b60ff168151811061013c5761013b6105f5565b5b60200101907effffffffffffffffffffffffffffffffffffffffffffffffffffffffffffff191690815f1a905350600483600861017991906103ff565b6101839190610622565b600261018f919061056a565b855f1c61019c91906105b4565b5f1b9050808260016002866101b191906103ff565b6101bb9190610622565b60ff16815181106101cf576101ce6105f5565b5b60200101907effffffffffffffffffffffffffffffffffffffffffffffffffffffffffffff191690815f1a9053505081806001019250506100e2565b8092505050919050565b5f81519050919050565b5f82825260208201905092915050565b5f5b8381101561024c578082015181840152602081019050610231565b5f8484015250505050565b5f601f19601f8301169050919050565b5f61027182610215565b61027b818561021f565b935061028b81856020860161022f565b61029481610257565b840191505092915050565b5f6020820190508181035f8301526102b78184610267565b905092915050565b5f819050919050565b5f819050919050565b6102e26102dd826102bf565b6102c8565b82525050565b5f73ffffffffffffffffffffffffffffffffffffffff82169050919050565b5f610311826102e8565b9050919050565b5f8160601b9050919050565b5f61032e82610318565b9050919050565b5f61033f82610324565b9050919050565b61035761035282610307565b610335565b82525050565b5f61036882866102d1565b6020820191506103788285610346565b60148201915061038882846102d1565b602082019150819050949350505050565b7f4e487b71000000000000000000000000000000000000000000000000000000005f52604160045260245ffd5b5f60ff82169050919050565b7f4e487b71000000000000000000000000000000000000000000000000000000005f52601160045260245ffd5b5f610409826103c6565b9150610414836103c6565b9250828202610422816103c6565b9150808214610434576104336103d2565b5b5092915050565b5f8160011c9050919050565b5f808291508390505b60018511156104905780860481111561046c5761046b6103d2565b5b600185161561047b5780820291505b80810290506104898561043b565b9450610450565b94509492505050565b5f826104a85760019050610563565b816104b5575f9050610563565b81600181146104cb57600281146104d557610504565b6001915050610563565b60ff8411156104e7576104e66103d2565b5b8360020a9150848211156104fe576104fd6103d2565b5b50610563565b5060208310610133831016604e8410600b84101617156105395782820a905083811115610534576105336103d2565b5b610563565b6105468484846001610447565b9250905081840481111561055d5761055c6103d2565b5b81810290505b9392505050565b5f610574826102bf565b915061057f836103c6565b92506105ac7fffffffffffffffffffffffffffffffffffffffffffffffffffffffffffffffff8484610499565b905092915050565b5f6105be826102bf565b91506105c9836102bf565b92508282026105d7816102bf565b915082820484148315176105ee576105ed6103d2565b5b5092915050565b7f4e487b71000000000000000000000000000000000000000000000000000000005f52603260045260245ffd5b5f61062c826103c6565b9150610637836103c6565b9250828201905060ff8111156106505761064f6103d2565b5b9291505056fea2646970667358221220379202aa8152d361d1763d8ddad21dfb9dabd83cf8cba42002d02010f6d06ca764736f6c63430008190033",
			"opcodes": "PUSH1 0x80 PUSH1 0x40 MSTORE CALLVALUE DUP1 ISZERO PUSH1 0xE JUMPI PUSH0 DUP1 REVERT JUMPDEST POP PUSH2 0x68C DUP1 PUSH2 0x1C PUSH0 CODECOPY PUSH0 RETURN INVALID PUSH1 0x80 PUSH1 0x40 MSTORE CALLVALUE DUP1 ISZERO PUSH2 0xF JUMPI PUSH0 DUP1 REVERT JUMPDEST POP PUSH1 0x4 CALLDATASIZE LT PUSH2 0x29 JUMPI PUSH0 CALLDATALOAD PUSH1 0xE0 SHR DUP1 PUSH4 0xE8F5CEB5 EQ PUSH2 0x2D JUMPI JUMPDEST PUSH0 DUP1 REVERT JUMPDEST PUSH2 0x35 PUSH2 0x4B JUMP JUMPDEST PUSH1 0x40 MLOAD PUSH2 0x42 SWAP2 SWAP1 PUSH2 0x29F JUMP JUMPDEST PUSH1 0x40 MLOAD DUP1 SWAP2 SUB SWAP1 RETURN JUMPDEST PUSH1 0x60 PUSH0 TIMESTAMP CALLER PREVRANDAO PUSH1 0x40 MLOAD PUSH1 0x20 ADD PUSH2 0x63 SWAP4 SWAP3 SWAP2 SWAP1 PUSH2 0x35D JUMP JUMPDEST PUSH1 0x40 MLOAD PUSH1 0x20 DUP2 DUP4 SUB SUB DUP2 MSTORE SWAP1 PUSH1 0x40 MSTORE DUP1 MLOAD SWAP1 PUSH1 0x20 ADD KECCAK256 SWAP1 POP PUSH2 0x84 DUP2 PUSH2 0x8A JUMP JUMPDEST SWAP2 POP POP SWAP1 JUMP JUMPDEST PUSH1 0x60 PUSH0 DUP1 PUSH1 0x40 PUSH8 0xFFFFFFFFFFFFFFFF DUP2 GT ISZERO PUSH2 0xA9 JUMPI PUSH2 0xA8 PUSH2 0x399 JUMP JUMPDEST JUMPDEST PUSH1 0x40 MLOAD SWAP1 DUP1 DUP3 MSTORE DUP1 PUSH1 0x1F ADD PUSH1 0x1F NOT AND PUSH1 0x20 ADD DUP3 ADD PUSH1 0x40 MSTORE DUP1 ISZERO PUSH2 0xDB JUMPI DUP2 PUSH1 0x20 ADD PUSH1 0x1 DUP3 MUL DUP1 CALLDATASIZE DUP4 CALLDATACOPY DUP1 DUP3 ADD SWAP2 POP POP SWAP1 POP JUMPDEST POP SWAP1 POP PUSH0 SWAP2 POP JUMPDEST PUSH1 0x20 DUP3 PUSH1 0xFF AND LT ISZERO PUSH2 0x20B JUMPI PUSH0 DUP3 PUSH1 0x8 PUSH2 0xFC SWAP2 SWAP1 PUSH2 0x3FF JUMP JUMPDEST PUSH1 0x2 PUSH2 0x108 SWAP2 SWAP1 PUSH2 0x56A JUMP JUMPDEST DUP6 PUSH0 SHR PUSH2 0x115 SWAP2 SWAP1 PUSH2 0x5B4 JUMP JUMPDEST PUSH0 SHL SWAP1 POP DUP1 DUP3 PUSH1 0x2 DUP6 PUSH2 0x128 SWAP2 SWAP1 PUSH2 0x3FF JUMP JUMPDEST PUSH1 0xFF AND DUP2 MLOAD DUP2 LT PUSH2 0x13C JUMPI PUSH2 0x13B PUSH2 0x5F5 JUMP JUMPDEST JUMPDEST PUSH1 0x20 ADD ADD SWAP1 PUSH31 0xFFFFFFFFFFFFFFFFFFFFFFFFFFFFFFFFFFFFFFFFFFFFFFFFFFFFFFFFFFFFFF NOT AND SWAP1 DUP2 PUSH0 BYTE SWAP1 MSTORE8 POP PUSH1 0x4 DUP4 PUSH1 0x8 PUSH2 0x179 SWAP2 SWAP1 PUSH2 0x3FF JUMP JUMPDEST PUSH2 0x183 SWAP2 SWAP1 PUSH2 0x622 JUMP JUMPDEST PUSH1 0x2 PUSH2 0x18F SWAP2 SWAP1 PUSH2 0x56A JUMP JUMPDEST DUP6 PUSH0 SHR PUSH2 0x19C SWAP2 SWAP1 PUSH2 0x5B4 JUMP JUMPDEST PUSH0 SHL SWAP1 POP DUP1 DUP3 PUSH1 0x1 PUSH1 0x2 DUP7 PUSH2 0x1B1 SWAP2 SWAP1 PUSH2 0x3FF JUMP JUMPDEST PUSH2 0x1BB SWAP2 SWAP1 PUSH2 0x622 JUMP JUMPDEST PUSH1 0xFF AND DUP2 MLOAD DUP2 LT PUSH2 0x1CF JUMPI PUSH2 0x1CE PUSH2 0x5F5 JUMP JUMPDEST JUMPDEST PUSH1 0x20 ADD ADD SWAP1 PUSH31 0xFFFFFFFFFFFFFFFFFFFFFFFFFFFFFFFFFFFFFFFFFFFFFFFFFFFFFFFFFFFFFF NOT AND SWAP1 DUP2 PUSH0 BYTE SWAP1 MSTORE8 POP POP DUP2 DUP1 PUSH1 0x1 ADD SWAP3 POP POP PUSH2 0xE2 JUMP JUMPDEST DUP1 SWAP3 POP POP POP SWAP2 SWAP1 POP JUMP JUMPDEST PUSH0 DUP2 MLOAD SWAP1 POP SWAP2 SWAP1 POP JUMP JUMPDEST PUSH0 DUP3 DUP3 MSTORE PUSH1 0x20 DUP3 ADD SWAP1 POP SWAP3 SWAP2 POP POP JUMP JUMPDEST PUSH0 JUMPDEST DUP4 DUP2 LT ISZERO PUSH2 0x24C JUMPI DUP1 DUP3 ADD MLOAD DUP2 DUP5 ADD MSTORE PUSH1 0x20 DUP2 ADD SWAP1 POP PUSH2 0x231 JUMP JUMPDEST PUSH0 DUP5 DUP5 ADD MSTORE POP POP POP POP JUMP JUMPDEST PUSH0 PUSH1 0x1F NOT PUSH1 0x1F DUP4 ADD AND SWAP1 POP SWAP2 SWAP1 POP JUMP JUMPDEST PUSH0 PUSH2 0x271 DUP3 PUSH2 0x215 JUMP JUMPDEST PUSH2 0x27B DUP2 DUP6 PUSH2 0x21F JUMP JUMPDEST SWAP4 POP PUSH2 0x28B DUP2 DUP6 PUSH1 0x20 DUP7 ADD PUSH2 0x22F JUMP JUMPDEST PUSH2 0x294 DUP2 PUSH2 0x257 JUMP JUMPDEST DUP5 ADD SWAP2 POP POP SWAP3 SWAP2 POP POP JUMP JUMPDEST PUSH0 PUSH1 0x20 DUP3 ADD SWAP1 POP DUP2 DUP2 SUB PUSH0 DUP4 ADD MSTORE PUSH2 0x2B7 DUP2 DUP5 PUSH2 0x267 JUMP JUMPDEST SWAP1 POP SWAP3 SWAP2 POP POP JUMP JUMPDEST PUSH0 DUP2 SWAP1 POP SWAP2 SWAP1 POP JUMP JUMPDEST PUSH0 DUP2 SWAP1 POP SWAP2 SWAP1 POP JUMP JUMPDEST PUSH2 0x2E2 PUSH2 0x2DD DUP3 PUSH2 0x2BF JUMP JUMPDEST PUSH2 0x2C8 JUMP JUMPDEST DUP3 MSTORE POP POP JUMP JUMPDEST PUSH0 PUSH20 0xFFFFFFFFFFFFFFFFFFFFFFFFFFFFFFFFFFFFFFFF DUP3 AND SWAP1 POP SWAP2 SWAP1 POP JUMP JUMPDEST PUSH0 PUSH2 0x311 DUP3 PUSH2 0x2E8 JUMP JUMPDEST SWAP1 POP SWAP2 SWAP1 POP JUMP JUMPDEST PUSH0 DUP2 PUSH1 0x60 SHL SWAP1 POP SWAP2 SWAP1 POP JUMP JUMPDEST PUSH0 PUSH2 0x32E DUP3 PUSH2 0x318 JUMP JUMPDEST SWAP1 POP SWAP2 SWAP1 POP JUMP JUMPDEST PUSH0 PUSH2 0x33F DUP3 PUSH2 0x324 JUMP JUMPDEST SWAP1 POP SWAP2 SWAP1 POP JUMP JUMPDEST PUSH2 0x357 PUSH2 0x352 DUP3 PUSH2 0x307 JUMP JUMPDEST PUSH2 0x335 JUMP JUMPDEST DUP3 MSTORE POP POP JUMP JUMPDEST PUSH0 PUSH2 0x368 DUP3 DUP7 PUSH2 0x2D1 JUMP JUMPDEST PUSH1 0x20 DUP3 ADD SWAP2 POP PUSH2 0x378 DUP3 DUP6 PUSH2 0x346 JUMP JUMPDEST PUSH1 0x14 DUP3 ADD SWAP2 POP PUSH2 0x388 DUP3 DUP5 PUSH2 0x2D1 JUMP JUMPDEST PUSH1 0x20 DUP3 ADD SWAP2 POP DUP2 SWAP1 POP SWAP5 SWAP4 POP POP POP POP JUMP JUMPDEST PUSH32 0x4E487B7100000000000000000000000000000000000000000000000000000000 PUSH0 MSTORE PUSH1 0x41 PUSH1 0x4 MSTORE PUSH1 0x24 PUSH0 REVERT JUMPDEST PUSH0 PUSH1 0xFF DUP3 AND SWAP1 POP SWAP2 SWAP1 POP JUMP JUMPDEST PUSH32 0x4E487B7100000000000000000000000000000000000000000000000000000000 PUSH0 MSTORE PUSH1 0x11 PUSH1 0x4 MSTORE PUSH1 0x24 PUSH0 REVERT JUMPDEST PUSH0 PUSH2 0x409 DUP3 PUSH2 0x3C6 JUMP JUMPDEST SWAP2 POP PUSH2 0x414 DUP4 PUSH2 0x3C6 JUMP JUMPDEST SWAP3 POP DUP3 DUP3 MUL PUSH2 0x422 DUP2 PUSH2 0x3C6 JUMP JUMPDEST SWAP2 POP DUP1 DUP3 EQ PUSH2 0x434 JUMPI PUSH2 0x433 PUSH2 0x3D2 JUMP JUMPDEST JUMPDEST POP SWAP3 SWAP2 POP POP JUMP JUMPDEST PUSH0 DUP2 PUSH1 0x1 SHR SWAP1 POP SWAP2 SWAP1 POP JUMP JUMPDEST PUSH0 DUP1 DUP3 SWAP2 POP DUP4 SWAP1 POP JUMPDEST PUSH1 0x1 DUP6 GT ISZERO PUSH2 0x490 JUMPI DUP1 DUP7 DIV DUP2 GT ISZERO PUSH2 0x46C JUMPI PUSH2 0x46B PUSH2 0x3D2 JUMP JUMPDEST JUMPDEST PUSH1 0x1 DUP6 AND ISZERO PUSH2 0x47B JUMPI DUP1 DUP3 MUL SWAP2 POP JUMPDEST DUP1 DUP2 MUL SWAP1 POP PUSH2 0x489 DUP6 PUSH2 0x43B JUMP JUMPDEST SWAP5 POP PUSH2 0x450 JUMP JUMPDEST SWAP5 POP SWAP5 SWAP3 POP POP POP JUMP JUMPDEST PUSH0 DUP3 PUSH2 0x4A8 JUMPI PUSH1 0x1 SWAP1 POP PUSH2 0x563 JUMP JUMPDEST DUP2 PUSH2 0x4B5 JUMPI PUSH0 SWAP1 POP PUSH2 0x563 JUMP JUMPDEST DUP2 PUSH1 0x1 DUP2 EQ PUSH2 0x4CB JUMPI PUSH1 0x2 DUP2 EQ PUSH2 0x4D5 JUMPI PUSH2 0x504 JUMP JUMPDEST PUSH1 0x1 SWAP2 POP POP PUSH2 0x563 JUMP JUMPDEST PUSH1 0xFF DUP5 GT ISZERO PUSH2 0x4E7 JUMPI PUSH2 0x4E6 PUSH2 0x3D2 JUMP JUMPDEST JUMPDEST DUP4 PUSH1 0x2 EXP SWAP2 POP DUP5 DUP3 GT ISZERO PUSH2 0x4FE JUMPI PUSH2 0x4FD PUSH2 0x3D2 JUMP JUMPDEST JUMPDEST POP PUSH2 0x563 JUMP JUMPDEST POP PUSH1 0x20 DUP4 LT PUSH2 0x133 DUP4 LT AND PUSH1 0x4E DUP5 LT PUSH1 0xB DUP5 LT AND OR ISZERO PUSH2 0x539 JUMPI DUP3 DUP3 EXP SWAP1 POP DUP4 DUP2 GT ISZERO PUSH2 0x534 JUMPI PUSH2 0x533 PUSH2 0x3D2 JUMP JUMPDEST JUMPDEST PUSH2 0x563 JUMP JUMPDEST PUSH2 0x546 DUP5 DUP5 DUP5 PUSH1 0x1 PUSH2 0x447 JUMP JUMPDEST SWAP3 POP SWAP1 POP DUP2 DUP5 DIV DUP2 GT ISZERO PUSH2 0x55D JUMPI PUSH2 0x55C PUSH2 0x3D2 JUMP JUMPDEST JUMPDEST DUP2 DUP2 MUL SWAP1 POP JUMPDEST SWAP4 SWAP3 POP POP POP JUMP JUMPDEST PUSH0 PUSH2 0x574 DUP3 PUSH2 0x2BF JUMP JUMPDEST SWAP2 POP PUSH2 0x57F DUP4 PUSH2 0x3C6 JUMP JUMPDEST SWAP3 POP PUSH2 0x5AC PUSH32 0xFFFFFFFFFFFFFFFFFFFFFFFFFFFFFFFFFFFFFFFFFFFFFFFFFFFFFFFFFFFFFFFF DUP5 DUP5 PUSH2 0x499 JUMP JUMPDEST SWAP1 POP SWAP3 SWAP2 POP POP JUMP JUMPDEST PUSH0 PUSH2 0x5BE DUP3 PUSH2 0x2BF JUMP JUMPDEST SWAP2 POP PUSH2 0x5C9 DUP4 PUSH2 0x2BF JUMP JUMPDEST SWAP3 POP DUP3 DUP3 MUL PUSH2 0x5D7 DUP2 PUSH2 0x2BF JUMP JUMPDEST SWAP2 POP DUP3 DUP3 DIV DUP5 EQ DUP4 ISZERO OR PUSH2 0x5EE JUMPI PUSH2 0x5ED PUSH2 0x3D2 JUMP JUMPDEST JUMPDEST POP SWAP3 SWAP2 POP POP JUMP JUMPDEST PUSH32 0x4E487B7100000000000000000000000000000000000000000000000000000000 PUSH0 MSTORE PUSH1 0x32 PUSH1 0x4 MSTORE PUSH1 0x24 PUSH0 REVERT JUMPDEST PUSH0 PUSH2 0x62C DUP3 PUSH2 0x3C6 JUMP JUMPDEST SWAP2 POP PUSH2 0x637 DUP4 PUSH2 0x3C6 JUMP JUMPDEST SWAP3 POP DUP3 DUP3 ADD SWAP1 POP PUSH1 0xFF DUP2 GT ISZERO PUSH2 0x650 JUMPI PUSH2 0x64F PUSH2 0x3D2 JUMP JUMPDEST JUMPDEST SWAP3 SWAP2 POP POP JUMP INVALID LOG2 PUSH5 0x6970667358 0x22 SLT KECCAK256 CALLDATACOPY SWAP3 MUL 0xAA DUP2 MSTORE 0xD3 PUSH2 0xD176 RETURNDATASIZE DUP14 0xDA 0xD2 SAR 0xFB SWAP14 0xAB 0xD8 EXTCODECOPY 0xF8 0xCB LOG4 KECCAK256 MUL 0xD0 KECCAK256 LT 0xF6 0xD0 PUSH13 0xA764736F6C6343000819003300 "
		},
		"gasEstimates": {
			"creation": {
				"codeDepositCost": "335200",
				"executionCost": "372",
				"totalCost": "335572"
			},
			"external": {
				"generateUniqueId()": "infinite"
			},
			"internal": {
				"bytes32ToString(bytes32)": "infinite"
			}
		},
		"methodIdentifiers": {
			"generateUniqueId()": "e8f5ceb5"
		}
	},
	"abi": [
		{
			"inputs": [],
			"name": "generateUniqueId",
			"outputs": [
				{
					"internalType": "string",
					"name": "",
					"type": "string"
				}
			],
			"stateMutability": "view",
			"type": "function"
		}
	]
}